{"items":[{"priority_fee":null,"raw_input":"0x5c11d795000000000000000000000000000000000000000000ae80285bb27fed55f0000000000000000000000000000000000000000000000000000000000000006b761800000000000000000000000000000000000000000000000000000000000000a0000000000000000000000000b99a579bac64b6bb9fbabffd1297b703c5df09060000000000000000000000000000000000000000000000000000000060de0f0d000000000000000000000000000000000000000000000000000000000000000300000000000000000000000015874d65e649880c2614e7a480cb7c9a55787ff6000000000000000000000000c02aaa39b223fe8d0a0e5c4f27ead9083c756cc2000000000000000000000000a0b86991c6218b36c1d19d4a2e9eb0ce3606eb48","is_pending_update":null,"result":"pending","hash":"0x4fa11f34c9185cdc9f706f33d24e2ea146e802ea0ed46bd014b43a190b2ce60f","max_fee_per_gas":null,"revert_reason":null,"confirmation_duration":[],"transaction_burnt_fee":null,"type":0,"token_transfers_overflow":null,"confirmations":0,"position":null,"max_priority_fee_per_gas":null,"transaction_tag":null,"created_contract":null,"value":"0","from":{"ens_domain_name":null,"hash":"0xB99A579bAC64b6BB9FbABfFd1297B703C5DF0906","implementations":[],"is_contract":false,"is_scam":false,"is_verified":false,"metadata":null,"name":null,"private_tags":[],"proxy_type":null,"public_tags":[],"reputation":"ok","watchlist_names":[]},"gas_used":null,"status":null,"to":{"ens_domain_name":null,"hash":"0x7a250d5630B4cF539739dF2C5dAcb4c659F2488D","implementations":[],"is_contract":true,"is_scam":false,"is_verified":true,"metadata":{"tags":[{"meta":{"bgColor":"#FFFFFF","projectName":"Uniswap V2","tagUrl":"https://app.klerosscout.eth.limo/#/?registry=Single_Tags&itemdetails=0x21dee62fd8759eac196977676d698320331baf2d86a275f6fd61b587d90cafc8@0x66260c69d03837016d88c9877e61e08ef74c59f2","textColor":"#FF007A","tooltipDescription":"Up-to-date Uniswap V2 Router contract.","tooltipUrl":"https://app.uniswap.org/#/swap","verifiedDomains":["app.thorswap.finance","app.uniswap.org"]},"name":"Uniswap V3: Universal Router","ordinal":10,"slug":"uniswap-v3-universal-router","tagType":"name"},{"meta":{},"name":"DEX","ordinal":0,"slug":"dex","tagType":"generic"},{"meta":{"appID":"uniswap","bgColor":"#FF007A","tagIcon":"https://blockscout-content.s3.amazonaws.com/uniswap.png","tagUrl":"https://uniswap.org/?utm_source=Blockscout","textColor":"#FFFFFF","tooltipDescription":"Trade crypto and NFTs safely on the top DeFi platform. Swapping made simple. Buy and sell crypto on Ethereum, Base, Arbitrum, Polygon, and more.","tooltipTitle":"Uniswap","tooltipUrl":"https://uniswap.org/?utm_source=Blockscout"},"name":"Uniswap V2","ordinal":0,"slug":"uniswap-v2","tagType":"protocol"}]},"name":"UniswapV2Router02","private_tags":[],"proxy_type":null,"public_tags":[],"reputation":"ok","watchlist_names":[]},"authorization_list":[],"method":"swapExactTokensForTokensSupportingFeeOnTransferTokens","fee":{"type":"maximum","value":"10229175000000"},"actions":[],"gas_limit":"309975","gas_price":"33000000","decoded_input":{"method_call":"swapExactTokensForTokensSupportingFeeOnTransferTokens(uint256 amountIn, uint256 amountOutMin, address[] path, address to, uint256 deadline)","method_id":"5c11d795","parameters":[{"name":"amountIn","type":"uint256","value":"210958300000000000000000000"},{"name":"amountOutMin","type":"uint256","value":"7042584"},{"name":"path","type":"address[]","value":["0x15874d65e649880c2614e7a480cb7c9A55787FF6","0xC02aaA39b223FE8D0A0e5C4F27eAD9083C756Cc2","0xA0b86991c6218b36c1d19D4a2e9Eb0cE3606eB48"]},{"name":"to","type":"address","value":"0xB99A579bAC64b6BB9FbABfFd1297B703C5DF0906"},{"name":"deadline","type":"uint256","value":"1625165581"}]},"token_transfers":null,"base_fee_per_gas":null,"timestamp":null,"nonce":5,"historic_exchange_rate":null,"transaction_types":["contract_call"],"exchange_rate":"3887.67","block_number":null,"has_error_in_internal_transactions":null},{"priority_fee":null,"raw_input":"0x18cbafe500000000000000000000000000000000000000000000000025cc40a76c8cb2ae000000000000000000000000000000000000000000000000001c23780ac2726b00000000000000000000000000000000000000000000000000000000000000a00000000000000000000000003d04595a9e7cfabc245489fd49bde1461750ab1b0000000000000000000000000000000000000000000000000000000060b74e890000000000000000000000000000000000000000000000000000000000000002000000000000000000000000ae66bea480f7a6c91f07c58f2aee185883558fb8000000000000000000000000c02aaa39b223fe8d0a0e5c4f27ead9083c756cc2","is_pending_update":null,"result":"pending","hash":"0x1ebba298fbc5d56e57988932960611167d131fcb01231aa60b78a3cf7665bec3","max_fee_per_gas":null,"revert_reason":null,"confirmation_duration":[],"transaction_burnt_fee":null,"type":0,"token_transfers_overflow":null,"confirmations":0,"position":null,"max_priority_fee_per_gas":null,"transaction_tag":null,"created_contract":null,"value":"0","from":{"ens_domain_name":null,"hash":"0x3D04595A9e7cFAbC245489FD49BDE1461750ab1b","implementations":[],"is_contract":false,"is_scam":false,"is_verified":false,"metadata":null,"name":null,"private_tags":[],"proxy_type":null,"public_tags":[],"reputation":"ok","watchlist_names":[]},"gas_used":null,"status":null,"to":{"ens_domain_name":null,"hash":"0x7a250d5630B4cF539739dF2C5dAcb4c659F2488D","implementations":[],"is_contract":true,"is_scam":false,"is_verified":true,"metadata":{"tags":[{"meta":{"bgColor":"#FFFFFF","projectName":"Uniswap V2","tagUrl":"https://app.klerosscout.eth.limo/#/?registry=Single_Tags&itemdetails=0x21dee62fd8759eac196977676d698320331baf2d86a275f6fd61b587d90cafc8@0x66260c69d03837016d88c9877e61e08ef74c59f2","textColor":"#FF007A","tooltipDescription":"Up-to-date Uniswap V2 Router contract.","tooltipUrl":"https://app.uniswap.org/#/swap","verifiedDomains":["app.thorswap.finance","app.uniswap.org"]},"name":"Uniswap V3: Universal Router","ordinal":10,"slug":"uniswap-v3-universal-router","tagType":"name"},{"meta":{},"name":"DEX","ordinal":0,"slug":"dex","tagType":"generic"},{"meta":{"appID":"uniswap","bgColor":"#FF007A","tagIcon":"https://blockscout-content.s3.amazonaws.com/uniswap.png","tagUrl":"https://uniswap.org/?utm_source=Blockscout","textColor":"#FFFFFF","tooltipDescription":"Trade crypto and NFTs safely on the top DeFi platform. Swapping made simple. Buy and sell crypto on Ethereum, Base, Arbitrum, Polygon, and more.","tooltipTitle":"Uniswap","tooltipUrl":"https://uniswap.org/?utm_source=Blockscout"},"name":"Uniswap V2","ordinal":0,"slug":"uniswap-v2","tagType":"protocol"}]},"name":"UniswapV2Router02","private_tags":[],"proxy_type":null,"public_tags":[],"reputation":"ok","watchlist_names":[]},"authorization_list":[],"method":"swapExactTokensForETH","fee":{"type":"maximum","value":"3556997301700"},"actions":[],"gas_limit":"157210","gas_price":"22625770","decoded_input":{"method_call":"swapExactTokensForETH(uint256 amountIn, uint256 amountOutMin, address[] path, address to, uint256 deadline)","method_id":"18cbafe5","parameters":[{"name":"amountIn","type":"uint256","value":"2723622962477183662"},{"name":"amountOutMin","type":"uint256","value":"7920297831461483"},{"name":"path","type":"address[]","value":["0xAE66bEa480f7a6C91F07C58f2AEe185883558fb8","0xC02aaA39b223FE8D0A0e5C4F27eAD9083C756Cc2"]},{"name":"to","type":"address","value":"0x3D04595A9e7cFAbC245489FD49BDE1461750ab1b"},{"name":"deadline","type":"uint256","value":"1622625929"}]},"token_transfers":null,"base_fee_per_gas":null,"timestamp":null,"nonce":5,"historic_exchange_rate":null,"transaction_types":["contract_call"],"exchange_rate":"3887.67","block_number":null,"has_error_in_internal_transactions":null},{"priority_fee":null,"raw_input":"0x7ff36ab5000000000000000000000000000000000000000000073d3a3f818b57fac152890000000000000000000000000000000000000000000000000000000000000080000000000000000000000000d4fcc697200c657ba37bee83401fbac1fcffe9a00000000000000000000000000000000000000000000000000000000060a49b840000000000000000000000000000000000000000000000000000000000000002000000000000000000000000c02aaa39b223fe8d0a0e5c4f27ead9083c756cc2000000000000000000000000761d38e5ddf6ccf6cf7c55759d5210750b5d60f3","is_pending_update":null,"result":"pending","hash":"0xec3ba58eacbca5597a70c601a63350a5ef1f6fd6659c2eb938d5ab0c3cee3f6c","max_fee_per_gas":null,"revert_reason":null,"confirmation_duration":[],"transaction_burnt_fee":null,"type":0,"token_transfers_overflow":null,"confirmations":0,"position":null,"max_priority_fee_per_gas":null,"transaction_tag":null,"created_contract":null,"value":"1000000000000000","from":{"ens_domain_name":null,"hash":"0xD4fCc697200c657bA37bEE83401fbAC1fCFfE9a0","implementations":[],"is_contract":false,"is_scam":false,"is_verified":false,"metadata":null,"name":null,"private_tags":[],"proxy_type":null,"public_tags":[],"reputation":"ok","watchlist_names":[]},"gas_used":null,"status":null,"to":{"ens_domain_name":null,"hash":"0x7a250d5630B4cF539739dF2C5dAcb4c659F2488D","implementations":[],"is_contract":true,"is_scam":false,"is_verified":true,"metadata":{"tags":[{"meta":{"bgColor":"#FFFFFF","projectName":"Uniswap V2","tagUrl":"https://app.klerosscout.eth.limo/#/?registry=Single_Tags&itemdetails=0x21dee62fd8759eac196977676d698320331baf2d86a275f6fd61b587d90cafc8@0x66260c69d03837016d88c9877e61e08ef74c59f2","textColor":"#FF007A","tooltipDescription":"Up-to-date Uniswap V2 Router contract.","tooltipUrl":"https://app.uniswap.org/#/swap","verifiedDomains":["app.thorswap.finance","app.uniswap.org"]},"name":"Uniswap V3: Universal Router","ordinal":10,"slug":"uniswap-v3-universal-router","tagType":"name"},{"meta":{},"name":"DEX","ordinal":0,"slug":"dex","tagType":"generic"},{"meta":{"appID":"uniswap","bgColor":"#FF007A","tagIcon":"https://blockscout-content.s3.amazonaws.com/uniswap.png","tagUrl":"https://uniswap.org/?utm_source=Blockscout","textColor":"#FFFFFF","tooltipDescription":"Trade crypto and NFTs safely on the top DeFi platform. Swapping made simple. Buy and sell crypto on Ethereum, Base, Arbitrum, Polygon, and more.","tooltipTitle":"Uniswap","tooltipUrl":"https://uniswap.org/?utm_source=Blockscout"},"name":"Uniswap V2","ordinal":0,"slug":"uniswap-v2","tagType":"protocol"}]},"name":"UniswapV2Router02","private_tags":[],"proxy_type":null,"public_tags":[],"reputation":"ok","watchlist_names":[]},"authorization_list":[],"method":"swapExactETHForTokens","fee":{"type":"maximum","value":"173234000000"},"actions":[],"gas_limit":"173234","gas_price":"1000000","decoded_input":{"method_call":"swapExactETHForTokens(uint256 amountOutMin, address[] path, address to, uint256 deadline)","method_id":"7ff36ab5","parameters":[{"name":"amountOutMin","type":"uint256","value":"8751619580005634105496201"},{"name":"path","type":"address[]","value":["0xC02aaA39b223FE8D0A0e5C4F27eAD9083C756Cc2","0x761D38e5ddf6ccf6Cf7c55759d5210750B5D60F3"]},{"name":"to","type":"address","value":"0xD4fCc697200c657bA37bEE83401fbAC1fCFfE9a0"},{"name":"deadline","type":"uint256","value":"1621400452"}]},"token_transfers":null,"base_fee_per_gas":null,"timestamp":null,"nonce":0,"historic_exchange_rate":null,"transaction_types":["coin_transfer","contract_call"],"exchange_rate":"3887.67","block_number":null,"has_error_in_internal_transactions":null},{"priority_fee":null,"raw_input":"0x7ff36ab500000000000000000000000000000000000000000000015f223f1453231df6610000000000000000000000000000000000000000000000000000000000000080000000000000000000000000d852190393e2b90c84e4eabfd66683ce14dacbb3000000000000000000000000000000000000000000000000000000006185362b0000000000000000000000000000000000000000000000000000000000000002000000000000000000000000c02aaa39b223fe8d0a0e5c4f27ead9083c756cc20000000000000000000000006226caa1857afbc6dfb6ca66071eb241228031a1","is_pending_update":null,"result":"pending","hash":"0xfe7896db387593c6fb433f02b322987271167e181a3a8c10c87b5cffb6a04db0","max_fee_per_gas":null,"revert_reason":null,"confirmation_duration":[],"transaction_burnt_fee":null,"type":0,"token_transfers_overflow":null,"confirmations":0,"position":null,"max_priority_fee_per_gas":null,"transaction_tag":null,"created_contract":null,"value":"900000000000000","from":{"ens_domain_name":null,"hash":"0xD852190393e2b90C84e4EAbFD66683cE14daCBB3","implementations":[],"is_contract":false,"is_scam":false,"is_verified":false,"metadata":null,"name":null,"private_tags":[],"proxy_type":null,"public_tags":[],"reputation":"ok","watchlist_names":[]},"gas_used":null,"status":null,"to":{"ens_domain_name":null,"hash":"0x7a250d5630B4cF539739dF2C5dAcb4c659F2488D","implementations":[],"is_contract":true,"is_scam":false,"is_verified":true,"metadata":{"tags":[{"meta":{"bgColor":"#FFFFFF","projectName":"Uniswap V2","tagUrl":"https://app.klerosscout.eth.limo/#/?registry=Single_Tags&itemdetails=0x21dee62fd8759eac196977676d698320331baf2d86a275f6fd61b587d90cafc8@0x66260c69d03837016d88c9877e61e08ef74c59f2","textColor":"#FF007A","tooltipDescription":"Up-to-date Uniswap V2 Router contract.","tooltipUrl":"https://app.uniswap.org/#/swap","verifiedDomains":["app.thorswap.finance","app.uniswap.org"]},"name":"Uniswap V3: Universal Router","ordinal":10,"slug":"uniswap-v3-universal-router","tagType":"name"},{"meta":{},"name":"DEX","ordinal":0,"slug":"dex","tagType":"generic"},{"meta":{"appID":"uniswap","bgColor":"#FF007A","tagIcon":"https://blockscout-content.s3.amazonaws.com/uniswap.png","tagUrl":"https://uniswap.org/?utm_source=Blockscout","textColor":"#FFFFFF","tooltipDescription":"Trade crypto and NFTs safely on the top DeFi platform. Swapping made simple. Buy and sell crypto on Ethereum, Base, Arbitrum, Polygon, and more.","tooltipTitle":"Uniswap","tooltipUrl":"https://uniswap.org/?utm_source=Blockscout"},"name":"Uniswap V2","ordinal":0,"slug":"uniswap-v2","tagType":"protocol"}]},"name":"UniswapV2Router02","private_tags":[],"proxy_type":null,"public_tags":[],"reputation":"ok","watchlist_names":[]},"authorization_list":[],"method":"swapExactETHForTokens","fee":{"type":"maximum","value":"159513000000"},"actions":[],"gas_limit":"159513","gas_price":"1000000","decoded_input":{"method_call":"swapExactETHForTokens(uint256 amountOutMin, address[] path, address to, uint256 deadline)","method_id":"7ff36ab5","parameters":[{"name":"amountOutMin","type":"uint256","value":"6477274883340178945633"},{"name":"path","type":"address[]","value":["0xC02aaA39b223FE8D0A0e5C4F27eAD9083C756Cc2","0x6226caA1857AFBc6DFB6ca66071Eb241228031A1"]},{"name":"to","type":"address","value":"0xD852190393e2b90C84e4EAbFD66683cE14daCBB3"},{"name":"deadline","type":"uint256","value":"1636120107"}]},"token_transfers":null,"base_fee_per_gas":null,"timestamp":null,"nonce":0,"historic_exchange_rate":null,"transaction_types":["coin_transfer","contract_call"],"exchange_rate":"3887.67","block_number":null,"has_error_in_internal_transactions":null},{"priority_fee":null,"raw_input":"0x7ff36ab5000000000000000000000000000000000000000000000000069cec9c579c1cbf0000000000000000000000000000000000000000000000000000000000000080000000000000000000000000e2774836f1632764e81df63bda131148fe44e8d1000000000000000000000000000000000000000000000000000000006097c0af0000000000000000000000000000000000000000000000000000000000000002000000000000000000000000c02aaa39b223fe8d0a0e5c4f27ead9083c756cc2000000000000000000000000d5281bb2d1ee94866b03a0fccdd4e900c8cb5091","is_pending_update":null,"result":"pending","hash":"0xd0fcdee40d2fee5729837384c578d42fc191e15b806c3b2c5c32b7a7213f7d9c","max_fee_per_gas":null,"revert_reason":null,"confirmation_duration":[],"transaction_burnt_fee":null,"type":0,"token_transfers_overflow":null,"confirmations":0,"position":null,"max_priority_fee_per_gas":null,"transaction_tag":null,"created_contract":null,"value":"6400000000000000","from":{"ens_domain_name":null,"hash":"0xe2774836f1632764e81DF63Bda131148FE44e8D1","implementations":[],"is_contract":false,"is_scam":false,"is_verified":false,"metadata":null,"name":null,"private_tags":[],"proxy_type":null,"public_tags":[],"reputation":"ok","watchlist_names":[]},"gas_used":null,"status":null,"to":{"ens_domain_name":null,"hash":"0x7a250d5630B4cF539739dF2C5dAcb4c659F2488D","implementations":[],"is_contract":true,"is_scam":false,"is_verified":true,"metadata":{"tags":[{"meta":{"bgColor":"#FFFFFF","projectName":"Uniswap V2","tagUrl":"https://app.klerosscout.eth.limo/#/?registry=Single_Tags&itemdetails=0x21dee62fd8759eac196977676d698320331baf2d86a275f6fd61b587d90cafc8@0x66260c69d03837016d88c9877e61e08ef74c59f2","textColor":"#FF007A","tooltipDescription":"Up-to-date Uniswap V2 Router contract.","tooltipUrl":"https://app.uniswap.org/#/swap","verifiedDomains":["app.thorswap.finance","app.uniswap.org"]},"name":"Uniswap V3: Universal Router","ordinal":10,"slug":"uniswap-v3-universal-router","tagType":"name"},{"meta":{},"name":"DEX","ordinal":0,"slug":"dex","tagType":"generic"},{"meta":{"appID":"uniswap","bgColor":"#FF007A","tagIcon":"https://blockscout-content.s3.amazonaws.com/uniswap.png","tagUrl":"https://uniswap.org/?utm_source=Blockscout","textColor":"#FFFFFF","tooltipDescription":"Trade crypto and NFTs safely on the top DeFi platform. Swapping made simple. Buy and sell crypto on Ethereum, Base, Arbitrum, Polygon, and more.","tooltipTitle":"Uniswap","tooltipUrl":"https://uniswap.org/?utm_source=Blockscout"},"name":"Uniswap V2","ordinal":0,"slug":"uniswap-v2","tagType":"protocol"}]},"name":"UniswapV2Router02","private_tags":[],"proxy_type":null,"public_tags":[],"reputation":"ok","watchlist_names":[]},"authorization_list":[],"method":"swapExactETHForTokens","fee":{"type":"maximum","value":"16399620000"},"actions":[],"gas_limit":"182218","gas_price":"90000","decoded_input":{"method_call":"swapExactETHForTokens(uint256 amountOutMin, address[] path, address to, uint256 deadline)","method_id":"7ff36ab5","parameters":[{"name":"amountOutMin","type":"uint256","value":"476515816823332031"},{"name":"path","type":"address[]","value":["0xC02aaA39b223FE8D0A0e5C4F27eAD9083C756Cc2","0xd5281BB2d1eE94866B03A0fcCDd4e900c8Cb5091"]},{"name":"to","type":"address","value":"0xe2774836f1632764e81DF63Bda131148FE44e8D1"},{"name":"deadline","type":"uint256","value":"1620557999"}]},"token_transfers":null,"base_fee_per_gas":null,"timestamp":null,"nonce":0,"historic_exchange_rate":null,"transaction_types":["coin_transfer","contract_call"],"exchange_rate":"3887.67","block_number":null,"has_error_in_internal_transactions":null},{"priority_fee":null,"raw_input":"0x38ed17390000000000000000000000000000000000000000002116545850052128000000000000000000000000000000000000000000000000000000000012309ce5400000000000000000000000000000000000000000000000000000000000000000a0000000000000000000000000d0a10680a993f1c887fce7f07600624420538e500000000000000000000000000000000000000000000000000000000067028abf000000000000000000000000000000000000000000000000000000000000000200000000000000000000000006d0ebc6588109a31bfddb71c821d7dd08a1e501000000000000000000000000c02aaa39b223fe8d0a0e5c4f27ead9083c756cc2","is_pending_update":null,"result":"pending","hash":"0xad6268fd72d4f93bdfb7c3051134df4602ca78bf8ed65f46a4918396a89497ed","max_fee_per_gas":null,"revert_reason":null,"confirmation_duration":[],"transaction_burnt_fee":null,"type":0,"token_transfers_overflow":null,"confirmations":0,"position":null,"max_priority_fee_per_gas":null,"transaction_tag":null,"created_contract":null,"value":"0","from":{"ens_domain_name":null,"hash":"0x3e9B20f8b14084F09C34115c5Af74D5622Fb96eC","implementations":[],"is_contract":false,"is_scam":false,"is_verified":false,"metadata":null,"name":null,"private_tags":[],"proxy_type":null,"public_tags":[],"reputation":"ok","watchlist_names":[]},"gas_used":null,"status":null,"to":{"ens_domain_name":null,"hash":"0x7a250d5630B4cF539739dF2C5dAcb4c659F2488D","implementations":[],"is_contract":true,"is_scam":false,"is_verified":true,"metadata":{"tags":[{"meta":{"bgColor":"#FFFFFF","projectName":"Uniswap V2","tagUrl":"https://app.klerosscout.eth.limo/#/?registry=Single_Tags&itemdetails=0x21dee62fd8759eac196977676d698320331baf2d86a275f6fd61b587d90cafc8@0x66260c69d03837016d88c9877e61e08ef74c59f2","textColor":"#FF007A","tooltipDescription":"Up-to-date Uniswap V2 Router contract.","tooltipUrl":"https://app.uniswap.org/#/swap","verifiedDomains":["app.thorswap.finance","app.uniswap.org"]},"name":"Uniswap V3: Universal Router","ordinal":10,"slug":"uniswap-v3-universal-router","tagType":"name"},{"meta":{},"name":"DEX","ordinal":0,"slug":"dex","tagType":"generic"},{"meta":{"appID":"uniswap","bgColor":"#FF007A","tagIcon":"https://blockscout-content.s3.amazonaws.com/uniswap.png","tagUrl":"https://uniswap.org/?utm_source=Blockscout","textColor":"#FFFFFF","tooltipDescription":"Trade crypto and NFTs safely on the top DeFi platform. Swapping made simple. Buy and sell crypto on Ethereum, Base, Arbitrum, Polygon, and more.","tooltipTitle":"Uniswap","tooltipUrl":"https://uniswap.org/?utm_source=Blockscout"},"name":"Uniswap V2","ordinal":0,"slug":"uniswap-v2","tagType":"protocol"}]},"name":"UniswapV2Router02","private_tags":[],"proxy_type":null,"public_tags":[],"reputation":"ok","watchlist_names":[]},"authorization_list":[],"method":"swapExactTokensForTokens","fee":{"type":"maximum","value":"400000000000"},"actions":[],"gas_limit":"200000","gas_price":"2000000","decoded_input":{"method_call":"swapExactTokensForTokens(uint256 amountIn, uint256 amountOutMin, address[] path, address to, uint256 deadline)","method_id":"38ed1739","parameters":[{"name":"amountIn","type":"uint256","value":"40000000000000000000000000"},{"name":"amountOutMin","type":"uint256","value":"20000000000000"},{"name":"path","type":"address[]","value":["0x06D0eBC6588109A31bfDDB71C821D7DD08A1e501","0xC02aaA39b223FE8D0A0e5C4F27eAD9083C756Cc2"]},{"name":"to","type":"address","value":"0xD0A10680A993F1c887fCE7F07600624420538E50"},{"name":"deadline","type":"uint256","value":"1728219839"}]},"token_transfers":null,"base_fee_per_gas":null,"timestamp":null,"nonce":361,"historic_exchange_rate":null,"transaction_types":["contract_call"],"exchange_rate":"3887.67","block_number":null,"has_error_in_internal_transactions":null},{"priority_fee":null,"raw_input":"0x38ed1739000000000000000000000000000000000000000000000000000009184e72a000000000000000000000000000000000000000000000000000000012309ce5400000000000000000000000000000000000000000000000000000000000000000a0000000000000000000000000d0a10680a993f1c887fce7f07600624420538e50000000000000000000000000000000000000000000000000000000006702890f000000000000000000000000000000000000000000000000000000000000000200000000000000000000000006d0ebc6588109a31bfddb71c821d7dd08a1e501000000000000000000000000c02aaa39b223fe8d0a0e5c4f27ead9083c756cc2","is_pending_update":null,"result":"pending","hash":"0xf0bf70b59456e537738505f5bf4c3c3ad46abdcacdb8c35a78ba6c47d17f4bea","max_fee_per_gas":null,"revert_reason":null,"confirmation_duration":[],"transaction_burnt_fee":null,"type":0,"token_transfers_overflow":null,"confirmations":0,"position":null,"max_priority_fee_per_gas":null,"transaction_tag":null,"created_contract":null,"value":"0","from":{"ens_domain_name":null,"hash":"0x3e9B20f8b14084F09C34115c5Af74D5622Fb96eC","implementations":[],"is_contract":false,"is_scam":false,"is_verified":false,"metadata":null,"name":null,"private_tags":[],"proxy_type":null,"public_tags":[],"reputation":"ok","watchlist_names":[]},"gas_used":null,"status":null,"to":{"ens_domain_name":null,"hash":"0x7a250d5630B4cF539739dF2C5dAcb4c659F2488D","implementations":[],"is_contract":true,"is_scam":false,"is_verified":true,"metadata":{"tags":[{"meta":{"bgColor":"#FFFFFF","projectName":"Uniswap V2","tagUrl":"https://app.klerosscout.eth.limo/#/?registry=Single_Tags&itemdetails=0x21dee62fd8759eac196977676d698320331baf2d86a275f6fd61b587d90cafc8@0x66260c69d03837016d88c9877e61e08ef74c59f2","textColor":"#FF007A","tooltipDescription":"Up-to-date Uniswap V2 Router contract.","tooltipUrl":"https://app.uniswap.org/#/swap","verifiedDomains":["app.thorswap.finance","app.uniswap.org"]},"name":"Uniswap V3: Universal Router","ordinal":10,"slug":"uniswap-v3-universal-router","tagType":"name"},{"meta":{},"name":"DEX","ordinal":0,"slug":"dex","tagType":"generic"},{"meta":{"appID":"uniswap","bgColor":"#FF007A","tagIcon":"https://blockscout-content.s3.amazonaws.com/uniswap.png","tagUrl":"https://uniswap.org/?utm_source=Blockscout","textColor":"#FFFFFF","tooltipDescription":"Trade crypto and NFTs safely on the top DeFi platform. Swapping made simple. Buy and sell crypto on Ethereum, Base, Arbitrum, Polygon, and more.","tooltipTitle":"Uniswap","tooltipUrl":"https://uniswap.org/?utm_source=Blockscout"},"name":"Uniswap V2","ordinal":0,"slug":"uniswap-v2","tagType":"protocol"}]},"name":"UniswapV2Router02","private_tags":[],"proxy_type":null,"public_tags":[],"reputation":"ok","watchlist_names":[]},"authorization_list":[],"method":"swapExactTokensForTokens","fee":{"type":"maximum","value":"24000000000"},"actions":[],"gas_limit":"200000","gas_price":"120000","decoded_input":{"method_call":"swapExactTokensForTokens(uint256 amountIn, uint256 amountOutMin, address[] path, address to, uint256 deadline)","method_id":"38ed1739","parameters":[{"name":"amountIn","type":"uint256","value":"10000000000000"},{"name":"amountOutMin","type":"uint256","value":"20000000000000"},{"name":"path","type":"address[]","value":["0x06D0eBC6588109A31bfDDB71C821D7DD08A1e501","0xC02aaA39b223FE8D0A0e5C4F27eAD9083C756Cc2"]},{"name":"to","type":"address","value":"0xD0A10680A993F1c887fCE7F07600624420538E50"},{"name":"deadline","type":"uint256","value":"1728219407"}]},"token_transfers":null,"base_fee_per_gas":null,"timestamp":null,"nonce":362,"historic_exchange_rate":null,"transaction_types":["contract_call"],"exchange_rate":"3887.67","block_number":null,"has_error_in_internal_transactions":null},{"priority_fee":null,"raw_input":"0xfb3bdb410000000000000000000000000000000000000000000000337fe5feaf2d1800000000000000000000000000000000000000000000000000000000000000000080000000000000000000000000cfa0811bdbcb58da1faca798f106df84b28da98f0000000000000000000000000000000000000000000000000000000060b22e9f0000000000000000000000000000000000000000000000000000000000000002000000000000000000000000c02aaa39b223fe8d0a0e5c4f27ead9083c756cc2000000000000000000000000348b7f3106b5da47405332534d06069ff9ce4d1b","is_pending_update":null,"result":"pending","hash":"0x0a170f2949b7094f3cdcdb2843f20001a8948f6a4669c2ef002a3efa61d2d434","max_fee_per_gas":null,"revert_reason":null,"confirmation_duration":[],"transaction_burnt_fee":null,"type":0,"token_transfers_overflow":null,"confirmations":0,"position":null,"max_priority_fee_per_gas":null,"transaction_tag":null,"created_contract":null,"value":"21294782885439","from":{"ens_domain_name":null,"hash":"0xcfA0811bDbcb58DA1FaCa798f106dF84B28DA98F","implementations":[],"is_contract":false,"is_scam":false,"is_verified":false,"metadata":null,"name":null,"private_tags":[],"proxy_type":null,"public_tags":[],"reputation":"ok","watchlist_names":[]},"gas_used":null,"status":null,"to":{"ens_domain_name":null,"hash":"0x7a250d5630B4cF539739dF2C5dAcb4c659F2488D","implementations":[],"is_contract":true,"is_scam":false,"is_verified":true,"metadata":{"tags":[{"meta":{"bgColor":"#FFFFFF","projectName":"Uniswap V2","tagUrl":"https://app.klerosscout.eth.limo/#/?registry=Single_Tags&itemdetails=0x21dee62fd8759eac196977676d698320331baf2d86a275f6fd61b587d90cafc8@0x66260c69d03837016d88c9877e61e08ef74c59f2","textColor":"#FF007A","tooltipDescription":"Up-to-date Uniswap V2 Router contract.","tooltipUrl":"https://app.uniswap.org/#/swap","verifiedDomains":["app.thorswap.finance","app.uniswap.org"]},"name":"Uniswap V3: Universal Router","ordinal":10,"slug":"uniswap-v3-universal-router","tagType":"name"},{"meta":{},"name":"DEX","ordinal":0,"slug":"dex","tagType":"generic"},{"meta":{"appID":"uniswap","bgColor":"#FF007A","tagIcon":"https://blockscout-content.s3.amazonaws.com/uniswap.png","tagUrl":"https://uniswap.org/?utm_source=Blockscout","textColor":"#FFFFFF","tooltipDescription":"Trade crypto and NFTs safely on the top DeFi platform. Swapping made simple. Buy and sell crypto on Ethereum, Base, Arbitrum, Polygon, and more.","tooltipTitle":"Uniswap","tooltipUrl":"https://uniswap.org/?utm_source=Blockscout"},"name":"Uniswap V2","ordinal":0,"slug":"uniswap-v2","tagType":"protocol"}]},"name":"UniswapV2Router02","private_tags":[],"proxy_type":null,"public_tags":[],"reputation":"ok","watchlist_names":[]},"authorization_list":[],"method":"swapETHForExactTokens","fee":{"type":"maximum","value":"6204698905865"},"actions":[],"gas_limit":"278371","gas_price":"22289315","decoded_input":{"method_call":"swapETHForExactTokens(uint256 amountOut, address[] path, address to, uint256 deadline)","method_id":"fb3bdb41","parameters":[{"name":"amountOut","type":"uint256","value":"950000000000000000000"},{"name":"path","type":"address[]","value":["0xC02aaA39b223FE8D0A0e5C4F27eAD9083C756Cc2","0x348B7f3106B5Da47405332534d06069fF9CE4d1B"]},{"name":"to","type":"address","value":"0xcfA0811bDbcb58DA1FaCa798f106dF84B28DA98F"},{"name":"deadline","type":"uint256","value":"1622290079"}]},"token_transfers":null,"base_fee_per_gas":null,"timestamp":null,"nonce":2,"historic_exchange_rate":null,"transaction_types":["coin_transfer","contract_call"],"exchange_rate":"3887.67","block_number":null,"has_error_in_internal_transactions":null},{"priority_fee":null,"raw_input":"0x18cbafe500000000000000000000000000000000000000000007f3450c1021bc7ef7d07e000000000000000000000000000000000000000000000000007049275709ac5300000000000000000000000000000000000000000000000000000000000000a0000000000000000000000000d1b7f2ba1981a894aae03483a61f026dab45a12c000000000000000000000000000000000000000000000000000000006101483d00000000000000000000000000000000000000000000000000000000000000020000000000000000000000008e6cd950ad6ba651f6dd608dc70e5886b1aa6b24000000000000000000000000c02aaa39b223fe8d0a0e5c4f27ead9083c756cc2","is_pending_update":null,"result":"pending","hash":"0x7552e3d3ba737e3cd48b5969160155099c0a549977943be650d0e21f6ba0aa89","max_fee_per_gas":null,"revert_reason":null,"confirmation_duration":[],"transaction_burnt_fee":null,"type":0,"token_transfers_overflow":null,"confirmations":0,"position":null,"max_priority_fee_per_gas":null,"transaction_tag":null,"created_contract":null,"value":"0","from":{"ens_domain_name":null,"hash":"0xd1B7F2bA1981a894AAE03483a61F026DAB45A12c","implementations":[],"is_contract":false,"is_scam":false,"is_verified":false,"metadata":null,"name":null,"private_tags":[],"proxy_type":null,"public_tags":[],"reputation":"ok","watchlist_names":[]},"gas_used":null,"status":null,"to":{"ens_domain_name":null,"hash":"0x7a250d5630B4cF539739dF2C5dAcb4c659F2488D","implementations":[],"is_contract":true,"is_scam":false,"is_verified":true,"metadata":{"tags":[{"meta":{"bgColor":"#FFFFFF","projectName":"Uniswap V2","tagUrl":"https://app.klerosscout.eth.limo/#/?registry=Single_Tags&itemdetails=0x21dee62fd8759eac196977676d698320331baf2d86a275f6fd61b587d90cafc8@0x66260c69d03837016d88c9877e61e08ef74c59f2","textColor":"#FF007A","tooltipDescription":"Up-to-date Uniswap V2 Router contract.","tooltipUrl":"https://app.uniswap.org/#/swap","verifiedDomains":["app.thorswap.finance","app.uniswap.org"]},"name":"Uniswap V3: Universal Router","ordinal":10,"slug":"uniswap-v3-universal-router","tagType":"name"},{"meta":{},"name":"DEX","ordinal":0,"slug":"dex","tagType":"generic"},{"meta":{"appID":"uniswap","bgColor":"#FF007A","tagIcon":"https://blockscout-content.s3.amazonaws.com/uniswap.png","tagUrl":"https://uniswap.org/?utm_source=Blockscout","textColor":"#FFFFFF","tooltipDescription":"Trade crypto and NFTs safely on the top DeFi platform. Swapping made simple. Buy and sell crypto on Ethereum, Base, Arbitrum, Polygon, and more.","tooltipTitle":"Uniswap","tooltipUrl":"https://uniswap.org/?utm_source=Blockscout"},"name":"Uniswap V2","ordinal":0,"slug":"uniswap-v2","tagType":"protocol"}]},"name":"UniswapV2Router02","private_tags":[],"proxy_type":null,"public_tags":[],"reputation":"ok","watchlist_names":[]},"authorization_list":[],"method":"swapExactTokensForETH","fee":{"type":"maximum","value":"190216400000000"},"actions":[],"gas_limit":"172924","gas_price":"1100000000","decoded_input":{"method_call":"swapExactTokensForETH(uint256 amountIn, uint256 amountOutMin, address[] path, address to, uint256 deadline)","method_id":"18cbafe5","parameters":[{"name":"amountIn","type":"uint256","value":"9611289487212635519176830"},{"name":"amountOutMin","type":"uint256","value":"31605630704397395"},{"name":"path","type":"address[]","value":["0x8E6cd950Ad6ba651F6DD608Dc70e5886B1AA6B24","0xC02aaA39b223FE8D0A0e5C4F27eAD9083C756Cc2"]},{"name":"to","type":"address","value":"0xd1B7F2bA1981a894AAE03483a61F026DAB45A12c"},{"name":"deadline","type":"uint256","value":"1627473981"}]},"token_transfers":null,"base_fee_per_gas":null,"timestamp":null,"nonce":8,"historic_exchange_rate":null,"transaction_types":["contract_call"],"exchange_rate":"3887.67","block_number":null,"has_error_in_internal_transactions":null},{"priority_fee":null,"raw_input":"0x18cbafe500000000000000000000000000000000000000000007f3450c1021bc7ef7d07e00000000000000000000000000000000000000000000000000773682a8d23bbb00000000000000000000000000000000000000000000000000000000000000a0000000000000000000000000d1b7f2ba1981a894aae03483a61f026dab45a12c0000000000000000000000000000000000000000000000000000000061011be900000000000000000000000000000000000000000000000000000000000000020000000000000000000000008e6cd950ad6ba651f6dd608dc70e5886b1aa6b24000000000000000000000000c02aaa39b223fe8d0a0e5c4f27ead9083c756cc2","is_pending_update":null,"result":"pending","hash":"0x788160e8153170c8e3d6c2383f14dde8af0607aa1895e35fc52e7e9d83ebbfe1","max_fee_per_gas":null,"revert_reason":null,"confirmation_duration":[],"transaction_burnt_fee":null,"type":0,"token_transfers_overflow":null,"confirmations":0,"position":null,"max_priority_fee_per_gas":null,"transaction_tag":null,"created_contract":null,"value":"0","from":{"ens_domain_name":null,"hash":"0xd1B7F2bA1981a894AAE03483a61F026DAB45A12c","implementations":[],"is_contract":false,"is_scam":false,"is_verified":false,"metadata":null,"name":null,"private_tags":[],"proxy_type":null,"public_tags":[],"reputation":"ok","watchlist_names":[]},"gas_used":null,"status":null,"to":{"ens_domain_name":null,"hash":"0x7a250d5630B4cF539739dF2C5dAcb4c659F2488D","implementations":[],"is_contract":true,"is_scam":false,"is_verified":true,"metadata":{"tags":[{"meta":{"bgColor":"#FFFFFF","projectName":"Uniswap V2","tagUrl":"https://app.klerosscout.eth.limo/#/?registry=Single_Tags&itemdetails=0x21dee62fd8759eac196977676d698320331baf2d86a275f6fd61b587d90cafc8@0x66260c69d03837016d88c9877e61e08ef74c59f2","textColor":"#FF007A","tooltipDescription":"Up-to-date Uniswap V2 Router contract.","tooltipUrl":"https://app.uniswap.org/#/swap","verifiedDomains":["app.thorswap.finance","app.uniswap.org"]},"name":"Uniswap V3: Universal Router","ordinal":10,"slug":"uniswap-v3-universal-router","tagType":"name"},{"meta":{},"name":"DEX","ordinal":0,"slug":"dex","tagType":"generic"},{"meta":{"appID":"uniswap","bgColor":"#FF007A","tagIcon":"https://blockscout-content.s3.amazonaws.com/uniswap.png","tagUrl":"https://uniswap.org/?utm_source=Blockscout","textColor":"#FFFFFF","tooltipDescription":"Trade crypto and NFTs safely on the top DeFi platform. Swapping made simple. Buy and sell crypto on Ethereum, Base, Arbitrum, Polygon, and more.","tooltipTitle":"Uniswap","tooltipUrl":"https://uniswap.org/?utm_source=Blockscout"},"name":"Uniswap V2","ordinal":0,"slug":"uniswap-v2","tagType":"protocol"}]},"name":"UniswapV2Router02","private_tags":[],"proxy_type":null,"public_tags":[],"reputation":"ok","watchlist_names":[]},"authorization_list":[],"method":"swapExactTokensForETH","fee":{"type":"maximum","value":"3988165500000000"},"actions":[],"gas_limit":"160425","gas_price":"24860000000","decoded_input":{"method_call":"swapExactTokensForETH(uint256 amountIn, uint256 amountOutMin, address[] path, address to, uint256 deadline)","method_id":"18cbafe5","parameters":[{"name":"amountIn","type":"uint256","value":"9611289487212635519176830"},{"name":"amountOutMin","type":"uint256","value":"33555457034566587"},{"name":"path","type":"address[]","value":["0x8E6cd950Ad6ba651F6DD608Dc70e5886B1AA6B24","0xC02aaA39b223FE8D0A0e5C4F27eAD9083C756Cc2"]},{"name":"to","type":"address","value":"0xd1B7F2bA1981a894AAE03483a61F026DAB45A12c"},{"name":"deadline","type":"uint256","value":"1627462633"}]},"token_transfers":null,"base_fee_per_gas":null,"timestamp":null,"nonce":6,"historic_exchange_rate":null,"transaction_types":["contract_call"],"exchange_rate":"3887.67","block_number":null,"has_error_in_internal_transactions":null},{"priority_fee":null,"raw_input":"0x18cbafe500000000000000000000000000000000000000000007f3450c1021bc7ef7d07e0000000000000000000000000000000000000000000000000076d39b204f268800000000000000000000000000000000000000000000000000000000000000a0000000000000000000000000d1b7f2ba1981a894aae03483a61f026dab45a12c000000000000000000000000000000000000000000000000000000006101180d00000000000000000000000000000000000000000000000000000000000000020000000000000000000000008e6cd950ad6ba651f6dd608dc70e5886b1aa6b24000000000000000000000000c02aaa39b223fe8d0a0e5c4f27ead9083c756cc2","is_pending_update":null,"result":"pending","hash":"0xc00840ac147530fac538c8929f8d2030fe5157de434b78a72fec032015eedfd6","max_fee_per_gas":null,"revert_reason":null,"confirmation_duration":[],"transaction_burnt_fee":null,"type":0,"token_transfers_overflow":null,"confirmations":0,"position":null,"max_priority_fee_per_gas":null,"transaction_tag":null,"created_contract":null,"value":"0","from":{"ens_domain_name":null,"hash":"0xd1B7F2bA1981a894AAE03483a61F026DAB45A12c","implementations":[],"is_contract":false,"is_scam":false,"is_verified":false,"metadata":null,"name":null,"private_tags":[],"proxy_type":null,"public_tags":[],"reputation":"ok","watchlist_names":[]},"gas_used":null,"status":null,"to":{"ens_domain_name":null,"hash":"0x7a250d5630B4cF539739dF2C5dAcb4c659F2488D","implementations":[],"is_contract":true,"is_scam":false,"is_verified":true,"metadata":{"tags":[{"meta":{"bgColor":"#FFFFFF","projectName":"Uniswap V2","tagUrl":"https://app.klerosscout.eth.limo/#/?registry=Single_Tags&itemdetails=0x21dee62fd8759eac196977676d698320331baf2d86a275f6fd61b587d90cafc8@0x66260c69d03837016d88c9877e61e08ef74c59f2","textColor":"#FF007A","tooltipDescription":"Up-to-date Uniswap V2 Router contract.","tooltipUrl":"https://app.uniswap.org/#/swap","verifiedDomains":["app.thorswap.finance","app.uniswap.org"]},"name":"Uniswap V3: Universal Router","ordinal":10,"slug":"uniswap-v3-universal-router","tagType":"name"},{"meta":{},"name":"DEX","ordinal":0,"slug":"dex","tagType":"generic"},{"meta":{"appID":"uniswap","bgColor":"#FF007A","tagIcon":"https://blockscout-content.s3.amazonaws.com/uniswap.png","tagUrl":"https://uniswap.org/?utm_source=Blockscout","textColor":"#FFFFFF","tooltipDescription":"Trade crypto and NFTs safely on the top DeFi platform. Swapping made simple. Buy and sell crypto on Ethereum, Base, Arbitrum, Polygon, and more.","tooltipTitle":"Uniswap","tooltipUrl":"https://uniswap.org/?utm_source=Blockscout"},"name":"Uniswap V2","ordinal":0,"slug":"uniswap-v2","tagType":"protocol"}]},"name":"UniswapV2Router02","private_tags":[],"proxy_type":null,"public_tags":[],"reputation":"ok","watchlist_names":[]},"authorization_list":[],"method":"swapExactTokensForETH","fee":{"type":"maximum","value":"5294025000000"},"actions":[],"gas_limit":"160425","gas_price":"33000000","decoded_input":{"method_call":"swapExactTokensForETH(uint256 amountIn, uint256 amountOutMin, address[] path, address to, uint256 deadline)","method_id":"18cbafe5","parameters":[{"name":"amountIn","type":"uint256","value":"9611289487212635519176830"},{"name":"amountOutMin","type":"uint256","value":"33446710467307144"},{"name":"path","type":"address[]","value":["0x8E6cd950Ad6ba651F6DD608Dc70e5886B1AA6B24","0xC02aaA39b223FE8D0A0e5C4F27eAD9083C756Cc2"]},{"name":"to","type":"address","value":"0xd1B7F2bA1981a894AAE03483a61F026DAB45A12c"},{"name":"deadline","type":"uint256","value":"1627461645"}]},"token_transfers":null,"base_fee_per_gas":null,"timestamp":null,"nonce":5,"historic_exchange_rate":null,"transaction_types":["contract_call"],"exchange_rate":"3887.67","block_number":null,"has_error_in_internal_transactions":null},{"priority_fee":null,"raw_input":"0x38ed17390000000000000000000000000000000000000000000000004b1ba2cd555df800000000000000000000000000000000000000000000000000030d98d59a96000000000000000000000000000000000000000000000000000000000000000000a000000000000000000000000052361045504c08c351d2be2e6812b4ff34dae0c0000000000000000000000000000000000000000000000000000000006703acdb0000000000000000000000000000000000000000000000000000000000000003000000000000000000000000c02aaa39b223fe8d0a0e5c4f27ead9083c756cc2000000000000000000000000c02aaa39b223fe8d0a0e5c4f27ead9083c756cc2000000000000000000000000f7168c8abb0ff80116413a8d95396bbdc318a3ff","is_pending_update":null,"result":"pending","hash":"0x72c3739d214bd630d7062f0c3199cd007233debcde03ae028a41b2eb33b6d5d5","max_fee_per_gas":null,"revert_reason":null,"confirmation_duration":[],"transaction_burnt_fee":null,"type":0,"token_transfers_overflow":null,"confirmations":0,"position":null,"max_priority_fee_per_gas":null,"transaction_tag":null,"created_contract":null,"value":"0","from":{"ens_domain_name":null,"hash":"0xd9e3CCBE0Cf6C9Ee7289f71fa6F79fc281EA600A","implementations":[],"is_contract":false,"is_scam":false,"is_verified":false,"metadata":null,"name":null,"private_tags":[],"proxy_type":null,"public_tags":[],"reputation":"ok","watchlist_names":[]},"gas_used":null,"status":null,"to":{"ens_domain_name":null,"hash":"0x7a250d5630B4cF539739dF2C5dAcb4c659F2488D","implementations":[],"is_contract":true,"is_scam":false,"is_verified":true,"metadata":{"tags":[{"meta":{"bgColor":"#FFFFFF","projectName":"Uniswap V2","tagUrl":"https://app.klerosscout.eth.limo/#/?registry=Single_Tags&itemdetails=0x21dee62fd8759eac196977676d698320331baf2d86a275f6fd61b587d90cafc8@0x66260c69d03837016d88c9877e61e08ef74c59f2","textColor":"#FF007A","tooltipDescription":"Up-to-date Uniswap V2 Router contract.","tooltipUrl":"https://app.uniswap.org/#/swap","verifiedDomains":["app.thorswap.finance","app.uniswap.org"]},"name":"Uniswap V3: Universal Router","ordinal":10,"slug":"uniswap-v3-universal-router","tagType":"name"},{"meta":{},"name":"DEX","ordinal":0,"slug":"dex","tagType":"generic"},{"meta":{"appID":"uniswap","bgColor":"#FF007A","tagIcon":"https://blockscout-content.s3.amazonaws.com/uniswap.png","tagUrl":"https://uniswap.org/?utm_source=Blockscout","textColor":"#FFFFFF","tooltipDescription":"Trade crypto and NFTs safely on the top DeFi platform. Swapping made simple. Buy and sell crypto on Ethereum, Base, Arbitrum, Polygon, and more.","tooltipTitle":"Uniswap","tooltipUrl":"https://uniswap.org/?utm_source=Blockscout"},"name":"Uniswap V2","ordinal":0,"slug":"uniswap-v2","tagType":"protocol"}]},"name":"UniswapV2Router02","private_tags":[],"proxy_type":null,"public_tags":[],"reputation":"ok","watchlist_names":[]},"authorization_list":[],"method":"swapExactTokensForTokens","fee":{"type":"maximum","value":"2500000000000"},"actions":[],"gas_limit":"250000","gas_price":"10000000","decoded_input":{"method_call":"swapExactTokensForTokens(uint256 amountIn, uint256 amountOutMin, address[] path, address to, uint256 deadline)","method_id":"38ed1739","parameters":[{"name":"amountIn","type":"uint256","value":"5412098380000000000"},{"name":"amountOutMin","type":"uint256","value":"220000000000000000"},{"name":"path","type":"address[]","value":["0xC02aaA39b223FE8D0A0e5C4F27eAD9083C756Cc2","0xC02aaA39b223FE8D0A0e5C4F27eAD9083C756Cc2","0xf7168c8AbB0ff80116413a8d95396BBdC318A3fF"]},{"name":"to","type":"address","value":"0x52361045504c08C351d2bE2E6812B4fF34Dae0c0"},{"name":"deadline","type":"uint256","value":"1728294107"}]},"token_transfers":null,"base_fee_per_gas":null,"timestamp":null,"nonce":1,"historic_exchange_rate":null,"transaction_types":["contract_call"],"exchange_rate":"3887.67","block_number":null,"has_error_in_internal_transactions":null},{"priority_fee":null,"raw_input":"0x38ed17390000000000000000000000000000000000000000000000000000000000000000000000000000000000000000000000000000000000000000000000000000000000000000000000000000000000000000000000000000000000000000000000a0000000000000000000000000f1b4df03d2f262fd32c31f49fd18a42b5a59944b000000000000000000000000000000000000000000000000000000006675d7f50000000000000000000000000000000000000000000000000000000000000002000000000000000000000000f08b4a5da092d60d6189a5f434c4e79c8dfe4cb0000000000000000000000000c02aaa39b223fe8d0a0e5c4f27ead9083c756cc2","is_pending_update":null,"result":"pending","hash":"0x6029ea0c529809a6639dc9a50d83fcbc7fd775a91ea48b9945533165949b78f2","max_fee_per_gas":"210","revert_reason":null,"confirmation_duration":[],"transaction_burnt_fee":null,"type":2,"token_transfers_overflow":null,"confirmations":0,"position":null,"max_priority_fee_per_gas":"110","transaction_tag":null,"created_contract":null,"value":"0","from":{"ens_domain_name":null,"hash":"0xf1B4df03D2f262fD32c31F49Fd18a42B5A59944B","implementations":[],"is_contract":false,"is_scam":false,"is_verified":false,"metadata":null,"name":null,"private_tags":[],"proxy_type":null,"public_tags":[],"reputation":"ok","watchlist_names":[]},"gas_used":null,"status":null,"to":{"ens_domain_name":null,"hash":"0x7a250d5630B4cF539739dF2C5dAcb4c659F2488D","implementations":[],"is_contract":true,"is_scam":false,"is_verified":true,"metadata":{"tags":[{"meta":{"bgColor":"#FFFFFF","projectName":"Uniswap V2","tagUrl":"https://app.klerosscout.eth.limo/#/?registry=Single_Tags&itemdetails=0x21dee62fd8759eac196977676d698320331baf2d86a275f6fd61b587d90cafc8@0x66260c69d03837016d88c9877e61e08ef74c59f2","textColor":"#FF007A","tooltipDescription":"Up-to-date Uniswap V2 Router contract.","tooltipUrl":"https://app.uniswap.org/#/swap","verifiedDomains":["app.thorswap.finance","app.uniswap.org"]},"name":"Uniswap V3: Universal Router","ordinal":10,"slug":"uniswap-v3-universal-router","tagType":"name"},{"meta":{},"name":"DEX","ordinal":0,"slug":"dex","tagType":"generic"},{"meta":{"appID":"uniswap","bgColor":"#FF007A","tagIcon":"https://blockscout-content.s3.amazonaws.com/uniswap.png","tagUrl":"https://uniswap.org/?utm_source=Blockscout","textColor":"#FFFFFF","tooltipDescription":"Trade crypto and NFTs safely on the top DeFi platform. Swapping made simple. Buy and sell crypto on Ethereum, Base, Arbitrum, Polygon, and more.","tooltipTitle":"Uniswap","tooltipUrl":"https://uniswap.org/?utm_source=Blockscout"},"name":"Uniswap V2","ordinal":0,"slug":"uniswap-v2","tagType":"protocol"}]},"name":"UniswapV2Router02","private_tags":[],"proxy_type":null,"public_tags":[],"reputation":"ok","watchlist_names":[]},"authorization_list":[],"method":"swapExactTokensForTokens","fee":{"type":"maximum","value":"63000000"},"actions":[],"gas_limit":"300000","gas_price":"210","decoded_input":{"method_call":"swapExactTokensForTokens(uint256 amountIn, uint256 amountOutMin, address[] path, address to, uint256 deadline)","method_id":"38ed1739","parameters":[{"name":"amountIn","type":"uint256","value":"0"},{"name":"amountOutMin","type":"uint256","value":"0"},{"name":"path","type":"address[]","value":["0xf08b4a5DA092d60d6189A5F434C4e79C8DFe4Cb0","0xC02aaA39b223FE8D0A0e5C4F27eAD9083C756Cc2"]},{"name":"to","type":"address","value":"0xf1B4df03D2f262fD32c31F49Fd18a42B5A59944B"},{"name":"deadline","type":"uint256","value":"1718999029"}]},"token_transfers":null,"base_fee_per_gas":null,"timestamp":null,"nonce":1173,"historic_exchange_rate":null,"transaction_types":["contract_call"],"exchange_rate":"3887.67","block_number":null,"has_error_in_internal_transactions":null},{"priority_fee":null,"raw_input":"0x18cbafe50000000000000000000000000000000000000000000000878678326eac900000000000000000000000000000000000000000000000000000005ed6013cc864d700000000000000000000000000000000000000000000000000000000000000a0000000000000000000000000143021f7aa26f577d02d02c037e79631406450e60000000000000000000000000000000000000000000000000000000061025b1700000000000000000000000000000000000000000000000000000000000000020000000000000000000000006369c3dadfc00054a42ba8b2c09c48131dd4aa38000000000000000000000000c02aaa39b223fe8d0a0e5c4f27ead9083c756cc2","is_pending_update":null,"result":"pending","hash":"0x94254d6c807227c416d9a6fa4f54c628754b49469fb0ea0d22034f495b5537d3","max_fee_per_gas":null,"revert_reason":null,"confirmation_duration":[],"transaction_burnt_fee":null,"type":0,"token_transfers_overflow":null,"confirmations":0,"position":null,"max_priority_fee_per_gas":null,"transaction_tag":null,"created_contract":null,"value":"0","from":{"ens_domain_name":null,"hash":"0x143021f7Aa26f577D02D02c037e79631406450E6","implementations":[],"is_contract":false,"is_scam":false,"is_verified":false,"metadata":null,"name":null,"private_tags":[],"proxy_type":null,"public_tags":[],"reputation":"ok","watchlist_names":[]},"gas_used":null,"status":null,"to":{"ens_domain_name":null,"hash":"0x7a250d5630B4cF539739dF2C5dAcb4c659F2488D","implementations":[],"is_contract":true,"is_scam":false,"is_verified":true,"metadata":{"tags":[{"meta":{"bgColor":"#FFFFFF","projectName":"Uniswap V2","tagUrl":"https://app.klerosscout.eth.limo/#/?registry=Single_Tags&itemdetails=0x21dee62fd8759eac196977676d698320331baf2d86a275f6fd61b587d90cafc8@0x66260c69d03837016d88c9877e61e08ef74c59f2","textColor":"#FF007A","tooltipDescription":"Up-to-date Uniswap V2 Router contract.","tooltipUrl":"https://app.uniswap.org/#/swap","verifiedDomains":["app.thorswap.finance","app.uniswap.org"]},"name":"Uniswap V3: Universal Router","ordinal":10,"slug":"uniswap-v3-universal-router","tagType":"name"},{"meta":{},"name":"DEX","ordinal":0,"slug":"dex","tagType":"generic"},{"meta":{"appID":"uniswap","bgColor":"#FF007A","tagIcon":"https://blockscout-content.s3.amazonaws.com/uniswap.png","tagUrl":"https://uniswap.org/?utm_source=Blockscout","textColor":"#FFFFFF","tooltipDescription":"Trade crypto and NFTs safely on the top DeFi platform. Swapping made simple. Buy and sell crypto on Ethereum, Base, Arbitrum, Polygon, and more.","tooltipTitle":"Uniswap","tooltipUrl":"https://uniswap.org/?utm_source=Blockscout"},"name":"Uniswap V2","ordinal":0,"slug":"uniswap-v2","tagType":"protocol"}]},"name":"UniswapV2Router02","private_tags":[],"proxy_type":null,"public_tags":[],"reputation":"ok","watchlist_names":[]},"authorization_list":[],"method":"swapExactTokensForETH","fee":{"type":"maximum","value":"6159600000000"},"actions":[],"gas_limit":"205320","gas_price":"30000000","decoded_input":{"method_call":"swapExactTokensForETH(uint256 amountIn, uint256 amountOutMin, address[] path, address to, uint256 deadline)","method_id":"18cbafe5","parameters":[{"name":"amountIn","type":"uint256","value":"2500000000000000000000"},{"name":"amountOutMin","type":"uint256","value":"26693948613878999"},{"name":"path","type":"address[]","value":["0x6369c3DadfC00054A42BA8B2c09c48131dd4Aa38","0xC02aaA39b223FE8D0A0e5C4F27eAD9083C756Cc2"]},{"name":"to","type":"address","value":"0x143021f7Aa26f577D02D02c037e79631406450E6"},{"name":"deadline","type":"uint256","value":"1627544343"}]},"token_transfers":null,"base_fee_per_gas":null,"timestamp":null,"nonce":3,"historic_exchange_rate":null,"transaction_types":["contract_call"],"exchange_rate":"3887.67","block_number":null,"has_error_in_internal_transactions":null},{"priority_fee":null,"raw_input":"0x7ff36ab5000000000000000000000000000000000000000000000000035c9ea3542bc0300000000000000000000000000000000000000000000000000000000000000080000000000000000000000000a344fb1c88a8e4118989a5c5d59158c702a670d20000000000000000000000000000000000000000000000000000000060a044340000000000000000000000000000000000000000000000000000000000000002000000000000000000000000c02aaa39b223fe8d0a0e5c4f27ead9083c756cc2000000000000000000000000da23d301761e4e2bf474951f978f6dfb6f3c9f14","is_pending_update":null,"result":"pending","hash":"0x5a0f1cfba8d3b5a6bbdcdacf319f8f3ba68d53578dcc60a03807422a9d1db6e3","max_fee_per_gas":null,"revert_reason":null,"confirmation_duration":[],"transaction_burnt_fee":null,"type":0,"token_transfers_overflow":null,"confirmations":0,"position":null,"max_priority_fee_per_gas":null,"transaction_tag":null,"created_contract":null,"value":"4900000000000000","from":{"ens_domain_name":null,"hash":"0xa344fb1C88a8e4118989A5C5d59158C702a670d2","implementations":[],"is_contract":false,"is_scam":false,"is_verified":false,"metadata":null,"name":null,"private_tags":[],"proxy_type":null,"public_tags":[],"reputation":"ok","watchlist_names":[]},"gas_used":null,"status":null,"to":{"ens_domain_name":null,"hash":"0x7a250d5630B4cF539739dF2C5dAcb4c659F2488D","implementations":[],"is_contract":true,"is_scam":false,"is_verified":true,"metadata":{"tags":[{"meta":{"bgColor":"#FFFFFF","projectName":"Uniswap V2","tagUrl":"https://app.klerosscout.eth.limo/#/?registry=Single_Tags&itemdetails=0x21dee62fd8759eac196977676d698320331baf2d86a275f6fd61b587d90cafc8@0x66260c69d03837016d88c9877e61e08ef74c59f2","textColor":"#FF007A","tooltipDescription":"Up-to-date Uniswap V2 Router contract.","tooltipUrl":"https://app.uniswap.org/#/swap","verifiedDomains":["app.thorswap.finance","app.uniswap.org"]},"name":"Uniswap V3: Universal Router","ordinal":10,"slug":"uniswap-v3-universal-router","tagType":"name"},{"meta":{},"name":"DEX","ordinal":0,"slug":"dex","tagType":"generic"},{"meta":{"appID":"uniswap","bgColor":"#FF007A","tagIcon":"https://blockscout-content.s3.amazonaws.com/uniswap.png","tagUrl":"https://uniswap.org/?utm_source=Blockscout","textColor":"#FFFFFF","tooltipDescription":"Trade crypto and NFTs safely on the top DeFi platform. Swapping made simple. Buy and sell crypto on Ethereum, Base, Arbitrum, Polygon, and more.","tooltipTitle":"Uniswap","tooltipUrl":"https://uniswap.org/?utm_source=Blockscout"},"name":"Uniswap V2","ordinal":0,"slug":"uniswap-v2","tagType":"protocol"}]},"name":"UniswapV2Router02","private_tags":[],"proxy_type":null,"public_tags":[],"reputation":"ok","watchlist_names":[]},"authorization_list":[],"method":"swapExactETHForTokens","fee":{"type":"maximum","value":"2250743000"},"actions":[],"gas_limit":"204613","gas_price":"11000","decoded_input":{"method_call":"swapExactETHForTokens(uint256 amountOutMin, address[] path, address to, uint256 deadline)","method_id":"7ff36ab5","parameters":[{"name":"amountOutMin","type":"uint256","value":"242242904300175408"},{"name":"path","type":"address[]","value":["0xC02aaA39b223FE8D0A0e5C4F27eAD9083C756Cc2","0xda23d301761E4e2bF474951f978f6DFB6F3C9F14"]},{"name":"to","type":"address","value":"0xa344fb1C88a8e4118989A5C5d59158C702a670d2"},{"name":"deadline","type":"uint256","value":"1621115956"}]},"token_transfers":null,"base_fee_per_gas":null,"timestamp":null,"nonce":0,"historic_exchange_rate":null,"transaction_types":["coin_transfer","contract_call"],"exchange_rate":"3887.67","block_number":null,"has_error_in_internal_transactions":null},{"priority_fee":null,"raw_input":"0x7ff36ab5000000000000000000000000000000000000000000009b35112dd780e521b1610000000000000000000000000000000000000000000000000000000000000080000000000000000000000000589eaf8b569ccdfdeb18494e85940ac2753b1f02000000000000000000000000000000000000000000000000000000006097c5700000000000000000000000000000000000000000000000000000000000000002000000000000000000000000c02aaa39b223fe8d0a0e5c4f27ead9083c756cc200000000000000000000000095ad61b0a150d79219dcf64e1e6cc01f0b64c4ce","is_pending_update":null,"result":"pending","hash":"0x1663a89c339fbb30628eecfc75fadf519f308eaa593302208c3743969d70bdfc","max_fee_per_gas":null,"revert_reason":null,"confirmation_duration":[],"transaction_burnt_fee":null,"type":0,"token_transfers_overflow":null,"confirmations":0,"position":null,"max_priority_fee_per_gas":null,"transaction_tag":null,"created_contract":null,"value":"2614000000000000","from":{"ens_domain_name":null,"hash":"0x589eaf8b569ccDFDeb18494e85940ac2753b1f02","implementations":[],"is_contract":false,"is_scam":false,"is_verified":false,"metadata":null,"name":null,"private_tags":[],"proxy_type":null,"public_tags":[],"reputation":"ok","watchlist_names":[]},"gas_used":null,"status":null,"to":{"ens_domain_name":null,"hash":"0x7a250d5630B4cF539739dF2C5dAcb4c659F2488D","implementations":[],"is_contract":true,"is_scam":false,"is_verified":true,"metadata":{"tags":[{"meta":{"bgColor":"#FFFFFF","projectName":"Uniswap V2","tagUrl":"https://app.klerosscout.eth.limo/#/?registry=Single_Tags&itemdetails=0x21dee62fd8759eac196977676d698320331baf2d86a275f6fd61b587d90cafc8@0x66260c69d03837016d88c9877e61e08ef74c59f2","textColor":"#FF007A","tooltipDescription":"Up-to-date Uniswap V2 Router contract.","tooltipUrl":"https://app.uniswap.org/#/swap","verifiedDomains":["app.thorswap.finance","app.uniswap.org"]},"name":"Uniswap V3: Universal Router","ordinal":10,"slug":"uniswap-v3-universal-router","tagType":"name"},{"meta":{},"name":"DEX","ordinal":0,"slug":"dex","tagType":"generic"},{"meta":{"appID":"uniswap","bgColor":"#FF007A","tagIcon":"https://blockscout-content.s3.amazonaws.com/uniswap.png","tagUrl":"https://uniswap.org/?utm_source=Blockscout","textColor":"#FFFFFF","tooltipDescription":"Trade crypto and NFTs safely on the top DeFi platform. Swapping made simple. Buy and sell crypto on Ethereum, Base, Arbitrum, Polygon, and more.","tooltipTitle":"Uniswap","tooltipUrl":"https://uniswap.org/?utm_source=Blockscout"},"name":"Uniswap V2","ordinal":0,"slug":"uniswap-v2","tagType":"protocol"}]},"name":"UniswapV2Router02","private_tags":[],"proxy_type":null,"public_tags":[],"reputation":"ok","watchlist_names":[]},"authorization_list":[],"method":"swapExactETHForTokens","fee":{"type":"maximum","value":"66550000000"},"actions":[],"gas_limit":"500000","gas_price":"133100","decoded_input":{"method_call":"swapExactETHForTokens(uint256 amountOutMin, address[] path, address to, uint256 deadline)","method_id":"7ff36ab5","parameters":[{"name":"amountOutMin","type":"uint256","value":"732945720163122811089249"},{"name":"path","type":"address[]","value":["0xC02aaA39b223FE8D0A0e5C4F27eAD9083C756Cc2","0x95aD61b0a150d79219dCF64E1E6Cc01f0B64C4cE"]},{"name":"to","type":"address","value":"0x589eaf8b569ccDFDeb18494e85940ac2753b1f02"},{"name":"deadline","type":"uint256","value":"1620559216"}]},"token_transfers":null,"base_fee_per_gas":null,"timestamp":null,"nonce":3,"historic_exchange_rate":null,"transaction_types":["coin_transfer","contract_call"],"exchange_rate":"3887.67","block_number":null,"has_error_in_internal_transactions":null},{"priority_fee":null,"raw_input":"0x18cbafe500000000000000000000000000000000000000000000000000038d7ea4c6800000000000000000000000000000000000000000000000000000014c9317d497f400000000000000000000000000000000000000000000000000000000000000a0000000000000000000000000cc9a313be4767d40af0240b5c3d2fcdda9ffbc7d0000000000000000000000000000000000000000000000000000000060b57a6f000000000000000000000000000000000000000000000000000000000000000300000000000000000000000043789e8aeef0d30cffb57fc0870a5c785b7b93a1000000000000000000000000dac17f958d2ee523a2206206994597c13d831ec7000000000000000000000000c02aaa39b223fe8d0a0e5c4f27ead9083c756cc2","is_pending_update":null,"result":"pending","hash":"0x827fc454386b1dde40a50be7c953596cf6bb4840794432f20ba599783c7178c7","max_fee_per_gas":null,"revert_reason":null,"confirmation_duration":[],"transaction_burnt_fee":null,"type":0,"token_transfers_overflow":null,"confirmations":0,"position":null,"max_priority_fee_per_gas":null,"transaction_tag":null,"created_contract":null,"value":"0","from":{"ens_domain_name":null,"hash":"0xcc9a313Be4767D40aF0240B5c3d2FCDdA9FFbc7d","implementations":[],"is_contract":false,"is_scam":false,"is_verified":false,"metadata":null,"name":null,"private_tags":[],"proxy_type":null,"public_tags":[],"reputation":"ok","watchlist_names":[]},"gas_used":null,"status":null,"to":{"ens_domain_name":null,"hash":"0x7a250d5630B4cF539739dF2C5dAcb4c659F2488D","implementations":[],"is_contract":true,"is_scam":false,"is_verified":true,"metadata":{"tags":[{"meta":{"bgColor":"#FFFFFF","projectName":"Uniswap V2","tagUrl":"https://app.klerosscout.eth.limo/#/?registry=Single_Tags&itemdetails=0x21dee62fd8759eac196977676d698320331baf2d86a275f6fd61b587d90cafc8@0x66260c69d03837016d88c9877e61e08ef74c59f2","textColor":"#FF007A","tooltipDescription":"Up-to-date Uniswap V2 Router contract.","tooltipUrl":"https://app.uniswap.org/#/swap","verifiedDomains":["app.thorswap.finance","app.uniswap.org"]},"name":"Uniswap V3: Universal Router","ordinal":10,"slug":"uniswap-v3-universal-router","tagType":"name"},{"meta":{},"name":"DEX","ordinal":0,"slug":"dex","tagType":"generic"},{"meta":{"appID":"uniswap","bgColor":"#FF007A","tagIcon":"https://blockscout-content.s3.amazonaws.com/uniswap.png","tagUrl":"https://uniswap.org/?utm_source=Blockscout","textColor":"#FFFFFF","tooltipDescription":"Trade crypto and NFTs safely on the top DeFi platform. Swapping made simple. Buy and sell crypto on Ethereum, Base, Arbitrum, Polygon, and more.","tooltipTitle":"Uniswap","tooltipUrl":"https://uniswap.org/?utm_source=Blockscout"},"name":"Uniswap V2","ordinal":0,"slug":"uniswap-v2","tagType":"protocol"}]},"name":"UniswapV2Router02","private_tags":[],"proxy_type":null,"public_tags":[],"reputation":"ok","watchlist_names":[]},"authorization_list":[],"method":"swapExactTokensForETH","fee":{"type":"maximum","value":"255618"},"actions":[],"gas_limit":"255618","gas_price":"1","decoded_input":{"method_call":"swapExactTokensForETH(uint256 amountIn, uint256 amountOutMin, address[] path, address to, uint256 deadline)","method_id":"18cbafe5","parameters":[{"name":"amountIn","type":"uint256","value":"1000000000000000"},{"name":"amountOutMin","type":"uint256","value":"365669620422644"},{"name":"path","type":"address[]","value":["0x43789E8Aeef0D30cffb57FC0870a5c785B7b93A1","0xdAC17F958D2ee523a2206206994597C13D831ec7","0xC02aaA39b223FE8D0A0e5C4F27eAD9083C756Cc2"]},{"name":"to","type":"address","value":"0xcc9a313Be4767D40aF0240B5c3d2FCDdA9FFbc7d"},{"name":"deadline","type":"uint256","value":"1622506095"}]},"token_transfers":null,"base_fee_per_gas":null,"timestamp":null,"nonce":1,"historic_exchange_rate":null,"transaction_types":["contract_call"],"exchange_rate":"3887.67","block_number":null,"has_error_in_internal_transactions":null},{"priority_fee":null,"raw_input":"0xfb3bdb4100000000000000000000000000000000000000000008fb417c6a467e8f9df6e1000000000000000000000000000000000000000000000000000000000000008000000000000000000000000041eacacb43732cca5de17f6b64b13a2ae16ed33b0000000000000000000000000000000000000000000000000000000060cd6e940000000000000000000000000000000000000000000000000000000000000002000000000000000000000000c02aaa39b223fe8d0a0e5c4f27ead9083c756cc200000000000000000000000015874d65e649880c2614e7a480cb7c9a55787ff6","is_pending_update":null,"result":"pending","hash":"0xf7c5014b8a768bee2b40de4fa536b66749aef91ca0eaa96a7e02f87985fe718e","max_fee_per_gas":null,"revert_reason":null,"confirmation_duration":[],"transaction_burnt_fee":null,"type":0,"token_transfers_overflow":null,"confirmations":0,"position":null,"max_priority_fee_per_gas":null,"transaction_tag":null,"created_contract":null,"value":"484800000000000","from":{"ens_domain_name":null,"hash":"0x41eaCACB43732cca5DE17F6B64B13a2AE16ED33B","implementations":[],"is_contract":false,"is_scam":false,"is_verified":false,"metadata":null,"name":null,"private_tags":[],"proxy_type":null,"public_tags":[],"reputation":"ok","watchlist_names":[]},"gas_used":null,"status":null,"to":{"ens_domain_name":null,"hash":"0x7a250d5630B4cF539739dF2C5dAcb4c659F2488D","implementations":[],"is_contract":true,"is_scam":false,"is_verified":true,"metadata":{"tags":[{"meta":{"bgColor":"#FFFFFF","projectName":"Uniswap V2","tagUrl":"https://app.klerosscout.eth.limo/#/?registry=Single_Tags&itemdetails=0x21dee62fd8759eac196977676d698320331baf2d86a275f6fd61b587d90cafc8@0x66260c69d03837016d88c9877e61e08ef74c59f2","textColor":"#FF007A","tooltipDescription":"Up-to-date Uniswap V2 Router contract.","tooltipUrl":"https://app.uniswap.org/#/swap","verifiedDomains":["app.thorswap.finance","app.uniswap.org"]},"name":"Uniswap V3: Universal Router","ordinal":10,"slug":"uniswap-v3-universal-router","tagType":"name"},{"meta":{},"name":"DEX","ordinal":0,"slug":"dex","tagType":"generic"},{"meta":{"appID":"uniswap","bgColor":"#FF007A","tagIcon":"https://blockscout-content.s3.amazonaws.com/uniswap.png","tagUrl":"https://uniswap.org/?utm_source=Blockscout","textColor":"#FFFFFF","tooltipDescription":"Trade crypto and NFTs safely on the top DeFi platform. Swapping made simple. Buy and sell crypto on Ethereum, Base, Arbitrum, Polygon, and more.","tooltipTitle":"Uniswap","tooltipUrl":"https://uniswap.org/?utm_source=Blockscout"},"name":"Uniswap V2","ordinal":0,"slug":"uniswap-v2","tagType":"protocol"}]},"name":"UniswapV2Router02","private_tags":[],"proxy_type":null,"public_tags":[],"reputation":"ok","watchlist_names":[]},"authorization_list":[],"method":"swapETHForExactTokens","fee":{"type":"maximum","value":"600000000000"},"actions":[],"gas_limit":"600000","gas_price":"1000000","decoded_input":{"method_call":"swapETHForExactTokens(uint256 amountOut, address[] path, address to, uint256 deadline)","method_id":"fb3bdb41","parameters":[{"name":"amountOut","type":"uint256","value":"10857928547537623090853601"},{"name":"path","type":"address[]","value":["0xC02aaA39b223FE8D0A0e5C4F27eAD9083C756Cc2","0x15874d65e649880c2614e7a480cb7c9A55787FF6"]},{"name":"to","type":"address","value":"0x41eaCACB43732cca5DE17F6B64B13a2AE16ED33B"},{"name":"deadline","type":"uint256","value":"1624075924"}]},"token_transfers":null,"base_fee_per_gas":null,"timestamp":null,"nonce":14,"historic_exchange_rate":null,"transaction_types":["coin_transfer","contract_call"],"exchange_rate":"3887.67","block_number":null,"has_error_in_internal_transactions":null},{"priority_fee":null,"raw_input":"0x7ff36ab5000000000000000000000000000000000000000000001d4200f0f6a8ba88c9b900000000000000000000000000000000000000000000000000000000000000800000000000000000000000008f70fc15602b8bc32772d79c0160778e7029c52c00000000000000000000000000000000000000000000000000000000609996240000000000000000000000000000000000000000000000000000000000000002000000000000000000000000c02aaa39b223fe8d0a0e5c4f27ead9083c756cc200000000000000000000000095ad61b0a150d79219dcf64e1e6cc01f0b64c4ce","is_pending_update":null,"result":"pending","hash":"0x2a3b91e73d5347da37a9907630cff70358a1c0734ca4dcb9b97d125e567b0ede","max_fee_per_gas":null,"revert_reason":null,"confirmation_duration":[],"transaction_burnt_fee":null,"type":0,"token_transfers_overflow":null,"confirmations":0,"position":null,"max_priority_fee_per_gas":null,"transaction_tag":null,"created_contract":null,"value":"1000000000000000","from":{"ens_domain_name":null,"hash":"0x8F70fC15602b8BC32772D79C0160778e7029C52c","implementations":[],"is_contract":false,"is_scam":false,"is_verified":false,"metadata":null,"name":null,"private_tags":[],"proxy_type":null,"public_tags":[],"reputation":"ok","watchlist_names":[]},"gas_used":null,"status":null,"to":{"ens_domain_name":null,"hash":"0x7a250d5630B4cF539739dF2C5dAcb4c659F2488D","implementations":[],"is_contract":true,"is_scam":false,"is_verified":true,"metadata":{"tags":[{"meta":{"bgColor":"#FFFFFF","projectName":"Uniswap V2","tagUrl":"https://app.klerosscout.eth.limo/#/?registry=Single_Tags&itemdetails=0x21dee62fd8759eac196977676d698320331baf2d86a275f6fd61b587d90cafc8@0x66260c69d03837016d88c9877e61e08ef74c59f2","textColor":"#FF007A","tooltipDescription":"Up-to-date Uniswap V2 Router contract.","tooltipUrl":"https://app.uniswap.org/#/swap","verifiedDomains":["app.thorswap.finance","app.uniswap.org"]},"name":"Uniswap V3: Universal Router","ordinal":10,"slug":"uniswap-v3-universal-router","tagType":"name"},{"meta":{},"name":"DEX","ordinal":0,"slug":"dex","tagType":"generic"},{"meta":{"appID":"uniswap","bgColor":"#FF007A","tagIcon":"https://blockscout-content.s3.amazonaws.com/uniswap.png","tagUrl":"https://uniswap.org/?utm_source=Blockscout","textColor":"#FFFFFF","tooltipDescription":"Trade crypto and NFTs safely on the top DeFi platform. Swapping made simple. Buy and sell crypto on Ethereum, Base, Arbitrum, Polygon, and more.","tooltipTitle":"Uniswap","tooltipUrl":"https://uniswap.org/?utm_source=Blockscout"},"name":"Uniswap V2","ordinal":0,"slug":"uniswap-v2","tagType":"protocol"}]},"name":"UniswapV2Router02","private_tags":[],"proxy_type":null,"public_tags":[],"reputation":"ok","watchlist_names":[]},"authorization_list":[],"method":"swapExactETHForTokens","fee":{"type":"maximum","value":"14750300000000"},"actions":[],"gas_limit":"147503","gas_price":"100000000","decoded_input":{"method_call":"swapExactETHForTokens(uint256 amountOutMin, address[] path, address to, uint256 deadline)","method_id":"7ff36ab5","parameters":[{"name":"amountOutMin","type":"uint256","value":"138166180937283496626617"},{"name":"path","type":"address[]","value":["0xC02aaA39b223FE8D0A0e5C4F27eAD9083C756Cc2","0x95aD61b0a150d79219dCF64E1E6Cc01f0B64C4cE"]},{"name":"to","type":"address","value":"0x8F70fC15602b8BC32772D79C0160778e7029C52c"},{"name":"deadline","type":"uint256","value":"1620678180"}]},"token_transfers":null,"base_fee_per_gas":null,"timestamp":null,"nonce":5,"historic_exchange_rate":null,"transaction_types":["coin_transfer","contract_call"],"exchange_rate":"3887.67","block_number":null,"has_error_in_internal_transactions":null},{"priority_fee":null,"raw_input":"0x7ff36ab5000000000000000000000000000000000000000000028513efb3071de8b0b8f10000000000000000000000000000000000000000000000000000000000000080000000000000000000000000f52a661421890a6e8a3447b1a5243ecfa6a961300000000000000000000000000000000000000000000000000000000061027c5f0000000000000000000000000000000000000000000000000000000000000002000000000000000000000000c02aaa39b223fe8d0a0e5c4f27ead9083c756cc20000000000000000000000008e6cd950ad6ba651f6dd608dc70e5886b1aa6b24","is_pending_update":null,"result":"pending","hash":"0x92fd5a6b6069249e07a243bc671825d9a27c1f9e9d7f634c8d5056a15d6b1c14","max_fee_per_gas":null,"revert_reason":null,"confirmation_duration":[],"transaction_burnt_fee":null,"type":0,"token_transfers_overflow":null,"confirmations":0,"position":null,"max_priority_fee_per_gas":null,"transaction_tag":null,"created_contract":null,"value":"17253730000000000","from":{"ens_domain_name":null,"hash":"0xf52a661421890a6E8A3447B1A5243ecFA6a96130","implementations":[],"is_contract":false,"is_scam":false,"is_verified":false,"metadata":null,"name":null,"private_tags":[],"proxy_type":null,"public_tags":[],"reputation":"ok","watchlist_names":[]},"gas_used":null,"status":null,"to":{"ens_domain_name":null,"hash":"0x7a250d5630B4cF539739dF2C5dAcb4c659F2488D","implementations":[],"is_contract":true,"is_scam":false,"is_verified":true,"metadata":{"tags":[{"meta":{"bgColor":"#FFFFFF","projectName":"Uniswap V2","tagUrl":"https://app.klerosscout.eth.limo/#/?registry=Single_Tags&itemdetails=0x21dee62fd8759eac196977676d698320331baf2d86a275f6fd61b587d90cafc8@0x66260c69d03837016d88c9877e61e08ef74c59f2","textColor":"#FF007A","tooltipDescription":"Up-to-date Uniswap V2 Router contract.","tooltipUrl":"https://app.uniswap.org/#/swap","verifiedDomains":["app.thorswap.finance","app.uniswap.org"]},"name":"Uniswap V3: Universal Router","ordinal":10,"slug":"uniswap-v3-universal-router","tagType":"name"},{"meta":{},"name":"DEX","ordinal":0,"slug":"dex","tagType":"generic"},{"meta":{"appID":"uniswap","bgColor":"#FF007A","tagIcon":"https://blockscout-content.s3.amazonaws.com/uniswap.png","tagUrl":"https://uniswap.org/?utm_source=Blockscout","textColor":"#FFFFFF","tooltipDescription":"Trade crypto and NFTs safely on the top DeFi platform. Swapping made simple. Buy and sell crypto on Ethereum, Base, Arbitrum, Polygon, and more.","tooltipTitle":"Uniswap","tooltipUrl":"https://uniswap.org/?utm_source=Blockscout"},"name":"Uniswap V2","ordinal":0,"slug":"uniswap-v2","tagType":"protocol"}]},"name":"UniswapV2Router02","private_tags":[],"proxy_type":null,"public_tags":[],"reputation":"ok","watchlist_names":[]},"authorization_list":[],"method":"swapExactETHForTokens","fee":{"type":"maximum","value":"5346792000000"},"actions":[],"gas_limit":"162024","gas_price":"33000000","decoded_input":{"method_call":"swapExactETHForTokens(uint256 amountOutMin, address[] path, address to, uint256 deadline)","method_id":"7ff36ab5","parameters":[{"name":"amountOutMin","type":"uint256","value":"3046294141745142579640561"},{"name":"path","type":"address[]","value":["0xC02aaA39b223FE8D0A0e5C4F27eAD9083C756Cc2","0x8E6cd950Ad6ba651F6DD608Dc70e5886B1AA6B24"]},{"name":"to","type":"address","value":"0xf52a661421890a6E8A3447B1A5243ecFA6a96130"},{"name":"deadline","type":"uint256","value":"1627552863"}]},"token_transfers":null,"base_fee_per_gas":null,"timestamp":null,"nonce":0,"historic_exchange_rate":null,"transaction_types":["coin_transfer","contract_call"],"exchange_rate":"3887.67","block_number":null,"has_error_in_internal_transactions":null},{"priority_fee":null,"raw_input":"0x7ff36ab5000000000000000000000000000000000000000000000004ab714bc713f6dc1b00000000000000000000000000000000000000000000000000000000000000800000000000000000000000003d4588875e45c311dec071919b503416fa6ca31000000000000000000000000000000000000000000000000000000000603c02090000000000000000000000000000000000000000000000000000000000000002000000000000000000000000c02aaa39b223fe8d0a0e5c4f27ead9083c756cc20000000000000000000000000020d80229877b495d2bf3269a4c13f6f1e1b9d3","is_pending_update":null,"result":"pending","hash":"0x8575fab4d15a7b715d035ab193c0f9f3a155cc06ea11dfc2ab99d21afbbd295f","max_fee_per_gas":null,"revert_reason":null,"confirmation_duration":[],"transaction_burnt_fee":null,"type":0,"token_transfers_overflow":null,"confirmations":0,"position":null,"max_priority_fee_per_gas":null,"transaction_tag":null,"created_contract":null,"value":"12500000000000000","from":{"ens_domain_name":null,"hash":"0x3d4588875E45c311dEc071919B503416fA6cA310","implementations":[],"is_contract":false,"is_scam":false,"is_verified":false,"metadata":null,"name":null,"private_tags":[],"proxy_type":null,"public_tags":[],"reputation":"ok","watchlist_names":[]},"gas_used":null,"status":null,"to":{"ens_domain_name":null,"hash":"0x7a250d5630B4cF539739dF2C5dAcb4c659F2488D","implementations":[],"is_contract":true,"is_scam":false,"is_verified":true,"metadata":{"tags":[{"meta":{"bgColor":"#FFFFFF","projectName":"Uniswap V2","tagUrl":"https://app.klerosscout.eth.limo/#/?registry=Single_Tags&itemdetails=0x21dee62fd8759eac196977676d698320331baf2d86a275f6fd61b587d90cafc8@0x66260c69d03837016d88c9877e61e08ef74c59f2","textColor":"#FF007A","tooltipDescription":"Up-to-date Uniswap V2 Router contract.","tooltipUrl":"https://app.uniswap.org/#/swap","verifiedDomains":["app.thorswap.finance","app.uniswap.org"]},"name":"Uniswap V3: Universal Router","ordinal":10,"slug":"uniswap-v3-universal-router","tagType":"name"},{"meta":{},"name":"DEX","ordinal":0,"slug":"dex","tagType":"generic"},{"meta":{"appID":"uniswap","bgColor":"#FF007A","tagIcon":"https://blockscout-content.s3.amazonaws.com/uniswap.png","tagUrl":"https://uniswap.org/?utm_source=Blockscout","textColor":"#FFFFFF","tooltipDescription":"Trade crypto and NFTs safely on the top DeFi platform. Swapping made simple. Buy and sell crypto on Ethereum, Base, Arbitrum, Polygon, and more.","tooltipTitle":"Uniswap","tooltipUrl":"https://uniswap.org/?utm_source=Blockscout"},"name":"Uniswap V2","ordinal":0,"slug":"uniswap-v2","tagType":"protocol"}]},"name":"UniswapV2Router02","private_tags":[],"proxy_type":null,"public_tags":[],"reputation":"ok","watchlist_names":[]},"authorization_list":[],"method":"swapExactETHForTokens","fee":{"type":"maximum","value":"1994424000000"},"actions":[],"gas_limit":"166202","gas_price":"12000000","decoded_input":{"method_call":"swapExactETHForTokens(uint256 amountOutMin, address[] path, address to, uint256 deadline)","method_id":"7ff36ab5","parameters":[{"name":"amountOutMin","type":"uint256","value":"86140714866097708059"},{"name":"path","type":"address[]","value":["0xC02aaA39b223FE8D0A0e5C4F27eAD9083C756Cc2","0x0020d80229877b495D2bf3269a4c13f6f1e1B9D3"]},{"name":"to","type":"address","value":"0x3d4588875E45c311dEc071919B503416fA6cA310"},{"name":"deadline","type":"uint256","value":"1614545417"}]},"token_transfers":null,"base_fee_per_gas":null,"timestamp":null,"nonce":0,"historic_exchange_rate":null,"transaction_types":["coin_transfer","contract_call"],"exchange_rate":"3887.67","block_number":null,"has_error_in_internal_transactions":null},{"priority_fee":null,"raw_input":"0x7ff36ab500000000000000000000000000000000000000000000000000000000000031c70000000000000000000000000000000000000000000000000000000000000080000000000000000000000000c3e1f078e09cc7ee54ee155563ba69b127753fe60000000000000000000000000000000000000000000000000000000060224c7f0000000000000000000000000000000000000000000000000000000000000002000000000000000000000000c02aaa39b223fe8d0a0e5c4f27ead9083c756cc20000000000000000000000007b0c06043468469967dba22d1af33d77d44056c8","is_pending_update":null,"result":"pending","hash":"0xd59d561269c430c141a3042a953ddede874fd49717a29571b4a687e682e8e58f","max_fee_per_gas":null,"revert_reason":null,"confirmation_duration":[],"transaction_burnt_fee":null,"type":0,"token_transfers_overflow":null,"confirmations":0,"position":null,"max_priority_fee_per_gas":null,"transaction_tag":null,"created_contract":null,"value":"3000000000000000","from":{"ens_domain_name":null,"hash":"0xc3e1f078E09cC7ee54ee155563BA69B127753fE6","implementations":[],"is_contract":false,"is_scam":false,"is_verified":false,"metadata":null,"name":null,"private_tags":[],"proxy_type":null,"public_tags":[],"reputation":"ok","watchlist_names":[]},"gas_used":null,"status":null,"to":{"ens_domain_name":null,"hash":"0x7a250d5630B4cF539739dF2C5dAcb4c659F2488D","implementations":[],"is_contract":true,"is_scam":false,"is_verified":true,"metadata":{"tags":[{"meta":{"bgColor":"#FFFFFF","projectName":"Uniswap V2","tagUrl":"https://app.klerosscout.eth.limo/#/?registry=Single_Tags&itemdetails=0x21dee62fd8759eac196977676d698320331baf2d86a275f6fd61b587d90cafc8@0x66260c69d03837016d88c9877e61e08ef74c59f2","textColor":"#FF007A","tooltipDescription":"Up-to-date Uniswap V2 Router contract.","tooltipUrl":"https://app.uniswap.org/#/swap","verifiedDomains":["app.thorswap.finance","app.uniswap.org"]},"name":"Uniswap V3: Universal Router","ordinal":10,"slug":"uniswap-v3-universal-router","tagType":"name"},{"meta":{},"name":"DEX","ordinal":0,"slug":"dex","tagType":"generic"},{"meta":{"appID":"uniswap","bgColor":"#FF007A","tagIcon":"https://blockscout-content.s3.amazonaws.com/uniswap.png","tagUrl":"https://uniswap.org/?utm_source=Blockscout","textColor":"#FFFFFF","tooltipDescription":"Trade crypto and NFTs safely on the top DeFi platform. Swapping made simple. Buy and sell crypto on Ethereum, Base, Arbitrum, Polygon, and more.","tooltipTitle":"Uniswap","tooltipUrl":"https://uniswap.org/?utm_source=Blockscout"},"name":"Uniswap V2","ordinal":0,"slug":"uniswap-v2","tagType":"protocol"}]},"name":"UniswapV2Router02","private_tags":[],"proxy_type":null,"public_tags":[],"reputation":"ok","watchlist_names":[]},"authorization_list":[],"method":"swapExactETHForTokens","fee":{"type":"maximum","value":"166219000000"},"actions":[],"gas_limit":"166219","gas_price":"1000000","decoded_input":{"method_call":"swapExactETHForTokens(uint256 amountOutMin, address[] path, address to, uint256 deadline)","method_id":"7ff36ab5","parameters":[{"name":"amountOutMin","type":"uint256","value":"12743"},{"name":"path","type":"address[]","value":["0xC02aaA39b223FE8D0A0e5C4F27eAD9083C756Cc2","0x7B0C06043468469967DBA22d1AF33d77d44056c8"]},{"name":"to","type":"address","value":"0xc3e1f078E09cC7ee54ee155563BA69B127753fE6"},{"name":"deadline","type":"uint256","value":"1612860543"}]},"token_transfers":null,"base_fee_per_gas":null,"timestamp":null,"nonce":0,"historic_exchange_rate":null,"transaction_types":["coin_transfer","contract_call"],"exchange_rate":"3887.67","block_number":null,"has_error_in_internal_transactions":null},{"priority_fee":null,"raw_input":"0x7ff36ab50000000000000000000000000000000000000000000246217db74432cdbe7767000000000000000000000000000000000000000000000000000000000000008000000000000000000000000059085165a69f4fc2207af5c77902340d89f81e4f00000000000000000000000000000000000000000000000000000000609bb0160000000000000000000000000000000000000000000000000000000000000002000000000000000000000000c02aaa39b223fe8d0a0e5c4f27ead9083c756cc200000000000000000000000095ad61b0a150d79219dcf64e1e6cc01f0b64c4ce","is_pending_update":null,"result":"pending","hash":"0xf1ad41cdaac220ed538ae57be3c9c6c666ad4a5c2f261be6439d82eccb2a794e","max_fee_per_gas":null,"revert_reason":null,"confirmation_duration":[],"transaction_burnt_fee":null,"type":0,"token_transfers_overflow":null,"confirmations":0,"position":null,"max_priority_fee_per_gas":null,"transaction_tag":null,"created_contract":null,"value":"18579720000000000","from":{"ens_domain_name":null,"hash":"0x59085165a69F4Fc2207Af5c77902340D89F81E4f","implementations":[],"is_contract":false,"is_scam":false,"is_verified":false,"metadata":null,"name":null,"private_tags":[],"proxy_type":null,"public_tags":[],"reputation":"ok","watchlist_names":[]},"gas_used":null,"status":null,"to":{"ens_domain_name":null,"hash":"0x7a250d5630B4cF539739dF2C5dAcb4c659F2488D","implementations":[],"is_contract":true,"is_scam":false,"is_verified":true,"metadata":{"tags":[{"meta":{"bgColor":"#FFFFFF","projectName":"Uniswap V2","tagUrl":"https://app.klerosscout.eth.limo/#/?registry=Single_Tags&itemdetails=0x21dee62fd8759eac196977676d698320331baf2d86a275f6fd61b587d90cafc8@0x66260c69d03837016d88c9877e61e08ef74c59f2","textColor":"#FF007A","tooltipDescription":"Up-to-date Uniswap V2 Router contract.","tooltipUrl":"https://app.uniswap.org/#/swap","verifiedDomains":["app.thorswap.finance","app.uniswap.org"]},"name":"Uniswap V3: Universal Router","ordinal":10,"slug":"uniswap-v3-universal-router","tagType":"name"},{"meta":{},"name":"DEX","ordinal":0,"slug":"dex","tagType":"generic"},{"meta":{"appID":"uniswap","bgColor":"#FF007A","tagIcon":"https://blockscout-content.s3.amazonaws.com/uniswap.png","tagUrl":"https://uniswap.org/?utm_source=Blockscout","textColor":"#FFFFFF","tooltipDescription":"Trade crypto and NFTs safely on the top DeFi platform. Swapping made simple. Buy and sell crypto on Ethereum, Base, Arbitrum, Polygon, and more.","tooltipTitle":"Uniswap","tooltipUrl":"https://uniswap.org/?utm_source=Blockscout"},"name":"Uniswap V2","ordinal":0,"slug":"uniswap-v2","tagType":"protocol"}]},"name":"UniswapV2Router02","private_tags":[],"proxy_type":null,"public_tags":[],"reputation":"ok","watchlist_names":[]},"authorization_list":[],"method":"swapExactETHForTokens","fee":{"type":"maximum","value":"6000000000000"},"actions":[],"gas_limit":"600000","gas_price":"10000000","decoded_input":{"method_call":"swapExactETHForTokens(uint256 amountOutMin, address[] path, address to, uint256 deadline)","method_id":"7ff36ab5","parameters":[{"name":"amountOutMin","type":"uint256","value":"2749035094368726399481703"},{"name":"path","type":"address[]","value":["0xC02aaA39b223FE8D0A0e5C4F27eAD9083C756Cc2","0x95aD61b0a150d79219dCF64E1E6Cc01f0B64C4cE"]},{"name":"to","type":"address","value":"0x59085165a69F4Fc2207Af5c77902340D89F81E4f"},{"name":"deadline","type":"uint256","value":"1620815894"}]},"token_transfers":null,"base_fee_per_gas":null,"timestamp":null,"nonce":0,"historic_exchange_rate":null,"transaction_types":["coin_transfer","contract_call"],"exchange_rate":"3887.67","block_number":null,"has_error_in_internal_transactions":null},{"priority_fee":null,"raw_input":"0x7ff36ab500000000000000000000000000000000000000000003d5020c29b816fd870db700000000000000000000000000000000000000000000000000000000000000800000000000000000000000009dc7f8b67e9af21d58bf806f8ae7617b8da00b2c0000000000000000000000000000000000000000000000000000000060ac68a00000000000000000000000000000000000000000000000000000000000000002000000000000000000000000c02aaa39b223fe8d0a0e5c4f27ead9083c756cc200000000000000000000000095ad61b0a150d79219dcf64e1e6cc01f0b64c4ce","is_pending_update":null,"result":"pending","hash":"0x49e4c027ccb6de299ad3b1cca1e6c16e8cf5ff2d044e1577157b699cceb0291c","max_fee_per_gas":null,"revert_reason":null,"confirmation_duration":[],"transaction_burnt_fee":null,"type":0,"token_transfers_overflow":null,"confirmations":0,"position":null,"max_priority_fee_per_gas":null,"transaction_tag":null,"created_contract":null,"value":"18084240000000000","from":{"ens_domain_name":null,"hash":"0x9dc7F8b67e9AF21D58BF806f8ae7617B8Da00b2C","implementations":[],"is_contract":false,"is_scam":false,"is_verified":false,"metadata":null,"name":null,"private_tags":[],"proxy_type":null,"public_tags":[],"reputation":"ok","watchlist_names":[]},"gas_used":null,"status":null,"to":{"ens_domain_name":null,"hash":"0x7a250d5630B4cF539739dF2C5dAcb4c659F2488D","implementations":[],"is_contract":true,"is_scam":false,"is_verified":true,"metadata":{"tags":[{"meta":{"bgColor":"#FFFFFF","projectName":"Uniswap V2","tagUrl":"https://app.klerosscout.eth.limo/#/?registry=Single_Tags&itemdetails=0x21dee62fd8759eac196977676d698320331baf2d86a275f6fd61b587d90cafc8@0x66260c69d03837016d88c9877e61e08ef74c59f2","textColor":"#FF007A","tooltipDescription":"Up-to-date Uniswap V2 Router contract.","tooltipUrl":"https://app.uniswap.org/#/swap","verifiedDomains":["app.thorswap.finance","app.uniswap.org"]},"name":"Uniswap V3: Universal Router","ordinal":10,"slug":"uniswap-v3-universal-router","tagType":"name"},{"meta":{},"name":"DEX","ordinal":0,"slug":"dex","tagType":"generic"},{"meta":{"appID":"uniswap","bgColor":"#FF007A","tagIcon":"https://blockscout-content.s3.amazonaws.com/uniswap.png","tagUrl":"https://uniswap.org/?utm_source=Blockscout","textColor":"#FFFFFF","tooltipDescription":"Trade crypto and NFTs safely on the top DeFi platform. Swapping made simple. Buy and sell crypto on Ethereum, Base, Arbitrum, Polygon, and more.","tooltipTitle":"Uniswap","tooltipUrl":"https://uniswap.org/?utm_source=Blockscout"},"name":"Uniswap V2","ordinal":0,"slug":"uniswap-v2","tagType":"protocol"}]},"name":"UniswapV2Router02","private_tags":[],"proxy_type":null,"public_tags":[],"reputation":"ok","watchlist_names":[]},"authorization_list":[],"method":"swapExactETHForTokens","fee":{"type":"maximum","value":"6000000000000"},"actions":[],"gas_limit":"600000","gas_price":"10000000","decoded_input":{"method_call":"swapExactETHForTokens(uint256 amountOutMin, address[] path, address to, uint256 deadline)","method_id":"7ff36ab5","parameters":[{"name":"amountOutMin","type":"uint256","value":"4632679289617280756288951"},{"name":"path","type":"address[]","value":["0xC02aaA39b223FE8D0A0e5C4F27eAD9083C756Cc2","0x95aD61b0a150d79219dCF64E1E6Cc01f0B64C4cE"]},{"name":"to","type":"address","value":"0x9dc7F8b67e9AF21D58BF806f8ae7617B8Da00b2C"},{"name":"deadline","type":"uint256","value":"1621911712"}]},"token_transfers":null,"base_fee_per_gas":null,"timestamp":null,"nonce":0,"historic_exchange_rate":null,"transaction_types":["coin_transfer","contract_call"],"exchange_rate":"3887.67","block_number":null,"has_error_in_internal_transactions":null},{"priority_fee":null,"raw_input":"0xfb3bdb410000000000000000000000000000000000000000000000000de0b6b3a764000000000000000000000000000000000000000000000000000000000000000000800000000000000000000000007c4ee90a43d491a62f19950a6374b87fd6f5967a000000000000000000000000000000000000000000000000000000005ff28bb90000000000000000000000000000000000000000000000000000000000000003000000000000000000000000c02aaa39b223fe8d0a0e5c4f27ead9083c756cc2000000000000000000000000dac17f958d2ee523a2206206994597c13d831ec70000000000000000000000008762db106b2c2a0bccb3a80d1ed41273552616e8","is_pending_update":null,"result":"pending","hash":"0x18d7fba7287e4eb6b0243998b543c6bb657051a5c9601b64c48cbeb9d593364a","max_fee_per_gas":null,"revert_reason":null,"confirmation_duration":[],"transaction_burnt_fee":null,"type":0,"token_transfers_overflow":null,"confirmations":0,"position":null,"max_priority_fee_per_gas":null,"transaction_tag":null,"created_contract":null,"value":"35188818824911","from":{"ens_domain_name":null,"hash":"0x7c4eE90a43d491a62F19950a6374B87Fd6F5967A","implementations":[],"is_contract":false,"is_scam":false,"is_verified":false,"metadata":null,"name":null,"private_tags":[],"proxy_type":null,"public_tags":[],"reputation":"ok","watchlist_names":[]},"gas_used":null,"status":null,"to":{"ens_domain_name":null,"hash":"0x7a250d5630B4cF539739dF2C5dAcb4c659F2488D","implementations":[],"is_contract":true,"is_scam":false,"is_verified":true,"metadata":{"tags":[{"meta":{"bgColor":"#FFFFFF","projectName":"Uniswap V2","tagUrl":"https://app.klerosscout.eth.limo/#/?registry=Single_Tags&itemdetails=0x21dee62fd8759eac196977676d698320331baf2d86a275f6fd61b587d90cafc8@0x66260c69d03837016d88c9877e61e08ef74c59f2","textColor":"#FF007A","tooltipDescription":"Up-to-date Uniswap V2 Router contract.","tooltipUrl":"https://app.uniswap.org/#/swap","verifiedDomains":["app.thorswap.finance","app.uniswap.org"]},"name":"Uniswap V3: Universal Router","ordinal":10,"slug":"uniswap-v3-universal-router","tagType":"name"},{"meta":{},"name":"DEX","ordinal":0,"slug":"dex","tagType":"generic"},{"meta":{"appID":"uniswap","bgColor":"#FF007A","tagIcon":"https://blockscout-content.s3.amazonaws.com/uniswap.png","tagUrl":"https://uniswap.org/?utm_source=Blockscout","textColor":"#FFFFFF","tooltipDescription":"Trade crypto and NFTs safely on the top DeFi platform. Swapping made simple. Buy and sell crypto on Ethereum, Base, Arbitrum, Polygon, and more.","tooltipTitle":"Uniswap","tooltipUrl":"https://uniswap.org/?utm_source=Blockscout"},"name":"Uniswap V2","ordinal":0,"slug":"uniswap-v2","tagType":"protocol"}]},"name":"UniswapV2Router02","private_tags":[],"proxy_type":null,"public_tags":[],"reputation":"ok","watchlist_names":[]},"authorization_list":[],"method":"swapETHForExactTokens","fee":{"type":"maximum","value":"2185294881443"},"actions":[],"gas_limit":"242783","gas_price":"9001021","decoded_input":{"method_call":"swapETHForExactTokens(uint256 amountOut, address[] path, address to, uint256 deadline)","method_id":"fb3bdb41","parameters":[{"name":"amountOut","type":"uint256","value":"1000000000000000000"},{"name":"path","type":"address[]","value":["0xC02aaA39b223FE8D0A0e5C4F27eAD9083C756Cc2","0xdAC17F958D2ee523a2206206994597C13D831ec7","0x8762db106B2c2A0bccB3A80d1Ed41273552616E8"]},{"name":"to","type":"address","value":"0x7c4eE90a43d491a62F19950a6374B87Fd6F5967A"},{"name":"deadline","type":"uint256","value":"1609731001"}]},"token_transfers":null,"base_fee_per_gas":null,"timestamp":null,"nonce":0,"historic_exchange_rate":null,"transaction_types":["coin_transfer","contract_call"],"exchange_rate":"3887.67","block_number":null,"has_error_in_internal_transactions":null},{"priority_fee":null,"raw_input":"0xb6f9de950000000000000000000000000000000000000000000000000001e6591b7546b200000000000000000000000000000000000000000000000000000000000000800000000000000000000000003c2e833abca9ab23ac120772afe569358e8c682d0000000000000000000000000000000000000000000000000000000066a120b50000000000000000000000000000000000000000000000000000000000000002000000000000000000000000c02aaa39b223fe8d0a0e5c4f27ead9083c756cc2000000000000000000000000fb7b4564402e5500db5bb6d63ae671302777c75a","is_pending_update":null,"result":"pending","hash":"0x53dd1e6660709c60a215bdf0b0e39292ef27c738f2ee4fb2ba0189294cc4bf37","max_fee_per_gas":"10000000","revert_reason":null,"confirmation_duration":[],"transaction_burnt_fee":null,"type":2,"token_transfers_overflow":null,"confirmations":0,"position":null,"max_priority_fee_per_gas":"10000000","transaction_tag":null,"created_contract":null,"value":"100000000000","from":{"ens_domain_name":null,"hash":"0x3C2e833ABcA9AB23AC120772aFe569358e8c682D","implementations":[],"is_contract":false,"is_scam":false,"is_verified":false,"metadata":null,"name":null,"private_tags":[],"proxy_type":null,"public_tags":[],"reputation":"ok","watchlist_names":[]},"gas_used":null,"status":null,"to":{"ens_domain_name":null,"hash":"0x7a250d5630B4cF539739dF2C5dAcb4c659F2488D","implementations":[],"is_contract":true,"is_scam":false,"is_verified":true,"metadata":{"tags":[{"meta":{"bgColor":"#FFFFFF","projectName":"Uniswap V2","tagUrl":"https://app.klerosscout.eth.limo/#/?registry=Single_Tags&itemdetails=0x21dee62fd8759eac196977676d698320331baf2d86a275f6fd61b587d90cafc8@0x66260c69d03837016d88c9877e61e08ef74c59f2","textColor":"#FF007A","tooltipDescription":"Up-to-date Uniswap V2 Router contract.","tooltipUrl":"https://app.uniswap.org/#/swap","verifiedDomains":["app.thorswap.finance","app.uniswap.org"]},"name":"Uniswap V3: Universal Router","ordinal":10,"slug":"uniswap-v3-universal-router","tagType":"name"},{"meta":{},"name":"DEX","ordinal":0,"slug":"dex","tagType":"generic"},{"meta":{"appID":"uniswap","bgColor":"#FF007A","tagIcon":"https://blockscout-content.s3.amazonaws.com/uniswap.png","tagUrl":"https://uniswap.org/?utm_source=Blockscout","textColor":"#FFFFFF","tooltipDescription":"Trade crypto and NFTs safely on the top DeFi platform. Swapping made simple. Buy and sell crypto on Ethereum, Base, Arbitrum, Polygon, and more.","tooltipTitle":"Uniswap","tooltipUrl":"https://uniswap.org/?utm_source=Blockscout"},"name":"Uniswap V2","ordinal":0,"slug":"uniswap-v2","tagType":"protocol"}]},"name":"UniswapV2Router02","private_tags":[],"proxy_type":null,"public_tags":[],"reputation":"ok","watchlist_names":[]},"authorization_list":[],"method":"swapExactETHForTokensSupportingFeeOnTransferTokens","fee":{"type":"maximum","value":"3000000000000"},"actions":[],"gas_limit":"300000","gas_price":"10000000","decoded_input":{"method_call":"swapExactETHForTokensSupportingFeeOnTransferTokens(uint256 amountOutMin, address[] path, address to, uint256 deadline)","method_id":"b6f9de95","parameters":[{"name":"amountOutMin","type":"uint256","value":"534745363859122"},{"name":"path","type":"address[]","value":["0xC02aaA39b223FE8D0A0e5C4F27eAD9083C756Cc2","0xfB7B4564402E5500dB5bB6d63Ae671302777C75a"]},{"name":"to","type":"address","value":"0x3C2e833ABcA9AB23AC120772aFe569358e8c682D"},{"name":"deadline","type":"uint256","value":"1721835701"}]},"token_transfers":null,"base_fee_per_gas":null,"timestamp":null,"nonce":29,"historic_exchange_rate":null,"transaction_types":["coin_transfer","contract_call"],"exchange_rate":"3887.67","block_number":null,"has_error_in_internal_transactions":null},{"priority_fee":null,"raw_input":"0x7ff36ab500000000000000000000000000000000000000000000e3f40d4938cc44bc862a0000000000000000000000000000000000000000000000000000000000000080000000000000000000000000cd46088364dd55ba240ab085ded8f8794b7d9791000000000000000000000000000000000000000000000000000000006099f1b30000000000000000000000000000000000000000000000000000000000000003000000000000000000000000c02aaa39b223fe8d0a0e5c4f27ead9083c756cc2000000000000000000000000a0b86991c6218b36c1d19d4a2e9eb0ce3606eb4800000000000000000000000095ad61b0a150d79219dcf64e1e6cc01f0b64c4ce","is_pending_update":null,"result":"pending","hash":"0x0eea2907823d52849f359f567b922fafa53d476c75e3c370c1e6197464f9446b","max_fee_per_gas":null,"revert_reason":null,"confirmation_duration":[],"transaction_burnt_fee":null,"type":0,"token_transfers_overflow":null,"confirmations":0,"position":null,"max_priority_fee_per_gas":null,"transaction_tag":null,"created_contract":null,"value":"10000000000000000","from":{"ens_domain_name":null,"hash":"0xCd46088364dd55Ba240AB085dEd8F8794b7D9791","implementations":[],"is_contract":false,"is_scam":false,"is_verified":false,"metadata":null,"name":null,"private_tags":[],"proxy_type":null,"public_tags":[],"reputation":"ok","watchlist_names":[]},"gas_used":null,"status":null,"to":{"ens_domain_name":null,"hash":"0x7a250d5630B4cF539739dF2C5dAcb4c659F2488D","implementations":[],"is_contract":true,"is_scam":false,"is_verified":true,"metadata":{"tags":[{"meta":{"bgColor":"#FFFFFF","projectName":"Uniswap V2","tagUrl":"https://app.klerosscout.eth.limo/#/?registry=Single_Tags&itemdetails=0x21dee62fd8759eac196977676d698320331baf2d86a275f6fd61b587d90cafc8@0x66260c69d03837016d88c9877e61e08ef74c59f2","textColor":"#FF007A","tooltipDescription":"Up-to-date Uniswap V2 Router contract.","tooltipUrl":"https://app.uniswap.org/#/swap","verifiedDomains":["app.thorswap.finance","app.uniswap.org"]},"name":"Uniswap V3: Universal Router","ordinal":10,"slug":"uniswap-v3-universal-router","tagType":"name"},{"meta":{},"name":"DEX","ordinal":0,"slug":"dex","tagType":"generic"},{"meta":{"appID":"uniswap","bgColor":"#FF007A","tagIcon":"https://blockscout-content.s3.amazonaws.com/uniswap.png","tagUrl":"https://uniswap.org/?utm_source=Blockscout","textColor":"#FFFFFF","tooltipDescription":"Trade crypto and NFTs safely on the top DeFi platform. Swapping made simple. Buy and sell crypto on Ethereum, Base, Arbitrum, Polygon, and more.","tooltipTitle":"Uniswap","tooltipUrl":"https://uniswap.org/?utm_source=Blockscout"},"name":"Uniswap V2","ordinal":0,"slug":"uniswap-v2","tagType":"protocol"}]},"name":"UniswapV2Router02","private_tags":[],"proxy_type":null,"public_tags":[],"reputation":"ok","watchlist_names":[]},"authorization_list":[],"method":"swapExactETHForTokens","fee":{"type":"maximum","value":"4804200000000"},"actions":[],"gas_limit":"240210","gas_price":"20000000","decoded_input":{"method_call":"swapExactETHForTokens(uint256 amountOutMin, address[] path, address to, uint256 deadline)","method_id":"7ff36ab5","parameters":[{"name":"amountOutMin","type":"uint256","value":"1076479154524240364733994"},{"name":"path","type":"address[]","value":["0xC02aaA39b223FE8D0A0e5C4F27eAD9083C756Cc2","0xA0b86991c6218b36c1d19D4a2e9Eb0cE3606eB48","0x95aD61b0a150d79219dCF64E1E6Cc01f0B64C4cE"]},{"name":"to","type":"address","value":"0xCd46088364dd55Ba240AB085dEd8F8794b7D9791"},{"name":"deadline","type":"uint256","value":"1620701619"}]},"token_transfers":null,"base_fee_per_gas":null,"timestamp":null,"nonce":0,"historic_exchange_rate":null,"transaction_types":["coin_transfer","contract_call"],"exchange_rate":"3887.67","block_number":null,"has_error_in_internal_transactions":null},{"priority_fee":null,"raw_input":"0x18cbafe50000000000000000000000000000000000000000000000000000c099897f6c65000000000000000000000000000000000000000000000000000d13add2aabea100000000000000000000000000000000000000000000000000000000000000a0000000000000000000000000df541ce13ec9f6c5630ef18da9b9f88d12940d540000000000000000000000000000000000000000000000000000000060c3e0c1000000000000000000000000000000000000000000000000000000000000000200000000000000000000000023b608675a2b2fb1890d3abbd85c5775c51691d5000000000000000000000000c02aaa39b223fe8d0a0e5c4f27ead9083c756cc2","is_pending_update":null,"result":"pending","hash":"0xf828fb1c66455a23e0aeff0c512535100899fe02d6d388af2e99df4901ca83f7","max_fee_per_gas":null,"revert_reason":null,"confirmation_duration":[],"transaction_burnt_fee":null,"type":0,"token_transfers_overflow":null,"confirmations":0,"position":null,"max_priority_fee_per_gas":null,"transaction_tag":null,"created_contract":null,"value":"0","from":{"ens_domain_name":null,"hash":"0xdF541CE13eC9f6C5630eF18da9b9f88d12940d54","implementations":[],"is_contract":false,"is_scam":false,"is_verified":false,"metadata":null,"name":null,"private_tags":[],"proxy_type":null,"public_tags":[],"reputation":"ok","watchlist_names":[]},"gas_used":null,"status":null,"to":{"ens_domain_name":null,"hash":"0x7a250d5630B4cF539739dF2C5dAcb4c659F2488D","implementations":[],"is_contract":true,"is_scam":false,"is_verified":true,"metadata":{"tags":[{"meta":{"bgColor":"#FFFFFF","projectName":"Uniswap V2","tagUrl":"https://app.klerosscout.eth.limo/#/?registry=Single_Tags&itemdetails=0x21dee62fd8759eac196977676d698320331baf2d86a275f6fd61b587d90cafc8@0x66260c69d03837016d88c9877e61e08ef74c59f2","textColor":"#FF007A","tooltipDescription":"Up-to-date Uniswap V2 Router contract.","tooltipUrl":"https://app.uniswap.org/#/swap","verifiedDomains":["app.thorswap.finance","app.uniswap.org"]},"name":"Uniswap V3: Universal Router","ordinal":10,"slug":"uniswap-v3-universal-router","tagType":"name"},{"meta":{},"name":"DEX","ordinal":0,"slug":"dex","tagType":"generic"},{"meta":{"appID":"uniswap","bgColor":"#FF007A","tagIcon":"https://blockscout-content.s3.amazonaws.com/uniswap.png","tagUrl":"https://uniswap.org/?utm_source=Blockscout","textColor":"#FFFFFF","tooltipDescription":"Trade crypto and NFTs safely on the top DeFi platform. Swapping made simple. Buy and sell crypto on Ethereum, Base, Arbitrum, Polygon, and more.","tooltipTitle":"Uniswap","tooltipUrl":"https://uniswap.org/?utm_source=Blockscout"},"name":"Uniswap V2","ordinal":0,"slug":"uniswap-v2","tagType":"protocol"}]},"name":"UniswapV2Router02","private_tags":[],"proxy_type":null,"public_tags":[],"reputation":"ok","watchlist_names":[]},"authorization_list":[],"method":"swapExactTokensForETH","fee":{"type":"maximum","value":"9044150000000"},"actions":[],"gas_limit":"180883","gas_price":"50000000","decoded_input":{"method_call":"swapExactTokensForETH(uint256 amountIn, uint256 amountOutMin, address[] path, address to, uint256 deadline)","method_id":"18cbafe5","parameters":[{"name":"amountIn","type":"uint256","value":"211765669358693"},{"name":"amountOutMin","type":"uint256","value":"3680811981913761"},{"name":"path","type":"address[]","value":["0x23B608675a2B2fB1890d3ABBd85c5775c51691d5","0xC02aaA39b223FE8D0A0e5C4F27eAD9083C756Cc2"]},{"name":"to","type":"address","value":"0xdF541CE13eC9f6C5630eF18da9b9f88d12940d54"},{"name":"deadline","type":"uint256","value":"1623449793"}]},"token_transfers":null,"base_fee_per_gas":null,"timestamp":null,"nonce":4,"historic_exchange_rate":null,"transaction_types":["contract_call"],"exchange_rate":"3887.67","block_number":null,"has_error_in_internal_transactions":null},{"priority_fee":null,"raw_input":"0x7ff36ab50000000000000000000000000000000000000000000000000001fbf0c57be1190000000000000000000000000000000000000000000000000000000000000080000000000000000000000000313ab346c9e64b90f9749a7937be9c9bb2139a1e0000000000000000000000000000000000000000000000000000000060827c170000000000000000000000000000000000000000000000000000000000000002000000000000000000000000c02aaa39b223fe8d0a0e5c4f27ead9083c756cc2000000000000000000000000c00e94cb662c3520282e6f5717214004a7f26888","is_pending_update":null,"result":"pending","hash":"0x84be3727352285bd1ed7eec65df56cb7d0bb11f4ced586931f64656e4eec1022","max_fee_per_gas":null,"revert_reason":null,"confirmation_duration":[],"transaction_burnt_fee":null,"type":0,"token_transfers_overflow":null,"confirmations":0,"position":null,"max_priority_fee_per_gas":null,"transaction_tag":null,"created_contract":null,"value":"119999707200000","from":{"ens_domain_name":null,"hash":"0x313ab346C9E64B90f9749a7937Be9C9Bb2139a1E","implementations":[],"is_contract":false,"is_scam":false,"is_verified":false,"metadata":null,"name":null,"private_tags":[],"proxy_type":null,"public_tags":[],"reputation":"ok","watchlist_names":[]},"gas_used":null,"status":null,"to":{"ens_domain_name":null,"hash":"0x7a250d5630B4cF539739dF2C5dAcb4c659F2488D","implementations":[],"is_contract":true,"is_scam":false,"is_verified":true,"metadata":{"tags":[{"meta":{"bgColor":"#FFFFFF","projectName":"Uniswap V2","tagUrl":"https://app.klerosscout.eth.limo/#/?registry=Single_Tags&itemdetails=0x21dee62fd8759eac196977676d698320331baf2d86a275f6fd61b587d90cafc8@0x66260c69d03837016d88c9877e61e08ef74c59f2","textColor":"#FF007A","tooltipDescription":"Up-to-date Uniswap V2 Router contract.","tooltipUrl":"https://app.uniswap.org/#/swap","verifiedDomains":["app.thorswap.finance","app.uniswap.org"]},"name":"Uniswap V3: Universal Router","ordinal":10,"slug":"uniswap-v3-universal-router","tagType":"name"},{"meta":{},"name":"DEX","ordinal":0,"slug":"dex","tagType":"generic"},{"meta":{"appID":"uniswap","bgColor":"#FF007A","tagIcon":"https://blockscout-content.s3.amazonaws.com/uniswap.png","tagUrl":"https://uniswap.org/?utm_source=Blockscout","textColor":"#FFFFFF","tooltipDescription":"Trade crypto and NFTs safely on the top DeFi platform. Swapping made simple. Buy and sell crypto on Ethereum, Base, Arbitrum, Polygon, and more.","tooltipTitle":"Uniswap","tooltipUrl":"https://uniswap.org/?utm_source=Blockscout"},"name":"Uniswap V2","ordinal":0,"slug":"uniswap-v2","tagType":"protocol"}]},"name":"UniswapV2Router02","private_tags":[],"proxy_type":null,"public_tags":[],"reputation":"ok","watchlist_names":[]},"authorization_list":[],"method":"swapExactETHForTokens","fee":{"type":"maximum","value":"292800000"},"actions":[],"gas_limit":"244000","gas_price":"1200","decoded_input":{"method_call":"swapExactETHForTokens(uint256 amountOutMin, address[] path, address to, uint256 deadline)","method_id":"7ff36ab5","parameters":[{"name":"amountOutMin","type":"uint256","value":"558486500663577"},{"name":"path","type":"address[]","value":["0xC02aaA39b223FE8D0A0e5C4F27eAD9083C756Cc2","0xc00e94Cb662C3520282E6f5717214004A7f26888"]},{"name":"to","type":"address","value":"0x313ab346C9E64B90f9749a7937Be9C9Bb2139a1E"},{"name":"deadline","type":"uint256","value":"1619164183"}]},"token_transfers":null,"base_fee_per_gas":null,"timestamp":null,"nonce":3,"historic_exchange_rate":null,"transaction_types":["coin_transfer","contract_call"],"exchange_rate":"3887.67","block_number":null,"has_error_in_internal_transactions":null},{"priority_fee":null,"raw_input":"0x7ff36ab50000000000000000000000000000000000000000000003df8a97716e56d1e6ec0000000000000000000000000000000000000000000000000000000000000080000000000000000000000000c3fe90109c328ec9e216d8159a535ee56eba94a80000000000000000000000000000000000000000000000000000000060aeda150000000000000000000000000000000000000000000000000000000000000002000000000000000000000000c02aaa39b223fe8d0a0e5c4f27ead9083c756cc2000000000000000000000000d6327ce1fb9d6020e8c2c0e124a1ec23dcab7536","is_pending_update":null,"result":"pending","hash":"0x10c6fd91de718a945299d1568d76ab3060e5c945398efdb8472c0ba28b95f4d1","max_fee_per_gas":null,"revert_reason":null,"confirmation_duration":[],"transaction_burnt_fee":null,"type":0,"token_transfers_overflow":null,"confirmations":0,"position":null,"max_priority_fee_per_gas":null,"transaction_tag":null,"created_contract":null,"value":"4000000000000000","from":{"ens_domain_name":null,"hash":"0xC3FE90109c328EC9E216D8159a535Ee56eBa94A8","implementations":[],"is_contract":false,"is_scam":false,"is_verified":false,"metadata":null,"name":null,"private_tags":[],"proxy_type":null,"public_tags":[],"reputation":"ok","watchlist_names":[]},"gas_used":null,"status":null,"to":{"ens_domain_name":null,"hash":"0x7a250d5630B4cF539739dF2C5dAcb4c659F2488D","implementations":[],"is_contract":true,"is_scam":false,"is_verified":true,"metadata":{"tags":[{"meta":{"bgColor":"#FFFFFF","projectName":"Uniswap V2","tagUrl":"https://app.klerosscout.eth.limo/#/?registry=Single_Tags&itemdetails=0x21dee62fd8759eac196977676d698320331baf2d86a275f6fd61b587d90cafc8@0x66260c69d03837016d88c9877e61e08ef74c59f2","textColor":"#FF007A","tooltipDescription":"Up-to-date Uniswap V2 Router contract.","tooltipUrl":"https://app.uniswap.org/#/swap","verifiedDomains":["app.thorswap.finance","app.uniswap.org"]},"name":"Uniswap V3: Universal Router","ordinal":10,"slug":"uniswap-v3-universal-router","tagType":"name"},{"meta":{},"name":"DEX","ordinal":0,"slug":"dex","tagType":"generic"},{"meta":{"appID":"uniswap","bgColor":"#FF007A","tagIcon":"https://blockscout-content.s3.amazonaws.com/uniswap.png","tagUrl":"https://uniswap.org/?utm_source=Blockscout","textColor":"#FFFFFF","tooltipDescription":"Trade crypto and NFTs safely on the top DeFi platform. Swapping made simple. Buy and sell crypto on Ethereum, Base, Arbitrum, Polygon, and more.","tooltipTitle":"Uniswap","tooltipUrl":"https://uniswap.org/?utm_source=Blockscout"},"name":"Uniswap V2","ordinal":0,"slug":"uniswap-v2","tagType":"protocol"}]},"name":"UniswapV2Router02","private_tags":[],"proxy_type":null,"public_tags":[],"reputation":"ok","watchlist_names":[]},"authorization_list":[],"method":"swapExactETHForTokens","fee":{"type":"maximum","value":"173192"},"actions":[],"gas_limit":"173192","gas_price":"1","decoded_input":{"method_call":"swapExactETHForTokens(uint256 amountOutMin, address[] path, address to, uint256 deadline)","method_id":"7ff36ab5","parameters":[{"name":"amountOutMin","type":"uint256","value":"18290709952463599953644"},{"name":"path","type":"address[]","value":["0xC02aaA39b223FE8D0A0e5C4F27eAD9083C756Cc2","0xd6327ce1fb9D6020E8C2c0E124A1eC23DCAb7536"]},{"name":"to","type":"address","value":"0xC3FE90109c328EC9E216D8159a535Ee56eBa94A8"},{"name":"deadline","type":"uint256","value":"1622071829"}]},"token_transfers":null,"base_fee_per_gas":null,"timestamp":null,"nonce":3,"historic_exchange_rate":null,"transaction_types":["coin_transfer","contract_call"],"exchange_rate":"3887.67","block_number":null,"has_error_in_internal_transactions":null},{"priority_fee":null,"raw_input":"0x7ff36ab500000000000000000000000000000000000000000000000001f14352b265dbe30000000000000000000000000000000000000000000000000000000000000080000000000000000000000000555d09a7afb536b42172f69b07fbc522344048c200000000000000000000000000000000000000000000000000000000602eebd70000000000000000000000000000000000000000000000000000000000000002000000000000000000000000c02aaa39b223fe8d0a0e5c4f27ead9083c756cc2000000000000000000000000a10740ff9ff6852eac84cdcff9184e1d6d27c057","is_pending_update":null,"result":"pending","hash":"0x6509aec793afff96ad6d5bce11ce448dca2c4b90a4cad0a0b02c647b4b8feb30","max_fee_per_gas":null,"revert_reason":null,"confirmation_duration":[],"transaction_burnt_fee":null,"type":0,"token_transfers_overflow":null,"confirmations":0,"position":null,"max_priority_fee_per_gas":null,"transaction_tag":null,"created_contract":null,"value":"38130544656658619","from":{"ens_domain_name":null,"hash":"0x555d09A7afb536b42172f69B07FbC522344048c2","implementations":[],"is_contract":false,"is_scam":false,"is_verified":false,"metadata":null,"name":null,"private_tags":[],"proxy_type":null,"public_tags":[],"reputation":"ok","watchlist_names":[]},"gas_used":null,"status":null,"to":{"ens_domain_name":null,"hash":"0x7a250d5630B4cF539739dF2C5dAcb4c659F2488D","implementations":[],"is_contract":true,"is_scam":false,"is_verified":true,"metadata":{"tags":[{"meta":{"bgColor":"#FFFFFF","projectName":"Uniswap V2","tagUrl":"https://app.klerosscout.eth.limo/#/?registry=Single_Tags&itemdetails=0x21dee62fd8759eac196977676d698320331baf2d86a275f6fd61b587d90cafc8@0x66260c69d03837016d88c9877e61e08ef74c59f2","textColor":"#FF007A","tooltipDescription":"Up-to-date Uniswap V2 Router contract.","tooltipUrl":"https://app.uniswap.org/#/swap","verifiedDomains":["app.thorswap.finance","app.uniswap.org"]},"name":"Uniswap V3: Universal Router","ordinal":10,"slug":"uniswap-v3-universal-router","tagType":"name"},{"meta":{},"name":"DEX","ordinal":0,"slug":"dex","tagType":"generic"},{"meta":{"appID":"uniswap","bgColor":"#FF007A","tagIcon":"https://blockscout-content.s3.amazonaws.com/uniswap.png","tagUrl":"https://uniswap.org/?utm_source=Blockscout","textColor":"#FFFFFF","tooltipDescription":"Trade crypto and NFTs safely on the top DeFi platform. Swapping made simple. Buy and sell crypto on Ethereum, Base, Arbitrum, Polygon, and more.","tooltipTitle":"Uniswap","tooltipUrl":"https://uniswap.org/?utm_source=Blockscout"},"name":"Uniswap V2","ordinal":0,"slug":"uniswap-v2","tagType":"protocol"}]},"name":"UniswapV2Router02","private_tags":[],"proxy_type":null,"public_tags":[],"reputation":"ok","watchlist_names":[]},"authorization_list":[],"method":"swapExactETHForTokens","fee":{"type":"maximum","value":"8245500000000000"},"actions":[],"gas_limit":"164910","gas_price":"50000000000","decoded_input":{"method_call":"swapExactETHForTokens(uint256 amountOutMin, address[] path, address to, uint256 deadline)","method_id":"7ff36ab5","parameters":[{"name":"amountOutMin","type":"uint256","value":"139967085884595171"},{"name":"path","type":"address[]","value":["0xC02aaA39b223FE8D0A0e5C4F27eAD9083C756Cc2","0xa10740ff9FF6852eac84cdcfF9184e1D6d27C057"]},{"name":"to","type":"address","value":"0x555d09A7afb536b42172f69B07FbC522344048c2"},{"name":"deadline","type":"uint256","value":"1613687767"}]},"token_transfers":null,"base_fee_per_gas":null,"timestamp":null,"nonce":6,"historic_exchange_rate":null,"transaction_types":["coin_transfer","contract_call"],"exchange_rate":"3887.67","block_number":null,"has_error_in_internal_transactions":null},{"priority_fee":null,"raw_input":"0x7ff36ab500000000000000000000000000000000000000000000732d219ce7509d58b80700000000000000000000000000000000000000000000000000000000000000800000000000000000000000004b4f95362a6d8c829b651b13f6fee8d35f0ec7d800000000000000000000000000000000000000000000000000000000609d61f60000000000000000000000000000000000000000000000000000000000000002000000000000000000000000c02aaa39b223fe8d0a0e5c4f27ead9083c756cc2000000000000000000000000348b7f3106b5da47405332534d06069ff9ce4d1b","is_pending_update":null,"result":"pending","hash":"0xd5b58f9715ef72b37f331e1f686276ad4ec1b74769e08039812ce8439fe1f315","max_fee_per_gas":null,"revert_reason":null,"confirmation_duration":[],"transaction_burnt_fee":null,"type":0,"token_transfers_overflow":null,"confirmations":0,"position":null,"max_priority_fee_per_gas":null,"transaction_tag":null,"created_contract":null,"value":"13100000000000000","from":{"ens_domain_name":null,"hash":"0x4b4f95362a6d8C829B651B13f6feE8d35f0eC7D8","implementations":[],"is_contract":false,"is_scam":false,"is_verified":false,"metadata":null,"name":null,"private_tags":[],"proxy_type":null,"public_tags":[],"reputation":"ok","watchlist_names":[]},"gas_used":null,"status":null,"to":{"ens_domain_name":null,"hash":"0x7a250d5630B4cF539739dF2C5dAcb4c659F2488D","implementations":[],"is_contract":true,"is_scam":false,"is_verified":true,"metadata":{"tags":[{"meta":{"bgColor":"#FFFFFF","projectName":"Uniswap V2","tagUrl":"https://app.klerosscout.eth.limo/#/?registry=Single_Tags&itemdetails=0x21dee62fd8759eac196977676d698320331baf2d86a275f6fd61b587d90cafc8@0x66260c69d03837016d88c9877e61e08ef74c59f2","textColor":"#FF007A","tooltipDescription":"Up-to-date Uniswap V2 Router contract.","tooltipUrl":"https://app.uniswap.org/#/swap","verifiedDomains":["app.thorswap.finance","app.uniswap.org"]},"name":"Uniswap V3: Universal Router","ordinal":10,"slug":"uniswap-v3-universal-router","tagType":"name"},{"meta":{},"name":"DEX","ordinal":0,"slug":"dex","tagType":"generic"},{"meta":{"appID":"uniswap","bgColor":"#FF007A","tagIcon":"https://blockscout-content.s3.amazonaws.com/uniswap.png","tagUrl":"https://uniswap.org/?utm_source=Blockscout","textColor":"#FFFFFF","tooltipDescription":"Trade crypto and NFTs safely on the top DeFi platform. Swapping made simple. Buy and sell crypto on Ethereum, Base, Arbitrum, Polygon, and more.","tooltipTitle":"Uniswap","tooltipUrl":"https://uniswap.org/?utm_source=Blockscout"},"name":"Uniswap V2","ordinal":0,"slug":"uniswap-v2","tagType":"protocol"}]},"name":"UniswapV2Router02","private_tags":[],"proxy_type":null,"public_tags":[],"reputation":"ok","watchlist_names":[]},"authorization_list":[],"method":"swapExactETHForTokens","fee":{"type":"maximum","value":"2930000000000"},"actions":[],"gas_limit":"293000","gas_price":"10000000","decoded_input":{"method_call":"swapExactETHForTokens(uint256 amountOutMin, address[] path, address to, uint256 deadline)","method_id":"7ff36ab5","parameters":[{"name":"amountOutMin","type":"uint256","value":"543904671078359171119111"},{"name":"path","type":"address[]","value":["0xC02aaA39b223FE8D0A0e5C4F27eAD9083C756Cc2","0x348B7f3106B5Da47405332534d06069fF9CE4d1B"]},{"name":"to","type":"address","value":"0x4b4f95362a6d8C829B651B13f6feE8d35f0eC7D8"},{"name":"deadline","type":"uint256","value":"1620926966"}]},"token_transfers":null,"base_fee_per_gas":null,"timestamp":null,"nonce":0,"historic_exchange_rate":null,"transaction_types":["coin_transfer","contract_call"],"exchange_rate":"3887.67","block_number":null,"has_error_in_internal_transactions":null},{"priority_fee":null,"raw_input":"0x7ff36ab50000000000000000000000000000000000000000000010598929be1cc3af146100000000000000000000000000000000000000000000000000000000000000800000000000000000000000008f70fc15602b8bc32772d79c0160778e7029c52c00000000000000000000000000000000000000000000000000000000609988370000000000000000000000000000000000000000000000000000000000000004000000000000000000000000c02aaa39b223fe8d0a0e5c4f27ead9083c756cc20000000000000000000000002260fac5e5542a773aa44fbcfedf7c193bc2c5990000000000000000000000006b175474e89094c44da98b954eedeac495271d0f00000000000000000000000095ad61b0a150d79219dcf64e1e6cc01f0b64c4ce","is_pending_update":null,"result":"pending","hash":"0xc15a0598f54c2db6645c82785449b2377472f51a5782b682ad971494ccd6f941","max_fee_per_gas":null,"revert_reason":null,"confirmation_duration":[],"transaction_burnt_fee":null,"type":0,"token_transfers_overflow":null,"confirmations":0,"position":null,"max_priority_fee_per_gas":null,"transaction_tag":null,"created_contract":null,"value":"500000000000000","from":{"ens_domain_name":null,"hash":"0x8F70fC15602b8BC32772D79C0160778e7029C52c","implementations":[],"is_contract":false,"is_scam":false,"is_verified":false,"metadata":null,"name":null,"private_tags":[],"proxy_type":null,"public_tags":[],"reputation":"ok","watchlist_names":[]},"gas_used":null,"status":null,"to":{"ens_domain_name":null,"hash":"0x7a250d5630B4cF539739dF2C5dAcb4c659F2488D","implementations":[],"is_contract":true,"is_scam":false,"is_verified":true,"metadata":{"tags":[{"meta":{"bgColor":"#FFFFFF","projectName":"Uniswap V2","tagUrl":"https://app.klerosscout.eth.limo/#/?registry=Single_Tags&itemdetails=0x21dee62fd8759eac196977676d698320331baf2d86a275f6fd61b587d90cafc8@0x66260c69d03837016d88c9877e61e08ef74c59f2","textColor":"#FF007A","tooltipDescription":"Up-to-date Uniswap V2 Router contract.","tooltipUrl":"https://app.uniswap.org/#/swap","verifiedDomains":["app.thorswap.finance","app.uniswap.org"]},"name":"Uniswap V3: Universal Router","ordinal":10,"slug":"uniswap-v3-universal-router","tagType":"name"},{"meta":{},"name":"DEX","ordinal":0,"slug":"dex","tagType":"generic"},{"meta":{"appID":"uniswap","bgColor":"#FF007A","tagIcon":"https://blockscout-content.s3.amazonaws.com/uniswap.png","tagUrl":"https://uniswap.org/?utm_source=Blockscout","textColor":"#FFFFFF","tooltipDescription":"Trade crypto and NFTs safely on the top DeFi platform. Swapping made simple. Buy and sell crypto on Ethereum, Base, Arbitrum, Polygon, and more.","tooltipTitle":"Uniswap","tooltipUrl":"https://uniswap.org/?utm_source=Blockscout"},"name":"Uniswap V2","ordinal":0,"slug":"uniswap-v2","tagType":"protocol"}]},"name":"UniswapV2Router02","private_tags":[],"proxy_type":null,"public_tags":[],"reputation":"ok","watchlist_names":[]},"authorization_list":[],"method":"swapExactETHForTokens","fee":{"type":"maximum","value":"2908100000000"},"actions":[],"gas_limit":"290810","gas_price":"10000000","decoded_input":{"method_call":"swapExactETHForTokens(uint256 amountOutMin, address[] path, address to, uint256 deadline)","method_id":"7ff36ab5","parameters":[{"name":"amountOutMin","type":"uint256","value":"77209507588362466169953"},{"name":"path","type":"address[]","value":["0xC02aaA39b223FE8D0A0e5C4F27eAD9083C756Cc2","0x2260FAC5E5542a773Aa44fBCfeDf7C193bc2C599","0x6B175474E89094C44Da98b954EedeAC495271d0F","0x95aD61b0a150d79219dCF64E1E6Cc01f0B64C4cE"]},{"name":"to","type":"address","value":"0x8F70fC15602b8BC32772D79C0160778e7029C52c"},{"name":"deadline","type":"uint256","value":"1620674615"}]},"token_transfers":null,"base_fee_per_gas":null,"timestamp":null,"nonce":4,"historic_exchange_rate":null,"transaction_types":["coin_transfer","contract_call"],"exchange_rate":"3887.67","block_number":null,"has_error_in_internal_transactions":null},{"priority_fee":null,"raw_input":"0x38ed1739000000000000000000000000000000000000000000000032841b15937551841c0000000000000000000000000000000000000000000000000000000150479ee800000000000000000000000000000000000000000000000000000000000000a0000000000000000000000000fd3579453b72ca7d781f11b99ff7f929cef83d300000000000000000000000000000000000000000000000000000000061018e790000000000000000000000000000000000000000000000000000000000000003000000000000000000000000b4d930279552397bba2ee473229f89ec245bc365000000000000000000000000c02aaa39b223fe8d0a0e5c4f27ead9083c756cc2000000000000000000000000a0b86991c6218b36c1d19d4a2e9eb0ce3606eb48","is_pending_update":null,"result":"pending","hash":"0x5b5405394f18e08ee0cb69f0fe2f0e48fb24d4045d55c23261e5c0d2adf874a2","max_fee_per_gas":null,"revert_reason":null,"confirmation_duration":[],"transaction_burnt_fee":null,"type":0,"token_transfers_overflow":null,"confirmations":0,"position":null,"max_priority_fee_per_gas":null,"transaction_tag":null,"created_contract":null,"value":"0","from":{"ens_domain_name":null,"hash":"0xFd3579453B72cA7d781F11b99FF7F929cEf83d30","implementations":[],"is_contract":false,"is_scam":false,"is_verified":false,"metadata":null,"name":null,"private_tags":[],"proxy_type":null,"public_tags":[],"reputation":"ok","watchlist_names":[]},"gas_used":null,"status":null,"to":{"ens_domain_name":null,"hash":"0x7a250d5630B4cF539739dF2C5dAcb4c659F2488D","implementations":[],"is_contract":true,"is_scam":false,"is_verified":true,"metadata":{"tags":[{"meta":{"bgColor":"#FFFFFF","projectName":"Uniswap V2","tagUrl":"https://app.klerosscout.eth.limo/#/?registry=Single_Tags&itemdetails=0x21dee62fd8759eac196977676d698320331baf2d86a275f6fd61b587d90cafc8@0x66260c69d03837016d88c9877e61e08ef74c59f2","textColor":"#FF007A","tooltipDescription":"Up-to-date Uniswap V2 Router contract.","tooltipUrl":"https://app.uniswap.org/#/swap","verifiedDomains":["app.thorswap.finance","app.uniswap.org"]},"name":"Uniswap V3: Universal Router","ordinal":10,"slug":"uniswap-v3-universal-router","tagType":"name"},{"meta":{},"name":"DEX","ordinal":0,"slug":"dex","tagType":"generic"},{"meta":{"appID":"uniswap","bgColor":"#FF007A","tagIcon":"https://blockscout-content.s3.amazonaws.com/uniswap.png","tagUrl":"https://uniswap.org/?utm_source=Blockscout","textColor":"#FFFFFF","tooltipDescription":"Trade crypto and NFTs safely on the top DeFi platform. Swapping made simple. Buy and sell crypto on Ethereum, Base, Arbitrum, Polygon, and more.","tooltipTitle":"Uniswap","tooltipUrl":"https://uniswap.org/?utm_source=Blockscout"},"name":"Uniswap V2","ordinal":0,"slug":"uniswap-v2","tagType":"protocol"}]},"name":"UniswapV2Router02","private_tags":[],"proxy_type":null,"public_tags":[],"reputation":"ok","watchlist_names":[]},"authorization_list":[],"method":"swapExactTokensForTokens","fee":{"type":"maximum","value":"9839458200000000"},"actions":[],"gas_limit":"229358","gas_price":"42900000000","decoded_input":{"method_call":"swapExactTokensForTokens(uint256 amountIn, uint256 amountOutMin, address[] path, address to, uint256 deadline)","method_id":"38ed1739","parameters":[{"name":"amountIn","type":"uint256","value":"931856429645927908380"},{"name":"amountOutMin","type":"uint256","value":"5641838312"},{"name":"path","type":"address[]","value":["0xB4d930279552397bbA2ee473229f89Ec245bc365","0xC02aaA39b223FE8D0A0e5C4F27eAD9083C756Cc2","0xA0b86991c6218b36c1d19D4a2e9Eb0cE3606eB48"]},{"name":"to","type":"address","value":"0xFd3579453B72cA7d781F11b99FF7F929cEf83d30"},{"name":"deadline","type":"uint256","value":"1627491961"}]},"token_transfers":null,"base_fee_per_gas":null,"timestamp":null,"nonce":88,"historic_exchange_rate":null,"transaction_types":["contract_call"],"exchange_rate":"3887.67","block_number":null,"has_error_in_internal_transactions":null},{"priority_fee":null,"raw_input":"0x18cbafe50000000000000000000000000000000000000000000000600e822783de03bdb1000000000000000000000000000000000000000000000000009a96fb37723c1700000000000000000000000000000000000000000000000000000000000000a0000000000000000000000000044ee461855e03a521313c70b0cc821eb883367c000000000000000000000000000000000000000000000000000000006102ae6b0000000000000000000000000000000000000000000000000000000000000002000000000000000000000000fffffffff15abf397da76f1dcc1a1604f45126db000000000000000000000000c02aaa39b223fe8d0a0e5c4f27ead9083c756cc2","is_pending_update":null,"result":"pending","hash":"0xad154c49ee9f9532df8f4da9f992017f1ce6f139897a5d41c808e7a42cabfae2","max_fee_per_gas":null,"revert_reason":null,"confirmation_duration":[],"transaction_burnt_fee":null,"type":0,"token_transfers_overflow":null,"confirmations":0,"position":null,"max_priority_fee_per_gas":null,"transaction_tag":null,"created_contract":null,"value":"0","from":{"ens_domain_name":null,"hash":"0x044ee461855e03A521313C70B0CC821eB883367c","implementations":[],"is_contract":false,"is_scam":false,"is_verified":false,"metadata":null,"name":null,"private_tags":[],"proxy_type":null,"public_tags":[],"reputation":"ok","watchlist_names":[]},"gas_used":null,"status":null,"to":{"ens_domain_name":null,"hash":"0x7a250d5630B4cF539739dF2C5dAcb4c659F2488D","implementations":[],"is_contract":true,"is_scam":false,"is_verified":true,"metadata":{"tags":[{"meta":{"bgColor":"#FFFFFF","projectName":"Uniswap V2","tagUrl":"https://app.klerosscout.eth.limo/#/?registry=Single_Tags&itemdetails=0x21dee62fd8759eac196977676d698320331baf2d86a275f6fd61b587d90cafc8@0x66260c69d03837016d88c9877e61e08ef74c59f2","textColor":"#FF007A","tooltipDescription":"Up-to-date Uniswap V2 Router contract.","tooltipUrl":"https://app.uniswap.org/#/swap","verifiedDomains":["app.thorswap.finance","app.uniswap.org"]},"name":"Uniswap V3: Universal Router","ordinal":10,"slug":"uniswap-v3-universal-router","tagType":"name"},{"meta":{},"name":"DEX","ordinal":0,"slug":"dex","tagType":"generic"},{"meta":{"appID":"uniswap","bgColor":"#FF007A","tagIcon":"https://blockscout-content.s3.amazonaws.com/uniswap.png","tagUrl":"https://uniswap.org/?utm_source=Blockscout","textColor":"#FFFFFF","tooltipDescription":"Trade crypto and NFTs safely on the top DeFi platform. Swapping made simple. Buy and sell crypto on Ethereum, Base, Arbitrum, Polygon, and more.","tooltipTitle":"Uniswap","tooltipUrl":"https://uniswap.org/?utm_source=Blockscout"},"name":"Uniswap V2","ordinal":0,"slug":"uniswap-v2","tagType":"protocol"}]},"name":"UniswapV2Router02","private_tags":[],"proxy_type":null,"public_tags":[],"reputation":"ok","watchlist_names":[]},"authorization_list":[],"method":"swapExactTokensForETH","fee":{"type":"maximum","value":"4429681850000000"},"actions":[],"gas_limit":"171361","gas_price":"25850000000","decoded_input":{"method_call":"swapExactTokensForETH(uint256 amountIn, uint256 amountOutMin, address[] path, address to, uint256 deadline)","method_id":"18cbafe5","parameters":[{"name":"amountIn","type":"uint256","value":"1771932872586939317681"},{"name":"amountOutMin","type":"uint256","value":"43513152124632087"},{"name":"path","type":"address[]","value":["0xfffffffFf15AbF397dA76f1dcc1A1604F45126DB","0xC02aaA39b223FE8D0A0e5C4F27eAD9083C756Cc2"]},{"name":"to","type":"address","value":"0x044ee461855e03A521313C70B0CC821eB883367c"},{"name":"deadline","type":"uint256","value":"1627565675"}]},"token_transfers":null,"base_fee_per_gas":null,"timestamp":null,"nonce":109,"historic_exchange_rate":null,"transaction_types":["contract_call"],"exchange_rate":"3887.67","block_number":null,"has_error_in_internal_transactions":null},{"priority_fee":null,"raw_input":"0x18cbafe50000000000000000000000000000000000000000000000600e822783de03bdb1000000000000000000000000000000000000000000000000009a96fb37723c1700000000000000000000000000000000000000000000000000000000000000a0000000000000000000000000044ee461855e03a521313c70b0cc821eb883367c000000000000000000000000000000000000000000000000000000006102ae120000000000000000000000000000000000000000000000000000000000000002000000000000000000000000fffffffff15abf397da76f1dcc1a1604f45126db000000000000000000000000c02aaa39b223fe8d0a0e5c4f27ead9083c756cc2","is_pending_update":null,"result":"pending","hash":"0xe64fa06054234ce031806005e29844b246407e926010e088ddb7654db029dcc1","max_fee_per_gas":null,"revert_reason":null,"confirmation_duration":[],"transaction_burnt_fee":null,"type":0,"token_transfers_overflow":null,"confirmations":0,"position":null,"max_priority_fee_per_gas":null,"transaction_tag":null,"created_contract":null,"value":"0","from":{"ens_domain_name":null,"hash":"0x044ee461855e03A521313C70B0CC821eB883367c","implementations":[],"is_contract":false,"is_scam":false,"is_verified":false,"metadata":null,"name":null,"private_tags":[],"proxy_type":null,"public_tags":[],"reputation":"ok","watchlist_names":[]},"gas_used":null,"status":null,"to":{"ens_domain_name":null,"hash":"0x7a250d5630B4cF539739dF2C5dAcb4c659F2488D","implementations":[],"is_contract":true,"is_scam":false,"is_verified":true,"metadata":{"tags":[{"meta":{"bgColor":"#FFFFFF","projectName":"Uniswap V2","tagUrl":"https://app.klerosscout.eth.limo/#/?registry=Single_Tags&itemdetails=0x21dee62fd8759eac196977676d698320331baf2d86a275f6fd61b587d90cafc8@0x66260c69d03837016d88c9877e61e08ef74c59f2","textColor":"#FF007A","tooltipDescription":"Up-to-date Uniswap V2 Router contract.","tooltipUrl":"https://app.uniswap.org/#/swap","verifiedDomains":["app.thorswap.finance","app.uniswap.org"]},"name":"Uniswap V3: Universal Router","ordinal":10,"slug":"uniswap-v3-universal-router","tagType":"name"},{"meta":{},"name":"DEX","ordinal":0,"slug":"dex","tagType":"generic"},{"meta":{"appID":"uniswap","bgColor":"#FF007A","tagIcon":"https://blockscout-content.s3.amazonaws.com/uniswap.png","tagUrl":"https://uniswap.org/?utm_source=Blockscout","textColor":"#FFFFFF","tooltipDescription":"Trade crypto and NFTs safely on the top DeFi platform. Swapping made simple. Buy and sell crypto on Ethereum, Base, Arbitrum, Polygon, and more.","tooltipTitle":"Uniswap","tooltipUrl":"https://uniswap.org/?utm_source=Blockscout"},"name":"Uniswap V2","ordinal":0,"slug":"uniswap-v2","tagType":"protocol"}]},"name":"UniswapV2Router02","private_tags":[],"proxy_type":null,"public_tags":[],"reputation":"ok","watchlist_names":[]},"authorization_list":[],"method":"swapExactTokensForETH","fee":{"type":"maximum","value":"5654913000000"},"actions":[],"gas_limit":"171361","gas_price":"33000000","decoded_input":{"method_call":"swapExactTokensForETH(uint256 amountIn, uint256 amountOutMin, address[] path, address to, uint256 deadline)","method_id":"18cbafe5","parameters":[{"name":"amountIn","type":"uint256","value":"1771932872586939317681"},{"name":"amountOutMin","type":"uint256","value":"43513152124632087"},{"name":"path","type":"address[]","value":["0xfffffffFf15AbF397dA76f1dcc1A1604F45126DB","0xC02aaA39b223FE8D0A0e5C4F27eAD9083C756Cc2"]},{"name":"to","type":"address","value":"0x044ee461855e03A521313C70B0CC821eB883367c"},{"name":"deadline","type":"uint256","value":"1627565586"}]},"token_transfers":null,"base_fee_per_gas":null,"timestamp":null,"nonce":108,"historic_exchange_rate":null,"transaction_types":["contract_call"],"exchange_rate":"3887.67","block_number":null,"has_error_in_internal_transactions":null},{"priority_fee":null,"raw_input":"0x7ff36ab50000000000000000000000000000000000000000000000005eaa602453e5c80000000000000000000000000000000000000000000000000000000000000000800000000000000000000000001227dd32fea0610861792b31dded1497522c50640000000000000000000000000000000000000000000000000000000061bbf0d00000000000000000000000000000000000000000000000000000000000000002000000000000000000000000c02aaa39b223fe8d0a0e5c4f27ead9083c756cc200000000000000000000000071ab77b7dbb4fa7e017bc15090b2163221420282","is_pending_update":null,"result":"pending","hash":"0x742155ac50a47adae403e66e84ef97aa54c227325c1d314eeb758f34ae8faf97","max_fee_per_gas":"300","revert_reason":null,"confirmation_duration":[],"transaction_burnt_fee":null,"type":2,"token_transfers_overflow":null,"confirmations":0,"position":null,"max_priority_fee_per_gas":"5","transaction_tag":null,"created_contract":null,"value":"80000000000000000","from":{"ens_domain_name":null,"hash":"0x1227dD32Fea0610861792b31ddeD1497522c5064","implementations":[],"is_contract":false,"is_scam":false,"is_verified":false,"metadata":null,"name":null,"private_tags":[],"proxy_type":null,"public_tags":[],"reputation":"ok","watchlist_names":[]},"gas_used":null,"status":null,"to":{"ens_domain_name":null,"hash":"0x7a250d5630B4cF539739dF2C5dAcb4c659F2488D","implementations":[],"is_contract":true,"is_scam":false,"is_verified":true,"metadata":{"tags":[{"meta":{"bgColor":"#FFFFFF","projectName":"Uniswap V2","tagUrl":"https://app.klerosscout.eth.limo/#/?registry=Single_Tags&itemdetails=0x21dee62fd8759eac196977676d698320331baf2d86a275f6fd61b587d90cafc8@0x66260c69d03837016d88c9877e61e08ef74c59f2","textColor":"#FF007A","tooltipDescription":"Up-to-date Uniswap V2 Router contract.","tooltipUrl":"https://app.uniswap.org/#/swap","verifiedDomains":["app.thorswap.finance","app.uniswap.org"]},"name":"Uniswap V3: Universal Router","ordinal":10,"slug":"uniswap-v3-universal-router","tagType":"name"},{"meta":{},"name":"DEX","ordinal":0,"slug":"dex","tagType":"generic"},{"meta":{"appID":"uniswap","bgColor":"#FF007A","tagIcon":"https://blockscout-content.s3.amazonaws.com/uniswap.png","tagUrl":"https://uniswap.org/?utm_source=Blockscout","textColor":"#FFFFFF","tooltipDescription":"Trade crypto and NFTs safely on the top DeFi platform. Swapping made simple. Buy and sell crypto on Ethereum, Base, Arbitrum, Polygon, and more.","tooltipTitle":"Uniswap","tooltipUrl":"https://uniswap.org/?utm_source=Blockscout"},"name":"Uniswap V2","ordinal":0,"slug":"uniswap-v2","tagType":"protocol"}]},"name":"UniswapV2Router02","private_tags":[],"proxy_type":null,"public_tags":[],"reputation":"ok","watchlist_names":[]},"authorization_list":[],"method":"swapExactETHForTokens","fee":{"type":"maximum","value":"90000000"},"actions":[],"gas_limit":"300000","gas_price":"300","decoded_input":{"method_call":"swapExactETHForTokens(uint256 amountOutMin, address[] path, address to, uint256 deadline)","method_id":"7ff36ab5","parameters":[{"name":"amountOutMin","type":"uint256","value":"6821370294748694528"},{"name":"path","type":"address[]","value":["0xC02aaA39b223FE8D0A0e5C4F27eAD9083C756Cc2","0x71Ab77b7dbB4fa7e017BC15090b2163221420282"]},{"name":"to","type":"address","value":"0x1227dD32Fea0610861792b31ddeD1497522c5064"},{"name":"deadline","type":"uint256","value":"1639706832"}]},"token_transfers":null,"base_fee_per_gas":null,"timestamp":null,"nonce":19,"historic_exchange_rate":null,"transaction_types":["coin_transfer","contract_call"],"exchange_rate":"3887.67","block_number":null,"has_error_in_internal_transactions":null},{"priority_fee":null,"raw_input":"0x7ff36ab5000000000000000000000000000000000000000000022cdd7f1806ab7b16195200000000000000000000000000000000000000000000000000000000000000800000000000000000000000002d2ffa29c4393bb414766cee6e3dd9671a49105f00000000000000000000000000000000000000000000000000000000604de90e0000000000000000000000000000000000000000000000000000000000000002000000000000000000000000c02aaa39b223fe8d0a0e5c4f27ead9083c756cc200000000000000000000000095ad61b0a150d79219dcf64e1e6cc01f0b64c4ce","is_pending_update":null,"result":"pending","hash":"0x0b146bacb16e475523c188fc1630cc9706fdb16e06888e5bb8dc99d7aacffad1","max_fee_per_gas":null,"revert_reason":null,"confirmation_duration":[],"transaction_burnt_fee":null,"type":0,"token_transfers_overflow":null,"confirmations":0,"position":null,"max_priority_fee_per_gas":null,"transaction_tag":null,"created_contract":null,"value":"90000000000000","from":{"ens_domain_name":null,"hash":"0x2d2FFa29c4393bB414766Cee6E3DD9671a49105F","implementations":[],"is_contract":false,"is_scam":false,"is_verified":false,"metadata":null,"name":null,"private_tags":[],"proxy_type":null,"public_tags":[],"reputation":"ok","watchlist_names":[]},"gas_used":null,"status":null,"to":{"ens_domain_name":null,"hash":"0x7a250d5630B4cF539739dF2C5dAcb4c659F2488D","implementations":[],"is_contract":true,"is_scam":false,"is_verified":true,"metadata":{"tags":[{"meta":{"bgColor":"#FFFFFF","projectName":"Uniswap V2","tagUrl":"https://app.klerosscout.eth.limo/#/?registry=Single_Tags&itemdetails=0x21dee62fd8759eac196977676d698320331baf2d86a275f6fd61b587d90cafc8@0x66260c69d03837016d88c9877e61e08ef74c59f2","textColor":"#FF007A","tooltipDescription":"Up-to-date Uniswap V2 Router contract.","tooltipUrl":"https://app.uniswap.org/#/swap","verifiedDomains":["app.thorswap.finance","app.uniswap.org"]},"name":"Uniswap V3: Universal Router","ordinal":10,"slug":"uniswap-v3-universal-router","tagType":"name"},{"meta":{},"name":"DEX","ordinal":0,"slug":"dex","tagType":"generic"},{"meta":{"appID":"uniswap","bgColor":"#FF007A","tagIcon":"https://blockscout-content.s3.amazonaws.com/uniswap.png","tagUrl":"https://uniswap.org/?utm_source=Blockscout","textColor":"#FFFFFF","tooltipDescription":"Trade crypto and NFTs safely on the top DeFi platform. Swapping made simple. Buy and sell crypto on Ethereum, Base, Arbitrum, Polygon, and more.","tooltipTitle":"Uniswap","tooltipUrl":"https://uniswap.org/?utm_source=Blockscout"},"name":"Uniswap V2","ordinal":0,"slug":"uniswap-v2","tagType":"protocol"}]},"name":"UniswapV2Router02","private_tags":[],"proxy_type":null,"public_tags":[],"reputation":"ok","watchlist_names":[]},"authorization_list":[],"method":"swapExactETHForTokens","fee":{"type":"maximum","value":"9918780000000"},"actions":[],"gas_limit":"165313","gas_price":"60000000","decoded_input":{"method_call":"swapExactETHForTokens(uint256 amountOutMin, address[] path, address to, uint256 deadline)","method_id":"7ff36ab5","parameters":[{"name":"amountOutMin","type":"uint256","value":"2629721652992988381845842"},{"name":"path","type":"address[]","value":["0xC02aaA39b223FE8D0A0e5C4F27eAD9083C756Cc2","0x95aD61b0a150d79219dCF64E1E6Cc01f0B64C4cE"]},{"name":"to","type":"address","value":"0x2d2FFa29c4393bB414766Cee6E3DD9671a49105F"},{"name":"deadline","type":"uint256","value":"1615718670"}]},"token_transfers":null,"base_fee_per_gas":null,"timestamp":null,"nonce":1,"historic_exchange_rate":null,"transaction_types":["coin_transfer","contract_call"],"exchange_rate":"3887.67","block_number":null,"has_error_in_internal_transactions":null},{"priority_fee":null,"raw_input":"0x7ff36ab50000000000000000000000000000000000000000000000000000019060cd31310000000000000000000000000000000000000000000000000000000000000080000000000000000000000000054c2fc85a2f9df4f22d6305e46973982e66fe5f000000000000000000000000000000000000000000000000000000005fd2024b0000000000000000000000000000000000000000000000000000000000000004000000000000000000000000c02aaa39b223fe8d0a0e5c4f27ead9083c756cc20000000000000000000000009f8f72aa9304c8b593d555f12ef6589cc3a579a20000000000000000000000006b175474e89094c44da98b954eedeac495271d0f0000000000000000000000001f9840a85d5af5bf1d1762f925bdaddc4201f984","is_pending_update":null,"result":"pending","hash":"0xa1663a40615e123fd2632df4f94883d075f482d8c081dea9b7857f92478a05a8","max_fee_per_gas":null,"revert_reason":null,"confirmation_duration":[],"transaction_burnt_fee":null,"type":0,"token_transfers_overflow":null,"confirmations":0,"position":null,"max_priority_fee_per_gas":null,"transaction_tag":null,"created_contract":null,"value":"10000000000","from":{"ens_domain_name":null,"hash":"0x054c2Fc85a2f9df4f22d6305e46973982e66Fe5F","implementations":[],"is_contract":false,"is_scam":false,"is_verified":false,"metadata":null,"name":null,"private_tags":[],"proxy_type":null,"public_tags":[],"reputation":"ok","watchlist_names":[]},"gas_used":null,"status":null,"to":{"ens_domain_name":null,"hash":"0x7a250d5630B4cF539739dF2C5dAcb4c659F2488D","implementations":[],"is_contract":true,"is_scam":false,"is_verified":true,"metadata":{"tags":[{"meta":{"bgColor":"#FFFFFF","projectName":"Uniswap V2","tagUrl":"https://app.klerosscout.eth.limo/#/?registry=Single_Tags&itemdetails=0x21dee62fd8759eac196977676d698320331baf2d86a275f6fd61b587d90cafc8@0x66260c69d03837016d88c9877e61e08ef74c59f2","textColor":"#FF007A","tooltipDescription":"Up-to-date Uniswap V2 Router contract.","tooltipUrl":"https://app.uniswap.org/#/swap","verifiedDomains":["app.thorswap.finance","app.uniswap.org"]},"name":"Uniswap V3: Universal Router","ordinal":10,"slug":"uniswap-v3-universal-router","tagType":"name"},{"meta":{},"name":"DEX","ordinal":0,"slug":"dex","tagType":"generic"},{"meta":{"appID":"uniswap","bgColor":"#FF007A","tagIcon":"https://blockscout-content.s3.amazonaws.com/uniswap.png","tagUrl":"https://uniswap.org/?utm_source=Blockscout","textColor":"#FFFFFF","tooltipDescription":"Trade crypto and NFTs safely on the top DeFi platform. Swapping made simple. Buy and sell crypto on Ethereum, Base, Arbitrum, Polygon, and more.","tooltipTitle":"Uniswap","tooltipUrl":"https://uniswap.org/?utm_source=Blockscout"},"name":"Uniswap V2","ordinal":0,"slug":"uniswap-v2","tagType":"protocol"}]},"name":"UniswapV2Router02","private_tags":[],"proxy_type":null,"public_tags":[],"reputation":"ok","watchlist_names":[]},"authorization_list":[],"method":"swapExactETHForTokens","fee":{"type":"maximum","value":"3026520"},"actions":[],"gas_limit":"302652","gas_price":"10","decoded_input":{"method_call":"swapExactETHForTokens(uint256 amountOutMin, address[] path, address to, uint256 deadline)","method_id":"7ff36ab5","parameters":[{"name":"amountOutMin","type":"uint256","value":"1719610978609"},{"name":"path","type":"address[]","value":["0xC02aaA39b223FE8D0A0e5C4F27eAD9083C756Cc2","0x9f8F72aA9304c8B593d555F12eF6589cC3A579A2","0x6B175474E89094C44Da98b954EedeAC495271d0F","0x1f9840a85d5aF5bf1D1762F925BDADdC4201F984"]},{"name":"to","type":"address","value":"0x054c2Fc85a2f9df4f22d6305e46973982e66Fe5F"},{"name":"deadline","type":"uint256","value":"1607598667"}]},"token_transfers":null,"base_fee_per_gas":null,"timestamp":null,"nonce":0,"historic_exchange_rate":null,"transaction_types":["coin_transfer","contract_call"],"exchange_rate":"3887.67","block_number":null,"has_error_in_internal_transactions":null},{"priority_fee":null,"raw_input":"0x7ff36ab50000000000000000000000000000000000000000000000000d15edb050bb9a6300000000000000000000000000000000000000000000000000000000000000800000000000000000000000004b3a639070c9929397339f682320794348ea86c100000000000000000000000000000000000000000000000000000000613a854d0000000000000000000000000000000000000000000000000000000000000002000000000000000000000000c02aaa39b223fe8d0a0e5c4f27ead9083c756cc2000000000000000000000000ac8e13ecc30da7ff04b842f21a62a1fb0f10ebd5","is_pending_update":null,"result":"pending","hash":"0x05e33321bc3dc85c790153602d0013f14f63278f9221fe635def820bfb230274","max_fee_per_gas":null,"revert_reason":null,"confirmation_duration":[],"transaction_burnt_fee":null,"type":0,"token_transfers_overflow":null,"confirmations":0,"position":null,"max_priority_fee_per_gas":null,"transaction_tag":null,"created_contract":null,"value":"400000000000000","from":{"ens_domain_name":null,"hash":"0x4B3a639070c9929397339f682320794348EA86C1","implementations":[],"is_contract":false,"is_scam":false,"is_verified":false,"metadata":null,"name":null,"private_tags":[],"proxy_type":null,"public_tags":[],"reputation":"ok","watchlist_names":[]},"gas_used":null,"status":null,"to":{"ens_domain_name":null,"hash":"0x7a250d5630B4cF539739dF2C5dAcb4c659F2488D","implementations":[],"is_contract":true,"is_scam":false,"is_verified":true,"metadata":{"tags":[{"meta":{"bgColor":"#FFFFFF","projectName":"Uniswap V2","tagUrl":"https://app.klerosscout.eth.limo/#/?registry=Single_Tags&itemdetails=0x21dee62fd8759eac196977676d698320331baf2d86a275f6fd61b587d90cafc8@0x66260c69d03837016d88c9877e61e08ef74c59f2","textColor":"#FF007A","tooltipDescription":"Up-to-date Uniswap V2 Router contract.","tooltipUrl":"https://app.uniswap.org/#/swap","verifiedDomains":["app.thorswap.finance","app.uniswap.org"]},"name":"Uniswap V3: Universal Router","ordinal":10,"slug":"uniswap-v3-universal-router","tagType":"name"},{"meta":{},"name":"DEX","ordinal":0,"slug":"dex","tagType":"generic"},{"meta":{"appID":"uniswap","bgColor":"#FF007A","tagIcon":"https://blockscout-content.s3.amazonaws.com/uniswap.png","tagUrl":"https://uniswap.org/?utm_source=Blockscout","textColor":"#FFFFFF","tooltipDescription":"Trade crypto and NFTs safely on the top DeFi platform. Swapping made simple. Buy and sell crypto on Ethereum, Base, Arbitrum, Polygon, and more.","tooltipTitle":"Uniswap","tooltipUrl":"https://uniswap.org/?utm_source=Blockscout"},"name":"Uniswap V2","ordinal":0,"slug":"uniswap-v2","tagType":"protocol"}]},"name":"UniswapV2Router02","private_tags":[],"proxy_type":null,"public_tags":[],"reputation":"ok","watchlist_names":[]},"authorization_list":[],"method":"swapExactETHForTokens","fee":{"type":"maximum","value":"2356930000000"},"actions":[],"gas_limit":"235693","gas_price":"10000000","decoded_input":{"method_call":"swapExactETHForTokens(uint256 amountOutMin, address[] path, address to, uint256 deadline)","method_id":"7ff36ab5","parameters":[{"name":"amountOutMin","type":"uint256","value":"942921038528485987"},{"name":"path","type":"address[]","value":["0xC02aaA39b223FE8D0A0e5C4F27eAD9083C756Cc2","0xAC8E13ecC30Da7Ff04b842f21A62a1fb0f10eBd5"]},{"name":"to","type":"address","value":"0x4B3a639070c9929397339f682320794348EA86C1"},{"name":"deadline","type":"uint256","value":"1631225165"}]},"token_transfers":null,"base_fee_per_gas":null,"timestamp":null,"nonce":17,"historic_exchange_rate":null,"transaction_types":["coin_transfer","contract_call"],"exchange_rate":"3887.67","block_number":null,"has_error_in_internal_transactions":null},{"priority_fee":null,"raw_input":"0x7ff36ab5000000000000000000000000000000000000000000000114e45bf7a291de322900000000000000000000000000000000000000000000000000000000000000800000000000000000000000009118f96c24b913bf5c1169d9df5cf011e5696fb7000000000000000000000000000000000000000000000000000000006074bb230000000000000000000000000000000000000000000000000000000000000002000000000000000000000000c02aaa39b223fe8d0a0e5c4f27ead9083c756cc200000000000000000000000004969cd041c0cafb6ac462bd65b536a5bdb3a670","is_pending_update":null,"result":"pending","hash":"0xe26bd6463aa4b49d29be5a60b07818cd054019558f5f09070e3c0a27f13ba9b1","max_fee_per_gas":null,"revert_reason":null,"confirmation_duration":[],"transaction_burnt_fee":null,"type":0,"token_transfers_overflow":null,"confirmations":0,"position":null,"max_priority_fee_per_gas":null,"transaction_tag":null,"created_contract":null,"value":"20000000000000000","from":{"ens_domain_name":null,"hash":"0x9118F96c24B913BF5c1169D9df5CF011E5696FB7","implementations":[],"is_contract":false,"is_scam":false,"is_verified":false,"metadata":null,"name":null,"private_tags":[],"proxy_type":null,"public_tags":[],"reputation":"ok","watchlist_names":[]},"gas_used":null,"status":null,"to":{"ens_domain_name":null,"hash":"0x7a250d5630B4cF539739dF2C5dAcb4c659F2488D","implementations":[],"is_contract":true,"is_scam":false,"is_verified":true,"metadata":{"tags":[{"meta":{"bgColor":"#FFFFFF","projectName":"Uniswap V2","tagUrl":"https://app.klerosscout.eth.limo/#/?registry=Single_Tags&itemdetails=0x21dee62fd8759eac196977676d698320331baf2d86a275f6fd61b587d90cafc8@0x66260c69d03837016d88c9877e61e08ef74c59f2","textColor":"#FF007A","tooltipDescription":"Up-to-date Uniswap V2 Router contract.","tooltipUrl":"https://app.uniswap.org/#/swap","verifiedDomains":["app.thorswap.finance","app.uniswap.org"]},"name":"Uniswap V3: Universal Router","ordinal":10,"slug":"uniswap-v3-universal-router","tagType":"name"},{"meta":{},"name":"DEX","ordinal":0,"slug":"dex","tagType":"generic"},{"meta":{"appID":"uniswap","bgColor":"#FF007A","tagIcon":"https://blockscout-content.s3.amazonaws.com/uniswap.png","tagUrl":"https://uniswap.org/?utm_source=Blockscout","textColor":"#FFFFFF","tooltipDescription":"Trade crypto and NFTs safely on the top DeFi platform. Swapping made simple. Buy and sell crypto on Ethereum, Base, Arbitrum, Polygon, and more.","tooltipTitle":"Uniswap","tooltipUrl":"https://uniswap.org/?utm_source=Blockscout"},"name":"Uniswap V2","ordinal":0,"slug":"uniswap-v2","tagType":"protocol"}]},"name":"UniswapV2Router02","private_tags":[],"proxy_type":null,"public_tags":[],"reputation":"ok","watchlist_names":[]},"authorization_list":[],"method":"swapExactETHForTokens","fee":{"type":"maximum","value":"831975000000"},"actions":[],"gas_limit":"166395","gas_price":"5000000","decoded_input":{"method_call":"swapExactETHForTokens(uint256 amountOutMin, address[] path, address to, uint256 deadline)","method_id":"7ff36ab5","parameters":[{"name":"amountOutMin","type":"uint256","value":"5107756382284968505897"},{"name":"path","type":"address[]","value":["0xC02aaA39b223FE8D0A0e5C4F27eAD9083C756Cc2","0x04969cD041C0cafB6AC462Bd65B536A5bDB3A670"]},{"name":"to","type":"address","value":"0x9118F96c24B913BF5c1169D9df5CF011E5696FB7"},{"name":"deadline","type":"uint256","value":"1618262819"}]},"token_transfers":null,"base_fee_per_gas":null,"timestamp":null,"nonce":1,"historic_exchange_rate":null,"transaction_types":["coin_transfer","contract_call"],"exchange_rate":"3887.67","block_number":null,"has_error_in_internal_transactions":null},{"priority_fee":null,"raw_input":"0xfb3bdb41000000000000000000000000000000000000000000000001d18bb03713bb4000000000000000000000000000000000000000000000000000000000000000008000000000000000000000000033b2140ff2988b35516cab1ca118b6176e8e14740000000000000000000000000000000000000000000000000000000061911b800000000000000000000000000000000000000000000000000000000000000002000000000000000000000000c02aaa39b223fe8d0a0e5c4f27ead9083c756cc20000000000000000000000001e2f15302b90edde696593607b6bd444b64e8f02","is_pending_update":null,"result":"pending","hash":"0xad21edee0c1732614d0639438aef3834329a08b55392ee54008df85fb1589c4e","max_fee_per_gas":"10000000","revert_reason":null,"confirmation_duration":[],"transaction_burnt_fee":null,"type":2,"token_transfers_overflow":null,"confirmations":0,"position":null,"max_priority_fee_per_gas":"10000000","transaction_tag":null,"created_contract":null,"value":"839998463194683","from":{"ens_domain_name":null,"hash":"0x33b2140Ff2988B35516CAb1ca118B6176e8e1474","implementations":[],"is_contract":false,"is_scam":false,"is_verified":false,"metadata":null,"name":null,"private_tags":[],"proxy_type":null,"public_tags":[],"reputation":"ok","watchlist_names":[]},"gas_used":null,"status":null,"to":{"ens_domain_name":null,"hash":"0x7a250d5630B4cF539739dF2C5dAcb4c659F2488D","implementations":[],"is_contract":true,"is_scam":false,"is_verified":true,"metadata":{"tags":[{"meta":{"bgColor":"#FFFFFF","projectName":"Uniswap V2","tagUrl":"https://app.klerosscout.eth.limo/#/?registry=Single_Tags&itemdetails=0x21dee62fd8759eac196977676d698320331baf2d86a275f6fd61b587d90cafc8@0x66260c69d03837016d88c9877e61e08ef74c59f2","textColor":"#FF007A","tooltipDescription":"Up-to-date Uniswap V2 Router contract.","tooltipUrl":"https://app.uniswap.org/#/swap","verifiedDomains":["app.thorswap.finance","app.uniswap.org"]},"name":"Uniswap V3: Universal Router","ordinal":10,"slug":"uniswap-v3-universal-router","tagType":"name"},{"meta":{},"name":"DEX","ordinal":0,"slug":"dex","tagType":"generic"},{"meta":{"appID":"uniswap","bgColor":"#FF007A","tagIcon":"https://blockscout-content.s3.amazonaws.com/uniswap.png","tagUrl":"https://uniswap.org/?utm_source=Blockscout","textColor":"#FFFFFF","tooltipDescription":"Trade crypto and NFTs safely on the top DeFi platform. Swapping made simple. Buy and sell crypto on Ethereum, Base, Arbitrum, Polygon, and more.","tooltipTitle":"Uniswap","tooltipUrl":"https://uniswap.org/?utm_source=Blockscout"},"name":"Uniswap V2","ordinal":0,"slug":"uniswap-v2","tagType":"protocol"}]},"name":"UniswapV2Router02","private_tags":[],"proxy_type":null,"public_tags":[],"reputation":"ok","watchlist_names":[]},"authorization_list":[],"method":"swapETHForExactTokens","fee":{"type":"maximum","value":"2607850000000"},"actions":[],"gas_limit":"260785","gas_price":"10000000","decoded_input":{"method_call":"swapETHForExactTokens(uint256 amountOut, address[] path, address to, uint256 deadline)","method_id":"fb3bdb41","parameters":[{"name":"amountOut","type":"uint256","value":"33546100000000000000"},{"name":"path","type":"address[]","value":["0xC02aaA39b223FE8D0A0e5C4F27eAD9083C756Cc2","0x1E2F15302B90EddE696593607b6bD444B64e8F02"]},{"name":"to","type":"address","value":"0x33b2140Ff2988B35516CAb1ca118B6176e8e1474"},{"name":"deadline","type":"uint256","value":"1636899712"}]},"token_transfers":null,"base_fee_per_gas":null,"timestamp":null,"nonce":0,"historic_exchange_rate":null,"transaction_types":["coin_transfer","contract_call"],"exchange_rate":"3887.67","block_number":null,"has_error_in_internal_transactions":null},{"priority_fee":null,"raw_input":"0x38ed1739000000000000000000000000000000000000000000000000000000000000000100000000000000000000000000000000000000000000000006e7798615fdd6c500000000000000000000000000000000000000000000000000000000000000a0000000000000000000000000a5656dd6aade7f7db27543d827968bfe23b70eba0000000000000000000000000000000000000000000000000000000068f0ceef00000000000000000000000000000000000000000000000000000000000000020000000000000000000000003ad2e9b136d0107c35af53c4ec703994e1f284150000000000000000000000002747ee1ee8490ce2f1853600c28a3846353d9d31","is_pending_update":null,"result":"pending","hash":"0xfc1f79aa7e988e73f05f3b9bd2f3aad21ad545c8acb4988d3f9c59156b111acc","max_fee_per_gas":"10000000","revert_reason":null,"confirmation_duration":[],"transaction_burnt_fee":null,"type":2,"token_transfers_overflow":null,"confirmations":0,"position":null,"max_priority_fee_per_gas":"10000000","transaction_tag":null,"created_contract":null,"value":"0","from":{"ens_domain_name":null,"hash":"0xA5656Dd6aADe7F7dB27543D827968bfe23B70eba","implementations":[],"is_contract":false,"is_scam":false,"is_verified":false,"metadata":null,"name":null,"private_tags":[],"proxy_type":null,"public_tags":[],"reputation":"ok","watchlist_names":[]},"gas_used":null,"status":null,"to":{"ens_domain_name":null,"hash":"0x7a250d5630B4cF539739dF2C5dAcb4c659F2488D","implementations":[],"is_contract":true,"is_scam":false,"is_verified":true,"metadata":{"tags":[{"meta":{"bgColor":"#FFFFFF","projectName":"Uniswap V2","tagUrl":"https://app.klerosscout.eth.limo/#/?registry=Single_Tags&itemdetails=0x21dee62fd8759eac196977676d698320331baf2d86a275f6fd61b587d90cafc8@0x66260c69d03837016d88c9877e61e08ef74c59f2","textColor":"#FF007A","tooltipDescription":"Up-to-date Uniswap V2 Router contract.","tooltipUrl":"https://app.uniswap.org/#/swap","verifiedDomains":["app.thorswap.finance","app.uniswap.org"]},"name":"Uniswap V3: Universal Router","ordinal":10,"slug":"uniswap-v3-universal-router","tagType":"name"},{"meta":{},"name":"DEX","ordinal":0,"slug":"dex","tagType":"generic"},{"meta":{"appID":"uniswap","bgColor":"#FF007A","tagIcon":"https://blockscout-content.s3.amazonaws.com/uniswap.png","tagUrl":"https://uniswap.org/?utm_source=Blockscout","textColor":"#FFFFFF","tooltipDescription":"Trade crypto and NFTs safely on the top DeFi platform. Swapping made simple. Buy and sell crypto on Ethereum, Base, Arbitrum, Polygon, and more.","tooltipTitle":"Uniswap","tooltipUrl":"https://uniswap.org/?utm_source=Blockscout"},"name":"Uniswap V2","ordinal":0,"slug":"uniswap-v2","tagType":"protocol"}]},"name":"UniswapV2Router02","private_tags":[],"proxy_type":null,"public_tags":[],"reputation":"ok","watchlist_names":[]},"authorization_list":[],"method":"swapExactTokensForTokens","fee":{"type":"maximum","value":"1303340000000"},"actions":[],"gas_limit":"130334","gas_price":"10000000","decoded_input":{"method_call":"swapExactTokensForTokens(uint256 amountIn, uint256 amountOutMin, address[] path, address to, uint256 deadline)","method_id":"38ed1739","parameters":[{"name":"amountIn","type":"uint256","value":"1"},{"name":"amountOutMin","type":"uint256","value":"497499900649264837"},{"name":"path","type":"address[]","value":["0x3ad2E9b136d0107c35af53C4Ec703994e1f28415","0x2747eE1EE8490Ce2f1853600c28a3846353d9d31"]},{"name":"to","type":"address","value":"0xA5656Dd6aADe7F7dB27543D827968bfe23B70eba"},{"name":"deadline","type":"uint256","value":"1760612079"}]},"token_transfers":null,"base_fee_per_gas":null,"timestamp":null,"nonce":87,"historic_exchange_rate":null,"transaction_types":["contract_call"],"exchange_rate":"3887.67","block_number":null,"has_error_in_internal_transactions":null},{"priority_fee":null,"raw_input":"0x7ff36ab5000000000000000000000000000000000000000000000001bedc8796fc8de99200000000000000000000000000000000000000000000000000000000000000800000000000000000000000003c8e41475069739122142aa314963900b43c168e00000000000000000000000000000000000000000000000000000000616e92b70000000000000000000000000000000000000000000000000000000000000002000000000000000000000000c02aaa39b223fe8d0a0e5c4f27ead9083c756cc2000000000000000000000000f79f9020560963422ecc9c0c04d3a21190bbf045","is_pending_update":null,"result":"pending","hash":"0x1cc74dd6a77ccb8ea2b8e7d2eb8a876a14eb120d780355121bcd58d6bfa26df3","max_fee_per_gas":"1000000","revert_reason":null,"confirmation_duration":[],"transaction_burnt_fee":null,"type":2,"token_transfers_overflow":null,"confirmations":0,"position":null,"max_priority_fee_per_gas":"1000","transaction_tag":null,"created_contract":null,"value":"5470000000000000","from":{"ens_domain_name":null,"hash":"0x3C8E41475069739122142aA314963900B43C168e","implementations":[],"is_contract":false,"is_scam":false,"is_verified":false,"metadata":null,"name":null,"private_tags":[],"proxy_type":null,"public_tags":[],"reputation":"ok","watchlist_names":[]},"gas_used":null,"status":null,"to":{"ens_domain_name":null,"hash":"0x7a250d5630B4cF539739dF2C5dAcb4c659F2488D","implementations":[],"is_contract":true,"is_scam":false,"is_verified":true,"metadata":{"tags":[{"meta":{"bgColor":"#FFFFFF","projectName":"Uniswap V2","tagUrl":"https://app.klerosscout.eth.limo/#/?registry=Single_Tags&itemdetails=0x21dee62fd8759eac196977676d698320331baf2d86a275f6fd61b587d90cafc8@0x66260c69d03837016d88c9877e61e08ef74c59f2","textColor":"#FF007A","tooltipDescription":"Up-to-date Uniswap V2 Router contract.","tooltipUrl":"https://app.uniswap.org/#/swap","verifiedDomains":["app.thorswap.finance","app.uniswap.org"]},"name":"Uniswap V3: Universal Router","ordinal":10,"slug":"uniswap-v3-universal-router","tagType":"name"},{"meta":{},"name":"DEX","ordinal":0,"slug":"dex","tagType":"generic"},{"meta":{"appID":"uniswap","bgColor":"#FF007A","tagIcon":"https://blockscout-content.s3.amazonaws.com/uniswap.png","tagUrl":"https://uniswap.org/?utm_source=Blockscout","textColor":"#FFFFFF","tooltipDescription":"Trade crypto and NFTs safely on the top DeFi platform. Swapping made simple. Buy and sell crypto on Ethereum, Base, Arbitrum, Polygon, and more.","tooltipTitle":"Uniswap","tooltipUrl":"https://uniswap.org/?utm_source=Blockscout"},"name":"Uniswap V2","ordinal":0,"slug":"uniswap-v2","tagType":"protocol"}]},"name":"UniswapV2Router02","private_tags":[],"proxy_type":null,"public_tags":[],"reputation":"ok","watchlist_names":[]},"authorization_list":[],"method":"swapExactETHForTokens","fee":{"type":"maximum","value":"193156000000"},"actions":[],"gas_limit":"193156","gas_price":"1000000","decoded_input":{"method_call":"swapExactETHForTokens(uint256 amountOutMin, address[] path, address to, uint256 deadline)","method_id":"7ff36ab5","parameters":[{"name":"amountOutMin","type":"uint256","value":"32199760518344206738"},{"name":"path","type":"address[]","value":["0xC02aaA39b223FE8D0A0e5C4F27eAD9083C756Cc2","0xf79F9020560963422eCC9C0c04D3a21190BBf045"]},{"name":"to","type":"address","value":"0x3C8E41475069739122142aA314963900B43C168e"},{"name":"deadline","type":"uint256","value":"1634636471"}]},"token_transfers":null,"base_fee_per_gas":null,"timestamp":null,"nonce":0,"historic_exchange_rate":null,"transaction_types":["coin_transfer","contract_call"],"exchange_rate":"3887.67","block_number":null,"has_error_in_internal_transactions":null},{"priority_fee":null,"raw_input":"0x7ff36ab500000000000000000000000000000000000000000000000000000000000000010000000000000000000000000000000000000000000000000000000000000080000000000000000000000000525667c0fad2b9b772c0cddf16a65119e0f9e43d00000000000000000000000000000000000000000000000000000000682c93e60000000000000000000000000000000000000000000000000000000000000002000000000000000000000000c02aaa39b223fe8d0a0e5c4f27ead9083c756cc2000000000000000000000000c427087c9eb3c0fd8ac188457b6ec1351c7209ca","is_pending_update":null,"result":"pending","hash":"0x9f413e1a9275cbd5727a3256dbed2b898d7493a668b233057ce7aaaa2f814d71","max_fee_per_gas":"10000000","revert_reason":null,"confirmation_duration":[],"transaction_burnt_fee":null,"type":2,"token_transfers_overflow":null,"confirmations":0,"position":null,"max_priority_fee_per_gas":"10000000","transaction_tag":null,"created_contract":null,"value":"9","from":{"ens_domain_name":null,"hash":"0x525667C0FAD2B9B772c0cdDF16A65119E0F9e43d","implementations":[],"is_contract":false,"is_scam":false,"is_verified":false,"metadata":null,"name":null,"private_tags":[],"proxy_type":null,"public_tags":[],"reputation":"ok","watchlist_names":[]},"gas_used":null,"status":null,"to":{"ens_domain_name":null,"hash":"0x7a250d5630B4cF539739dF2C5dAcb4c659F2488D","implementations":[],"is_contract":true,"is_scam":false,"is_verified":true,"metadata":{"tags":[{"meta":{"bgColor":"#FFFFFF","projectName":"Uniswap V2","tagUrl":"https://app.klerosscout.eth.limo/#/?registry=Single_Tags&itemdetails=0x21dee62fd8759eac196977676d698320331baf2d86a275f6fd61b587d90cafc8@0x66260c69d03837016d88c9877e61e08ef74c59f2","textColor":"#FF007A","tooltipDescription":"Up-to-date Uniswap V2 Router contract.","tooltipUrl":"https://app.uniswap.org/#/swap","verifiedDomains":["app.thorswap.finance","app.uniswap.org"]},"name":"Uniswap V3: Universal Router","ordinal":10,"slug":"uniswap-v3-universal-router","tagType":"name"},{"meta":{},"name":"DEX","ordinal":0,"slug":"dex","tagType":"generic"},{"meta":{"appID":"uniswap","bgColor":"#FF007A","tagIcon":"https://blockscout-content.s3.amazonaws.com/uniswap.png","tagUrl":"https://uniswap.org/?utm_source=Blockscout","textColor":"#FFFFFF","tooltipDescription":"Trade crypto and NFTs safely on the top DeFi platform. Swapping made simple. Buy and sell crypto on Ethereum, Base, Arbitrum, Polygon, and more.","tooltipTitle":"Uniswap","tooltipUrl":"https://uniswap.org/?utm_source=Blockscout"},"name":"Uniswap V2","ordinal":0,"slug":"uniswap-v2","tagType":"protocol"}]},"name":"UniswapV2Router02","private_tags":[],"proxy_type":null,"public_tags":[],"reputation":"ok","watchlist_names":[]},"authorization_list":[],"method":"swapExactETHForTokens","fee":{"type":"maximum","value":"1800000000000"},"actions":[],"gas_limit":"180000","gas_price":"10000000","decoded_input":{"method_call":"swapExactETHForTokens(uint256 amountOutMin, address[] path, address to, uint256 deadline)","method_id":"7ff36ab5","parameters":[{"name":"amountOutMin","type":"uint256","value":"1"},{"name":"path","type":"address[]","value":["0xC02aaA39b223FE8D0A0e5C4F27eAD9083C756Cc2","0xc427087C9eB3c0Fd8ac188457b6EC1351C7209cA"]},{"name":"to","type":"address","value":"0x525667C0FAD2B9B772c0cdDF16A65119E0F9e43d"},{"name":"deadline","type":"uint256","value":"1747751910"}]},"token_transfers":null,"base_fee_per_gas":null,"timestamp":null,"nonce":0,"historic_exchange_rate":null,"transaction_types":["coin_transfer","contract_call"],"exchange_rate":"3887.67","block_number":null,"has_error_in_internal_transactions":null},{"priority_fee":null,"raw_input":"0x7ff36ab500000000000000000000000000000000000000000000000005140860cfbfce1b0000000000000000000000000000000000000000000000000000000000000080000000000000000000000000294e5d2612881ac4038931ac52bf1a08de5eab900000000000000000000000000000000000000000000000000000000060996f280000000000000000000000000000000000000000000000000000000000000002000000000000000000000000c02aaa39b223fe8d0a0e5c4f27ead9083c756cc2000000000000000000000000a2b4c0af19cc16a6cfacce81f192b024d625817d","is_pending_update":null,"result":"pending","hash":"0x2ff3b093fb8bf3f5f74444058b62f1c2bce0b5afe133ebe23518012db273ea10","max_fee_per_gas":null,"revert_reason":null,"confirmation_duration":[],"transaction_burnt_fee":null,"type":0,"token_transfers_overflow":null,"confirmations":0,"position":null,"max_priority_fee_per_gas":null,"transaction_tag":null,"created_contract":null,"value":"500000000000000","from":{"ens_domain_name":null,"hash":"0x294E5d2612881Ac4038931aC52bf1a08dE5EAb90","implementations":[],"is_contract":false,"is_scam":false,"is_verified":false,"metadata":null,"name":null,"private_tags":[],"proxy_type":null,"public_tags":[],"reputation":"ok","watchlist_names":[]},"gas_used":null,"status":null,"to":{"ens_domain_name":null,"hash":"0x7a250d5630B4cF539739dF2C5dAcb4c659F2488D","implementations":[],"is_contract":true,"is_scam":false,"is_verified":true,"metadata":{"tags":[{"meta":{"bgColor":"#FFFFFF","projectName":"Uniswap V2","tagUrl":"https://app.klerosscout.eth.limo/#/?registry=Single_Tags&itemdetails=0x21dee62fd8759eac196977676d698320331baf2d86a275f6fd61b587d90cafc8@0x66260c69d03837016d88c9877e61e08ef74c59f2","textColor":"#FF007A","tooltipDescription":"Up-to-date Uniswap V2 Router contract.","tooltipUrl":"https://app.uniswap.org/#/swap","verifiedDomains":["app.thorswap.finance","app.uniswap.org"]},"name":"Uniswap V3: Universal Router","ordinal":10,"slug":"uniswap-v3-universal-router","tagType":"name"},{"meta":{},"name":"DEX","ordinal":0,"slug":"dex","tagType":"generic"},{"meta":{"appID":"uniswap","bgColor":"#FF007A","tagIcon":"https://blockscout-content.s3.amazonaws.com/uniswap.png","tagUrl":"https://uniswap.org/?utm_source=Blockscout","textColor":"#FFFFFF","tooltipDescription":"Trade crypto and NFTs safely on the top DeFi platform. Swapping made simple. Buy and sell crypto on Ethereum, Base, Arbitrum, Polygon, and more.","tooltipTitle":"Uniswap","tooltipUrl":"https://uniswap.org/?utm_source=Blockscout"},"name":"Uniswap V2","ordinal":0,"slug":"uniswap-v2","tagType":"protocol"}]},"name":"UniswapV2Router02","private_tags":[],"proxy_type":null,"public_tags":[],"reputation":"ok","watchlist_names":[]},"authorization_list":[],"method":"swapExactETHForTokens","fee":{"type":"maximum","value":"1267955000000"},"actions":[],"gas_limit":"253591","gas_price":"5000000","decoded_input":{"method_call":"swapExactETHForTokens(uint256 amountOutMin, address[] path, address to, uint256 deadline)","method_id":"7ff36ab5","parameters":[{"name":"amountOutMin","type":"uint256","value":"365926681619189275"},{"name":"path","type":"address[]","value":["0xC02aaA39b223FE8D0A0e5C4F27eAD9083C756Cc2","0xA2b4C0Af19cC16a6CfAcCe81F192B024d625817D"]},{"name":"to","type":"address","value":"0x294E5d2612881Ac4038931aC52bf1a08dE5EAb90"},{"name":"deadline","type":"uint256","value":"1620668200"}]},"token_transfers":null,"base_fee_per_gas":null,"timestamp":null,"nonce":0,"historic_exchange_rate":null,"transaction_types":["coin_transfer","contract_call"],"exchange_rate":"3887.67","block_number":null,"has_error_in_internal_transactions":null},{"priority_fee":null,"raw_input":"0x7ff36ab5000000000000000000000000000000000000000000013b6af6bc5415766fd17500000000000000000000000000000000000000000000000000000000000000800000000000000000000000002f2219f01a51929b1cabc6e9a4bfac5695e23c6a00000000000000000000000000000000000000000000000000000000609aa0f20000000000000000000000000000000000000000000000000000000000000002000000000000000000000000c02aaa39b223fe8d0a0e5c4f27ead9083c756cc200000000000000000000000095ad61b0a150d79219dcf64e1e6cc01f0b64c4ce","is_pending_update":null,"result":"pending","hash":"0xe983ff7c8dafe80fa3ca5faf48610d0c64bcb4cee7d4df7448e4f2a1047b6a18","max_fee_per_gas":null,"revert_reason":null,"confirmation_duration":[],"transaction_burnt_fee":null,"type":0,"token_transfers_overflow":null,"confirmations":0,"position":null,"max_priority_fee_per_gas":null,"transaction_tag":null,"created_contract":null,"value":"11668397225332196","from":{"ens_domain_name":null,"hash":"0x2F2219f01a51929b1CABC6E9a4bFac5695E23c6A","implementations":[],"is_contract":false,"is_scam":false,"is_verified":false,"metadata":null,"name":null,"private_tags":[],"proxy_type":null,"public_tags":[],"reputation":"ok","watchlist_names":[]},"gas_used":null,"status":null,"to":{"ens_domain_name":null,"hash":"0x7a250d5630B4cF539739dF2C5dAcb4c659F2488D","implementations":[],"is_contract":true,"is_scam":false,"is_verified":true,"metadata":{"tags":[{"meta":{"bgColor":"#FFFFFF","projectName":"Uniswap V2","tagUrl":"https://app.klerosscout.eth.limo/#/?registry=Single_Tags&itemdetails=0x21dee62fd8759eac196977676d698320331baf2d86a275f6fd61b587d90cafc8@0x66260c69d03837016d88c9877e61e08ef74c59f2","textColor":"#FF007A","tooltipDescription":"Up-to-date Uniswap V2 Router contract.","tooltipUrl":"https://app.uniswap.org/#/swap","verifiedDomains":["app.thorswap.finance","app.uniswap.org"]},"name":"Uniswap V3: Universal Router","ordinal":10,"slug":"uniswap-v3-universal-router","tagType":"name"},{"meta":{},"name":"DEX","ordinal":0,"slug":"dex","tagType":"generic"},{"meta":{"appID":"uniswap","bgColor":"#FF007A","tagIcon":"https://blockscout-content.s3.amazonaws.com/uniswap.png","tagUrl":"https://uniswap.org/?utm_source=Blockscout","textColor":"#FFFFFF","tooltipDescription":"Trade crypto and NFTs safely on the top DeFi platform. Swapping made simple. Buy and sell crypto on Ethereum, Base, Arbitrum, Polygon, and more.","tooltipTitle":"Uniswap","tooltipUrl":"https://uniswap.org/?utm_source=Blockscout"},"name":"Uniswap V2","ordinal":0,"slug":"uniswap-v2","tagType":"protocol"}]},"name":"UniswapV2Router02","private_tags":[],"proxy_type":null,"public_tags":[],"reputation":"ok","watchlist_names":[]},"authorization_list":[],"method":"swapExactETHForTokens","fee":{"type":"maximum","value":"600000000000"},"actions":[],"gas_limit":"600000","gas_price":"1000000","decoded_input":{"method_call":"swapExactETHForTokens(uint256 amountOutMin, address[] path, address to, uint256 deadline)","method_id":"7ff36ab5","parameters":[{"name":"amountOutMin","type":"uint256","value":"1489518576153631564747125"},{"name":"path","type":"address[]","value":["0xC02aaA39b223FE8D0A0e5C4F27eAD9083C756Cc2","0x95aD61b0a150d79219dCF64E1E6Cc01f0B64C4cE"]},{"name":"to","type":"address","value":"0x2F2219f01a51929b1CABC6E9a4bFac5695E23c6A"},{"name":"deadline","type":"uint256","value":"1620746482"}]},"token_transfers":null,"base_fee_per_gas":null,"timestamp":null,"nonce":1,"historic_exchange_rate":null,"transaction_types":["coin_transfer","contract_call"],"exchange_rate":"3887.67","block_number":null,"has_error_in_internal_transactions":null},{"priority_fee":null,"raw_input":"0xe8e33700000000000000000000000000bcd4b7de6fde81025f74426d43165a5b0d790fdd000000000000000000000000c02aaa39b223fe8d0a0e5c4f27ead9083c756cc2000000000000000000000000000000000000000000000cb075bd719289c8fdc40000000000000000000000000000000000000000000000000000e22ba231e578000000000000000000000000000000000000000000000c5f3f98b5221323f76b0000000000000000000000000000000000000000000000000000dc84248a3fbb000000000000000000000000651d15c8628138f649b33d468dbd1c35da43b65b0000000000000000000000000000000000000000000000000000000068f9eb81","is_pending_update":null,"result":"pending","hash":"0x5b68e770213569a3491ba1491032c93deb5c5512e43ed451ad71ec7c8ec2590a","max_fee_per_gas":"100111376","revert_reason":null,"confirmation_duration":[],"transaction_burnt_fee":null,"type":2,"token_transfers_overflow":null,"confirmations":0,"position":null,"max_priority_fee_per_gas":"100000","transaction_tag":null,"created_contract":null,"value":"0","from":{"ens_domain_name":null,"hash":"0x651d15c8628138f649b33D468Dbd1C35da43B65B","implementations":[],"is_contract":false,"is_scam":false,"is_verified":false,"metadata":null,"name":null,"private_tags":[],"proxy_type":null,"public_tags":[],"reputation":"ok","watchlist_names":[]},"gas_used":null,"status":null,"to":{"ens_domain_name":null,"hash":"0x7a250d5630B4cF539739dF2C5dAcb4c659F2488D","implementations":[],"is_contract":true,"is_scam":false,"is_verified":true,"metadata":{"tags":[{"meta":{"bgColor":"#FFFFFF","projectName":"Uniswap V2","tagUrl":"https://app.klerosscout.eth.limo/#/?registry=Single_Tags&itemdetails=0x21dee62fd8759eac196977676d698320331baf2d86a275f6fd61b587d90cafc8@0x66260c69d03837016d88c9877e61e08ef74c59f2","textColor":"#FF007A","tooltipDescription":"Up-to-date Uniswap V2 Router contract.","tooltipUrl":"https://app.uniswap.org/#/swap","verifiedDomains":["app.thorswap.finance","app.uniswap.org"]},"name":"Uniswap V3: Universal Router","ordinal":10,"slug":"uniswap-v3-universal-router","tagType":"name"},{"meta":{},"name":"DEX","ordinal":0,"slug":"dex","tagType":"generic"},{"meta":{"appID":"uniswap","bgColor":"#FF007A","tagIcon":"https://blockscout-content.s3.amazonaws.com/uniswap.png","tagUrl":"https://uniswap.org/?utm_source=Blockscout","textColor":"#FFFFFF","tooltipDescription":"Trade crypto and NFTs safely on the top DeFi platform. Swapping made simple. Buy and sell crypto on Ethereum, Base, Arbitrum, Polygon, and more.","tooltipTitle":"Uniswap","tooltipUrl":"https://uniswap.org/?utm_source=Blockscout"},"name":"Uniswap V2","ordinal":0,"slug":"uniswap-v2","tagType":"protocol"}]},"name":"UniswapV2Router02","private_tags":[],"proxy_type":null,"public_tags":[],"reputation":"ok","watchlist_names":[]},"authorization_list":[],"method":"addLiquidity","fee":{"type":"maximum","value":"17419079089872"},"actions":[],"gas_limit":"173997","gas_price":"100111376","decoded_input":{"method_call":"addLiquidity(address tokenA, address tokenB, uint256 amountADesired, uint256 amountBDesired, uint256 amountAMin, uint256 amountBMin, address to, uint256 deadline)","method_id":"e8e33700","parameters":[{"name":"tokenA","type":"address","value":"0xbcD4b7dE6fde81025f74426D43165a5b0D790Fdd"},{"name":"tokenB","type":"address","value":"0xC02aaA39b223FE8D0A0e5C4F27eAD9083C756Cc2"},{"name":"amountADesired","type":"uint256","value":"59923508813555850345924"},{"name":"amountBDesired","type":"uint256","value":"248677032650104"},{"name":"amountAMin","type":"uint256","value":"58425421093216954087275"},{"name":"amountBMin","type":"uint256","value":"242460106833851"},{"name":"to","type":"address","value":"0x651d15c8628138f649b33D468Dbd1C35da43B65B"},{"name":"deadline","type":"uint256","value":"1761209217"}]},"token_transfers":null,"base_fee_per_gas":null,"timestamp":null,"nonce":311,"historic_exchange_rate":null,"transaction_types":["contract_call"],"exchange_rate":"3887.67","block_number":null,"has_error_in_internal_transactions":null},{"priority_fee":null,"raw_input":"0x7ff36ab500000000000000000000000000000000000000000000000000000000000000010000000000000000000000000000000000000000000000000000000000000080000000000000000000000000eb062c04e40f7da9d3234c855668af31858752a100000000000000000000000000000000000000000000000000000000682c94290000000000000000000000000000000000000000000000000000000000000002000000000000000000000000c02aaa39b223fe8d0a0e5c4f27ead9083c756cc2000000000000000000000000c427087c9eb3c0fd8ac188457b6ec1351c7209ca","is_pending_update":null,"result":"pending","hash":"0x021d44f64eebb55c628e8150eb5ef236c603cbf0ec4bf0da77b8bbb362a8e2bb","max_fee_per_gas":"10000000","revert_reason":null,"confirmation_duration":[],"transaction_burnt_fee":null,"type":2,"token_transfers_overflow":null,"confirmations":0,"position":null,"max_priority_fee_per_gas":"10000000","transaction_tag":null,"created_contract":null,"value":"6","from":{"ens_domain_name":null,"hash":"0xEb062c04E40f7Da9d3234C855668aF31858752a1","implementations":[],"is_contract":false,"is_scam":false,"is_verified":false,"metadata":null,"name":null,"private_tags":[],"proxy_type":null,"public_tags":[],"reputation":"ok","watchlist_names":[]},"gas_used":null,"status":null,"to":{"ens_domain_name":null,"hash":"0x7a250d5630B4cF539739dF2C5dAcb4c659F2488D","implementations":[],"is_contract":true,"is_scam":false,"is_verified":true,"metadata":{"tags":[{"meta":{"bgColor":"#FFFFFF","projectName":"Uniswap V2","tagUrl":"https://app.klerosscout.eth.limo/#/?registry=Single_Tags&itemdetails=0x21dee62fd8759eac196977676d698320331baf2d86a275f6fd61b587d90cafc8@0x66260c69d03837016d88c9877e61e08ef74c59f2","textColor":"#FF007A","tooltipDescription":"Up-to-date Uniswap V2 Router contract.","tooltipUrl":"https://app.uniswap.org/#/swap","verifiedDomains":["app.thorswap.finance","app.uniswap.org"]},"name":"Uniswap V3: Universal Router","ordinal":10,"slug":"uniswap-v3-universal-router","tagType":"name"},{"meta":{},"name":"DEX","ordinal":0,"slug":"dex","tagType":"generic"},{"meta":{"appID":"uniswap","bgColor":"#FF007A","tagIcon":"https://blockscout-content.s3.amazonaws.com/uniswap.png","tagUrl":"https://uniswap.org/?utm_source=Blockscout","textColor":"#FFFFFF","tooltipDescription":"Trade crypto and NFTs safely on the top DeFi platform. Swapping made simple. Buy and sell crypto on Ethereum, Base, Arbitrum, Polygon, and more.","tooltipTitle":"Uniswap","tooltipUrl":"https://uniswap.org/?utm_source=Blockscout"},"name":"Uniswap V2","ordinal":0,"slug":"uniswap-v2","tagType":"protocol"}]},"name":"UniswapV2Router02","private_tags":[],"proxy_type":null,"public_tags":[],"reputation":"ok","watchlist_names":[]},"authorization_list":[],"method":"swapExactETHForTokens","fee":{"type":"maximum","value":"1800000000000"},"actions":[],"gas_limit":"180000","gas_price":"10000000","decoded_input":{"method_call":"swapExactETHForTokens(uint256 amountOutMin, address[] path, address to, uint256 deadline)","method_id":"7ff36ab5","parameters":[{"name":"amountOutMin","type":"uint256","value":"1"},{"name":"path","type":"address[]","value":["0xC02aaA39b223FE8D0A0e5C4F27eAD9083C756Cc2","0xc427087C9eB3c0Fd8ac188457b6EC1351C7209cA"]},{"name":"to","type":"address","value":"0xEb062c04E40f7Da9d3234C855668aF31858752a1"},{"name":"deadline","type":"uint256","value":"1747751977"}]},"token_transfers":null,"base_fee_per_gas":null,"timestamp":null,"nonce":1,"historic_exchange_rate":null,"transaction_types":["coin_transfer","contract_call"],"exchange_rate":"3887.67","block_number":null,"has_error_in_internal_transactions":null},{"priority_fee":null,"raw_input":"0x5c11d79500000000000000000000000000000000000000000000002e777cabb1bb02bd00000000000000000000000000000000000000000000000000000000002f8726f300000000000000000000000000000000000000000000000000000000000000a0000000000000000000000000f423f9272a2f87ca46e0b0f9946b63d1619093f90000000000000000000000000000000000000000000000000000000060b7655a0000000000000000000000000000000000000000000000000000000000000003000000000000000000000000c40af1e4fecfa05ce6bab79dcd8b373d2e436c4e000000000000000000000000c02aaa39b223fe8d0a0e5c4f27ead9083c756cc2000000000000000000000000dac17f958d2ee523a2206206994597c13d831ec7","is_pending_update":null,"result":"pending","hash":"0x1db15833f222428efbaeda94a03526f5c5d4fcd2dfab45bb701f03a7d3e8021a","max_fee_per_gas":null,"revert_reason":null,"confirmation_duration":[],"transaction_burnt_fee":null,"type":0,"token_transfers_overflow":null,"confirmations":0,"position":null,"max_priority_fee_per_gas":null,"transaction_tag":null,"created_contract":null,"value":"0","from":{"ens_domain_name":null,"hash":"0xf423F9272A2F87CA46e0B0F9946b63d1619093f9","implementations":[],"is_contract":false,"is_scam":false,"is_verified":false,"metadata":null,"name":null,"private_tags":[],"proxy_type":null,"public_tags":[],"reputation":"ok","watchlist_names":[]},"gas_used":null,"status":null,"to":{"ens_domain_name":null,"hash":"0x7a250d5630B4cF539739dF2C5dAcb4c659F2488D","implementations":[],"is_contract":true,"is_scam":false,"is_verified":true,"metadata":{"tags":[{"meta":{"bgColor":"#FFFFFF","projectName":"Uniswap V2","tagUrl":"https://app.klerosscout.eth.limo/#/?registry=Single_Tags&itemdetails=0x21dee62fd8759eac196977676d698320331baf2d86a275f6fd61b587d90cafc8@0x66260c69d03837016d88c9877e61e08ef74c59f2","textColor":"#FF007A","tooltipDescription":"Up-to-date Uniswap V2 Router contract.","tooltipUrl":"https://app.uniswap.org/#/swap","verifiedDomains":["app.thorswap.finance","app.uniswap.org"]},"name":"Uniswap V3: Universal Router","ordinal":10,"slug":"uniswap-v3-universal-router","tagType":"name"},{"meta":{},"name":"DEX","ordinal":0,"slug":"dex","tagType":"generic"},{"meta":{"appID":"uniswap","bgColor":"#FF007A","tagIcon":"https://blockscout-content.s3.amazonaws.com/uniswap.png","tagUrl":"https://uniswap.org/?utm_source=Blockscout","textColor":"#FFFFFF","tooltipDescription":"Trade crypto and NFTs safely on the top DeFi platform. Swapping made simple. Buy and sell crypto on Ethereum, Base, Arbitrum, Polygon, and more.","tooltipTitle":"Uniswap","tooltipUrl":"https://uniswap.org/?utm_source=Blockscout"},"name":"Uniswap V2","ordinal":0,"slug":"uniswap-v2","tagType":"protocol"}]},"name":"UniswapV2Router02","private_tags":[],"proxy_type":null,"public_tags":[],"reputation":"ok","watchlist_names":[]},"authorization_list":[],"method":"swapExactTokensForTokensSupportingFeeOnTransferTokens","fee":{"type":"maximum","value":"5758105600312"},"actions":[],"gas_limit":"231304","gas_price":"24894103","decoded_input":{"method_call":"swapExactTokensForTokensSupportingFeeOnTransferTokens(uint256 amountIn, uint256 amountOutMin, address[] path, address to, uint256 deadline)","method_id":"5c11d795","parameters":[{"name":"amountIn","type":"uint256","value":"857160172758100000000"},{"name":"amountOutMin","type":"uint256","value":"797386483"},{"name":"path","type":"address[]","value":["0xC40AF1E4fEcFA05Ce6BAb79DcD8B373d2E436c4E","0xC02aaA39b223FE8D0A0e5C4F27eAD9083C756Cc2","0xdAC17F958D2ee523a2206206994597C13D831ec7"]},{"name":"to","type":"address","value":"0xf423F9272A2F87CA46e0B0F9946b63d1619093f9"},{"name":"deadline","type":"uint256","value":"1622631770"}]},"token_transfers":null,"base_fee_per_gas":null,"timestamp":null,"nonce":22,"historic_exchange_rate":null,"transaction_types":["contract_call"],"exchange_rate":"3887.67","block_number":null,"has_error_in_internal_transactions":null}],"next_page_params":{"index":null,"value":"0","hash":"0x1db15833f222428efbaeda94a03526f5c5d4fcd2dfab45bb701f03a7d3e8021a","inserted_at":"2025-10-23T07:49:02.338108Z","block_number":null,"fee":"5758105600312","items_count":50}}