{"items":[{"priority_fee":null,"raw_input":"0x18cbafe500000000000000000000000000000000000000000000000000000000000469890000000000000000000000000000000000000000000000000000572257c59fb000000000000000000000000000000000000000000000000000000000000000a00000000000000000000000009cc6cfb7eb3c3990b15db61aa48fa59fa06fd00e00000000000000000000000000000000000000000000000000000000608f4bc80000000000000000000000000000000000000000000000000000000000000002000000000000000000000000dac17f958d2ee523a2206206994597c13d831ec7000000000000000000000000c02aaa39b223fe8d0a0e5c4f27ead9083c756cc2","is_pending_update":null,"result":"pending","hash":"0x5638702d2759d52b78d0a928dce156b0c31a8c3b03f49f3ba0d4a121334fc231","max_fee_per_gas":null,"revert_reason":null,"confirmation_duration":[],"transaction_burnt_fee":null,"type":0,"token_transfers_overflow":null,"confirmations":0,"position":null,"max_priority_fee_per_gas":null,"transaction_tag":null,"created_contract":null,"value":"0","from":{"ens_domain_name":null,"hash":"0x9Cc6CFb7eb3C3990b15dB61aa48FA59Fa06FD00e","implementations":[],"is_contract":false,"is_scam":false,"is_verified":false,"metadata":null,"name":null,"private_tags":[],"proxy_type":null,"public_tags":[],"reputation":"ok","watchlist_names":[]},"gas_used":null,"status":null,"to":{"ens_domain_name":null,"hash":"0x7a250d5630B4cF539739dF2C5dAcb4c659F2488D","implementations":[],"is_contract":true,"is_scam":false,"is_verified":true,"metadata":{"tags":[{"meta":{"bgColor":"#FFFFFF","projectName":"Uniswap V2","tagUrl":"https://app.klerosscout.eth.limo/#/?registry=Single_Tags&itemdetails=0x21dee62fd8759eac196977676d698320331baf2d86a275f6fd61b587d90cafc8@0x66260c69d03837016d88c9877e61e08ef74c59f2","textColor":"#FF007A","tooltipDescription":"Up-to-date Uniswap V2 Router contract.","tooltipUrl":"https://app.uniswap.org/#/swap","verifiedDomains":["app.thorswap.finance","app.uniswap.org"]},"name":"Uniswap V3: Universal Router","ordinal":10,"slug":"uniswap-v3-universal-router","tagType":"name"},{"meta":{},"name":"DEX","ordinal":0,"slug":"dex","tagType":"generic"},{"meta":{"appID":"uniswap","bgColor":"#FF007A","tagIcon":"https://blockscout-content.s3.amazonaws.com/uniswap.png","tagUrl":"https://uniswap.org/?utm_source=Blockscout","textColor":"#FFFFFF","tooltipDescription":"Trade crypto and NFTs safely on the top DeFi platform. Swapping made simple. Buy and sell crypto on Ethereum, Base, Arbitrum, Polygon, and more.","tooltipTitle":"Uniswap","tooltipUrl":"https://uniswap.org/?utm_source=Blockscout"},"name":"Uniswap V2","ordinal":0,"slug":"uniswap-v2","tagType":"protocol"}]},"name":"UniswapV2Router02","private_tags":[],"proxy_type":null,"public_tags":[],"reputation":"ok","watchlist_names":[]},"authorization_list":[],"method":"swapExactTokensForETH","fee":{"type":"maximum","value":"5368000000000"},"actions":[],"gas_limit":"244000","gas_price":"22000000","decoded_input":{"method_call":"swapExactTokensForETH(uint256 amountIn, uint256 amountOutMin, address[] path, address to, uint256 deadline)","method_id":"18cbafe5","parameters":[{"name":"amountIn","type":"uint256","value":"289161"},{"name":"amountOutMin","type":"uint256","value":"95805013073840"},{"name":"path","type":"address[]","value":["0xdAC17F958D2ee523a2206206994597C13D831ec7","0xC02aaA39b223FE8D0A0e5C4F27eAD9083C756Cc2"]},{"name":"to","type":"address","value":"0x9Cc6CFb7eb3C3990b15dB61aa48FA59Fa06FD00e"},{"name":"deadline","type":"uint256","value":"1620003784"}]},"token_transfers":null,"base_fee_per_gas":null,"timestamp":null,"nonce":5,"historic_exchange_rate":null,"transaction_types":["contract_call"],"exchange_rate":"3891.99","block_number":null,"has_error_in_internal_transactions":null},{"priority_fee":null,"raw_input":"0x7ff36ab5000000000000000000000000000000000000000000b4522f6e5739f0d2393d230000000000000000000000000000000000000000000000000000000000000080000000000000000000000000bcde93bf363ad3f650289862539fcd325878a9490000000000000000000000000000000000000000000000000000000060fe33a50000000000000000000000000000000000000000000000000000000000000002000000000000000000000000c02aaa39b223fe8d0a0e5c4f27ead9083c756cc2000000000000000000000000761d38e5ddf6ccf6cf7c55759d5210750b5d60f3","is_pending_update":null,"result":"pending","hash":"0x518397835e1c048603b1ecc7710ce62306f9013badf969615b5bebaf0fd5d0c9","max_fee_per_gas":null,"revert_reason":null,"confirmation_duration":[],"transaction_burnt_fee":null,"type":0,"token_transfers_overflow":null,"confirmations":0,"position":null,"max_priority_fee_per_gas":null,"transaction_tag":null,"created_contract":null,"value":"5000000000000000","from":{"ens_domain_name":null,"hash":"0xbCDe93bF363aD3F650289862539fcd325878A949","implementations":[],"is_contract":false,"is_scam":false,"is_verified":false,"metadata":null,"name":null,"private_tags":[],"proxy_type":null,"public_tags":[],"reputation":"ok","watchlist_names":[]},"gas_used":null,"status":null,"to":{"ens_domain_name":null,"hash":"0x7a250d5630B4cF539739dF2C5dAcb4c659F2488D","implementations":[],"is_contract":true,"is_scam":false,"is_verified":true,"metadata":{"tags":[{"meta":{"bgColor":"#FFFFFF","projectName":"Uniswap V2","tagUrl":"https://app.klerosscout.eth.limo/#/?registry=Single_Tags&itemdetails=0x21dee62fd8759eac196977676d698320331baf2d86a275f6fd61b587d90cafc8@0x66260c69d03837016d88c9877e61e08ef74c59f2","textColor":"#FF007A","tooltipDescription":"Up-to-date Uniswap V2 Router contract.","tooltipUrl":"https://app.uniswap.org/#/swap","verifiedDomains":["app.thorswap.finance","app.uniswap.org"]},"name":"Uniswap V3: Universal Router","ordinal":10,"slug":"uniswap-v3-universal-router","tagType":"name"},{"meta":{},"name":"DEX","ordinal":0,"slug":"dex","tagType":"generic"},{"meta":{"appID":"uniswap","bgColor":"#FF007A","tagIcon":"https://blockscout-content.s3.amazonaws.com/uniswap.png","tagUrl":"https://uniswap.org/?utm_source=Blockscout","textColor":"#FFFFFF","tooltipDescription":"Trade crypto and NFTs safely on the top DeFi platform. Swapping made simple. Buy and sell crypto on Ethereum, Base, Arbitrum, Polygon, and more.","tooltipTitle":"Uniswap","tooltipUrl":"https://uniswap.org/?utm_source=Blockscout"},"name":"Uniswap V2","ordinal":0,"slug":"uniswap-v2","tagType":"protocol"}]},"name":"UniswapV2Router02","private_tags":[],"proxy_type":null,"public_tags":[],"reputation":"ok","watchlist_names":[]},"authorization_list":[],"method":"swapExactETHForTokens","fee":{"type":"maximum","value":"1587980000000"},"actions":[],"gas_limit":"158798","gas_price":"10000000","decoded_input":{"method_call":"swapExactETHForTokens(uint256 amountOutMin, address[] path, address to, uint256 deadline)","method_id":"7ff36ab5","parameters":[{"name":"amountOutMin","type":"uint256","value":"217994756530087400331361571"},{"name":"path","type":"address[]","value":["0xC02aaA39b223FE8D0A0e5C4F27eAD9083C756Cc2","0x761D38e5ddf6ccf6Cf7c55759d5210750B5D60F3"]},{"name":"to","type":"address","value":"0xbCDe93bF363aD3F650289862539fcd325878A949"},{"name":"deadline","type":"uint256","value":"1627272101"}]},"token_transfers":null,"base_fee_per_gas":null,"timestamp":null,"nonce":1,"historic_exchange_rate":null,"transaction_types":["coin_transfer","contract_call"],"exchange_rate":"3891.99","block_number":null,"has_error_in_internal_transactions":null},{"priority_fee":null,"raw_input":"0x7ff36ab500000000000000000000000000000000000000000000000007445de1a8ab9fef000000000000000000000000000000000000000000000000000000000000008000000000000000000000000062c38dd1b7af2dedd96b85d87568a55ec886f1bf0000000000000000000000000000000000000000000000000000000060972a0a0000000000000000000000000000000000000000000000000000000000000002000000000000000000000000c02aaa39b223fe8d0a0e5c4f27ead9083c756cc2000000000000000000000000668c50b1c7f46effbe3f242687071d7908aab00a","is_pending_update":null,"result":"pending","hash":"0x7ce9ceb6354b32ac2cae04b9954e42becd60ae7e7e1ffaee59d7c0d3073c8592","max_fee_per_gas":null,"revert_reason":null,"confirmation_duration":[],"transaction_burnt_fee":null,"type":0,"token_transfers_overflow":null,"confirmations":0,"position":null,"max_priority_fee_per_gas":null,"transaction_tag":null,"created_contract":null,"value":"1000000000000000","from":{"ens_domain_name":null,"hash":"0x62C38DD1B7Af2Dedd96B85d87568A55eC886F1BF","implementations":[],"is_contract":false,"is_scam":false,"is_verified":false,"metadata":null,"name":null,"private_tags":[],"proxy_type":null,"public_tags":[],"reputation":"ok","watchlist_names":[]},"gas_used":null,"status":null,"to":{"ens_domain_name":null,"hash":"0x7a250d5630B4cF539739dF2C5dAcb4c659F2488D","implementations":[],"is_contract":true,"is_scam":false,"is_verified":true,"metadata":{"tags":[{"meta":{"bgColor":"#FFFFFF","projectName":"Uniswap V2","tagUrl":"https://app.klerosscout.eth.limo/#/?registry=Single_Tags&itemdetails=0x21dee62fd8759eac196977676d698320331baf2d86a275f6fd61b587d90cafc8@0x66260c69d03837016d88c9877e61e08ef74c59f2","textColor":"#FF007A","tooltipDescription":"Up-to-date Uniswap V2 Router contract.","tooltipUrl":"https://app.uniswap.org/#/swap","verifiedDomains":["app.thorswap.finance","app.uniswap.org"]},"name":"Uniswap V3: Universal Router","ordinal":10,"slug":"uniswap-v3-universal-router","tagType":"name"},{"meta":{},"name":"DEX","ordinal":0,"slug":"dex","tagType":"generic"},{"meta":{"appID":"uniswap","bgColor":"#FF007A","tagIcon":"https://blockscout-content.s3.amazonaws.com/uniswap.png","tagUrl":"https://uniswap.org/?utm_source=Blockscout","textColor":"#FFFFFF","tooltipDescription":"Trade crypto and NFTs safely on the top DeFi platform. Swapping made simple. Buy and sell crypto on Ethereum, Base, Arbitrum, Polygon, and more.","tooltipTitle":"Uniswap","tooltipUrl":"https://uniswap.org/?utm_source=Blockscout"},"name":"Uniswap V2","ordinal":0,"slug":"uniswap-v2","tagType":"protocol"}]},"name":"UniswapV2Router02","private_tags":[],"proxy_type":null,"public_tags":[],"reputation":"ok","watchlist_names":[]},"authorization_list":[],"method":"swapExactETHForTokens","fee":{"type":"maximum","value":"1824430000000"},"actions":[],"gas_limit":"182443","gas_price":"10000000","decoded_input":{"method_call":"swapExactETHForTokens(uint256 amountOutMin, address[] path, address to, uint256 deadline)","method_id":"7ff36ab5","parameters":[{"name":"amountOutMin","type":"uint256","value":"523646680460664815"},{"name":"path","type":"address[]","value":["0xC02aaA39b223FE8D0A0e5C4F27eAD9083C756Cc2","0x668C50B1c7f46EFFBE3f242687071d7908AAB00A"]},{"name":"to","type":"address","value":"0x62C38DD1B7Af2Dedd96B85d87568A55eC886F1BF"},{"name":"deadline","type":"uint256","value":"1620519434"}]},"token_transfers":null,"base_fee_per_gas":null,"timestamp":null,"nonce":56,"historic_exchange_rate":null,"transaction_types":["coin_transfer","contract_call"],"exchange_rate":"3891.99","block_number":null,"has_error_in_internal_transactions":null},{"priority_fee":null,"raw_input":"0xe8e33700000000000000000000000000add186e12707d4190129e7f53fe16c60a18c0b7a0000000000000000000000007b79995e5f793a07bc00c21412e50ecae098e7f900000000000000000000000000000000000000000000003635c9adc5dea00000000000000000000000000000000000000000000000000000016345785d8a000000000000000000000000000000000000000000000000000000000000000000000000000000000000000000000000000000000000000000000000000000000000000000000000000000000000aa2a2c03a4673fb8616ce8d720e07400b7c44e620000000000000000000000000000000000000000000000000000000001406f40","is_pending_update":null,"result":"pending","hash":"0xb03f784c86f82f3d3d56d0f4bca29737ce1ccd24ff7cf1c82a86150ea0032331","max_fee_per_gas":"10000000","revert_reason":null,"confirmation_duration":[],"transaction_burnt_fee":null,"type":2,"token_transfers_overflow":null,"confirmations":0,"position":null,"max_priority_fee_per_gas":"2000000","transaction_tag":null,"created_contract":null,"value":"0","from":{"ens_domain_name":null,"hash":"0xAa2a2c03A4673fB8616Ce8d720E07400b7C44E62","implementations":[],"is_contract":false,"is_scam":false,"is_verified":false,"metadata":null,"name":null,"private_tags":[],"proxy_type":null,"public_tags":[],"reputation":"ok","watchlist_names":[]},"gas_used":null,"status":null,"to":{"ens_domain_name":null,"hash":"0x7a250d5630B4cF539739dF2C5dAcb4c659F2488D","implementations":[],"is_contract":true,"is_scam":false,"is_verified":true,"metadata":{"tags":[{"meta":{"bgColor":"#FFFFFF","projectName":"Uniswap V2","tagUrl":"https://app.klerosscout.eth.limo/#/?registry=Single_Tags&itemdetails=0x21dee62fd8759eac196977676d698320331baf2d86a275f6fd61b587d90cafc8@0x66260c69d03837016d88c9877e61e08ef74c59f2","textColor":"#FF007A","tooltipDescription":"Up-to-date Uniswap V2 Router contract.","tooltipUrl":"https://app.uniswap.org/#/swap","verifiedDomains":["app.thorswap.finance","app.uniswap.org"]},"name":"Uniswap V3: Universal Router","ordinal":10,"slug":"uniswap-v3-universal-router","tagType":"name"},{"meta":{},"name":"DEX","ordinal":0,"slug":"dex","tagType":"generic"},{"meta":{"appID":"uniswap","bgColor":"#FF007A","tagIcon":"https://blockscout-content.s3.amazonaws.com/uniswap.png","tagUrl":"https://uniswap.org/?utm_source=Blockscout","textColor":"#FFFFFF","tooltipDescription":"Trade crypto and NFTs safely on the top DeFi platform. Swapping made simple. Buy and sell crypto on Ethereum, Base, Arbitrum, Polygon, and more.","tooltipTitle":"Uniswap","tooltipUrl":"https://uniswap.org/?utm_source=Blockscout"},"name":"Uniswap V2","ordinal":0,"slug":"uniswap-v2","tagType":"protocol"}]},"name":"UniswapV2Router02","private_tags":[],"proxy_type":null,"public_tags":[],"reputation":"ok","watchlist_names":[]},"authorization_list":[],"method":"addLiquidity","fee":{"type":"maximum","value":"157038290000000"},"actions":[],"gas_limit":"15703829","gas_price":"10000000","decoded_input":{"method_call":"addLiquidity(address tokenA, address tokenB, uint256 amountADesired, uint256 amountBDesired, uint256 amountAMin, uint256 amountBMin, address to, uint256 deadline)","method_id":"e8e33700","parameters":[{"name":"tokenA","type":"address","value":"0xAdD186E12707d4190129E7F53fE16C60a18C0b7A"},{"name":"tokenB","type":"address","value":"0x7b79995e5f793A07Bc00c21412e50Ecae098E7f9"},{"name":"amountADesired","type":"uint256","value":"1000000000000000000000"},{"name":"amountBDesired","type":"uint256","value":"100000000000000000"},{"name":"amountAMin","type":"uint256","value":"0"},{"name":"amountBMin","type":"uint256","value":"0"},{"name":"to","type":"address","value":"0xAa2a2c03A4673fB8616Ce8d720E07400b7C44E62"},{"name":"deadline","type":"uint256","value":"21000000"}]},"token_transfers":null,"base_fee_per_gas":null,"timestamp":null,"nonce":1,"historic_exchange_rate":null,"transaction_types":["contract_call"],"exchange_rate":"3891.99","block_number":null,"has_error_in_internal_transactions":null},{"priority_fee":null,"raw_input":"0x7ff36ab500000000000000000000000000000000000000000000000000000000000000010000000000000000000000000000000000000000000000000000000000000080000000000000000000000000ea7497f823fd672c086ddc0036caf1fda559d2c300000000000000000000000000000000000000000000000000000000682c93d70000000000000000000000000000000000000000000000000000000000000002000000000000000000000000c02aaa39b223fe8d0a0e5c4f27ead9083c756cc2000000000000000000000000c427087c9eb3c0fd8ac188457b6ec1351c7209ca","is_pending_update":null,"result":"pending","hash":"0x065d75ea6ee57e8d3dcd67cf1d0b959e4985abc24092d82887abbf4901b6c3b8","max_fee_per_gas":"10000000","revert_reason":null,"confirmation_duration":[],"transaction_burnt_fee":null,"type":2,"token_transfers_overflow":null,"confirmations":0,"position":null,"max_priority_fee_per_gas":"10000000","transaction_tag":null,"created_contract":null,"value":"15","from":{"ens_domain_name":null,"hash":"0xEA7497F823FD672C086DDc0036cAf1FDA559D2C3","implementations":[],"is_contract":false,"is_scam":false,"is_verified":false,"metadata":null,"name":null,"private_tags":[],"proxy_type":null,"public_tags":[],"reputation":"ok","watchlist_names":[]},"gas_used":null,"status":null,"to":{"ens_domain_name":null,"hash":"0x7a250d5630B4cF539739dF2C5dAcb4c659F2488D","implementations":[],"is_contract":true,"is_scam":false,"is_verified":true,"metadata":{"tags":[{"meta":{"bgColor":"#FFFFFF","projectName":"Uniswap V2","tagUrl":"https://app.klerosscout.eth.limo/#/?registry=Single_Tags&itemdetails=0x21dee62fd8759eac196977676d698320331baf2d86a275f6fd61b587d90cafc8@0x66260c69d03837016d88c9877e61e08ef74c59f2","textColor":"#FF007A","tooltipDescription":"Up-to-date Uniswap V2 Router contract.","tooltipUrl":"https://app.uniswap.org/#/swap","verifiedDomains":["app.thorswap.finance","app.uniswap.org"]},"name":"Uniswap V3: Universal Router","ordinal":10,"slug":"uniswap-v3-universal-router","tagType":"name"},{"meta":{},"name":"DEX","ordinal":0,"slug":"dex","tagType":"generic"},{"meta":{"appID":"uniswap","bgColor":"#FF007A","tagIcon":"https://blockscout-content.s3.amazonaws.com/uniswap.png","tagUrl":"https://uniswap.org/?utm_source=Blockscout","textColor":"#FFFFFF","tooltipDescription":"Trade crypto and NFTs safely on the top DeFi platform. Swapping made simple. Buy and sell crypto on Ethereum, Base, Arbitrum, Polygon, and more.","tooltipTitle":"Uniswap","tooltipUrl":"https://uniswap.org/?utm_source=Blockscout"},"name":"Uniswap V2","ordinal":0,"slug":"uniswap-v2","tagType":"protocol"}]},"name":"UniswapV2Router02","private_tags":[],"proxy_type":null,"public_tags":[],"reputation":"ok","watchlist_names":[]},"authorization_list":[],"method":"swapExactETHForTokens","fee":{"type":"maximum","value":"1800000000000"},"actions":[],"gas_limit":"180000","gas_price":"10000000","decoded_input":{"method_call":"swapExactETHForTokens(uint256 amountOutMin, address[] path, address to, uint256 deadline)","method_id":"7ff36ab5","parameters":[{"name":"amountOutMin","type":"uint256","value":"1"},{"name":"path","type":"address[]","value":["0xC02aaA39b223FE8D0A0e5C4F27eAD9083C756Cc2","0xc427087C9eB3c0Fd8ac188457b6EC1351C7209cA"]},{"name":"to","type":"address","value":"0xEA7497F823FD672C086DDc0036cAf1FDA559D2C3"},{"name":"deadline","type":"uint256","value":"1747751895"}]},"token_transfers":null,"base_fee_per_gas":null,"timestamp":null,"nonce":1,"historic_exchange_rate":null,"transaction_types":["coin_transfer","contract_call"],"exchange_rate":"3891.99","block_number":null,"has_error_in_internal_transactions":null},{"priority_fee":null,"raw_input":"0x7ff36ab5000000000000000000000000000000000000000000000000058115bc045591630000000000000000000000000000000000000000000000000000000000000080000000000000000000000000d3d1f804038d656c4b7f5d584c948851972bc00a000000000000000000000000000000000000000000000000000000006044bdf30000000000000000000000000000000000000000000000000000000000000002000000000000000000000000c02aaa39b223fe8d0a0e5c4f27ead9083c756cc2000000000000000000000000ba11d00c5f74255f56a5e366f4f77f5a186d7f55","is_pending_update":null,"result":"pending","hash":"0x6c44e9ef8a1be4fc2f064b79913aed5046041a823d3e92942a9cdf01ad07c56f","max_fee_per_gas":null,"revert_reason":null,"confirmation_duration":[],"transaction_burnt_fee":null,"type":0,"token_transfers_overflow":null,"confirmations":0,"position":null,"max_priority_fee_per_gas":null,"transaction_tag":null,"created_contract":null,"value":"3100000000000000","from":{"ens_domain_name":null,"hash":"0xd3D1f804038D656c4B7f5D584C948851972Bc00A","implementations":[],"is_contract":false,"is_scam":false,"is_verified":false,"metadata":null,"name":null,"private_tags":[],"proxy_type":null,"public_tags":[],"reputation":"ok","watchlist_names":[]},"gas_used":null,"status":null,"to":{"ens_domain_name":null,"hash":"0x7a250d5630B4cF539739dF2C5dAcb4c659F2488D","implementations":[],"is_contract":true,"is_scam":false,"is_verified":true,"metadata":{"tags":[{"meta":{"bgColor":"#FFFFFF","projectName":"Uniswap V2","tagUrl":"https://app.klerosscout.eth.limo/#/?registry=Single_Tags&itemdetails=0x21dee62fd8759eac196977676d698320331baf2d86a275f6fd61b587d90cafc8@0x66260c69d03837016d88c9877e61e08ef74c59f2","textColor":"#FF007A","tooltipDescription":"Up-to-date Uniswap V2 Router contract.","tooltipUrl":"https://app.uniswap.org/#/swap","verifiedDomains":["app.thorswap.finance","app.uniswap.org"]},"name":"Uniswap V3: Universal Router","ordinal":10,"slug":"uniswap-v3-universal-router","tagType":"name"},{"meta":{},"name":"DEX","ordinal":0,"slug":"dex","tagType":"generic"},{"meta":{"appID":"uniswap","bgColor":"#FF007A","tagIcon":"https://blockscout-content.s3.amazonaws.com/uniswap.png","tagUrl":"https://uniswap.org/?utm_source=Blockscout","textColor":"#FFFFFF","tooltipDescription":"Trade crypto and NFTs safely on the top DeFi platform. Swapping made simple. Buy and sell crypto on Ethereum, Base, Arbitrum, Polygon, and more.","tooltipTitle":"Uniswap","tooltipUrl":"https://uniswap.org/?utm_source=Blockscout"},"name":"Uniswap V2","ordinal":0,"slug":"uniswap-v2","tagType":"protocol"}]},"name":"UniswapV2Router02","private_tags":[],"proxy_type":null,"public_tags":[],"reputation":"ok","watchlist_names":[]},"authorization_list":[],"method":"swapExactETHForTokens","fee":{"type":"maximum","value":"12626700000000"},"actions":[],"gas_limit":"252534","gas_price":"50000000","decoded_input":{"method_call":"swapExactETHForTokens(uint256 amountOutMin, address[] path, address to, uint256 deadline)","method_id":"7ff36ab5","parameters":[{"name":"amountOutMin","type":"uint256","value":"396622139456065891"},{"name":"path","type":"address[]","value":["0xC02aaA39b223FE8D0A0e5C4F27eAD9083C756Cc2","0xBA11D00c5f74255f56a5E366F4F77f5A186d7f55"]},{"name":"to","type":"address","value":"0xd3D1f804038D656c4B7f5D584C948851972Bc00A"},{"name":"deadline","type":"uint256","value":"1615117811"}]},"token_transfers":null,"base_fee_per_gas":null,"timestamp":null,"nonce":2,"historic_exchange_rate":null,"transaction_types":["coin_transfer","contract_call"],"exchange_rate":"3891.99","block_number":null,"has_error_in_internal_transactions":null},{"priority_fee":null,"raw_input":"0x7ff36ab50000000000000000000000000000000000000000000000000000000000000001000000000000000000000000000000000000000000000000000000000000008000000000000000000000000068abeb40a16532daf473aa38ee867a1fa66f07a000000000000000000000000000000000000000000000000000000000682c93f50000000000000000000000000000000000000000000000000000000000000002000000000000000000000000c02aaa39b223fe8d0a0e5c4f27ead9083c756cc2000000000000000000000000c427087c9eb3c0fd8ac188457b6ec1351c7209ca","is_pending_update":null,"result":"pending","hash":"0xc413d43f8e9357d44d0c2853c96a9e8d314ca47b861b861911956cb8bf8cc8e9","max_fee_per_gas":"10000000","revert_reason":null,"confirmation_duration":[],"transaction_burnt_fee":null,"type":2,"token_transfers_overflow":null,"confirmations":0,"position":null,"max_priority_fee_per_gas":"10000000","transaction_tag":null,"created_contract":null,"value":"5","from":{"ens_domain_name":null,"hash":"0x68abeB40A16532dAf473Aa38ee867a1Fa66f07a0","implementations":[],"is_contract":false,"is_scam":false,"is_verified":false,"metadata":null,"name":null,"private_tags":[],"proxy_type":null,"public_tags":[],"reputation":"ok","watchlist_names":[]},"gas_used":null,"status":null,"to":{"ens_domain_name":null,"hash":"0x7a250d5630B4cF539739dF2C5dAcb4c659F2488D","implementations":[],"is_contract":true,"is_scam":false,"is_verified":true,"metadata":{"tags":[{"meta":{"bgColor":"#FFFFFF","projectName":"Uniswap V2","tagUrl":"https://app.klerosscout.eth.limo/#/?registry=Single_Tags&itemdetails=0x21dee62fd8759eac196977676d698320331baf2d86a275f6fd61b587d90cafc8@0x66260c69d03837016d88c9877e61e08ef74c59f2","textColor":"#FF007A","tooltipDescription":"Up-to-date Uniswap V2 Router contract.","tooltipUrl":"https://app.uniswap.org/#/swap","verifiedDomains":["app.thorswap.finance","app.uniswap.org"]},"name":"Uniswap V3: Universal Router","ordinal":10,"slug":"uniswap-v3-universal-router","tagType":"name"},{"meta":{},"name":"DEX","ordinal":0,"slug":"dex","tagType":"generic"},{"meta":{"appID":"uniswap","bgColor":"#FF007A","tagIcon":"https://blockscout-content.s3.amazonaws.com/uniswap.png","tagUrl":"https://uniswap.org/?utm_source=Blockscout","textColor":"#FFFFFF","tooltipDescription":"Trade crypto and NFTs safely on the top DeFi platform. Swapping made simple. Buy and sell crypto on Ethereum, Base, Arbitrum, Polygon, and more.","tooltipTitle":"Uniswap","tooltipUrl":"https://uniswap.org/?utm_source=Blockscout"},"name":"Uniswap V2","ordinal":0,"slug":"uniswap-v2","tagType":"protocol"}]},"name":"UniswapV2Router02","private_tags":[],"proxy_type":null,"public_tags":[],"reputation":"ok","watchlist_names":[]},"authorization_list":[],"method":"swapExactETHForTokens","fee":{"type":"maximum","value":"1800000000000"},"actions":[],"gas_limit":"180000","gas_price":"10000000","decoded_input":{"method_call":"swapExactETHForTokens(uint256 amountOutMin, address[] path, address to, uint256 deadline)","method_id":"7ff36ab5","parameters":[{"name":"amountOutMin","type":"uint256","value":"1"},{"name":"path","type":"address[]","value":["0xC02aaA39b223FE8D0A0e5C4F27eAD9083C756Cc2","0xc427087C9eB3c0Fd8ac188457b6EC1351C7209cA"]},{"name":"to","type":"address","value":"0x68abeB40A16532dAf473Aa38ee867a1Fa66f07a0"},{"name":"deadline","type":"uint256","value":"1747751925"}]},"token_transfers":null,"base_fee_per_gas":null,"timestamp":null,"nonce":0,"historic_exchange_rate":null,"transaction_types":["coin_transfer","contract_call"],"exchange_rate":"3891.99","block_number":null,"has_error_in_internal_transactions":null},{"priority_fee":null,"raw_input":"0x7ff36ab5000000000000000000000000000000000000000000004a1d89bb94865ec0000000000000000000000000000000000000000000000000000000000000000000800000000000000000000000009a6eb571d318ddd6648868a4514e7cb3f1554d8e00000000000000000000000000000000000000000000000000000a1b01d4b1c70000000000000000000000000000000000000000000000000000000000000002000000000000000000000000c02aaa39b223fe8d0a0e5c4f27ead9083c756cc20000000000000000000000005f474906637bdcda05f29c74653f6962bb0f8eda","is_pending_update":null,"result":"pending","hash":"0x28f8c1991d77a0c4d752e6fa274e213845711485df1f4c9f487508cc5d318538","max_fee_per_gas":null,"revert_reason":null,"confirmation_duration":[],"transaction_burnt_fee":null,"type":0,"token_transfers_overflow":null,"confirmations":0,"position":null,"max_priority_fee_per_gas":null,"transaction_tag":null,"created_contract":null,"value":"10000000000000","from":{"ens_domain_name":null,"hash":"0x9a6Eb571D318DDd6648868a4514E7cB3f1554D8E","implementations":[],"is_contract":false,"is_scam":false,"is_verified":false,"metadata":null,"name":null,"private_tags":[],"proxy_type":null,"public_tags":[],"reputation":"ok","watchlist_names":[]},"gas_used":null,"status":null,"to":{"ens_domain_name":null,"hash":"0x7a250d5630B4cF539739dF2C5dAcb4c659F2488D","implementations":[],"is_contract":true,"is_scam":false,"is_verified":true,"metadata":{"tags":[{"meta":{"bgColor":"#FFFFFF","projectName":"Uniswap V2","tagUrl":"https://app.klerosscout.eth.limo/#/?registry=Single_Tags&itemdetails=0x21dee62fd8759eac196977676d698320331baf2d86a275f6fd61b587d90cafc8@0x66260c69d03837016d88c9877e61e08ef74c59f2","textColor":"#FF007A","tooltipDescription":"Up-to-date Uniswap V2 Router contract.","tooltipUrl":"https://app.uniswap.org/#/swap","verifiedDomains":["app.thorswap.finance","app.uniswap.org"]},"name":"Uniswap V3: Universal Router","ordinal":10,"slug":"uniswap-v3-universal-router","tagType":"name"},{"meta":{},"name":"DEX","ordinal":0,"slug":"dex","tagType":"generic"},{"meta":{"appID":"uniswap","bgColor":"#FF007A","tagIcon":"https://blockscout-content.s3.amazonaws.com/uniswap.png","tagUrl":"https://uniswap.org/?utm_source=Blockscout","textColor":"#FFFFFF","tooltipDescription":"Trade crypto and NFTs safely on the top DeFi platform. Swapping made simple. Buy and sell crypto on Ethereum, Base, Arbitrum, Polygon, and more.","tooltipTitle":"Uniswap","tooltipUrl":"https://uniswap.org/?utm_source=Blockscout"},"name":"Uniswap V2","ordinal":0,"slug":"uniswap-v2","tagType":"protocol"}]},"name":"UniswapV2Router02","private_tags":[],"proxy_type":null,"public_tags":[],"reputation":"ok","watchlist_names":[]},"authorization_list":[],"method":"swapExactETHForTokens","fee":{"type":"maximum","value":"14000000"},"actions":[],"gas_limit":"350000","gas_price":"40","decoded_input":{"method_call":"swapExactETHForTokens(uint256 amountOutMin, address[] path, address to, uint256 deadline)","method_id":"7ff36ab5","parameters":[{"name":"amountOutMin","type":"uint256","value":"350000000000000000000000"},{"name":"path","type":"address[]","value":["0xC02aaA39b223FE8D0A0e5C4F27eAD9083C756Cc2","0x5F474906637bdCDA05f29C74653F6962bb0f8eDa"]},{"name":"to","type":"address","value":"0x9a6Eb571D318DDd6648868a4514E7cB3f1554D8E"},{"name":"deadline","type":"uint256","value":"11111111111111"}]},"token_transfers":null,"base_fee_per_gas":null,"timestamp":null,"nonce":13,"historic_exchange_rate":null,"transaction_types":["coin_transfer","contract_call"],"exchange_rate":"3891.99","block_number":null,"has_error_in_internal_transactions":null},{"priority_fee":null,"raw_input":"0xfb3bdb410000000000000000000000000000000000000000000000000000000035a4e90000000000000000000000000000000000000000000000000000000000000000800000000000000000000000005e424735a71ad9594a820c06dc1c32060421f93d0000000000000000000000000000000000000000000000000000000065da069d0000000000000000000000000000000000000000000000000000000000000002000000000000000000000000c02aaa39b223fe8d0a0e5c4f27ead9083c756cc2000000000000000000000000e2dc070524a6e305ddb64d8513dc444b6a1ec845","is_pending_update":null,"result":"pending","hash":"0x5bc68399f9e25f89bb95ecf79f768e728fbc6212f587c665aa9e6ddf9cddc092","max_fee_per_gas":null,"revert_reason":null,"confirmation_duration":[],"transaction_burnt_fee":null,"type":0,"token_transfers_overflow":null,"confirmations":0,"position":null,"max_priority_fee_per_gas":null,"transaction_tag":null,"created_contract":null,"value":"3498721287573242","from":{"ens_domain_name":null,"hash":"0x5e424735a71ad9594a820c06Dc1C32060421F93D","implementations":[],"is_contract":false,"is_scam":false,"is_verified":false,"metadata":null,"name":null,"private_tags":[],"proxy_type":null,"public_tags":[],"reputation":"ok","watchlist_names":[]},"gas_used":null,"status":null,"to":{"ens_domain_name":null,"hash":"0x7a250d5630B4cF539739dF2C5dAcb4c659F2488D","implementations":[],"is_contract":true,"is_scam":false,"is_verified":true,"metadata":{"tags":[{"meta":{"bgColor":"#FFFFFF","projectName":"Uniswap V2","tagUrl":"https://app.klerosscout.eth.limo/#/?registry=Single_Tags&itemdetails=0x21dee62fd8759eac196977676d698320331baf2d86a275f6fd61b587d90cafc8@0x66260c69d03837016d88c9877e61e08ef74c59f2","textColor":"#FF007A","tooltipDescription":"Up-to-date Uniswap V2 Router contract.","tooltipUrl":"https://app.uniswap.org/#/swap","verifiedDomains":["app.thorswap.finance","app.uniswap.org"]},"name":"Uniswap V3: Universal Router","ordinal":10,"slug":"uniswap-v3-universal-router","tagType":"name"},{"meta":{},"name":"DEX","ordinal":0,"slug":"dex","tagType":"generic"},{"meta":{"appID":"uniswap","bgColor":"#FF007A","tagIcon":"https://blockscout-content.s3.amazonaws.com/uniswap.png","tagUrl":"https://uniswap.org/?utm_source=Blockscout","textColor":"#FFFFFF","tooltipDescription":"Trade crypto and NFTs safely on the top DeFi platform. Swapping made simple. Buy and sell crypto on Ethereum, Base, Arbitrum, Polygon, and more.","tooltipTitle":"Uniswap","tooltipUrl":"https://uniswap.org/?utm_source=Blockscout"},"name":"Uniswap V2","ordinal":0,"slug":"uniswap-v2","tagType":"protocol"}]},"name":"UniswapV2Router02","private_tags":[],"proxy_type":null,"public_tags":[],"reputation":"ok","watchlist_names":[]},"authorization_list":[],"method":"swapETHForExactTokens","fee":{"type":"maximum","value":"169848"},"actions":[],"gas_limit":"169848","gas_price":"1","decoded_input":{"method_call":"swapETHForExactTokens(uint256 amountOut, address[] path, address to, uint256 deadline)","method_id":"fb3bdb41","parameters":[{"name":"amountOut","type":"uint256","value":"900000000"},{"name":"path","type":"address[]","value":["0xC02aaA39b223FE8D0A0e5C4F27eAD9083C756Cc2","0xE2dc070524A6e305ddB64d8513DC444B6a1ec845"]},{"name":"to","type":"address","value":"0x5e424735a71ad9594a820c06Dc1C32060421F93D"},{"name":"deadline","type":"uint256","value":"1708787357"}]},"token_transfers":null,"base_fee_per_gas":null,"timestamp":null,"nonce":2,"historic_exchange_rate":null,"transaction_types":["coin_transfer","contract_call"],"exchange_rate":"3891.99","block_number":null,"has_error_in_internal_transactions":null},{"priority_fee":null,"raw_input":"0x18cbafe5000000000000000000000000000000000000000000000000126a07996c553147000000000000000000000000000000000000000000000000123ae3aeedcf380000000000000000000000000000000000000000000000000000000000000000a0000000000000000000000000a95cebc7d247358670d536cb8bcf4301b903f382000000000000000000000000000000000000000000000000000000006210c5800000000000000000000000000000000000000000000000000000000000000002000000000000000000000000c02aaa39b223fe8d0a0e5c4f27ead9083c756cc2000000000000000000000000b0c7a3ba49c7a6eaba6cd4a96c55a1391070ac9a","is_pending_update":null,"result":"pending","hash":"0xc4fd59a83d053a43bab5c78802cd60ec1c94db40089659b5388a06abba7947a8","max_fee_per_gas":null,"revert_reason":null,"confirmation_duration":[],"transaction_burnt_fee":null,"type":0,"token_transfers_overflow":null,"confirmations":0,"position":null,"max_priority_fee_per_gas":null,"transaction_tag":null,"created_contract":null,"value":"10","from":{"ens_domain_name":null,"hash":"0xA95cEBc7d247358670d536Cb8bCf4301B903F382","implementations":[],"is_contract":false,"is_scam":false,"is_verified":false,"metadata":null,"name":null,"private_tags":[],"proxy_type":null,"public_tags":[],"reputation":"ok","watchlist_names":[]},"gas_used":null,"status":null,"to":{"ens_domain_name":null,"hash":"0x7a250d5630B4cF539739dF2C5dAcb4c659F2488D","implementations":[],"is_contract":true,"is_scam":false,"is_verified":true,"metadata":{"tags":[{"meta":{"bgColor":"#FFFFFF","projectName":"Uniswap V2","tagUrl":"https://app.klerosscout.eth.limo/#/?registry=Single_Tags&itemdetails=0x21dee62fd8759eac196977676d698320331baf2d86a275f6fd61b587d90cafc8@0x66260c69d03837016d88c9877e61e08ef74c59f2","textColor":"#FF007A","tooltipDescription":"Up-to-date Uniswap V2 Router contract.","tooltipUrl":"https://app.uniswap.org/#/swap","verifiedDomains":["app.thorswap.finance","app.uniswap.org"]},"name":"Uniswap V3: Universal Router","ordinal":10,"slug":"uniswap-v3-universal-router","tagType":"name"},{"meta":{},"name":"DEX","ordinal":0,"slug":"dex","tagType":"generic"},{"meta":{"appID":"uniswap","bgColor":"#FF007A","tagIcon":"https://blockscout-content.s3.amazonaws.com/uniswap.png","tagUrl":"https://uniswap.org/?utm_source=Blockscout","textColor":"#FFFFFF","tooltipDescription":"Trade crypto and NFTs safely on the top DeFi platform. Swapping made simple. Buy and sell crypto on Ethereum, Base, Arbitrum, Polygon, and more.","tooltipTitle":"Uniswap","tooltipUrl":"https://uniswap.org/?utm_source=Blockscout"},"name":"Uniswap V2","ordinal":0,"slug":"uniswap-v2","tagType":"protocol"}]},"name":"UniswapV2Router02","private_tags":[],"proxy_type":null,"public_tags":[],"reputation":"ok","watchlist_names":[]},"authorization_list":[],"method":"swapExactTokensForETH","fee":{"type":"maximum","value":"2500000"},"actions":[],"gas_limit":"250000","gas_price":"10","decoded_input":{"method_call":"swapExactTokensForETH(uint256 amountIn, uint256 amountOutMin, address[] path, address to, uint256 deadline)","method_id":"18cbafe5","parameters":[{"name":"amountIn","type":"uint256","value":"1326881395742945607"},{"name":"amountOutMin","type":"uint256","value":"1313612581785516032"},{"name":"path","type":"address[]","value":["0xC02aaA39b223FE8D0A0e5C4F27eAD9083C756Cc2","0xB0c7a3Ba49C7a6EaBa6cD4a96C55a1391070Ac9A"]},{"name":"to","type":"address","value":"0xA95cEBc7d247358670d536Cb8bCf4301B903F382"},{"name":"deadline","type":"uint256","value":"1645266304"}]},"token_transfers":null,"base_fee_per_gas":null,"timestamp":null,"nonce":1,"historic_exchange_rate":null,"transaction_types":["coin_transfer","contract_call"],"exchange_rate":"3891.99","block_number":null,"has_error_in_internal_transactions":null},{"priority_fee":null,"raw_input":"0x7ff36ab50000000000000000000000000000000000000000000000000000cc1cbf2e5ab20000000000000000000000000000000000000000000000000000000000000080000000000000000000000000d34202d3f3bf4c823a2503fb146eb122b81eeddd000000000000000000000000000000000000000000000000000000006120187d0000000000000000000000000000000000000000000000000000000000000002000000000000000000000000c02aaa39b223fe8d0a0e5c4f27ead9083c756cc2000000000000000000000000fcb5df42e06a39e233dc707bb3a80311efd11576","is_pending_update":null,"result":"pending","hash":"0x306ef4b6f16936c0f8dde7ccb0366f22e66d02489a3db90b6fa6274586044e67","max_fee_per_gas":"50240579401","revert_reason":null,"confirmation_duration":[],"transaction_burnt_fee":null,"type":2,"token_transfers_overflow":null,"confirmations":0,"position":null,"max_priority_fee_per_gas":"1500000000","transaction_tag":null,"created_contract":null,"value":"49008730000000","from":{"ens_domain_name":null,"hash":"0xD34202D3f3bF4c823a2503Fb146eB122b81Eeddd","implementations":[],"is_contract":false,"is_scam":false,"is_verified":false,"metadata":null,"name":null,"private_tags":[],"proxy_type":null,"public_tags":[],"reputation":"ok","watchlist_names":[]},"gas_used":null,"status":null,"to":{"ens_domain_name":null,"hash":"0x7a250d5630B4cF539739dF2C5dAcb4c659F2488D","implementations":[],"is_contract":true,"is_scam":false,"is_verified":true,"metadata":{"tags":[{"meta":{"bgColor":"#FFFFFF","projectName":"Uniswap V2","tagUrl":"https://app.klerosscout.eth.limo/#/?registry=Single_Tags&itemdetails=0x21dee62fd8759eac196977676d698320331baf2d86a275f6fd61b587d90cafc8@0x66260c69d03837016d88c9877e61e08ef74c59f2","textColor":"#FF007A","tooltipDescription":"Up-to-date Uniswap V2 Router contract.","tooltipUrl":"https://app.uniswap.org/#/swap","verifiedDomains":["app.thorswap.finance","app.uniswap.org"]},"name":"Uniswap V3: Universal Router","ordinal":10,"slug":"uniswap-v3-universal-router","tagType":"name"},{"meta":{},"name":"DEX","ordinal":0,"slug":"dex","tagType":"generic"},{"meta":{"appID":"uniswap","bgColor":"#FF007A","tagIcon":"https://blockscout-content.s3.amazonaws.com/uniswap.png","tagUrl":"https://uniswap.org/?utm_source=Blockscout","textColor":"#FFFFFF","tooltipDescription":"Trade crypto and NFTs safely on the top DeFi platform. Swapping made simple. Buy and sell crypto on Ethereum, Base, Arbitrum, Polygon, and more.","tooltipTitle":"Uniswap","tooltipUrl":"https://uniswap.org/?utm_source=Blockscout"},"name":"Uniswap V2","ordinal":0,"slug":"uniswap-v2","tagType":"protocol"}]},"name":"UniswapV2Router02","private_tags":[],"proxy_type":null,"public_tags":[],"reputation":"ok","watchlist_names":[]},"authorization_list":[],"method":"swapExactETHForTokens","fee":{"type":"maximum","value":"7644104155862150"},"actions":[],"gas_limit":"152150","gas_price":"50240579401","decoded_input":{"method_call":"swapExactETHForTokens(uint256 amountOutMin, address[] path, address to, uint256 deadline)","method_id":"7ff36ab5","parameters":[{"name":"amountOutMin","type":"uint256","value":"224423838636722"},{"name":"path","type":"address[]","value":["0xC02aaA39b223FE8D0A0e5C4F27eAD9083C756Cc2","0xfcb5DF42e06A39E233dc707bb3a80311eFD11576"]},{"name":"to","type":"address","value":"0xD34202D3f3bF4c823a2503Fb146eB122b81Eeddd"},{"name":"deadline","type":"uint256","value":"1629493373"}]},"token_transfers":null,"base_fee_per_gas":null,"timestamp":null,"nonce":4,"historic_exchange_rate":null,"transaction_types":["coin_transfer","contract_call"],"exchange_rate":"3891.99","block_number":null,"has_error_in_internal_transactions":null},{"priority_fee":null,"raw_input":"0x7ff36ab500000000000000000000000000000000000000000000000000019719d804f0380000000000000000000000000000000000000000000000000000000000000080000000000000000000000000d34202d3f3bf4c823a2503fb146eb122b81eeddd000000000000000000000000000000000000000000000000000000006107ee040000000000000000000000000000000000000000000000000000000000000002000000000000000000000000c02aaa39b223fe8d0a0e5c4f27ead9083c756cc2000000000000000000000000fcb5df42e06a39e233dc707bb3a80311efd11576","is_pending_update":null,"result":"pending","hash":"0xad73d41e8e77eaf31074054fb26db37bf473b91e20960558ca09a5d27ddc4630","max_fee_per_gas":null,"revert_reason":null,"confirmation_duration":[],"transaction_burnt_fee":null,"type":0,"token_transfers_overflow":null,"confirmations":0,"position":null,"max_priority_fee_per_gas":null,"transaction_tag":null,"created_contract":null,"value":"100000000000000","from":{"ens_domain_name":null,"hash":"0xD34202D3f3bF4c823a2503Fb146eB122b81Eeddd","implementations":[],"is_contract":false,"is_scam":false,"is_verified":false,"metadata":null,"name":null,"private_tags":[],"proxy_type":null,"public_tags":[],"reputation":"ok","watchlist_names":[]},"gas_used":null,"status":null,"to":{"ens_domain_name":null,"hash":"0x7a250d5630B4cF539739dF2C5dAcb4c659F2488D","implementations":[],"is_contract":true,"is_scam":false,"is_verified":true,"metadata":{"tags":[{"meta":{"bgColor":"#FFFFFF","projectName":"Uniswap V2","tagUrl":"https://app.klerosscout.eth.limo/#/?registry=Single_Tags&itemdetails=0x21dee62fd8759eac196977676d698320331baf2d86a275f6fd61b587d90cafc8@0x66260c69d03837016d88c9877e61e08ef74c59f2","textColor":"#FF007A","tooltipDescription":"Up-to-date Uniswap V2 Router contract.","tooltipUrl":"https://app.uniswap.org/#/swap","verifiedDomains":["app.thorswap.finance","app.uniswap.org"]},"name":"Uniswap V3: Universal Router","ordinal":10,"slug":"uniswap-v3-universal-router","tagType":"name"},{"meta":{},"name":"DEX","ordinal":0,"slug":"dex","tagType":"generic"},{"meta":{"appID":"uniswap","bgColor":"#FF007A","tagIcon":"https://blockscout-content.s3.amazonaws.com/uniswap.png","tagUrl":"https://uniswap.org/?utm_source=Blockscout","textColor":"#FFFFFF","tooltipDescription":"Trade crypto and NFTs safely on the top DeFi platform. Swapping made simple. Buy and sell crypto on Ethereum, Base, Arbitrum, Polygon, and more.","tooltipTitle":"Uniswap","tooltipUrl":"https://uniswap.org/?utm_source=Blockscout"},"name":"Uniswap V2","ordinal":0,"slug":"uniswap-v2","tagType":"protocol"}]},"name":"UniswapV2Router02","private_tags":[],"proxy_type":null,"public_tags":[],"reputation":"ok","watchlist_names":[]},"authorization_list":[],"method":"swapExactETHForTokens","fee":{"type":"maximum","value":"15216400000000"},"actions":[],"gas_limit":"152164","gas_price":"100000000","decoded_input":{"method_call":"swapExactETHForTokens(uint256 amountOutMin, address[] path, address to, uint256 deadline)","method_id":"7ff36ab5","parameters":[{"name":"amountOutMin","type":"uint256","value":"447612230889528"},{"name":"path","type":"address[]","value":["0xC02aaA39b223FE8D0A0e5C4F27eAD9083C756Cc2","0xfcb5DF42e06A39E233dc707bb3a80311eFD11576"]},{"name":"to","type":"address","value":"0xD34202D3f3bF4c823a2503Fb146eB122b81Eeddd"},{"name":"deadline","type":"uint256","value":"1627909636"}]},"token_transfers":null,"base_fee_per_gas":null,"timestamp":null,"nonce":3,"historic_exchange_rate":null,"transaction_types":["coin_transfer","contract_call"],"exchange_rate":"3891.99","block_number":null,"has_error_in_internal_transactions":null},{"priority_fee":null,"raw_input":"0x7ff36ab50000000000000000000000000000000000000000000000003dd63e7ac79f497700000000000000000000000000000000000000000000000000000000000000800000000000000000000000008c44f82662e433a27acd5a096c1be18970ca61f900000000000000000000000000000000000000000000000000000000604957220000000000000000000000000000000000000000000000000000000000000002000000000000000000000000c02aaa39b223fe8d0a0e5c4f27ead9083c756cc2000000000000000000000000111111111117dc0aa78b770fa6a738034120c302","is_pending_update":null,"result":"pending","hash":"0x740c743da36459d620aaffc04f5b1105ca282a94d697044f5ad308fd642ebf3a","max_fee_per_gas":null,"revert_reason":null,"confirmation_duration":[],"transaction_burnt_fee":null,"type":0,"token_transfers_overflow":null,"confirmations":0,"position":null,"max_priority_fee_per_gas":null,"transaction_tag":null,"created_contract":null,"value":"10000000000000000","from":{"ens_domain_name":null,"hash":"0x8c44f82662e433A27acD5A096c1Be18970ca61f9","implementations":[],"is_contract":false,"is_scam":false,"is_verified":false,"metadata":null,"name":null,"private_tags":[],"proxy_type":null,"public_tags":[],"reputation":"ok","watchlist_names":[]},"gas_used":null,"status":null,"to":{"ens_domain_name":null,"hash":"0x7a250d5630B4cF539739dF2C5dAcb4c659F2488D","implementations":[],"is_contract":true,"is_scam":false,"is_verified":true,"metadata":{"tags":[{"meta":{"bgColor":"#FFFFFF","projectName":"Uniswap V2","tagUrl":"https://app.klerosscout.eth.limo/#/?registry=Single_Tags&itemdetails=0x21dee62fd8759eac196977676d698320331baf2d86a275f6fd61b587d90cafc8@0x66260c69d03837016d88c9877e61e08ef74c59f2","textColor":"#FF007A","tooltipDescription":"Up-to-date Uniswap V2 Router contract.","tooltipUrl":"https://app.uniswap.org/#/swap","verifiedDomains":["app.thorswap.finance","app.uniswap.org"]},"name":"Uniswap V3: Universal Router","ordinal":10,"slug":"uniswap-v3-universal-router","tagType":"name"},{"meta":{},"name":"DEX","ordinal":0,"slug":"dex","tagType":"generic"},{"meta":{"appID":"uniswap","bgColor":"#FF007A","tagIcon":"https://blockscout-content.s3.amazonaws.com/uniswap.png","tagUrl":"https://uniswap.org/?utm_source=Blockscout","textColor":"#FFFFFF","tooltipDescription":"Trade crypto and NFTs safely on the top DeFi platform. Swapping made simple. Buy and sell crypto on Ethereum, Base, Arbitrum, Polygon, and more.","tooltipTitle":"Uniswap","tooltipUrl":"https://uniswap.org/?utm_source=Blockscout"},"name":"Uniswap V2","ordinal":0,"slug":"uniswap-v2","tagType":"protocol"}]},"name":"UniswapV2Router02","private_tags":[],"proxy_type":null,"public_tags":[],"reputation":"ok","watchlist_names":[]},"authorization_list":[],"method":"swapExactETHForTokens","fee":{"type":"maximum","value":"16484700000"},"actions":[],"gas_limit":"164847","gas_price":"100000","decoded_input":{"method_call":"swapExactETHForTokens(uint256 amountOutMin, address[] path, address to, uint256 deadline)","method_id":"7ff36ab5","parameters":[{"name":"amountOutMin","type":"uint256","value":"4455817578385721719"},{"name":"path","type":"address[]","value":["0xC02aaA39b223FE8D0A0e5C4F27eAD9083C756Cc2","0x111111111117dC0aa78b770fA6A738034120C302"]},{"name":"to","type":"address","value":"0x8c44f82662e433A27acD5A096c1Be18970ca61f9"},{"name":"deadline","type":"uint256","value":"1615419170"}]},"token_transfers":null,"base_fee_per_gas":null,"timestamp":null,"nonce":1,"historic_exchange_rate":null,"transaction_types":["coin_transfer","contract_call"],"exchange_rate":"3891.99","block_number":null,"has_error_in_internal_transactions":null},{"priority_fee":null,"raw_input":"0x7ff36ab500000000000000000000000000000000000000000000000001d730f9c8c6e32e0000000000000000000000000000000000000000000000000000000000000080000000000000000000000000555d09a7afb536b42172f69b07fbc522344048c200000000000000000000000000000000000000000000000000000000602eeb0e0000000000000000000000000000000000000000000000000000000000000002000000000000000000000000c02aaa39b223fe8d0a0e5c4f27ead9083c756cc2000000000000000000000000a10740ff9ff6852eac84cdcff9184e1d6d27c057","is_pending_update":null,"result":"pending","hash":"0x551ac91184f9cb2570f647b9d0d499aab917a571ed57c9f0ef6fb64658dcb540","max_fee_per_gas":null,"revert_reason":null,"confirmation_duration":[],"transaction_burnt_fee":null,"type":0,"token_transfers_overflow":null,"confirmations":0,"position":null,"max_priority_fee_per_gas":null,"transaction_tag":null,"created_contract":null,"value":"36130544656658619","from":{"ens_domain_name":null,"hash":"0x555d09A7afb536b42172f69B07FbC522344048c2","implementations":[],"is_contract":false,"is_scam":false,"is_verified":false,"metadata":null,"name":null,"private_tags":[],"proxy_type":null,"public_tags":[],"reputation":"ok","watchlist_names":[]},"gas_used":null,"status":null,"to":{"ens_domain_name":null,"hash":"0x7a250d5630B4cF539739dF2C5dAcb4c659F2488D","implementations":[],"is_contract":true,"is_scam":false,"is_verified":true,"metadata":{"tags":[{"meta":{"bgColor":"#FFFFFF","projectName":"Uniswap V2","tagUrl":"https://app.klerosscout.eth.limo/#/?registry=Single_Tags&itemdetails=0x21dee62fd8759eac196977676d698320331baf2d86a275f6fd61b587d90cafc8@0x66260c69d03837016d88c9877e61e08ef74c59f2","textColor":"#FF007A","tooltipDescription":"Up-to-date Uniswap V2 Router contract.","tooltipUrl":"https://app.uniswap.org/#/swap","verifiedDomains":["app.thorswap.finance","app.uniswap.org"]},"name":"Uniswap V3: Universal Router","ordinal":10,"slug":"uniswap-v3-universal-router","tagType":"name"},{"meta":{},"name":"DEX","ordinal":0,"slug":"dex","tagType":"generic"},{"meta":{"appID":"uniswap","bgColor":"#FF007A","tagIcon":"https://blockscout-content.s3.amazonaws.com/uniswap.png","tagUrl":"https://uniswap.org/?utm_source=Blockscout","textColor":"#FFFFFF","tooltipDescription":"Trade crypto and NFTs safely on the top DeFi platform. Swapping made simple. Buy and sell crypto on Ethereum, Base, Arbitrum, Polygon, and more.","tooltipTitle":"Uniswap","tooltipUrl":"https://uniswap.org/?utm_source=Blockscout"},"name":"Uniswap V2","ordinal":0,"slug":"uniswap-v2","tagType":"protocol"}]},"name":"UniswapV2Router02","private_tags":[],"proxy_type":null,"public_tags":[],"reputation":"ok","watchlist_names":[]},"authorization_list":[],"method":"swapExactETHForTokens","fee":{"type":"maximum","value":"1649100000000"},"actions":[],"gas_limit":"164910","gas_price":"10000000","decoded_input":{"method_call":"swapExactETHForTokens(uint256 amountOutMin, address[] path, address to, uint256 deadline)","method_id":"7ff36ab5","parameters":[{"name":"amountOutMin","type":"uint256","value":"132628563404186414"},{"name":"path","type":"address[]","value":["0xC02aaA39b223FE8D0A0e5C4F27eAD9083C756Cc2","0xa10740ff9FF6852eac84cdcfF9184e1D6d27C057"]},{"name":"to","type":"address","value":"0x555d09A7afb536b42172f69B07FbC522344048c2"},{"name":"deadline","type":"uint256","value":"1613687566"}]},"token_transfers":null,"base_fee_per_gas":null,"timestamp":null,"nonce":5,"historic_exchange_rate":null,"transaction_types":["coin_transfer","contract_call"],"exchange_rate":"3891.99","block_number":null,"has_error_in_internal_transactions":null},{"priority_fee":null,"raw_input":"0x7ff36ab50000000000000000000000000000000000000000000000008c6d8e702e9edd25000000000000000000000000000000000000000000000000000000000000008000000000000000000000000061d3a802253f08866d384374f489b668616de0da0000000000000000000000000000000000000000000000000000000061031edf0000000000000000000000000000000000000000000000000000000000000002000000000000000000000000c02aaa39b223fe8d0a0e5c4f27ead9083c756cc20000000000000000000000008b3192f5eebd8579568a2ed41e6feb402f93f73f","is_pending_update":null,"result":"pending","hash":"0xdf9c3b48b0f4304c1fea9a1e0528d57429c5f2cdecdaf900019f1b385b0060f6","max_fee_per_gas":null,"revert_reason":null,"confirmation_duration":[],"transaction_burnt_fee":null,"type":0,"token_transfers_overflow":null,"confirmations":0,"position":null,"max_priority_fee_per_gas":null,"transaction_tag":null,"created_contract":null,"value":"9000000000000000","from":{"ens_domain_name":null,"hash":"0x61d3A802253f08866D384374F489B668616dE0da","implementations":[],"is_contract":false,"is_scam":false,"is_verified":false,"metadata":null,"name":null,"private_tags":[],"proxy_type":null,"public_tags":[],"reputation":"ok","watchlist_names":[]},"gas_used":null,"status":null,"to":{"ens_domain_name":null,"hash":"0x7a250d5630B4cF539739dF2C5dAcb4c659F2488D","implementations":[],"is_contract":true,"is_scam":false,"is_verified":true,"metadata":{"tags":[{"meta":{"bgColor":"#FFFFFF","projectName":"Uniswap V2","tagUrl":"https://app.klerosscout.eth.limo/#/?registry=Single_Tags&itemdetails=0x21dee62fd8759eac196977676d698320331baf2d86a275f6fd61b587d90cafc8@0x66260c69d03837016d88c9877e61e08ef74c59f2","textColor":"#FF007A","tooltipDescription":"Up-to-date Uniswap V2 Router contract.","tooltipUrl":"https://app.uniswap.org/#/swap","verifiedDomains":["app.thorswap.finance","app.uniswap.org"]},"name":"Uniswap V3: Universal Router","ordinal":10,"slug":"uniswap-v3-universal-router","tagType":"name"},{"meta":{},"name":"DEX","ordinal":0,"slug":"dex","tagType":"generic"},{"meta":{"appID":"uniswap","bgColor":"#FF007A","tagIcon":"https://blockscout-content.s3.amazonaws.com/uniswap.png","tagUrl":"https://uniswap.org/?utm_source=Blockscout","textColor":"#FFFFFF","tooltipDescription":"Trade crypto and NFTs safely on the top DeFi platform. Swapping made simple. Buy and sell crypto on Ethereum, Base, Arbitrum, Polygon, and more.","tooltipTitle":"Uniswap","tooltipUrl":"https://uniswap.org/?utm_source=Blockscout"},"name":"Uniswap V2","ordinal":0,"slug":"uniswap-v2","tagType":"protocol"}]},"name":"UniswapV2Router02","private_tags":[],"proxy_type":null,"public_tags":[],"reputation":"ok","watchlist_names":[]},"authorization_list":[],"method":"swapExactETHForTokens","fee":{"type":"maximum","value":"5688573000000"},"actions":[],"gas_limit":"172381","gas_price":"33000000","decoded_input":{"method_call":"swapExactETHForTokens(uint256 amountOutMin, address[] path, address to, uint256 deadline)","method_id":"7ff36ab5","parameters":[{"name":"amountOutMin","type":"uint256","value":"10118900550241017125"},{"name":"path","type":"address[]","value":["0xC02aaA39b223FE8D0A0e5C4F27eAD9083C756Cc2","0x8B3192f5eEBD8579568A2Ed41E6FEB402f93f73F"]},{"name":"to","type":"address","value":"0x61d3A802253f08866D384374F489B668616dE0da"},{"name":"deadline","type":"uint256","value":"1627594463"}]},"token_transfers":null,"base_fee_per_gas":null,"timestamp":null,"nonce":1,"historic_exchange_rate":null,"transaction_types":["coin_transfer","contract_call"],"exchange_rate":"3891.99","block_number":null,"has_error_in_internal_transactions":null},{"priority_fee":null,"raw_input":"0xb6f9de9500000000000000000000000000000000000000000000000000000000000000010000000000000000000000000000000000000000000000000000000000000080000000000000000000000000e53b3edb7f5d82a0848bbdb33793f3829528b65b00000000000000000000000000000000000000000000000000000189413f78340000000000000000000000000000000000000000000000000000000000000002000000000000000000000000c02aaa39b223fe8d0a0e5c4f27ead9083c756cc20000000000000000000000008e182acfda385c541bcbd57259cd8405b1eec033","is_pending_update":null,"result":"pending","hash":"0xbd3533076777bd1d144f157a8cec86f20ba1fe42dd8c015d7a39c2f12528a6d0","max_fee_per_gas":"2774584","revert_reason":null,"confirmation_duration":[],"transaction_burnt_fee":null,"type":2,"token_transfers_overflow":null,"confirmations":0,"position":null,"max_priority_fee_per_gas":"2774584","transaction_tag":null,"created_contract":null,"value":"100000000000000","from":{"ens_domain_name":null,"hash":"0x5c265a370dB118D25779EF206Cb3f50eDF9C2990","implementations":[],"is_contract":false,"is_scam":false,"is_verified":false,"metadata":null,"name":null,"private_tags":[],"proxy_type":null,"public_tags":[],"reputation":"ok","watchlist_names":[]},"gas_used":null,"status":null,"to":{"ens_domain_name":null,"hash":"0x7a250d5630B4cF539739dF2C5dAcb4c659F2488D","implementations":[],"is_contract":true,"is_scam":false,"is_verified":true,"metadata":{"tags":[{"meta":{"bgColor":"#FFFFFF","projectName":"Uniswap V2","tagUrl":"https://app.klerosscout.eth.limo/#/?registry=Single_Tags&itemdetails=0x21dee62fd8759eac196977676d698320331baf2d86a275f6fd61b587d90cafc8@0x66260c69d03837016d88c9877e61e08ef74c59f2","textColor":"#FF007A","tooltipDescription":"Up-to-date Uniswap V2 Router contract.","tooltipUrl":"https://app.uniswap.org/#/swap","verifiedDomains":["app.thorswap.finance","app.uniswap.org"]},"name":"Uniswap V3: Universal Router","ordinal":10,"slug":"uniswap-v3-universal-router","tagType":"name"},{"meta":{},"name":"DEX","ordinal":0,"slug":"dex","tagType":"generic"},{"meta":{"appID":"uniswap","bgColor":"#FF007A","tagIcon":"https://blockscout-content.s3.amazonaws.com/uniswap.png","tagUrl":"https://uniswap.org/?utm_source=Blockscout","textColor":"#FFFFFF","tooltipDescription":"Trade crypto and NFTs safely on the top DeFi platform. Swapping made simple. Buy and sell crypto on Ethereum, Base, Arbitrum, Polygon, and more.","tooltipTitle":"Uniswap","tooltipUrl":"https://uniswap.org/?utm_source=Blockscout"},"name":"Uniswap V2","ordinal":0,"slug":"uniswap-v2","tagType":"protocol"}]},"name":"UniswapV2Router02","private_tags":[],"proxy_type":null,"public_tags":[],"reputation":"ok","watchlist_names":[]},"authorization_list":[],"method":"swapExactETHForTokensSupportingFeeOnTransferTokens","fee":{"type":"maximum","value":"2774584000000"},"actions":[],"gas_limit":"1000000","gas_price":"2774584","decoded_input":{"method_call":"swapExactETHForTokensSupportingFeeOnTransferTokens(uint256 amountOutMin, address[] path, address to, uint256 deadline)","method_id":"b6f9de95","parameters":[{"name":"amountOutMin","type":"uint256","value":"1"},{"name":"path","type":"address[]","value":["0xC02aaA39b223FE8D0A0e5C4F27eAD9083C756Cc2","0x8e182AcFda385C541bcBD57259cD8405b1eec033"]},{"name":"to","type":"address","value":"0xE53B3EdB7F5D82A0848BBdb33793F3829528B65b"},{"name":"deadline","type":"uint256","value":"1689016825908"}]},"token_transfers":null,"base_fee_per_gas":null,"timestamp":null,"nonce":8,"historic_exchange_rate":null,"transaction_types":["coin_transfer","contract_call"],"exchange_rate":"3891.99","block_number":null,"has_error_in_internal_transactions":null},{"priority_fee":null,"raw_input":"0x7ff36ab500000000000000000000000000000000000000000008e3d75d927fb9a22de40d0000000000000000000000000000000000000000000000000000000000000080000000000000000000000000e709717a5f81a9c9f3d1a7eb32d725d5709c49f600000000000000000000000000000000000000000000000000000000608c80100000000000000000000000000000000000000000000000000000000000000003000000000000000000000000c02aaa39b223fe8d0a0e5c4f27ead9083c756cc20000000000000000000000006b175474e89094c44da98b954eedeac495271d0f00000000000000000000000095ad61b0a150d79219dcf64e1e6cc01f0b64c4ce","is_pending_update":null,"result":"pending","hash":"0x9e30fa106daaec6ff879109ea279829c61e4a12f0644fc69226fa07e7481c19c","max_fee_per_gas":null,"revert_reason":null,"confirmation_duration":[],"transaction_burnt_fee":null,"type":0,"token_transfers_overflow":null,"confirmations":0,"position":null,"max_priority_fee_per_gas":null,"transaction_tag":null,"created_contract":null,"value":"8700000000000000","from":{"ens_domain_name":null,"hash":"0xE709717A5F81a9C9F3d1a7Eb32d725d5709C49f6","implementations":[],"is_contract":false,"is_scam":false,"is_verified":false,"metadata":null,"name":null,"private_tags":[],"proxy_type":null,"public_tags":[],"reputation":"ok","watchlist_names":[]},"gas_used":null,"status":null,"to":{"ens_domain_name":null,"hash":"0x7a250d5630B4cF539739dF2C5dAcb4c659F2488D","implementations":[],"is_contract":true,"is_scam":false,"is_verified":true,"metadata":{"tags":[{"meta":{"bgColor":"#FFFFFF","projectName":"Uniswap V2","tagUrl":"https://app.klerosscout.eth.limo/#/?registry=Single_Tags&itemdetails=0x21dee62fd8759eac196977676d698320331baf2d86a275f6fd61b587d90cafc8@0x66260c69d03837016d88c9877e61e08ef74c59f2","textColor":"#FF007A","tooltipDescription":"Up-to-date Uniswap V2 Router contract.","tooltipUrl":"https://app.uniswap.org/#/swap","verifiedDomains":["app.thorswap.finance","app.uniswap.org"]},"name":"Uniswap V3: Universal Router","ordinal":10,"slug":"uniswap-v3-universal-router","tagType":"name"},{"meta":{},"name":"DEX","ordinal":0,"slug":"dex","tagType":"generic"},{"meta":{"appID":"uniswap","bgColor":"#FF007A","tagIcon":"https://blockscout-content.s3.amazonaws.com/uniswap.png","tagUrl":"https://uniswap.org/?utm_source=Blockscout","textColor":"#FFFFFF","tooltipDescription":"Trade crypto and NFTs safely on the top DeFi platform. Swapping made simple. Buy and sell crypto on Ethereum, Base, Arbitrum, Polygon, and more.","tooltipTitle":"Uniswap","tooltipUrl":"https://uniswap.org/?utm_source=Blockscout"},"name":"Uniswap V2","ordinal":0,"slug":"uniswap-v2","tagType":"protocol"}]},"name":"UniswapV2Router02","private_tags":[],"proxy_type":null,"public_tags":[],"reputation":"ok","watchlist_names":[]},"authorization_list":[],"method":"swapExactETHForTokens","fee":{"type":"maximum","value":"1786696000000"},"actions":[],"gas_limit":"223337","gas_price":"8000000","decoded_input":{"method_call":"swapExactETHForTokens(uint256 amountOutMin, address[] path, address to, uint256 deadline)","method_id":"7ff36ab5","parameters":[{"name":"amountOutMin","type":"uint256","value":"10747356541096317808403469"},{"name":"path","type":"address[]","value":["0xC02aaA39b223FE8D0A0e5C4F27eAD9083C756Cc2","0x6B175474E89094C44Da98b954EedeAC495271d0F","0x95aD61b0a150d79219dCF64E1E6Cc01f0B64C4cE"]},{"name":"to","type":"address","value":"0xE709717A5F81a9C9F3d1a7Eb32d725d5709C49f6"},{"name":"deadline","type":"uint256","value":"1619820560"}]},"token_transfers":null,"base_fee_per_gas":null,"timestamp":null,"nonce":0,"historic_exchange_rate":null,"transaction_types":["coin_transfer","contract_call"],"exchange_rate":"3891.99","block_number":null,"has_error_in_internal_transactions":null},{"priority_fee":null,"raw_input":"0xfb3bdb41000000000000000000000000000000000000000000000000000000174876e800000000000000000000000000000000000000000000000000000000000000008000000000000000000000000053bba3b85c1b0517bf3b45fa8ebf82c10674ee3a00000000000000000000000000000000000000000000000000000000609a52900000000000000000000000000000000000000000000000000000000000000002000000000000000000000000c02aaa39b223fe8d0a0e5c4f27ead9083c756cc2000000000000000000000000389999216860ab8e0175387a0c90e5c52522c945","is_pending_update":null,"result":"pending","hash":"0x168cf04248c81cb78847832d4bf554ae636b45e313308db1ecab07d70fd89036","max_fee_per_gas":null,"revert_reason":null,"confirmation_duration":[],"transaction_burnt_fee":null,"type":0,"token_transfers_overflow":null,"confirmations":0,"position":null,"max_priority_fee_per_gas":null,"transaction_tag":null,"created_contract":null,"value":"240973394","from":{"ens_domain_name":null,"hash":"0x53bbA3B85c1B0517Bf3b45Fa8eBF82c10674EE3a","implementations":[],"is_contract":false,"is_scam":false,"is_verified":false,"metadata":null,"name":null,"private_tags":[],"proxy_type":null,"public_tags":[],"reputation":"ok","watchlist_names":[]},"gas_used":null,"status":null,"to":{"ens_domain_name":null,"hash":"0x7a250d5630B4cF539739dF2C5dAcb4c659F2488D","implementations":[],"is_contract":true,"is_scam":false,"is_verified":true,"metadata":{"tags":[{"meta":{"bgColor":"#FFFFFF","projectName":"Uniswap V2","tagUrl":"https://app.klerosscout.eth.limo/#/?registry=Single_Tags&itemdetails=0x21dee62fd8759eac196977676d698320331baf2d86a275f6fd61b587d90cafc8@0x66260c69d03837016d88c9877e61e08ef74c59f2","textColor":"#FF007A","tooltipDescription":"Up-to-date Uniswap V2 Router contract.","tooltipUrl":"https://app.uniswap.org/#/swap","verifiedDomains":["app.thorswap.finance","app.uniswap.org"]},"name":"Uniswap V3: Universal Router","ordinal":10,"slug":"uniswap-v3-universal-router","tagType":"name"},{"meta":{},"name":"DEX","ordinal":0,"slug":"dex","tagType":"generic"},{"meta":{"appID":"uniswap","bgColor":"#FF007A","tagIcon":"https://blockscout-content.s3.amazonaws.com/uniswap.png","tagUrl":"https://uniswap.org/?utm_source=Blockscout","textColor":"#FFFFFF","tooltipDescription":"Trade crypto and NFTs safely on the top DeFi platform. Swapping made simple. Buy and sell crypto on Ethereum, Base, Arbitrum, Polygon, and more.","tooltipTitle":"Uniswap","tooltipUrl":"https://uniswap.org/?utm_source=Blockscout"},"name":"Uniswap V2","ordinal":0,"slug":"uniswap-v2","tagType":"protocol"}]},"name":"UniswapV2Router02","private_tags":[],"proxy_type":null,"public_tags":[],"reputation":"ok","watchlist_names":[]},"authorization_list":[],"method":"swapETHForExactTokens","fee":{"type":"maximum","value":"20120400000"},"actions":[],"gas_limit":"201204","gas_price":"100000","decoded_input":{"method_call":"swapETHForExactTokens(uint256 amountOut, address[] path, address to, uint256 deadline)","method_id":"fb3bdb41","parameters":[{"name":"amountOut","type":"uint256","value":"100000000000"},{"name":"path","type":"address[]","value":["0xC02aaA39b223FE8D0A0e5C4F27eAD9083C756Cc2","0x389999216860AB8E0175387A0c90E5c52522C945"]},{"name":"to","type":"address","value":"0x53bbA3B85c1B0517Bf3b45Fa8eBF82c10674EE3a"},{"name":"deadline","type":"uint256","value":"1620726416"}]},"token_transfers":null,"base_fee_per_gas":null,"timestamp":null,"nonce":4,"historic_exchange_rate":null,"transaction_types":["coin_transfer","contract_call"],"exchange_rate":"3891.99","block_number":null,"has_error_in_internal_transactions":null},{"priority_fee":null,"raw_input":"0x7ff36ab5000000000000000000000000000000000000000000004a1d89bb94865ec000000000000000000000000000000000000000000000000000000000000000000080000000000000000000000000feb2527a8833bcd2c40d8989d4a3900e7b0d836e00000000000000000000000000000000000000000000000000000a1b01d4b1c70000000000000000000000000000000000000000000000000000000000000002000000000000000000000000c02aaa39b223fe8d0a0e5c4f27ead9083c756cc20000000000000000000000005f474906637bdcda05f29c74653f6962bb0f8eda","is_pending_update":null,"result":"pending","hash":"0x8848b9baa6e1cbbd283261d497d249e73e8c3cc1fa8fc4ba60a1f15a6e67e111","max_fee_per_gas":null,"revert_reason":null,"confirmation_duration":[],"transaction_burnt_fee":null,"type":0,"token_transfers_overflow":null,"confirmations":0,"position":null,"max_priority_fee_per_gas":null,"transaction_tag":null,"created_contract":null,"value":"10000000000000","from":{"ens_domain_name":null,"hash":"0xfEb2527a8833Bcd2C40D8989D4A3900e7b0d836E","implementations":[],"is_contract":false,"is_scam":false,"is_verified":false,"metadata":null,"name":null,"private_tags":[],"proxy_type":null,"public_tags":[],"reputation":"ok","watchlist_names":[]},"gas_used":null,"status":null,"to":{"ens_domain_name":null,"hash":"0x7a250d5630B4cF539739dF2C5dAcb4c659F2488D","implementations":[],"is_contract":true,"is_scam":false,"is_verified":true,"metadata":{"tags":[{"meta":{"bgColor":"#FFFFFF","projectName":"Uniswap V2","tagUrl":"https://app.klerosscout.eth.limo/#/?registry=Single_Tags&itemdetails=0x21dee62fd8759eac196977676d698320331baf2d86a275f6fd61b587d90cafc8@0x66260c69d03837016d88c9877e61e08ef74c59f2","textColor":"#FF007A","tooltipDescription":"Up-to-date Uniswap V2 Router contract.","tooltipUrl":"https://app.uniswap.org/#/swap","verifiedDomains":["app.thorswap.finance","app.uniswap.org"]},"name":"Uniswap V3: Universal Router","ordinal":10,"slug":"uniswap-v3-universal-router","tagType":"name"},{"meta":{},"name":"DEX","ordinal":0,"slug":"dex","tagType":"generic"},{"meta":{"appID":"uniswap","bgColor":"#FF007A","tagIcon":"https://blockscout-content.s3.amazonaws.com/uniswap.png","tagUrl":"https://uniswap.org/?utm_source=Blockscout","textColor":"#FFFFFF","tooltipDescription":"Trade crypto and NFTs safely on the top DeFi platform. Swapping made simple. Buy and sell crypto on Ethereum, Base, Arbitrum, Polygon, and more.","tooltipTitle":"Uniswap","tooltipUrl":"https://uniswap.org/?utm_source=Blockscout"},"name":"Uniswap V2","ordinal":0,"slug":"uniswap-v2","tagType":"protocol"}]},"name":"UniswapV2Router02","private_tags":[],"proxy_type":null,"public_tags":[],"reputation":"ok","watchlist_names":[]},"authorization_list":[],"method":"swapExactETHForTokens","fee":{"type":"maximum","value":"14000000"},"actions":[],"gas_limit":"350000","gas_price":"40","decoded_input":{"method_call":"swapExactETHForTokens(uint256 amountOutMin, address[] path, address to, uint256 deadline)","method_id":"7ff36ab5","parameters":[{"name":"amountOutMin","type":"uint256","value":"350000000000000000000000"},{"name":"path","type":"address[]","value":["0xC02aaA39b223FE8D0A0e5C4F27eAD9083C756Cc2","0x5F474906637bdCDA05f29C74653F6962bb0f8eDa"]},{"name":"to","type":"address","value":"0xfEb2527a8833Bcd2C40D8989D4A3900e7b0d836E"},{"name":"deadline","type":"uint256","value":"11111111111111"}]},"token_transfers":null,"base_fee_per_gas":null,"timestamp":null,"nonce":112,"historic_exchange_rate":null,"transaction_types":["coin_transfer","contract_call"],"exchange_rate":"3891.99","block_number":null,"has_error_in_internal_transactions":null},{"priority_fee":null,"raw_input":"0xe8e33700000000000000000000000000add186e12707d4190129e7f53fe16c60a18c0b7a0000000000000000000000007b79995e5f793a07bc00c21412e50ecae098e7f900000000000000000000000000000000000000000000003635c9adc5dea00000000000000000000000000000000000000000000000000000016345785d8a000000000000000000000000000000000000000000000000000000000000000000000000000000000000000000000000000000000000000000000000000000000000000000000000000000000000aa2a2c03a4673fb8616ce8d720e07400b7c44e620000000000000000000000000000000000000000000000000000000001406f40","is_pending_update":null,"result":"pending","hash":"0x241650e0758676d83fcccfef60f8b789c1dbdbafc91fa27de6d8bfd26cbe19ac","max_fee_per_gas":"1000000","revert_reason":null,"confirmation_duration":[],"transaction_burnt_fee":null,"type":2,"token_transfers_overflow":null,"confirmations":0,"position":null,"max_priority_fee_per_gas":"1000000","transaction_tag":null,"created_contract":null,"value":"0","from":{"ens_domain_name":null,"hash":"0xAa2a2c03A4673fB8616Ce8d720E07400b7C44E62","implementations":[],"is_contract":false,"is_scam":false,"is_verified":false,"metadata":null,"name":null,"private_tags":[],"proxy_type":null,"public_tags":[],"reputation":"ok","watchlist_names":[]},"gas_used":null,"status":null,"to":{"ens_domain_name":null,"hash":"0x7a250d5630B4cF539739dF2C5dAcb4c659F2488D","implementations":[],"is_contract":true,"is_scam":false,"is_verified":true,"metadata":{"tags":[{"meta":{"bgColor":"#FFFFFF","projectName":"Uniswap V2","tagUrl":"https://app.klerosscout.eth.limo/#/?registry=Single_Tags&itemdetails=0x21dee62fd8759eac196977676d698320331baf2d86a275f6fd61b587d90cafc8@0x66260c69d03837016d88c9877e61e08ef74c59f2","textColor":"#FF007A","tooltipDescription":"Up-to-date Uniswap V2 Router contract.","tooltipUrl":"https://app.uniswap.org/#/swap","verifiedDomains":["app.thorswap.finance","app.uniswap.org"]},"name":"Uniswap V3: Universal Router","ordinal":10,"slug":"uniswap-v3-universal-router","tagType":"name"},{"meta":{},"name":"DEX","ordinal":0,"slug":"dex","tagType":"generic"},{"meta":{"appID":"uniswap","bgColor":"#FF007A","tagIcon":"https://blockscout-content.s3.amazonaws.com/uniswap.png","tagUrl":"https://uniswap.org/?utm_source=Blockscout","textColor":"#FFFFFF","tooltipDescription":"Trade crypto and NFTs safely on the top DeFi platform. Swapping made simple. Buy and sell crypto on Ethereum, Base, Arbitrum, Polygon, and more.","tooltipTitle":"Uniswap","tooltipUrl":"https://uniswap.org/?utm_source=Blockscout"},"name":"Uniswap V2","ordinal":0,"slug":"uniswap-v2","tagType":"protocol"}]},"name":"UniswapV2Router02","private_tags":[],"proxy_type":null,"public_tags":[],"reputation":"ok","watchlist_names":[]},"authorization_list":[],"method":"addLiquidity","fee":{"type":"maximum","value":"15703829000000"},"actions":[],"gas_limit":"15703829","gas_price":"1000000","decoded_input":{"method_call":"addLiquidity(address tokenA, address tokenB, uint256 amountADesired, uint256 amountBDesired, uint256 amountAMin, uint256 amountBMin, address to, uint256 deadline)","method_id":"e8e33700","parameters":[{"name":"tokenA","type":"address","value":"0xAdD186E12707d4190129E7F53fE16C60a18C0b7A"},{"name":"tokenB","type":"address","value":"0x7b79995e5f793A07Bc00c21412e50Ecae098E7f9"},{"name":"amountADesired","type":"uint256","value":"1000000000000000000000"},{"name":"amountBDesired","type":"uint256","value":"100000000000000000"},{"name":"amountAMin","type":"uint256","value":"0"},{"name":"amountBMin","type":"uint256","value":"0"},{"name":"to","type":"address","value":"0xAa2a2c03A4673fB8616Ce8d720E07400b7C44E62"},{"name":"deadline","type":"uint256","value":"21000000"}]},"token_transfers":null,"base_fee_per_gas":null,"timestamp":null,"nonce":0,"historic_exchange_rate":null,"transaction_types":["contract_call"],"exchange_rate":"3891.99","block_number":null,"has_error_in_internal_transactions":null},{"priority_fee":null,"raw_input":"0xfb3bdb410000000000000000000000000000000000000000000000000c7d713b49da000000000000000000000000000000000000000000000000000000000000000000800000000000000000000000008a0fd6afac8abbcf18aeafa692904d2b17397b740000000000000000000000000000000000000000000000000000000061898ad60000000000000000000000000000000000000000000000000000000000000003000000000000000000000000c02aaa39b223fe8d0a0e5c4f27ead9083c756cc2000000000000000000000000a0b86991c6218b36c1d19d4a2e9eb0ce3606eb480000000000000000000000009fa69536d1cda4a04cfb50688294de75b505a9ae","is_pending_update":null,"result":"pending","hash":"0x5d15b28972990d199eaeba263136416f73365b1c1e05afbf148b813bd48ef014","max_fee_per_gas":"20000000","revert_reason":null,"confirmation_duration":[],"transaction_burnt_fee":null,"type":2,"token_transfers_overflow":null,"confirmations":0,"position":null,"max_priority_fee_per_gas":"10000000","transaction_tag":null,"created_contract":null,"value":"845253506902285","from":{"ens_domain_name":null,"hash":"0x8A0FD6afAC8ABBcf18aEafA692904d2B17397b74","implementations":[],"is_contract":false,"is_scam":false,"is_verified":false,"metadata":null,"name":null,"private_tags":[],"proxy_type":null,"public_tags":[],"reputation":"ok","watchlist_names":[]},"gas_used":null,"status":null,"to":{"ens_domain_name":null,"hash":"0x7a250d5630B4cF539739dF2C5dAcb4c659F2488D","implementations":[],"is_contract":true,"is_scam":false,"is_verified":true,"metadata":{"tags":[{"meta":{"bgColor":"#FFFFFF","projectName":"Uniswap V2","tagUrl":"https://app.klerosscout.eth.limo/#/?registry=Single_Tags&itemdetails=0x21dee62fd8759eac196977676d698320331baf2d86a275f6fd61b587d90cafc8@0x66260c69d03837016d88c9877e61e08ef74c59f2","textColor":"#FF007A","tooltipDescription":"Up-to-date Uniswap V2 Router contract.","tooltipUrl":"https://app.uniswap.org/#/swap","verifiedDomains":["app.thorswap.finance","app.uniswap.org"]},"name":"Uniswap V3: Universal Router","ordinal":10,"slug":"uniswap-v3-universal-router","tagType":"name"},{"meta":{},"name":"DEX","ordinal":0,"slug":"dex","tagType":"generic"},{"meta":{"appID":"uniswap","bgColor":"#FF007A","tagIcon":"https://blockscout-content.s3.amazonaws.com/uniswap.png","tagUrl":"https://uniswap.org/?utm_source=Blockscout","textColor":"#FFFFFF","tooltipDescription":"Trade crypto and NFTs safely on the top DeFi platform. Swapping made simple. Buy and sell crypto on Ethereum, Base, Arbitrum, Polygon, and more.","tooltipTitle":"Uniswap","tooltipUrl":"https://uniswap.org/?utm_source=Blockscout"},"name":"Uniswap V2","ordinal":0,"slug":"uniswap-v2","tagType":"protocol"}]},"name":"UniswapV2Router02","private_tags":[],"proxy_type":null,"public_tags":[],"reputation":"ok","watchlist_names":[]},"authorization_list":[],"method":"swapETHForExactTokens","fee":{"type":"maximum","value":"5439160000000"},"actions":[],"gas_limit":"271958","gas_price":"20000000","decoded_input":{"method_call":"swapETHForExactTokens(uint256 amountOut, address[] path, address to, uint256 deadline)","method_id":"fb3bdb41","parameters":[{"name":"amountOut","type":"uint256","value":"900000000000000000"},{"name":"path","type":"address[]","value":["0xC02aaA39b223FE8D0A0e5C4F27eAD9083C756Cc2","0xA0b86991c6218b36c1d19D4a2e9Eb0cE3606eB48","0x9fa69536d1cda4A04cFB50688294de75B505a9aE"]},{"name":"to","type":"address","value":"0x8A0FD6afAC8ABBcf18aEafA692904d2B17397b74"},{"name":"deadline","type":"uint256","value":"1636403926"}]},"token_transfers":null,"base_fee_per_gas":null,"timestamp":null,"nonce":1,"historic_exchange_rate":null,"transaction_types":["coin_transfer","contract_call"],"exchange_rate":"3891.99","block_number":null,"has_error_in_internal_transactions":null},{"priority_fee":null,"raw_input":"0x38ed1739000000000000000000000000000000000000000000000032841b15937551841c000000000000000000000000000000000000000000000000000000015a051e8d00000000000000000000000000000000000000000000000000000000000000a0000000000000000000000000fd3579453b72ca7d781f11b99ff7f929cef83d300000000000000000000000000000000000000000000000000000000061018d6a0000000000000000000000000000000000000000000000000000000000000003000000000000000000000000b4d930279552397bba2ee473229f89ec245bc365000000000000000000000000c02aaa39b223fe8d0a0e5c4f27ead9083c756cc2000000000000000000000000a0b86991c6218b36c1d19d4a2e9eb0ce3606eb48","is_pending_update":null,"result":"pending","hash":"0xd08fd97c3b4915441d7ef375005f45bfc6802cf9bc8f13dc1e1cd20d1fb91dba","max_fee_per_gas":null,"revert_reason":null,"confirmation_duration":[],"transaction_burnt_fee":null,"type":0,"token_transfers_overflow":null,"confirmations":0,"position":null,"max_priority_fee_per_gas":null,"transaction_tag":null,"created_contract":null,"value":"0","from":{"ens_domain_name":null,"hash":"0xFd3579453B72cA7d781F11b99FF7F929cEf83d30","implementations":[],"is_contract":false,"is_scam":false,"is_verified":false,"metadata":null,"name":null,"private_tags":[],"proxy_type":null,"public_tags":[],"reputation":"ok","watchlist_names":[]},"gas_used":null,"status":null,"to":{"ens_domain_name":null,"hash":"0x7a250d5630B4cF539739dF2C5dAcb4c659F2488D","implementations":[],"is_contract":true,"is_scam":false,"is_verified":true,"metadata":{"tags":[{"meta":{"bgColor":"#FFFFFF","projectName":"Uniswap V2","tagUrl":"https://app.klerosscout.eth.limo/#/?registry=Single_Tags&itemdetails=0x21dee62fd8759eac196977676d698320331baf2d86a275f6fd61b587d90cafc8@0x66260c69d03837016d88c9877e61e08ef74c59f2","textColor":"#FF007A","tooltipDescription":"Up-to-date Uniswap V2 Router contract.","tooltipUrl":"https://app.uniswap.org/#/swap","verifiedDomains":["app.thorswap.finance","app.uniswap.org"]},"name":"Uniswap V3: Universal Router","ordinal":10,"slug":"uniswap-v3-universal-router","tagType":"name"},{"meta":{},"name":"DEX","ordinal":0,"slug":"dex","tagType":"generic"},{"meta":{"appID":"uniswap","bgColor":"#FF007A","tagIcon":"https://blockscout-content.s3.amazonaws.com/uniswap.png","tagUrl":"https://uniswap.org/?utm_source=Blockscout","textColor":"#FFFFFF","tooltipDescription":"Trade crypto and NFTs safely on the top DeFi platform. Swapping made simple. Buy and sell crypto on Ethereum, Base, Arbitrum, Polygon, and more.","tooltipTitle":"Uniswap","tooltipUrl":"https://uniswap.org/?utm_source=Blockscout"},"name":"Uniswap V2","ordinal":0,"slug":"uniswap-v2","tagType":"protocol"}]},"name":"UniswapV2Router02","private_tags":[],"proxy_type":null,"public_tags":[],"reputation":"ok","watchlist_names":[]},"authorization_list":[],"method":"swapExactTokensForTokens","fee":{"type":"maximum","value":"7568814000000"},"actions":[],"gas_limit":"229358","gas_price":"33000000","decoded_input":{"method_call":"swapExactTokensForTokens(uint256 amountIn, uint256 amountOutMin, address[] path, address to, uint256 deadline)","method_id":"38ed1739","parameters":[{"name":"amountIn","type":"uint256","value":"931856429645927908380"},{"name":"amountOutMin","type":"uint256","value":"5805252237"},{"name":"path","type":"address[]","value":["0xB4d930279552397bbA2ee473229f89Ec245bc365","0xC02aaA39b223FE8D0A0e5C4F27eAD9083C756Cc2","0xA0b86991c6218b36c1d19D4a2e9Eb0cE3606eB48"]},{"name":"to","type":"address","value":"0xFd3579453B72cA7d781F11b99FF7F929cEf83d30"},{"name":"deadline","type":"uint256","value":"1627491690"}]},"token_transfers":null,"base_fee_per_gas":null,"timestamp":null,"nonce":87,"historic_exchange_rate":null,"transaction_types":["contract_call"],"exchange_rate":"3891.99","block_number":null,"has_error_in_internal_transactions":null},{"priority_fee":null,"raw_input":"0x7ff36ab500000000000000000000000000000000000000000012d1cf1e4df202f85767f500000000000000000000000000000000000000000000000000000000000000800000000000000000000000003b2adae173651007831910d17d19da2ad7413b8a0000000000000000000000000000000000000000000000000000000060b51c240000000000000000000000000000000000000000000000000000000000000002000000000000000000000000c02aaa39b223fe8d0a0e5c4f27ead9083c756cc200000000000000000000000015874d65e649880c2614e7a480cb7c9a55787ff6","is_pending_update":null,"result":"pending","hash":"0x4698ee63db9cf525af8c7e2a6ae9716f78955847039f4d977d646ab7302aa2ed","max_fee_per_gas":null,"revert_reason":null,"confirmation_duration":[],"transaction_burnt_fee":null,"type":0,"token_transfers_overflow":null,"confirmations":0,"position":null,"max_priority_fee_per_gas":null,"transaction_tag":null,"created_contract":null,"value":"5000000000000000","from":{"ens_domain_name":null,"hash":"0x3b2ADAE173651007831910d17d19DA2aD7413b8a","implementations":[],"is_contract":false,"is_scam":false,"is_verified":false,"metadata":null,"name":null,"private_tags":[],"proxy_type":null,"public_tags":[],"reputation":"ok","watchlist_names":[]},"gas_used":null,"status":null,"to":{"ens_domain_name":null,"hash":"0x7a250d5630B4cF539739dF2C5dAcb4c659F2488D","implementations":[],"is_contract":true,"is_scam":false,"is_verified":true,"metadata":{"tags":[{"meta":{"bgColor":"#FFFFFF","projectName":"Uniswap V2","tagUrl":"https://app.klerosscout.eth.limo/#/?registry=Single_Tags&itemdetails=0x21dee62fd8759eac196977676d698320331baf2d86a275f6fd61b587d90cafc8@0x66260c69d03837016d88c9877e61e08ef74c59f2","textColor":"#FF007A","tooltipDescription":"Up-to-date Uniswap V2 Router contract.","tooltipUrl":"https://app.uniswap.org/#/swap","verifiedDomains":["app.thorswap.finance","app.uniswap.org"]},"name":"Uniswap V3: Universal Router","ordinal":10,"slug":"uniswap-v3-universal-router","tagType":"name"},{"meta":{},"name":"DEX","ordinal":0,"slug":"dex","tagType":"generic"},{"meta":{"appID":"uniswap","bgColor":"#FF007A","tagIcon":"https://blockscout-content.s3.amazonaws.com/uniswap.png","tagUrl":"https://uniswap.org/?utm_source=Blockscout","textColor":"#FFFFFF","tooltipDescription":"Trade crypto and NFTs safely on the top DeFi platform. Swapping made simple. Buy and sell crypto on Ethereum, Base, Arbitrum, Polygon, and more.","tooltipTitle":"Uniswap","tooltipUrl":"https://uniswap.org/?utm_source=Blockscout"},"name":"Uniswap V2","ordinal":0,"slug":"uniswap-v2","tagType":"protocol"}]},"name":"UniswapV2Router02","private_tags":[],"proxy_type":null,"public_tags":[],"reputation":"ok","watchlist_names":[]},"authorization_list":[],"method":"swapExactETHForTokens","fee":{"type":"maximum","value":"199534"},"actions":[],"gas_limit":"199534","gas_price":"1","decoded_input":{"method_call":"swapExactETHForTokens(uint256 amountOutMin, address[] path, address to, uint256 deadline)","method_id":"7ff36ab5","parameters":[{"name":"amountOutMin","type":"uint256","value":"22751460007673827786450933"},{"name":"path","type":"address[]","value":["0xC02aaA39b223FE8D0A0e5C4F27eAD9083C756Cc2","0x15874d65e649880c2614e7a480cb7c9A55787FF6"]},{"name":"to","type":"address","value":"0x3b2ADAE173651007831910d17d19DA2aD7413b8a"},{"name":"deadline","type":"uint256","value":"1622481956"}]},"token_transfers":null,"base_fee_per_gas":null,"timestamp":null,"nonce":0,"historic_exchange_rate":null,"transaction_types":["coin_transfer","contract_call"],"exchange_rate":"3891.99","block_number":null,"has_error_in_internal_transactions":null},{"priority_fee":null,"raw_input":"0x7ff36ab5000000000000000000000000000000000000000000000000002a07dcf00d3a650000000000000000000000000000000000000000000000000000000000000080000000000000000000000000f3b43760a7e59b97177b2edf7f36c35dace2eacf00000000000000000000000000000000000000000000000000000000609f5fc00000000000000000000000000000000000000000000000000000000000000002000000000000000000000000c02aaa39b223fe8d0a0e5c4f27ead9083c756cc2000000000000000000000000a2b4c0af19cc16a6cfacce81f192b024d625817d","is_pending_update":null,"result":"pending","hash":"0x26d45b08c2e89986342e27381e9f1d74dd7ad6a33c38f37cfca742a7f089f1c2","max_fee_per_gas":null,"revert_reason":null,"confirmation_duration":[],"transaction_burnt_fee":null,"type":0,"token_transfers_overflow":null,"confirmations":0,"position":null,"max_priority_fee_per_gas":null,"transaction_tag":null,"created_contract":null,"value":"50000000000000","from":{"ens_domain_name":null,"hash":"0xF3b43760a7e59b97177b2edF7f36c35DAcE2eACf","implementations":[],"is_contract":false,"is_scam":false,"is_verified":false,"metadata":null,"name":null,"private_tags":[],"proxy_type":null,"public_tags":[],"reputation":"ok","watchlist_names":[]},"gas_used":null,"status":null,"to":{"ens_domain_name":null,"hash":"0x7a250d5630B4cF539739dF2C5dAcb4c659F2488D","implementations":[],"is_contract":true,"is_scam":false,"is_verified":true,"metadata":{"tags":[{"meta":{"bgColor":"#FFFFFF","projectName":"Uniswap V2","tagUrl":"https://app.klerosscout.eth.limo/#/?registry=Single_Tags&itemdetails=0x21dee62fd8759eac196977676d698320331baf2d86a275f6fd61b587d90cafc8@0x66260c69d03837016d88c9877e61e08ef74c59f2","textColor":"#FF007A","tooltipDescription":"Up-to-date Uniswap V2 Router contract.","tooltipUrl":"https://app.uniswap.org/#/swap","verifiedDomains":["app.thorswap.finance","app.uniswap.org"]},"name":"Uniswap V3: Universal Router","ordinal":10,"slug":"uniswap-v3-universal-router","tagType":"name"},{"meta":{},"name":"DEX","ordinal":0,"slug":"dex","tagType":"generic"},{"meta":{"appID":"uniswap","bgColor":"#FF007A","tagIcon":"https://blockscout-content.s3.amazonaws.com/uniswap.png","tagUrl":"https://uniswap.org/?utm_source=Blockscout","textColor":"#FFFFFF","tooltipDescription":"Trade crypto and NFTs safely on the top DeFi platform. Swapping made simple. Buy and sell crypto on Ethereum, Base, Arbitrum, Polygon, and more.","tooltipTitle":"Uniswap","tooltipUrl":"https://uniswap.org/?utm_source=Blockscout"},"name":"Uniswap V2","ordinal":0,"slug":"uniswap-v2","tagType":"protocol"}]},"name":"UniswapV2Router02","private_tags":[],"proxy_type":null,"public_tags":[],"reputation":"ok","watchlist_names":[]},"authorization_list":[],"method":"swapExactETHForTokens","fee":{"type":"maximum","value":"15214680000000"},"actions":[],"gas_limit":"253578","gas_price":"60000000","decoded_input":{"method_call":"swapExactETHForTokens(uint256 amountOutMin, address[] path, address to, uint256 deadline)","method_id":"7ff36ab5","parameters":[{"name":"amountOutMin","type":"uint256","value":"11830594523445861"},{"name":"path","type":"address[]","value":["0xC02aaA39b223FE8D0A0e5C4F27eAD9083C756Cc2","0xA2b4C0Af19cC16a6CfAcCe81F192B024d625817D"]},{"name":"to","type":"address","value":"0xF3b43760a7e59b97177b2edF7f36c35DAcE2eACf"},{"name":"deadline","type":"uint256","value":"1621057472"}]},"token_transfers":null,"base_fee_per_gas":null,"timestamp":null,"nonce":2,"historic_exchange_rate":null,"transaction_types":["coin_transfer","contract_call"],"exchange_rate":"3891.99","block_number":null,"has_error_in_internal_transactions":null},{"priority_fee":null,"raw_input":"0x7ff36ab5000000000000000000000000000000000000000000000007aa6b13190146d0690000000000000000000000000000000000000000000000000000000000000080000000000000000000000000f863dda9076d15d40daee1de14368672ea4b7f160000000000000000000000000000000000000000000000000000000060a75c090000000000000000000000000000000000000000000000000000000000000002000000000000000000000000c02aaa39b223fe8d0a0e5c4f27ead9083c756cc2000000000000000000000000b893a8049f250b57efa8c62d51527a22404d7c9a","is_pending_update":null,"result":"pending","hash":"0x65a98ff37c1d475c1458d72062c08df9b96af8a474542552287a0059ac3824ac","max_fee_per_gas":null,"revert_reason":null,"confirmation_duration":[],"transaction_burnt_fee":null,"type":0,"token_transfers_overflow":null,"confirmations":0,"position":null,"max_priority_fee_per_gas":null,"transaction_tag":null,"created_contract":null,"value":"11103870000000000","from":{"ens_domain_name":null,"hash":"0xf863dDa9076d15d40Daee1dE14368672eA4B7F16","implementations":[],"is_contract":false,"is_scam":false,"is_verified":false,"metadata":null,"name":null,"private_tags":[],"proxy_type":null,"public_tags":[],"reputation":"ok","watchlist_names":[]},"gas_used":null,"status":null,"to":{"ens_domain_name":null,"hash":"0x7a250d5630B4cF539739dF2C5dAcb4c659F2488D","implementations":[],"is_contract":true,"is_scam":false,"is_verified":true,"metadata":{"tags":[{"meta":{"bgColor":"#FFFFFF","projectName":"Uniswap V2","tagUrl":"https://app.klerosscout.eth.limo/#/?registry=Single_Tags&itemdetails=0x21dee62fd8759eac196977676d698320331baf2d86a275f6fd61b587d90cafc8@0x66260c69d03837016d88c9877e61e08ef74c59f2","textColor":"#FF007A","tooltipDescription":"Up-to-date Uniswap V2 Router contract.","tooltipUrl":"https://app.uniswap.org/#/swap","verifiedDomains":["app.thorswap.finance","app.uniswap.org"]},"name":"Uniswap V3: Universal Router","ordinal":10,"slug":"uniswap-v3-universal-router","tagType":"name"},{"meta":{},"name":"DEX","ordinal":0,"slug":"dex","tagType":"generic"},{"meta":{"appID":"uniswap","bgColor":"#FF007A","tagIcon":"https://blockscout-content.s3.amazonaws.com/uniswap.png","tagUrl":"https://uniswap.org/?utm_source=Blockscout","textColor":"#FFFFFF","tooltipDescription":"Trade crypto and NFTs safely on the top DeFi platform. Swapping made simple. Buy and sell crypto on Ethereum, Base, Arbitrum, Polygon, and more.","tooltipTitle":"Uniswap","tooltipUrl":"https://uniswap.org/?utm_source=Blockscout"},"name":"Uniswap V2","ordinal":0,"slug":"uniswap-v2","tagType":"protocol"}]},"name":"UniswapV2Router02","private_tags":[],"proxy_type":null,"public_tags":[],"reputation":"ok","watchlist_names":[]},"authorization_list":[],"method":"swapExactETHForTokens","fee":{"type":"maximum","value":"9688194000000000"},"actions":[],"gas_limit":"358822","gas_price":"27000000000","decoded_input":{"method_call":"swapExactETHForTokens(uint256 amountOutMin, address[] path, address to, uint256 deadline)","method_id":"7ff36ab5","parameters":[{"name":"amountOutMin","type":"uint256","value":"141407138323039178857"},{"name":"path","type":"address[]","value":["0xC02aaA39b223FE8D0A0e5C4F27eAD9083C756Cc2","0xB893A8049f250b57eFA8C62D51527a22404D7c9A"]},{"name":"to","type":"address","value":"0xf863dDa9076d15d40Daee1dE14368672eA4B7F16"},{"name":"deadline","type":"uint256","value":"1621580809"}]},"token_transfers":null,"base_fee_per_gas":null,"timestamp":null,"nonce":4,"historic_exchange_rate":null,"transaction_types":["coin_transfer","contract_call"],"exchange_rate":"3891.99","block_number":null,"has_error_in_internal_transactions":null},{"priority_fee":null,"raw_input":"0x7ff36ab500000000000000000000000000000000000000000000000011112c35ea40694000000000000000000000000000000000000000000000000000000000000000800000000000000000000000002b00f5e5403dc9ba2cc23f85871859311d57f13300000000000000000000000000000000000000000000000000000000609a4c740000000000000000000000000000000000000000000000000000000000000002000000000000000000000000c02aaa39b223fe8d0a0e5c4f27ead9083c756cc2000000000000000000000000a2b4c0af19cc16a6cfacce81f192b024d625817d","is_pending_update":null,"result":"pending","hash":"0x57d8992c7a9137068180a57f3e199c809a9b9ea261bc4faf2bd681786c772359","max_fee_per_gas":null,"revert_reason":null,"confirmation_duration":[],"transaction_burnt_fee":null,"type":0,"token_transfers_overflow":null,"confirmations":0,"position":null,"max_priority_fee_per_gas":null,"transaction_tag":null,"created_contract":null,"value":"3000000000000000","from":{"ens_domain_name":null,"hash":"0x2b00F5E5403dC9bA2Cc23F85871859311D57F133","implementations":[],"is_contract":false,"is_scam":false,"is_verified":false,"metadata":null,"name":null,"private_tags":[],"proxy_type":null,"public_tags":[],"reputation":"ok","watchlist_names":[]},"gas_used":null,"status":null,"to":{"ens_domain_name":null,"hash":"0x7a250d5630B4cF539739dF2C5dAcb4c659F2488D","implementations":[],"is_contract":true,"is_scam":false,"is_verified":true,"metadata":{"tags":[{"meta":{"bgColor":"#FFFFFF","projectName":"Uniswap V2","tagUrl":"https://app.klerosscout.eth.limo/#/?registry=Single_Tags&itemdetails=0x21dee62fd8759eac196977676d698320331baf2d86a275f6fd61b587d90cafc8@0x66260c69d03837016d88c9877e61e08ef74c59f2","textColor":"#FF007A","tooltipDescription":"Up-to-date Uniswap V2 Router contract.","tooltipUrl":"https://app.uniswap.org/#/swap","verifiedDomains":["app.thorswap.finance","app.uniswap.org"]},"name":"Uniswap V3: Universal Router","ordinal":10,"slug":"uniswap-v3-universal-router","tagType":"name"},{"meta":{},"name":"DEX","ordinal":0,"slug":"dex","tagType":"generic"},{"meta":{"appID":"uniswap","bgColor":"#FF007A","tagIcon":"https://blockscout-content.s3.amazonaws.com/uniswap.png","tagUrl":"https://uniswap.org/?utm_source=Blockscout","textColor":"#FFFFFF","tooltipDescription":"Trade crypto and NFTs safely on the top DeFi platform. Swapping made simple. Buy and sell crypto on Ethereum, Base, Arbitrum, Polygon, and more.","tooltipTitle":"Uniswap","tooltipUrl":"https://uniswap.org/?utm_source=Blockscout"},"name":"Uniswap V2","ordinal":0,"slug":"uniswap-v2","tagType":"protocol"}]},"name":"UniswapV2Router02","private_tags":[],"proxy_type":null,"public_tags":[],"reputation":"ok","watchlist_names":[]},"authorization_list":[],"method":"swapExactETHForTokens","fee":{"type":"maximum","value":"79565100000"},"actions":[],"gas_limit":"265217","gas_price":"300000","decoded_input":{"method_call":"swapExactETHForTokens(uint256 amountOutMin, address[] path, address to, uint256 deadline)","method_id":"7ff36ab5","parameters":[{"name":"amountOutMin","type":"uint256","value":"1229812783323834688"},{"name":"path","type":"address[]","value":["0xC02aaA39b223FE8D0A0e5C4F27eAD9083C756Cc2","0xA2b4C0Af19cC16a6CfAcCe81F192B024d625817D"]},{"name":"to","type":"address","value":"0x2b00F5E5403dC9bA2Cc23F85871859311D57F133"},{"name":"deadline","type":"uint256","value":"1620724852"}]},"token_transfers":null,"base_fee_per_gas":null,"timestamp":null,"nonce":215,"historic_exchange_rate":null,"transaction_types":["coin_transfer","contract_call"],"exchange_rate":"3891.99","block_number":null,"has_error_in_internal_transactions":null},{"priority_fee":null,"raw_input":"0x7ff36ab50000000000000000000000000000000000000000000000000b2dd0341d5caee100000000000000000000000000000000000000000000000000000000000000800000000000000000000000008c0da894ffc1abd0a8c8c45f3c3e5471c9650e1b000000000000000000000000000000000000000000000000000000006088570c0000000000000000000000000000000000000000000000000000000000000002000000000000000000000000c02aaa39b223fe8d0a0e5c4f27ead9083c756cc20000000000000000000000006e36556b3ee5aa28def2a8ec3dae30ec2b208739","is_pending_update":null,"result":"pending","hash":"0xfb664ee8c02bf5ff92328497dc0cdb9e3a58ec2aa4a69519f4601c8cf76165bd","max_fee_per_gas":null,"revert_reason":null,"confirmation_duration":[],"transaction_burnt_fee":null,"type":0,"token_transfers_overflow":null,"confirmations":0,"position":null,"max_priority_fee_per_gas":null,"transaction_tag":null,"created_contract":null,"value":"13500000000000000","from":{"ens_domain_name":null,"hash":"0x8c0da894ffc1ABd0a8c8c45F3C3E5471c9650e1B","implementations":[],"is_contract":false,"is_scam":false,"is_verified":false,"metadata":null,"name":null,"private_tags":[],"proxy_type":null,"public_tags":[],"reputation":"ok","watchlist_names":[]},"gas_used":null,"status":null,"to":{"ens_domain_name":null,"hash":"0x7a250d5630B4cF539739dF2C5dAcb4c659F2488D","implementations":[],"is_contract":true,"is_scam":false,"is_verified":true,"metadata":{"tags":[{"meta":{"bgColor":"#FFFFFF","projectName":"Uniswap V2","tagUrl":"https://app.klerosscout.eth.limo/#/?registry=Single_Tags&itemdetails=0x21dee62fd8759eac196977676d698320331baf2d86a275f6fd61b587d90cafc8@0x66260c69d03837016d88c9877e61e08ef74c59f2","textColor":"#FF007A","tooltipDescription":"Up-to-date Uniswap V2 Router contract.","tooltipUrl":"https://app.uniswap.org/#/swap","verifiedDomains":["app.thorswap.finance","app.uniswap.org"]},"name":"Uniswap V3: Universal Router","ordinal":10,"slug":"uniswap-v3-universal-router","tagType":"name"},{"meta":{},"name":"DEX","ordinal":0,"slug":"dex","tagType":"generic"},{"meta":{"appID":"uniswap","bgColor":"#FF007A","tagIcon":"https://blockscout-content.s3.amazonaws.com/uniswap.png","tagUrl":"https://uniswap.org/?utm_source=Blockscout","textColor":"#FFFFFF","tooltipDescription":"Trade crypto and NFTs safely on the top DeFi platform. Swapping made simple. Buy and sell crypto on Ethereum, Base, Arbitrum, Polygon, and more.","tooltipTitle":"Uniswap","tooltipUrl":"https://uniswap.org/?utm_source=Blockscout"},"name":"Uniswap V2","ordinal":0,"slug":"uniswap-v2","tagType":"protocol"}]},"name":"UniswapV2Router02","private_tags":[],"proxy_type":null,"public_tags":[],"reputation":"ok","watchlist_names":[]},"authorization_list":[],"method":"swapExactETHForTokens","fee":{"type":"maximum","value":"953616000000"},"actions":[],"gas_limit":"158936","gas_price":"6000000","decoded_input":{"method_call":"swapExactETHForTokens(uint256 amountOutMin, address[] path, address to, uint256 deadline)","method_id":"7ff36ab5","parameters":[{"name":"amountOutMin","type":"uint256","value":"805528830618676961"},{"name":"path","type":"address[]","value":["0xC02aaA39b223FE8D0A0e5C4F27eAD9083C756Cc2","0x6e36556B3ee5Aa28Def2a8EC3DAe30eC2B208739"]},{"name":"to","type":"address","value":"0x8c0da894ffc1ABd0a8c8c45F3C3E5471c9650e1B"},{"name":"deadline","type":"uint256","value":"1619547916"}]},"token_transfers":null,"base_fee_per_gas":null,"timestamp":null,"nonce":1,"historic_exchange_rate":null,"transaction_types":["coin_transfer","contract_call"],"exchange_rate":"3891.99","block_number":null,"has_error_in_internal_transactions":null},{"priority_fee":null,"raw_input":"0x7ff36ab50000000000000000000000000000000000000000000000000160c4dd672b533300000000000000000000000000000000000000000000000000000000000000800000000000000000000000005400e3d574c9ae5be4f78f57f936ccb94f67e8c90000000000000000000000000000000000000000000000000000000060703e1d0000000000000000000000000000000000000000000000000000000000000002000000000000000000000000c02aaa39b223fe8d0a0e5c4f27ead9083c756cc20000000000000000000000005f98805a4e8be255a32880fdec7f6728c6568ba0","is_pending_update":null,"result":"pending","hash":"0x98ecb427d94127b1e6fb8dcd3420f98cce7f9e7f6cb2467b921dd48077e7094d","max_fee_per_gas":null,"revert_reason":null,"confirmation_duration":[],"transaction_burnt_fee":null,"type":0,"token_transfers_overflow":null,"confirmations":0,"position":null,"max_priority_fee_per_gas":null,"transaction_tag":null,"created_contract":null,"value":"50000000000000","from":{"ens_domain_name":null,"hash":"0x5400E3d574C9AE5be4F78F57f936ccb94F67e8C9","implementations":[],"is_contract":false,"is_scam":false,"is_verified":false,"metadata":null,"name":null,"private_tags":[],"proxy_type":null,"public_tags":[],"reputation":"ok","watchlist_names":[]},"gas_used":null,"status":null,"to":{"ens_domain_name":null,"hash":"0x7a250d5630B4cF539739dF2C5dAcb4c659F2488D","implementations":[],"is_contract":true,"is_scam":false,"is_verified":true,"metadata":{"tags":[{"meta":{"bgColor":"#FFFFFF","projectName":"Uniswap V2","tagUrl":"https://app.klerosscout.eth.limo/#/?registry=Single_Tags&itemdetails=0x21dee62fd8759eac196977676d698320331baf2d86a275f6fd61b587d90cafc8@0x66260c69d03837016d88c9877e61e08ef74c59f2","textColor":"#FF007A","tooltipDescription":"Up-to-date Uniswap V2 Router contract.","tooltipUrl":"https://app.uniswap.org/#/swap","verifiedDomains":["app.thorswap.finance","app.uniswap.org"]},"name":"Uniswap V3: Universal Router","ordinal":10,"slug":"uniswap-v3-universal-router","tagType":"name"},{"meta":{},"name":"DEX","ordinal":0,"slug":"dex","tagType":"generic"},{"meta":{"appID":"uniswap","bgColor":"#FF007A","tagIcon":"https://blockscout-content.s3.amazonaws.com/uniswap.png","tagUrl":"https://uniswap.org/?utm_source=Blockscout","textColor":"#FFFFFF","tooltipDescription":"Trade crypto and NFTs safely on the top DeFi platform. Swapping made simple. Buy and sell crypto on Ethereum, Base, Arbitrum, Polygon, and more.","tooltipTitle":"Uniswap","tooltipUrl":"https://uniswap.org/?utm_source=Blockscout"},"name":"Uniswap V2","ordinal":0,"slug":"uniswap-v2","tagType":"protocol"}]},"name":"UniswapV2Router02","private_tags":[],"proxy_type":null,"public_tags":[],"reputation":"ok","watchlist_names":[]},"authorization_list":[],"method":"swapExactETHForTokens","fee":{"type":"maximum","value":"1517450000"},"actions":[],"gas_limit":"151745","gas_price":"10000","decoded_input":{"method_call":"swapExactETHForTokens(uint256 amountOutMin, address[] path, address to, uint256 deadline)","method_id":"7ff36ab5","parameters":[{"name":"amountOutMin","type":"uint256","value":"99295646999860019"},{"name":"path","type":"address[]","value":["0xC02aaA39b223FE8D0A0e5C4F27eAD9083C756Cc2","0x5f98805A4E8be255a32880FDeC7F6728C6568bA0"]},{"name":"to","type":"address","value":"0x5400E3d574C9AE5be4F78F57f936ccb94F67e8C9"},{"name":"deadline","type":"uint256","value":"1617968669"}]},"token_transfers":null,"base_fee_per_gas":null,"timestamp":null,"nonce":1,"historic_exchange_rate":null,"transaction_types":["coin_transfer","contract_call"],"exchange_rate":"3891.99","block_number":null,"has_error_in_internal_transactions":null},{"priority_fee":null,"raw_input":"0x7ff36ab5000000000000000000000000000000000000000003a686b5fdd2d565e526389900000000000000000000000000000000000000000000000000000000000000800000000000000000000000000278757d62b9d9570d66c26e5d8579b273e9faf0000000000000000000000000000000000000000000000000000000006101f5320000000000000000000000000000000000000000000000000000000000000002000000000000000000000000c02aaa39b223fe8d0a0e5c4f27ead9083c756cc200000000000000000000000015874d65e649880c2614e7a480cb7c9a55787ff6","is_pending_update":null,"result":"pending","hash":"0x6164aaad691738a52a6fff7fed9bf287de6d87feca1f6fac7afb12d76ec81280","max_fee_per_gas":null,"revert_reason":null,"confirmation_duration":[],"transaction_burnt_fee":null,"type":0,"token_transfers_overflow":null,"confirmations":0,"position":null,"max_priority_fee_per_gas":null,"transaction_tag":null,"created_contract":null,"value":"17000000000000000","from":{"ens_domain_name":null,"hash":"0x0278757d62b9D9570D66C26E5d8579B273e9fAf0","implementations":[],"is_contract":false,"is_scam":false,"is_verified":false,"metadata":null,"name":null,"private_tags":[],"proxy_type":null,"public_tags":[],"reputation":"ok","watchlist_names":[]},"gas_used":null,"status":null,"to":{"ens_domain_name":null,"hash":"0x7a250d5630B4cF539739dF2C5dAcb4c659F2488D","implementations":[],"is_contract":true,"is_scam":false,"is_verified":true,"metadata":{"tags":[{"meta":{"bgColor":"#FFFFFF","projectName":"Uniswap V2","tagUrl":"https://app.klerosscout.eth.limo/#/?registry=Single_Tags&itemdetails=0x21dee62fd8759eac196977676d698320331baf2d86a275f6fd61b587d90cafc8@0x66260c69d03837016d88c9877e61e08ef74c59f2","textColor":"#FF007A","tooltipDescription":"Up-to-date Uniswap V2 Router contract.","tooltipUrl":"https://app.uniswap.org/#/swap","verifiedDomains":["app.thorswap.finance","app.uniswap.org"]},"name":"Uniswap V3: Universal Router","ordinal":10,"slug":"uniswap-v3-universal-router","tagType":"name"},{"meta":{},"name":"DEX","ordinal":0,"slug":"dex","tagType":"generic"},{"meta":{"appID":"uniswap","bgColor":"#FF007A","tagIcon":"https://blockscout-content.s3.amazonaws.com/uniswap.png","tagUrl":"https://uniswap.org/?utm_source=Blockscout","textColor":"#FFFFFF","tooltipDescription":"Trade crypto and NFTs safely on the top DeFi platform. Swapping made simple. Buy and sell crypto on Ethereum, Base, Arbitrum, Polygon, and more.","tooltipTitle":"Uniswap","tooltipUrl":"https://uniswap.org/?utm_source=Blockscout"},"name":"Uniswap V2","ordinal":0,"slug":"uniswap-v2","tagType":"protocol"}]},"name":"UniswapV2Router02","private_tags":[],"proxy_type":null,"public_tags":[],"reputation":"ok","watchlist_names":[]},"authorization_list":[],"method":"swapExactETHForTokens","fee":{"type":"maximum","value":"8440806000000"},"actions":[],"gas_limit":"255782","gas_price":"33000000","decoded_input":{"method_call":"swapExactETHForTokens(uint256 amountOutMin, address[] path, address to, uint256 deadline)","method_id":"7ff36ab5","parameters":[{"name":"amountOutMin","type":"uint256","value":"1129772869779361193380952217"},{"name":"path","type":"address[]","value":["0xC02aaA39b223FE8D0A0e5C4F27eAD9083C756Cc2","0x15874d65e649880c2614e7a480cb7c9A55787FF6"]},{"name":"to","type":"address","value":"0x0278757d62b9D9570D66C26E5d8579B273e9fAf0"},{"name":"deadline","type":"uint256","value":"1627518258"}]},"token_transfers":null,"base_fee_per_gas":null,"timestamp":null,"nonce":1,"historic_exchange_rate":null,"transaction_types":["coin_transfer","contract_call"],"exchange_rate":"3891.99","block_number":null,"has_error_in_internal_transactions":null},{"priority_fee":null,"raw_input":"0x38ed173900000000000000000000000000000000000000000000000035366a4c9ad0f40000000000000000000000000000000000000000000000000000470de4df82000000000000000000000000000000000000000000000000000000000000000000a000000000000000000000000047f9cefabceae67c9d87c457a8120a63b8e4a06e000000000000000000000000000000000000000000000000000000006702b52b0000000000000000000000000000000000000000000000000000000000000003000000000000000000000000c02aaa39b223fe8d0a0e5c4f27ead9083c756cc2000000000000000000000000c02aaa39b223fe8d0a0e5c4f27ead9083c756cc20000000000000000000000001f7118401b9c606e8b77202ff807725918b35726","is_pending_update":null,"result":"pending","hash":"0x816aab9f93742944542814e42bfaf88c0d31cc3f9562a6fe0dd7558a877670a0","max_fee_per_gas":null,"revert_reason":null,"confirmation_duration":[],"transaction_burnt_fee":null,"type":0,"token_transfers_overflow":null,"confirmations":0,"position":null,"max_priority_fee_per_gas":null,"transaction_tag":null,"created_contract":null,"value":"0","from":{"ens_domain_name":null,"hash":"0x47f9cEfAbCEAe67C9D87c457A8120a63B8E4A06E","implementations":[],"is_contract":false,"is_scam":false,"is_verified":false,"metadata":null,"name":null,"private_tags":[],"proxy_type":null,"public_tags":[],"reputation":"ok","watchlist_names":[]},"gas_used":null,"status":null,"to":{"ens_domain_name":null,"hash":"0x7a250d5630B4cF539739dF2C5dAcb4c659F2488D","implementations":[],"is_contract":true,"is_scam":false,"is_verified":true,"metadata":{"tags":[{"meta":{"bgColor":"#FFFFFF","projectName":"Uniswap V2","tagUrl":"https://app.klerosscout.eth.limo/#/?registry=Single_Tags&itemdetails=0x21dee62fd8759eac196977676d698320331baf2d86a275f6fd61b587d90cafc8@0x66260c69d03837016d88c9877e61e08ef74c59f2","textColor":"#FF007A","tooltipDescription":"Up-to-date Uniswap V2 Router contract.","tooltipUrl":"https://app.uniswap.org/#/swap","verifiedDomains":["app.thorswap.finance","app.uniswap.org"]},"name":"Uniswap V3: Universal Router","ordinal":10,"slug":"uniswap-v3-universal-router","tagType":"name"},{"meta":{},"name":"DEX","ordinal":0,"slug":"dex","tagType":"generic"},{"meta":{"appID":"uniswap","bgColor":"#FF007A","tagIcon":"https://blockscout-content.s3.amazonaws.com/uniswap.png","tagUrl":"https://uniswap.org/?utm_source=Blockscout","textColor":"#FFFFFF","tooltipDescription":"Trade crypto and NFTs safely on the top DeFi platform. Swapping made simple. Buy and sell crypto on Ethereum, Base, Arbitrum, Polygon, and more.","tooltipTitle":"Uniswap","tooltipUrl":"https://uniswap.org/?utm_source=Blockscout"},"name":"Uniswap V2","ordinal":0,"slug":"uniswap-v2","tagType":"protocol"}]},"name":"UniswapV2Router02","private_tags":[],"proxy_type":null,"public_tags":[],"reputation":"ok","watchlist_names":[]},"authorization_list":[],"method":"swapExactTokensForTokens","fee":{"type":"maximum","value":"25000000000000"},"actions":[],"gas_limit":"250000","gas_price":"100000000","decoded_input":{"method_call":"swapExactTokensForTokens(uint256 amountIn, uint256 amountOutMin, address[] path, address to, uint256 deadline)","method_id":"38ed1739","parameters":[{"name":"amountIn","type":"uint256","value":"3834369010000000000"},{"name":"amountOutMin","type":"uint256","value":"20000000000000000"},{"name":"path","type":"address[]","value":["0xC02aaA39b223FE8D0A0e5C4F27eAD9083C756Cc2","0xC02aaA39b223FE8D0A0e5C4F27eAD9083C756Cc2","0x1F7118401b9c606E8B77202Ff807725918b35726"]},{"name":"to","type":"address","value":"0x47f9cEfAbCEAe67C9D87c457A8120a63B8E4A06E"},{"name":"deadline","type":"uint256","value":"1728230699"}]},"token_transfers":null,"base_fee_per_gas":null,"timestamp":null,"nonce":107,"historic_exchange_rate":null,"transaction_types":["contract_call"],"exchange_rate":"3891.99","block_number":null,"has_error_in_internal_transactions":null},{"priority_fee":null,"raw_input":"0x38ed173900000000000000000000000000000000000000000000000036274a5017fb2c0000000000000000000000000000000000000000000000000000470de4df82000000000000000000000000000000000000000000000000000000000000000000a000000000000000000000000047f9cefabceae67c9d87c457a8120a63b8e4a06e000000000000000000000000000000000000000000000000000000006702aee30000000000000000000000000000000000000000000000000000000000000003000000000000000000000000c02aaa39b223fe8d0a0e5c4f27ead9083c756cc2000000000000000000000000c02aaa39b223fe8d0a0e5c4f27ead9083c756cc20000000000000000000000001f7118401b9c606e8b77202ff807725918b35726","is_pending_update":null,"result":"pending","hash":"0xbccc3fd154c8289b23920bd37e7ce4ace637a7eaf98ed11f8a3f50fe2ce5b8ab","max_fee_per_gas":null,"revert_reason":null,"confirmation_duration":[],"transaction_burnt_fee":null,"type":0,"token_transfers_overflow":null,"confirmations":0,"position":null,"max_priority_fee_per_gas":null,"transaction_tag":null,"created_contract":null,"value":"0","from":{"ens_domain_name":null,"hash":"0x47f9cEfAbCEAe67C9D87c457A8120a63B8E4A06E","implementations":[],"is_contract":false,"is_scam":false,"is_verified":false,"metadata":null,"name":null,"private_tags":[],"proxy_type":null,"public_tags":[],"reputation":"ok","watchlist_names":[]},"gas_used":null,"status":null,"to":{"ens_domain_name":null,"hash":"0x7a250d5630B4cF539739dF2C5dAcb4c659F2488D","implementations":[],"is_contract":true,"is_scam":false,"is_verified":true,"metadata":{"tags":[{"meta":{"bgColor":"#FFFFFF","projectName":"Uniswap V2","tagUrl":"https://app.klerosscout.eth.limo/#/?registry=Single_Tags&itemdetails=0x21dee62fd8759eac196977676d698320331baf2d86a275f6fd61b587d90cafc8@0x66260c69d03837016d88c9877e61e08ef74c59f2","textColor":"#FF007A","tooltipDescription":"Up-to-date Uniswap V2 Router contract.","tooltipUrl":"https://app.uniswap.org/#/swap","verifiedDomains":["app.thorswap.finance","app.uniswap.org"]},"name":"Uniswap V3: Universal Router","ordinal":10,"slug":"uniswap-v3-universal-router","tagType":"name"},{"meta":{},"name":"DEX","ordinal":0,"slug":"dex","tagType":"generic"},{"meta":{"appID":"uniswap","bgColor":"#FF007A","tagIcon":"https://blockscout-content.s3.amazonaws.com/uniswap.png","tagUrl":"https://uniswap.org/?utm_source=Blockscout","textColor":"#FFFFFF","tooltipDescription":"Trade crypto and NFTs safely on the top DeFi platform. Swapping made simple. Buy and sell crypto on Ethereum, Base, Arbitrum, Polygon, and more.","tooltipTitle":"Uniswap","tooltipUrl":"https://uniswap.org/?utm_source=Blockscout"},"name":"Uniswap V2","ordinal":0,"slug":"uniswap-v2","tagType":"protocol"}]},"name":"UniswapV2Router02","private_tags":[],"proxy_type":null,"public_tags":[],"reputation":"ok","watchlist_names":[]},"authorization_list":[],"method":"swapExactTokensForTokens","fee":{"type":"maximum","value":"10000000000000"},"actions":[],"gas_limit":"250000","gas_price":"40000000","decoded_input":{"method_call":"swapExactTokensForTokens(uint256 amountIn, uint256 amountOutMin, address[] path, address to, uint256 deadline)","method_id":"38ed1739","parameters":[{"name":"amountIn","type":"uint256","value":"3902169310000000000"},{"name":"amountOutMin","type":"uint256","value":"20000000000000000"},{"name":"path","type":"address[]","value":["0xC02aaA39b223FE8D0A0e5C4F27eAD9083C756Cc2","0xC02aaA39b223FE8D0A0e5C4F27eAD9083C756Cc2","0x1F7118401b9c606E8B77202Ff807725918b35726"]},{"name":"to","type":"address","value":"0x47f9cEfAbCEAe67C9D87c457A8120a63B8E4A06E"},{"name":"deadline","type":"uint256","value":"1728229091"}]},"token_transfers":null,"base_fee_per_gas":null,"timestamp":null,"nonce":105,"historic_exchange_rate":null,"transaction_types":["contract_call"],"exchange_rate":"3891.99","block_number":null,"has_error_in_internal_transactions":null},{"priority_fee":null,"raw_input":"0x38ed1739000000000000000000000000000000000000000000000000345a3b04dffcb40000000000000000000000000000000000000000000000000000470de4df82000000000000000000000000000000000000000000000000000000000000000000a000000000000000000000000047f9cefabceae67c9d87c457a8120a63b8e4a06e000000000000000000000000000000000000000000000000000000006702af070000000000000000000000000000000000000000000000000000000000000003000000000000000000000000c02aaa39b223fe8d0a0e5c4f27ead9083c756cc2000000000000000000000000c02aaa39b223fe8d0a0e5c4f27ead9083c756cc20000000000000000000000001f7118401b9c606e8b77202ff807725918b35726","is_pending_update":null,"result":"pending","hash":"0xcd419317963cf879389296b09cb0636afedd99def4b8cd1b5cca2742157c84b6","max_fee_per_gas":null,"revert_reason":null,"confirmation_duration":[],"transaction_burnt_fee":null,"type":0,"token_transfers_overflow":null,"confirmations":0,"position":null,"max_priority_fee_per_gas":null,"transaction_tag":null,"created_contract":null,"value":"0","from":{"ens_domain_name":null,"hash":"0x47f9cEfAbCEAe67C9D87c457A8120a63B8E4A06E","implementations":[],"is_contract":false,"is_scam":false,"is_verified":false,"metadata":null,"name":null,"private_tags":[],"proxy_type":null,"public_tags":[],"reputation":"ok","watchlist_names":[]},"gas_used":null,"status":null,"to":{"ens_domain_name":null,"hash":"0x7a250d5630B4cF539739dF2C5dAcb4c659F2488D","implementations":[],"is_contract":true,"is_scam":false,"is_verified":true,"metadata":{"tags":[{"meta":{"bgColor":"#FFFFFF","projectName":"Uniswap V2","tagUrl":"https://app.klerosscout.eth.limo/#/?registry=Single_Tags&itemdetails=0x21dee62fd8759eac196977676d698320331baf2d86a275f6fd61b587d90cafc8@0x66260c69d03837016d88c9877e61e08ef74c59f2","textColor":"#FF007A","tooltipDescription":"Up-to-date Uniswap V2 Router contract.","tooltipUrl":"https://app.uniswap.org/#/swap","verifiedDomains":["app.thorswap.finance","app.uniswap.org"]},"name":"Uniswap V3: Universal Router","ordinal":10,"slug":"uniswap-v3-universal-router","tagType":"name"},{"meta":{},"name":"DEX","ordinal":0,"slug":"dex","tagType":"generic"},{"meta":{"appID":"uniswap","bgColor":"#FF007A","tagIcon":"https://blockscout-content.s3.amazonaws.com/uniswap.png","tagUrl":"https://uniswap.org/?utm_source=Blockscout","textColor":"#FFFFFF","tooltipDescription":"Trade crypto and NFTs safely on the top DeFi platform. Swapping made simple. Buy and sell crypto on Ethereum, Base, Arbitrum, Polygon, and more.","tooltipTitle":"Uniswap","tooltipUrl":"https://uniswap.org/?utm_source=Blockscout"},"name":"Uniswap V2","ordinal":0,"slug":"uniswap-v2","tagType":"protocol"}]},"name":"UniswapV2Router02","private_tags":[],"proxy_type":null,"public_tags":[],"reputation":"ok","watchlist_names":[]},"authorization_list":[],"method":"swapExactTokensForTokens","fee":{"type":"maximum","value":"11250000000000"},"actions":[],"gas_limit":"250000","gas_price":"45000000","decoded_input":{"method_call":"swapExactTokensForTokens(uint256 amountIn, uint256 amountOutMin, address[] path, address to, uint256 deadline)","method_id":"38ed1739","parameters":[{"name":"amountIn","type":"uint256","value":"3772392530000000000"},{"name":"amountOutMin","type":"uint256","value":"20000000000000000"},{"name":"path","type":"address[]","value":["0xC02aaA39b223FE8D0A0e5C4F27eAD9083C756Cc2","0xC02aaA39b223FE8D0A0e5C4F27eAD9083C756Cc2","0x1F7118401b9c606E8B77202Ff807725918b35726"]},{"name":"to","type":"address","value":"0x47f9cEfAbCEAe67C9D87c457A8120a63B8E4A06E"},{"name":"deadline","type":"uint256","value":"1728229127"}]},"token_transfers":null,"base_fee_per_gas":null,"timestamp":null,"nonce":106,"historic_exchange_rate":null,"transaction_types":["contract_call"],"exchange_rate":"3891.99","block_number":null,"has_error_in_internal_transactions":null},{"priority_fee":null,"raw_input":"0xfb3bdb4100000000000000000000000000000000000000000000000021af0a5b3399b60000000000000000000000000000000000000000000000000000000000000000800000000000000000000000007dd0e635d3f6cd86c770de3c057a32fb6954dad300000000000000000000000000000000000000000000000000000000610158450000000000000000000000000000000000000000000000000000000000000002000000000000000000000000c02aaa39b223fe8d0a0e5c4f27ead9083c756cc2000000000000000000000000e2a083397521968eb05585932750634bed4b7d56","is_pending_update":null,"result":"pending","hash":"0xc23c0df56808351f2953f5818d34c16d9ead464576c79cb5c4a530da5ed34cba","max_fee_per_gas":null,"revert_reason":null,"confirmation_duration":[],"transaction_burnt_fee":null,"type":0,"token_transfers_overflow":null,"confirmations":0,"position":null,"max_priority_fee_per_gas":null,"transaction_tag":null,"created_contract":null,"value":"50504027095269032","from":{"ens_domain_name":null,"hash":"0x7Dd0e635d3F6CD86C770dE3c057A32Fb6954dAd3","implementations":[],"is_contract":false,"is_scam":false,"is_verified":false,"metadata":null,"name":null,"private_tags":[],"proxy_type":null,"public_tags":[],"reputation":"ok","watchlist_names":[]},"gas_used":null,"status":null,"to":{"ens_domain_name":null,"hash":"0x7a250d5630B4cF539739dF2C5dAcb4c659F2488D","implementations":[],"is_contract":true,"is_scam":false,"is_verified":true,"metadata":{"tags":[{"meta":{"bgColor":"#FFFFFF","projectName":"Uniswap V2","tagUrl":"https://app.klerosscout.eth.limo/#/?registry=Single_Tags&itemdetails=0x21dee62fd8759eac196977676d698320331baf2d86a275f6fd61b587d90cafc8@0x66260c69d03837016d88c9877e61e08ef74c59f2","textColor":"#FF007A","tooltipDescription":"Up-to-date Uniswap V2 Router contract.","tooltipUrl":"https://app.uniswap.org/#/swap","verifiedDomains":["app.thorswap.finance","app.uniswap.org"]},"name":"Uniswap V3: Universal Router","ordinal":10,"slug":"uniswap-v3-universal-router","tagType":"name"},{"meta":{},"name":"DEX","ordinal":0,"slug":"dex","tagType":"generic"},{"meta":{"appID":"uniswap","bgColor":"#FF007A","tagIcon":"https://blockscout-content.s3.amazonaws.com/uniswap.png","tagUrl":"https://uniswap.org/?utm_source=Blockscout","textColor":"#FFFFFF","tooltipDescription":"Trade crypto and NFTs safely on the top DeFi platform. Swapping made simple. Buy and sell crypto on Ethereum, Base, Arbitrum, Polygon, and more.","tooltipTitle":"Uniswap","tooltipUrl":"https://uniswap.org/?utm_source=Blockscout"},"name":"Uniswap V2","ordinal":0,"slug":"uniswap-v2","tagType":"protocol"}]},"name":"UniswapV2Router02","private_tags":[],"proxy_type":null,"public_tags":[],"reputation":"ok","watchlist_names":[]},"authorization_list":[],"method":"swapETHForExactTokens","fee":{"type":"maximum","value":"8075562000000"},"actions":[],"gas_limit":"244714","gas_price":"33000000","decoded_input":{"method_call":"swapETHForExactTokens(uint256 amountOut, address[] path, address to, uint256 deadline)","method_id":"fb3bdb41","parameters":[{"name":"amountOut","type":"uint256","value":"2427170111000000000"},{"name":"path","type":"address[]","value":["0xC02aaA39b223FE8D0A0e5C4F27eAD9083C756Cc2","0xE2a083397521968Eb05585932750634bED4b7D56"]},{"name":"to","type":"address","value":"0x7Dd0e635d3F6CD86C770dE3c057A32Fb6954dAd3"},{"name":"deadline","type":"uint256","value":"1627478085"}]},"token_transfers":null,"base_fee_per_gas":null,"timestamp":null,"nonce":0,"historic_exchange_rate":null,"transaction_types":["coin_transfer","contract_call"],"exchange_rate":"3891.99","block_number":null,"has_error_in_internal_transactions":null},{"priority_fee":null,"raw_input":"0x7ff36ab500000000000000000000000000000000000000000011938073a2425659a4c1610000000000000000000000000000000000000000000000000000000000000080000000000000000000000000063b134c94c76de6099f5597b2b54e3f9a982f5b00000000000000000000000000000000000000000000000000000000609340100000000000000000000000000000000000000000000000000000000000000002000000000000000000000000c02aaa39b223fe8d0a0e5c4f27ead9083c756cc2000000000000000000000000537edd52ebcb9f48ff2f8a28c51fcdb9d6a6e0d4","is_pending_update":null,"result":"pending","hash":"0x803e543ea7ff43228e675452399fccdb018d0925988f1a7efb37efeb16a37350","max_fee_per_gas":null,"revert_reason":null,"confirmation_duration":[],"transaction_burnt_fee":null,"type":0,"token_transfers_overflow":null,"confirmations":0,"position":null,"max_priority_fee_per_gas":null,"transaction_tag":null,"created_contract":null,"value":"2642840000000000","from":{"ens_domain_name":null,"hash":"0x063B134C94C76DE6099f5597B2B54e3f9a982f5b","implementations":[],"is_contract":false,"is_scam":false,"is_verified":false,"metadata":null,"name":null,"private_tags":[],"proxy_type":null,"public_tags":[],"reputation":"ok","watchlist_names":[]},"gas_used":null,"status":null,"to":{"ens_domain_name":null,"hash":"0x7a250d5630B4cF539739dF2C5dAcb4c659F2488D","implementations":[],"is_contract":true,"is_scam":false,"is_verified":true,"metadata":{"tags":[{"meta":{"bgColor":"#FFFFFF","projectName":"Uniswap V2","tagUrl":"https://app.klerosscout.eth.limo/#/?registry=Single_Tags&itemdetails=0x21dee62fd8759eac196977676d698320331baf2d86a275f6fd61b587d90cafc8@0x66260c69d03837016d88c9877e61e08ef74c59f2","textColor":"#FF007A","tooltipDescription":"Up-to-date Uniswap V2 Router contract.","tooltipUrl":"https://app.uniswap.org/#/swap","verifiedDomains":["app.thorswap.finance","app.uniswap.org"]},"name":"Uniswap V3: Universal Router","ordinal":10,"slug":"uniswap-v3-universal-router","tagType":"name"},{"meta":{},"name":"DEX","ordinal":0,"slug":"dex","tagType":"generic"},{"meta":{"appID":"uniswap","bgColor":"#FF007A","tagIcon":"https://blockscout-content.s3.amazonaws.com/uniswap.png","tagUrl":"https://uniswap.org/?utm_source=Blockscout","textColor":"#FFFFFF","tooltipDescription":"Trade crypto and NFTs safely on the top DeFi platform. Swapping made simple. Buy and sell crypto on Ethereum, Base, Arbitrum, Polygon, and more.","tooltipTitle":"Uniswap","tooltipUrl":"https://uniswap.org/?utm_source=Blockscout"},"name":"Uniswap V2","ordinal":0,"slug":"uniswap-v2","tagType":"protocol"}]},"name":"UniswapV2Router02","private_tags":[],"proxy_type":null,"public_tags":[],"reputation":"ok","watchlist_names":[]},"authorization_list":[],"method":"swapExactETHForTokens","fee":{"type":"maximum","value":"172245"},"actions":[],"gas_limit":"172245","gas_price":"1","decoded_input":{"method_call":"swapExactETHForTokens(uint256 amountOutMin, address[] path, address to, uint256 deadline)","method_id":"7ff36ab5","parameters":[{"name":"amountOutMin","type":"uint256","value":"21248296321967167866454369"},{"name":"path","type":"address[]","value":["0xC02aaA39b223FE8D0A0e5C4F27eAD9083C756Cc2","0x537edD52ebcb9F48ff2f8a28c51FCdB9D6a6E0D4"]},{"name":"to","type":"address","value":"0x063B134C94C76DE6099f5597B2B54e3f9a982f5b"},{"name":"deadline","type":"uint256","value":"1620262928"}]},"token_transfers":null,"base_fee_per_gas":null,"timestamp":null,"nonce":18,"historic_exchange_rate":null,"transaction_types":["coin_transfer","contract_call"],"exchange_rate":"3891.99","block_number":null,"has_error_in_internal_transactions":null},{"priority_fee":null,"raw_input":"0x18cbafe500000000000000000000000000000000000000000000000aac3bf1fc0734c00000000000000000000000000000000000000000000000000000000172632bc19800000000000000000000000000000000000000000000000000000000000000a000000000000000000000000078b2d178e407ac8e40121a8e9a780c8af84d9d4b000000000000000000000000000000000000000000000000000000006099db61000000000000000000000000000000000000000000000000000000000000000200000000000000000000000095ad61b0a150d79219dcf64e1e6cc01f0b64c4ce000000000000000000000000c02aaa39b223fe8d0a0e5c4f27ead9083c756cc2","is_pending_update":null,"result":"pending","hash":"0x3e0cc1c40a8fc65e68570ed8874625b98b43f5cd8c0aec02cdbb1adbf2d4d386","max_fee_per_gas":null,"revert_reason":null,"confirmation_duration":[],"transaction_burnt_fee":null,"type":0,"token_transfers_overflow":null,"confirmations":0,"position":null,"max_priority_fee_per_gas":null,"transaction_tag":null,"created_contract":null,"value":"0","from":{"ens_domain_name":null,"hash":"0x78b2d178E407Ac8e40121a8e9A780C8Af84D9d4b","implementations":[],"is_contract":false,"is_scam":false,"is_verified":false,"metadata":null,"name":null,"private_tags":[],"proxy_type":null,"public_tags":[],"reputation":"ok","watchlist_names":[]},"gas_used":null,"status":null,"to":{"ens_domain_name":null,"hash":"0x7a250d5630B4cF539739dF2C5dAcb4c659F2488D","implementations":[],"is_contract":true,"is_scam":false,"is_verified":true,"metadata":{"tags":[{"meta":{"bgColor":"#FFFFFF","projectName":"Uniswap V2","tagUrl":"https://app.klerosscout.eth.limo/#/?registry=Single_Tags&itemdetails=0x21dee62fd8759eac196977676d698320331baf2d86a275f6fd61b587d90cafc8@0x66260c69d03837016d88c9877e61e08ef74c59f2","textColor":"#FF007A","tooltipDescription":"Up-to-date Uniswap V2 Router contract.","tooltipUrl":"https://app.uniswap.org/#/swap","verifiedDomains":["app.thorswap.finance","app.uniswap.org"]},"name":"Uniswap V3: Universal Router","ordinal":10,"slug":"uniswap-v3-universal-router","tagType":"name"},{"meta":{},"name":"DEX","ordinal":0,"slug":"dex","tagType":"generic"},{"meta":{"appID":"uniswap","bgColor":"#FF007A","tagIcon":"https://blockscout-content.s3.amazonaws.com/uniswap.png","tagUrl":"https://uniswap.org/?utm_source=Blockscout","textColor":"#FFFFFF","tooltipDescription":"Trade crypto and NFTs safely on the top DeFi platform. Swapping made simple. Buy and sell crypto on Ethereum, Base, Arbitrum, Polygon, and more.","tooltipTitle":"Uniswap","tooltipUrl":"https://uniswap.org/?utm_source=Blockscout"},"name":"Uniswap V2","ordinal":0,"slug":"uniswap-v2","tagType":"protocol"}]},"name":"UniswapV2Router02","private_tags":[],"proxy_type":null,"public_tags":[],"reputation":"ok","watchlist_names":[]},"authorization_list":[],"method":"swapExactTokensForETH","fee":{"type":"maximum","value":"6000000000000"},"actions":[],"gas_limit":"600000","gas_price":"10000000","decoded_input":{"method_call":"swapExactTokensForETH(uint256 amountIn, uint256 amountOutMin, address[] path, address to, uint256 deadline)","method_id":"18cbafe5","parameters":[{"name":"amountIn","type":"uint256","value":"196878220000000000000"},{"name":"amountOutMin","type":"uint256","value":"1590801711512"},{"name":"path","type":"address[]","value":["0x95aD61b0a150d79219dCF64E1E6Cc01f0B64C4cE","0xC02aaA39b223FE8D0A0e5C4F27eAD9083C756Cc2"]},{"name":"to","type":"address","value":"0x78b2d178E407Ac8e40121a8e9A780C8Af84D9d4b"},{"name":"deadline","type":"uint256","value":"1620695905"}]},"token_transfers":null,"base_fee_per_gas":null,"timestamp":null,"nonce":3,"historic_exchange_rate":null,"transaction_types":["contract_call"],"exchange_rate":"3891.99","block_number":null,"has_error_in_internal_transactions":null},{"priority_fee":null,"raw_input":"0x7ff36ab5000000000000000000000000000000000000000000000000070b1c55de6ebf9100000000000000000000000000000000000000000000000000000000000000800000000000000000000000009de1c3e1c4aeb8965c8d563ab399a71771057e890000000000000000000000000000000000000000000000000000000060afd14a0000000000000000000000000000000000000000000000000000000000000002000000000000000000000000c02aaa39b223fe8d0a0e5c4f27ead9083c756cc2000000000000000000000000a2b4c0af19cc16a6cfacce81f192b024d625817d","is_pending_update":null,"result":"pending","hash":"0x83d8d090b61142f361bdad3174aa3645108021d0dcaedeb0e49569623fcf9d91","max_fee_per_gas":null,"revert_reason":null,"confirmation_duration":[],"transaction_burnt_fee":null,"type":0,"token_transfers_overflow":null,"confirmations":0,"position":null,"max_priority_fee_per_gas":null,"transaction_tag":null,"created_contract":null,"value":"990000000000000","from":{"ens_domain_name":null,"hash":"0x9de1c3E1C4aeB8965c8d563Ab399a71771057E89","implementations":[],"is_contract":false,"is_scam":false,"is_verified":false,"metadata":null,"name":null,"private_tags":[],"proxy_type":null,"public_tags":[],"reputation":"ok","watchlist_names":[]},"gas_used":null,"status":null,"to":{"ens_domain_name":null,"hash":"0x7a250d5630B4cF539739dF2C5dAcb4c659F2488D","implementations":[],"is_contract":true,"is_scam":false,"is_verified":true,"metadata":{"tags":[{"meta":{"bgColor":"#FFFFFF","projectName":"Uniswap V2","tagUrl":"https://app.klerosscout.eth.limo/#/?registry=Single_Tags&itemdetails=0x21dee62fd8759eac196977676d698320331baf2d86a275f6fd61b587d90cafc8@0x66260c69d03837016d88c9877e61e08ef74c59f2","textColor":"#FF007A","tooltipDescription":"Up-to-date Uniswap V2 Router contract.","tooltipUrl":"https://app.uniswap.org/#/swap","verifiedDomains":["app.thorswap.finance","app.uniswap.org"]},"name":"Uniswap V3: Universal Router","ordinal":10,"slug":"uniswap-v3-universal-router","tagType":"name"},{"meta":{},"name":"DEX","ordinal":0,"slug":"dex","tagType":"generic"},{"meta":{"appID":"uniswap","bgColor":"#FF007A","tagIcon":"https://blockscout-content.s3.amazonaws.com/uniswap.png","tagUrl":"https://uniswap.org/?utm_source=Blockscout","textColor":"#FFFFFF","tooltipDescription":"Trade crypto and NFTs safely on the top DeFi platform. Swapping made simple. Buy and sell crypto on Ethereum, Base, Arbitrum, Polygon, and more.","tooltipTitle":"Uniswap","tooltipUrl":"https://uniswap.org/?utm_source=Blockscout"},"name":"Uniswap V2","ordinal":0,"slug":"uniswap-v2","tagType":"protocol"}]},"name":"UniswapV2Router02","private_tags":[],"proxy_type":null,"public_tags":[],"reputation":"ok","watchlist_names":[]},"authorization_list":[],"method":"swapExactETHForTokens","fee":{"type":"maximum","value":"289342"},"actions":[],"gas_limit":"289342","gas_price":"1","decoded_input":{"method_call":"swapExactETHForTokens(uint256 amountOutMin, address[] path, address to, uint256 deadline)","method_id":"7ff36ab5","parameters":[{"name":"amountOutMin","type":"uint256","value":"507530538138910609"},{"name":"path","type":"address[]","value":["0xC02aaA39b223FE8D0A0e5C4F27eAD9083C756Cc2","0xA2b4C0Af19cC16a6CfAcCe81F192B024d625817D"]},{"name":"to","type":"address","value":"0x9de1c3E1C4aeB8965c8d563Ab399a71771057E89"},{"name":"deadline","type":"uint256","value":"1622135114"}]},"token_transfers":null,"base_fee_per_gas":null,"timestamp":null,"nonce":0,"historic_exchange_rate":null,"transaction_types":["coin_transfer","contract_call"],"exchange_rate":"3891.99","block_number":null,"has_error_in_internal_transactions":null},{"priority_fee":null,"raw_input":"0x38ed17390000000000000000000000000000000000000000000000000000000017b0b5ea00000000000000000000000000000000000000000000002ca368d5260ad4df3000000000000000000000000000000000000000000000000000000000000000a0000000000000000000000000aa3d84c566aad937d8c80ffa201659c12f9f2fe70000000000000000000000000000000000000000000000000000000060b516480000000000000000000000000000000000000000000000000000000000000003000000000000000000000000965697b4ef02f0de01384d0d4f9f782b1670c163000000000000000000000000c02aaa39b223fe8d0a0e5c4f27ead9083c756cc20000000000000000000000006b175474e89094c44da98b954eedeac495271d0f","is_pending_update":null,"result":"pending","hash":"0x1204eb5b1c3c02e42ab7732d51152b4db5ea2039cfa3ad0efceed22c3a79b3f3","max_fee_per_gas":null,"revert_reason":null,"confirmation_duration":[],"transaction_burnt_fee":null,"type":0,"token_transfers_overflow":null,"confirmations":0,"position":null,"max_priority_fee_per_gas":null,"transaction_tag":null,"created_contract":null,"value":"0","from":{"ens_domain_name":null,"hash":"0xAA3d84C566Aad937d8c80FfA201659c12f9f2fe7","implementations":[],"is_contract":false,"is_scam":false,"is_verified":false,"metadata":null,"name":null,"private_tags":[],"proxy_type":null,"public_tags":[],"reputation":"ok","watchlist_names":[]},"gas_used":null,"status":null,"to":{"ens_domain_name":null,"hash":"0x7a250d5630B4cF539739dF2C5dAcb4c659F2488D","implementations":[],"is_contract":true,"is_scam":false,"is_verified":true,"metadata":{"tags":[{"meta":{"bgColor":"#FFFFFF","projectName":"Uniswap V2","tagUrl":"https://app.klerosscout.eth.limo/#/?registry=Single_Tags&itemdetails=0x21dee62fd8759eac196977676d698320331baf2d86a275f6fd61b587d90cafc8@0x66260c69d03837016d88c9877e61e08ef74c59f2","textColor":"#FF007A","tooltipDescription":"Up-to-date Uniswap V2 Router contract.","tooltipUrl":"https://app.uniswap.org/#/swap","verifiedDomains":["app.thorswap.finance","app.uniswap.org"]},"name":"Uniswap V3: Universal Router","ordinal":10,"slug":"uniswap-v3-universal-router","tagType":"name"},{"meta":{},"name":"DEX","ordinal":0,"slug":"dex","tagType":"generic"},{"meta":{"appID":"uniswap","bgColor":"#FF007A","tagIcon":"https://blockscout-content.s3.amazonaws.com/uniswap.png","tagUrl":"https://uniswap.org/?utm_source=Blockscout","textColor":"#FFFFFF","tooltipDescription":"Trade crypto and NFTs safely on the top DeFi platform. Swapping made simple. Buy and sell crypto on Ethereum, Base, Arbitrum, Polygon, and more.","tooltipTitle":"Uniswap","tooltipUrl":"https://uniswap.org/?utm_source=Blockscout"},"name":"Uniswap V2","ordinal":0,"slug":"uniswap-v2","tagType":"protocol"}]},"name":"UniswapV2Router02","private_tags":[],"proxy_type":null,"public_tags":[],"reputation":"ok","watchlist_names":[]},"authorization_list":[],"method":"swapExactTokensForTokens","fee":{"type":"maximum","value":"211599"},"actions":[],"gas_limit":"211599","gas_price":"1","decoded_input":{"method_call":"swapExactTokensForTokens(uint256 amountIn, uint256 amountOutMin, address[] path, address to, uint256 deadline)","method_id":"38ed1739","parameters":[{"name":"amountIn","type":"uint256","value":"397456874"},{"name":"amountOutMin","type":"uint256","value":"823431634828347629360"},{"name":"path","type":"address[]","value":["0x965697b4ef02F0DE01384D0d4F9F782B1670c163","0xC02aaA39b223FE8D0A0e5C4F27eAD9083C756Cc2","0x6B175474E89094C44Da98b954EedeAC495271d0F"]},{"name":"to","type":"address","value":"0xAA3d84C566Aad937d8c80FfA201659c12f9f2fe7"},{"name":"deadline","type":"uint256","value":"1622480456"}]},"token_transfers":null,"base_fee_per_gas":null,"timestamp":null,"nonce":20,"historic_exchange_rate":null,"transaction_types":["contract_call"],"exchange_rate":"3891.99","block_number":null,"has_error_in_internal_transactions":null},{"priority_fee":null,"raw_input":"0x7ff36ab50000000000000000000000000000000000000000000001243181f8a5497ec7630000000000000000000000000000000000000000000000000000000000000080000000000000000000000000ac653cc80f6606ececb49df0e42e581ed0c41a4b000000000000000000000000000000000000000000000000000000006118564b0000000000000000000000000000000000000000000000000000000000000002000000000000000000000000c02aaa39b223fe8d0a0e5c4f27ead9083c756cc2000000000000000000000000e4f6d46c244bb7cf3e218cdfb5c35cf9a4d9c920","is_pending_update":null,"result":"pending","hash":"0x855fda82621da78926055903eb0dbe570733ba31a3cb4d44eb41c8294cbd128a","max_fee_per_gas":null,"revert_reason":null,"confirmation_duration":[],"transaction_burnt_fee":null,"type":0,"token_transfers_overflow":null,"confirmations":0,"position":null,"max_priority_fee_per_gas":null,"transaction_tag":null,"created_contract":null,"value":"100000000000000000","from":{"ens_domain_name":null,"hash":"0xaC653cc80f6606eCeCB49Df0E42e581Ed0c41a4b","implementations":[],"is_contract":false,"is_scam":false,"is_verified":false,"metadata":null,"name":null,"private_tags":[],"proxy_type":null,"public_tags":[],"reputation":"ok","watchlist_names":[]},"gas_used":null,"status":null,"to":{"ens_domain_name":null,"hash":"0x7a250d5630B4cF539739dF2C5dAcb4c659F2488D","implementations":[],"is_contract":true,"is_scam":false,"is_verified":true,"metadata":{"tags":[{"meta":{"bgColor":"#FFFFFF","projectName":"Uniswap V2","tagUrl":"https://app.klerosscout.eth.limo/#/?registry=Single_Tags&itemdetails=0x21dee62fd8759eac196977676d698320331baf2d86a275f6fd61b587d90cafc8@0x66260c69d03837016d88c9877e61e08ef74c59f2","textColor":"#FF007A","tooltipDescription":"Up-to-date Uniswap V2 Router contract.","tooltipUrl":"https://app.uniswap.org/#/swap","verifiedDomains":["app.thorswap.finance","app.uniswap.org"]},"name":"Uniswap V3: Universal Router","ordinal":10,"slug":"uniswap-v3-universal-router","tagType":"name"},{"meta":{},"name":"DEX","ordinal":0,"slug":"dex","tagType":"generic"},{"meta":{"appID":"uniswap","bgColor":"#FF007A","tagIcon":"https://blockscout-content.s3.amazonaws.com/uniswap.png","tagUrl":"https://uniswap.org/?utm_source=Blockscout","textColor":"#FFFFFF","tooltipDescription":"Trade crypto and NFTs safely on the top DeFi platform. Swapping made simple. Buy and sell crypto on Ethereum, Base, Arbitrum, Polygon, and more.","tooltipTitle":"Uniswap","tooltipUrl":"https://uniswap.org/?utm_source=Blockscout"},"name":"Uniswap V2","ordinal":0,"slug":"uniswap-v2","tagType":"protocol"}]},"name":"UniswapV2Router02","private_tags":[],"proxy_type":null,"public_tags":[],"reputation":"ok","watchlist_names":[]},"authorization_list":[],"method":"swapExactETHForTokens","fee":{"type":"maximum","value":"4764705000000000"},"actions":[],"gas_limit":"173262","gas_price":"27500000000","decoded_input":{"method_call":"swapExactETHForTokens(uint256 amountOutMin, address[] path, address to, uint256 deadline)","method_id":"7ff36ab5","parameters":[{"name":"amountOutMin","type":"uint256","value":"5390016675291829552995"},{"name":"path","type":"address[]","value":["0xC02aaA39b223FE8D0A0e5C4F27eAD9083C756Cc2","0xE4F6D46C244Bb7Cf3e218CDFB5C35cf9a4d9c920"]},{"name":"to","type":"address","value":"0xaC653cc80f6606eCeCB49Df0E42e581Ed0c41a4b"},{"name":"deadline","type":"uint256","value":"1628984907"}]},"token_transfers":null,"base_fee_per_gas":null,"timestamp":null,"nonce":63,"historic_exchange_rate":null,"transaction_types":["coin_transfer","contract_call"],"exchange_rate":"3891.99","block_number":null,"has_error_in_internal_transactions":null},{"priority_fee":null,"raw_input":"0x7ff36ab50000000000000000000000000000000000000000000000000000000000000001000000000000000000000000000000000000000000000000000000000000008000000000000000000000000040e878a45863fcab3f8db5373490f151f943be9d00000000000000000000000000000000000000000000000000000000682c93f50000000000000000000000000000000000000000000000000000000000000002000000000000000000000000c02aaa39b223fe8d0a0e5c4f27ead9083c756cc2000000000000000000000000c427087c9eb3c0fd8ac188457b6ec1351c7209ca","is_pending_update":null,"result":"pending","hash":"0xb9f894b786af76210ff3cbfbc66eb1fe24f336b61f4b7856d9e6b9b68945330c","max_fee_per_gas":"10000000","revert_reason":null,"confirmation_duration":[],"transaction_burnt_fee":null,"type":2,"token_transfers_overflow":null,"confirmations":0,"position":null,"max_priority_fee_per_gas":"10000000","transaction_tag":null,"created_contract":null,"value":"6","from":{"ens_domain_name":null,"hash":"0x40E878A45863fcAb3F8dB5373490F151f943bE9d","implementations":[],"is_contract":false,"is_scam":false,"is_verified":false,"metadata":null,"name":null,"private_tags":[],"proxy_type":null,"public_tags":[],"reputation":"ok","watchlist_names":[]},"gas_used":null,"status":null,"to":{"ens_domain_name":null,"hash":"0x7a250d5630B4cF539739dF2C5dAcb4c659F2488D","implementations":[],"is_contract":true,"is_scam":false,"is_verified":true,"metadata":{"tags":[{"meta":{"bgColor":"#FFFFFF","projectName":"Uniswap V2","tagUrl":"https://app.klerosscout.eth.limo/#/?registry=Single_Tags&itemdetails=0x21dee62fd8759eac196977676d698320331baf2d86a275f6fd61b587d90cafc8@0x66260c69d03837016d88c9877e61e08ef74c59f2","textColor":"#FF007A","tooltipDescription":"Up-to-date Uniswap V2 Router contract.","tooltipUrl":"https://app.uniswap.org/#/swap","verifiedDomains":["app.thorswap.finance","app.uniswap.org"]},"name":"Uniswap V3: Universal Router","ordinal":10,"slug":"uniswap-v3-universal-router","tagType":"name"},{"meta":{},"name":"DEX","ordinal":0,"slug":"dex","tagType":"generic"},{"meta":{"appID":"uniswap","bgColor":"#FF007A","tagIcon":"https://blockscout-content.s3.amazonaws.com/uniswap.png","tagUrl":"https://uniswap.org/?utm_source=Blockscout","textColor":"#FFFFFF","tooltipDescription":"Trade crypto and NFTs safely on the top DeFi platform. Swapping made simple. Buy and sell crypto on Ethereum, Base, Arbitrum, Polygon, and more.","tooltipTitle":"Uniswap","tooltipUrl":"https://uniswap.org/?utm_source=Blockscout"},"name":"Uniswap V2","ordinal":0,"slug":"uniswap-v2","tagType":"protocol"}]},"name":"UniswapV2Router02","private_tags":[],"proxy_type":null,"public_tags":[],"reputation":"ok","watchlist_names":[]},"authorization_list":[],"method":"swapExactETHForTokens","fee":{"type":"maximum","value":"1800000000000"},"actions":[],"gas_limit":"180000","gas_price":"10000000","decoded_input":{"method_call":"swapExactETHForTokens(uint256 amountOutMin, address[] path, address to, uint256 deadline)","method_id":"7ff36ab5","parameters":[{"name":"amountOutMin","type":"uint256","value":"1"},{"name":"path","type":"address[]","value":["0xC02aaA39b223FE8D0A0e5C4F27eAD9083C756Cc2","0xc427087C9eB3c0Fd8ac188457b6EC1351C7209cA"]},{"name":"to","type":"address","value":"0x40E878A45863fcAb3F8dB5373490F151f943bE9d"},{"name":"deadline","type":"uint256","value":"1747751925"}]},"token_transfers":null,"base_fee_per_gas":null,"timestamp":null,"nonce":0,"historic_exchange_rate":null,"transaction_types":["coin_transfer","contract_call"],"exchange_rate":"3891.99","block_number":null,"has_error_in_internal_transactions":null},{"priority_fee":null,"raw_input":"0x5c11d795000000000000000000000000000000000000000003d642ea9eaa944e0672e78e00000000000000000000000000000000000000000009e160f3f84c302a2a0cc200000000000000000000000000000000000000000000000000000000000000a0000000000000000000000000e52570b9d08cd383e159dcbd43bd2d12fd8cec0700000000000000000000000000000000000000000000000000000000610200c10000000000000000000000000000000000000000000000000000000000000003000000000000000000000000f32aa187d5bc16a2c02a6afb7df1459d0d107574000000000000000000000000c02aaa39b223fe8d0a0e5c4f27ead9083c756cc2000000000000000000000000b892249939adbf6d7851864ca9a5c7d2d537af97","is_pending_update":null,"result":"pending","hash":"0xf69aecfda5a8a060d9e353337c7650daae7a09780c8d336579cc255c6a0bc734","max_fee_per_gas":null,"revert_reason":null,"confirmation_duration":[],"transaction_burnt_fee":null,"type":0,"token_transfers_overflow":null,"confirmations":0,"position":null,"max_priority_fee_per_gas":null,"transaction_tag":null,"created_contract":null,"value":"0","from":{"ens_domain_name":null,"hash":"0xE52570B9d08CD383E159DCbd43Bd2d12fD8cec07","implementations":[],"is_contract":false,"is_scam":false,"is_verified":false,"metadata":null,"name":null,"private_tags":[],"proxy_type":null,"public_tags":[],"reputation":"ok","watchlist_names":[]},"gas_used":null,"status":null,"to":{"ens_domain_name":null,"hash":"0x7a250d5630B4cF539739dF2C5dAcb4c659F2488D","implementations":[],"is_contract":true,"is_scam":false,"is_verified":true,"metadata":{"tags":[{"meta":{"bgColor":"#FFFFFF","projectName":"Uniswap V2","tagUrl":"https://app.klerosscout.eth.limo/#/?registry=Single_Tags&itemdetails=0x21dee62fd8759eac196977676d698320331baf2d86a275f6fd61b587d90cafc8@0x66260c69d03837016d88c9877e61e08ef74c59f2","textColor":"#FF007A","tooltipDescription":"Up-to-date Uniswap V2 Router contract.","tooltipUrl":"https://app.uniswap.org/#/swap","verifiedDomains":["app.thorswap.finance","app.uniswap.org"]},"name":"Uniswap V3: Universal Router","ordinal":10,"slug":"uniswap-v3-universal-router","tagType":"name"},{"meta":{},"name":"DEX","ordinal":0,"slug":"dex","tagType":"generic"},{"meta":{"appID":"uniswap","bgColor":"#FF007A","tagIcon":"https://blockscout-content.s3.amazonaws.com/uniswap.png","tagUrl":"https://uniswap.org/?utm_source=Blockscout","textColor":"#FFFFFF","tooltipDescription":"Trade crypto and NFTs safely on the top DeFi platform. Swapping made simple. Buy and sell crypto on Ethereum, Base, Arbitrum, Polygon, and more.","tooltipTitle":"Uniswap","tooltipUrl":"https://uniswap.org/?utm_source=Blockscout"},"name":"Uniswap V2","ordinal":0,"slug":"uniswap-v2","tagType":"protocol"}]},"name":"UniswapV2Router02","private_tags":[],"proxy_type":null,"public_tags":[],"reputation":"ok","watchlist_names":[]},"authorization_list":[],"method":"swapExactTokensForTokensSupportingFeeOnTransferTokens","fee":{"type":"maximum","value":"17186202000000"},"actions":[],"gas_limit":"520794","gas_price":"33000000","decoded_input":{"method_call":"swapExactTokensForTokensSupportingFeeOnTransferTokens(uint256 amountIn, uint256 amountOutMin, address[] path, address to, uint256 deadline)","method_id":"5c11d795","parameters":[{"name":"amountIn","type":"uint256","value":"1187481159020662161050625934"},{"name":"amountOutMin","type":"uint256","value":"11944653302493324052663490"},{"name":"path","type":"address[]","value":["0xF32aa187d5Bc16A2C02A6aFb7Df1459d0D107574","0xC02aaA39b223FE8D0A0e5C4F27eAD9083C756Cc2","0xb892249939AdBf6D7851864CA9A5c7D2d537af97"]},{"name":"to","type":"address","value":"0xE52570B9d08CD383E159DCbd43Bd2d12fD8cec07"},{"name":"deadline","type":"uint256","value":"1627521217"}]},"token_transfers":null,"base_fee_per_gas":null,"timestamp":null,"nonce":14,"historic_exchange_rate":null,"transaction_types":["contract_call"],"exchange_rate":"3891.99","block_number":null,"has_error_in_internal_transactions":null},{"priority_fee":null,"raw_input":"0x7ff36ab50000000000000000000000000000000000000000000000000354cab7d23f91a0000000000000000000000000000000000000000000000000000000000000008000000000000000000000000082e07a2df51df2db9dfb24305585f1fb8dd9c81e0000000000000000000000000000000000000000000000000000000060b51fea0000000000000000000000000000000000000000000000000000000000000002000000000000000000000000c02aaa39b223fe8d0a0e5c4f27ead9083c756cc2000000000000000000000000ac0104cca91d167873b8601d2e71eb3d4d8c33e0","is_pending_update":null,"result":"pending","hash":"0x84e46152bbad57b8f9227fbf9439ff6dff43e7d91af16a4ea8dfba28497c2f1c","max_fee_per_gas":null,"revert_reason":null,"confirmation_duration":[],"transaction_burnt_fee":null,"type":0,"token_transfers_overflow":null,"confirmations":0,"position":null,"max_priority_fee_per_gas":null,"transaction_tag":null,"created_contract":null,"value":"1000000000000000","from":{"ens_domain_name":null,"hash":"0x82E07a2DF51dF2DB9dFb24305585f1fB8dD9C81e","implementations":[],"is_contract":false,"is_scam":false,"is_verified":false,"metadata":null,"name":null,"private_tags":[],"proxy_type":null,"public_tags":[],"reputation":"ok","watchlist_names":[]},"gas_used":null,"status":null,"to":{"ens_domain_name":null,"hash":"0x7a250d5630B4cF539739dF2C5dAcb4c659F2488D","implementations":[],"is_contract":true,"is_scam":false,"is_verified":true,"metadata":{"tags":[{"meta":{"bgColor":"#FFFFFF","projectName":"Uniswap V2","tagUrl":"https://app.klerosscout.eth.limo/#/?registry=Single_Tags&itemdetails=0x21dee62fd8759eac196977676d698320331baf2d86a275f6fd61b587d90cafc8@0x66260c69d03837016d88c9877e61e08ef74c59f2","textColor":"#FF007A","tooltipDescription":"Up-to-date Uniswap V2 Router contract.","tooltipUrl":"https://app.uniswap.org/#/swap","verifiedDomains":["app.thorswap.finance","app.uniswap.org"]},"name":"Uniswap V3: Universal Router","ordinal":10,"slug":"uniswap-v3-universal-router","tagType":"name"},{"meta":{},"name":"DEX","ordinal":0,"slug":"dex","tagType":"generic"},{"meta":{"appID":"uniswap","bgColor":"#FF007A","tagIcon":"https://blockscout-content.s3.amazonaws.com/uniswap.png","tagUrl":"https://uniswap.org/?utm_source=Blockscout","textColor":"#FFFFFF","tooltipDescription":"Trade crypto and NFTs safely on the top DeFi platform. Swapping made simple. Buy and sell crypto on Ethereum, Base, Arbitrum, Polygon, and more.","tooltipTitle":"Uniswap","tooltipUrl":"https://uniswap.org/?utm_source=Blockscout"},"name":"Uniswap V2","ordinal":0,"slug":"uniswap-v2","tagType":"protocol"}]},"name":"UniswapV2Router02","private_tags":[],"proxy_type":null,"public_tags":[],"reputation":"ok","watchlist_names":[]},"authorization_list":[],"method":"swapExactETHForTokens","fee":{"type":"maximum","value":"194326"},"actions":[],"gas_limit":"194326","gas_price":"1","decoded_input":{"method_call":"swapExactETHForTokens(uint256 amountOutMin, address[] path, address to, uint256 deadline)","method_id":"7ff36ab5","parameters":[{"name":"amountOutMin","type":"uint256","value":"240039571012686240"},{"name":"path","type":"address[]","value":["0xC02aaA39b223FE8D0A0e5C4F27eAD9083C756Cc2","0xaC0104Cca91D167873B8601d2e71EB3D4D8c33e0"]},{"name":"to","type":"address","value":"0x82E07a2DF51dF2DB9dFb24305585f1fB8dD9C81e"},{"name":"deadline","type":"uint256","value":"1622482922"}]},"token_transfers":null,"base_fee_per_gas":null,"timestamp":null,"nonce":0,"historic_exchange_rate":null,"transaction_types":["coin_transfer","contract_call"],"exchange_rate":"3891.99","block_number":null,"has_error_in_internal_transactions":null},{"priority_fee":null,"raw_input":"0x7ff36ab5000000000000000000000000000000000000000000000002dafb09aa1a2ac15d0000000000000000000000000000000000000000000000000000000000000080000000000000000000000000bd58a40304ced8b44b9f9e1354305f4ec7cc5b7800000000000000000000000000000000000000000000000000000000601e79910000000000000000000000000000000000000000000000000000000000000002000000000000000000000000c02aaa39b223fe8d0a0e5c4f27ead9083c756cc2000000000000000000000000a4eed63db85311e22df4473f87ccfc3dadcfa3e3","is_pending_update":null,"result":"pending","hash":"0xe0c8c03eecf7c6860c9334bfacda43e22d60b7951cb1a8c7b380ca85841d9bd7","max_fee_per_gas":null,"revert_reason":null,"confirmation_duration":[],"transaction_burnt_fee":null,"type":0,"token_transfers_overflow":null,"confirmations":0,"position":null,"max_priority_fee_per_gas":null,"transaction_tag":null,"created_contract":null,"value":"20156950000000000","from":{"ens_domain_name":null,"hash":"0xBd58A40304ced8b44b9f9E1354305f4Ec7cC5b78","implementations":[],"is_contract":false,"is_scam":false,"is_verified":false,"metadata":null,"name":null,"private_tags":[],"proxy_type":null,"public_tags":[],"reputation":"ok","watchlist_names":[]},"gas_used":null,"status":null,"to":{"ens_domain_name":null,"hash":"0x7a250d5630B4cF539739dF2C5dAcb4c659F2488D","implementations":[],"is_contract":true,"is_scam":false,"is_verified":true,"metadata":{"tags":[{"meta":{"bgColor":"#FFFFFF","projectName":"Uniswap V2","tagUrl":"https://app.klerosscout.eth.limo/#/?registry=Single_Tags&itemdetails=0x21dee62fd8759eac196977676d698320331baf2d86a275f6fd61b587d90cafc8@0x66260c69d03837016d88c9877e61e08ef74c59f2","textColor":"#FF007A","tooltipDescription":"Up-to-date Uniswap V2 Router contract.","tooltipUrl":"https://app.uniswap.org/#/swap","verifiedDomains":["app.thorswap.finance","app.uniswap.org"]},"name":"Uniswap V3: Universal Router","ordinal":10,"slug":"uniswap-v3-universal-router","tagType":"name"},{"meta":{},"name":"DEX","ordinal":0,"slug":"dex","tagType":"generic"},{"meta":{"appID":"uniswap","bgColor":"#FF007A","tagIcon":"https://blockscout-content.s3.amazonaws.com/uniswap.png","tagUrl":"https://uniswap.org/?utm_source=Blockscout","textColor":"#FFFFFF","tooltipDescription":"Trade crypto and NFTs safely on the top DeFi platform. Swapping made simple. Buy and sell crypto on Ethereum, Base, Arbitrum, Polygon, and more.","tooltipTitle":"Uniswap","tooltipUrl":"https://uniswap.org/?utm_source=Blockscout"},"name":"Uniswap V2","ordinal":0,"slug":"uniswap-v2","tagType":"protocol"}]},"name":"UniswapV2Router02","private_tags":[],"proxy_type":null,"public_tags":[],"reputation":"ok","watchlist_names":[]},"authorization_list":[],"method":"swapExactETHForTokens","fee":{"type":"maximum","value":"9940000000000000"},"actions":[],"gas_limit":"71000","gas_price":"140000000000","decoded_input":{"method_call":"swapExactETHForTokens(uint256 amountOutMin, address[] path, address to, uint256 deadline)","method_id":"7ff36ab5","parameters":[{"name":"amountOutMin","type":"uint256","value":"52672704493029867869"},{"name":"path","type":"address[]","value":["0xC02aaA39b223FE8D0A0e5C4F27eAD9083C756Cc2","0xA4EED63db85311E22dF4473f87CcfC3DaDCFA3E3"]},{"name":"to","type":"address","value":"0xBd58A40304ced8b44b9f9E1354305f4Ec7cC5b78"},{"name":"deadline","type":"uint256","value":"1612609937"}]},"token_transfers":null,"base_fee_per_gas":null,"timestamp":null,"nonce":1,"historic_exchange_rate":null,"transaction_types":["coin_transfer","contract_call"],"exchange_rate":"3891.99","block_number":null,"has_error_in_internal_transactions":null},{"priority_fee":null,"raw_input":"0x7ff36ab5000000000000000000000000000000000000000000000000000000000000000100000000000000000000000000000000000000000000000000000000000000800000000000000000000000006ecd192e529a958e7e5cca3f81c4ce029d29381d00000000000000000000000000000000000000000000000000000000682c93e60000000000000000000000000000000000000000000000000000000000000002000000000000000000000000c02aaa39b223fe8d0a0e5c4f27ead9083c756cc2000000000000000000000000c427087c9eb3c0fd8ac188457b6ec1351c7209ca","is_pending_update":null,"result":"pending","hash":"0xa8a29887867f328d685c5231884f5d030f131665a1683e3e7098da1bd3cdc2d2","max_fee_per_gas":"10000000","revert_reason":null,"confirmation_duration":[],"transaction_burnt_fee":null,"type":2,"token_transfers_overflow":null,"confirmations":0,"position":null,"max_priority_fee_per_gas":"10000000","transaction_tag":null,"created_contract":null,"value":"5","from":{"ens_domain_name":null,"hash":"0x6eCD192e529a958E7E5CcA3f81C4ce029d29381D","implementations":[],"is_contract":false,"is_scam":false,"is_verified":false,"metadata":null,"name":null,"private_tags":[],"proxy_type":null,"public_tags":[],"reputation":"ok","watchlist_names":[]},"gas_used":null,"status":null,"to":{"ens_domain_name":null,"hash":"0x7a250d5630B4cF539739dF2C5dAcb4c659F2488D","implementations":[],"is_contract":true,"is_scam":false,"is_verified":true,"metadata":{"tags":[{"meta":{"bgColor":"#FFFFFF","projectName":"Uniswap V2","tagUrl":"https://app.klerosscout.eth.limo/#/?registry=Single_Tags&itemdetails=0x21dee62fd8759eac196977676d698320331baf2d86a275f6fd61b587d90cafc8@0x66260c69d03837016d88c9877e61e08ef74c59f2","textColor":"#FF007A","tooltipDescription":"Up-to-date Uniswap V2 Router contract.","tooltipUrl":"https://app.uniswap.org/#/swap","verifiedDomains":["app.thorswap.finance","app.uniswap.org"]},"name":"Uniswap V3: Universal Router","ordinal":10,"slug":"uniswap-v3-universal-router","tagType":"name"},{"meta":{},"name":"DEX","ordinal":0,"slug":"dex","tagType":"generic"},{"meta":{"appID":"uniswap","bgColor":"#FF007A","tagIcon":"https://blockscout-content.s3.amazonaws.com/uniswap.png","tagUrl":"https://uniswap.org/?utm_source=Blockscout","textColor":"#FFFFFF","tooltipDescription":"Trade crypto and NFTs safely on the top DeFi platform. Swapping made simple. Buy and sell crypto on Ethereum, Base, Arbitrum, Polygon, and more.","tooltipTitle":"Uniswap","tooltipUrl":"https://uniswap.org/?utm_source=Blockscout"},"name":"Uniswap V2","ordinal":0,"slug":"uniswap-v2","tagType":"protocol"}]},"name":"UniswapV2Router02","private_tags":[],"proxy_type":null,"public_tags":[],"reputation":"ok","watchlist_names":[]},"authorization_list":[],"method":"swapExactETHForTokens","fee":{"type":"maximum","value":"1800000000000"},"actions":[],"gas_limit":"180000","gas_price":"10000000","decoded_input":{"method_call":"swapExactETHForTokens(uint256 amountOutMin, address[] path, address to, uint256 deadline)","method_id":"7ff36ab5","parameters":[{"name":"amountOutMin","type":"uint256","value":"1"},{"name":"path","type":"address[]","value":["0xC02aaA39b223FE8D0A0e5C4F27eAD9083C756Cc2","0xc427087C9eB3c0Fd8ac188457b6EC1351C7209cA"]},{"name":"to","type":"address","value":"0x6eCD192e529a958E7E5CcA3f81C4ce029d29381D"},{"name":"deadline","type":"uint256","value":"1747751910"}]},"token_transfers":null,"base_fee_per_gas":null,"timestamp":null,"nonce":0,"historic_exchange_rate":null,"transaction_types":["coin_transfer","contract_call"],"exchange_rate":"3891.99","block_number":null,"has_error_in_internal_transactions":null},{"priority_fee":null,"raw_input":"0x7ff36ab50000000000000000000000000000000000000000002690000e35bb98d3b539c7000000000000000000000000000000000000000000000000000000000000008000000000000000000000000073d5fcb763303846a5e9ccda9ab601c83b1c74610000000000000000000000000000000000000000000000000000000060aafb4b0000000000000000000000000000000000000000000000000000000000000002000000000000000000000000c02aaa39b223fe8d0a0e5c4f27ead9083c756cc20000000000000000000000000342ac5dfad866985dde477caa85027a3c01a334","is_pending_update":null,"result":"pending","hash":"0xd1e284c68a81e19abcf5aaaadaac4bafeb529411ab74f1658daf6e3215623357","max_fee_per_gas":null,"revert_reason":null,"confirmation_duration":[],"transaction_burnt_fee":null,"type":0,"token_transfers_overflow":null,"confirmations":0,"position":null,"max_priority_fee_per_gas":null,"transaction_tag":null,"created_contract":null,"value":"3182000000000000","from":{"ens_domain_name":null,"hash":"0x73D5FcB763303846a5e9CcDA9Ab601C83B1c7461","implementations":[],"is_contract":false,"is_scam":false,"is_verified":false,"metadata":null,"name":null,"private_tags":[],"proxy_type":null,"public_tags":[],"reputation":"ok","watchlist_names":[]},"gas_used":null,"status":null,"to":{"ens_domain_name":null,"hash":"0x7a250d5630B4cF539739dF2C5dAcb4c659F2488D","implementations":[],"is_contract":true,"is_scam":false,"is_verified":true,"metadata":{"tags":[{"meta":{"bgColor":"#FFFFFF","projectName":"Uniswap V2","tagUrl":"https://app.klerosscout.eth.limo/#/?registry=Single_Tags&itemdetails=0x21dee62fd8759eac196977676d698320331baf2d86a275f6fd61b587d90cafc8@0x66260c69d03837016d88c9877e61e08ef74c59f2","textColor":"#FF007A","tooltipDescription":"Up-to-date Uniswap V2 Router contract.","tooltipUrl":"https://app.uniswap.org/#/swap","verifiedDomains":["app.thorswap.finance","app.uniswap.org"]},"name":"Uniswap V3: Universal Router","ordinal":10,"slug":"uniswap-v3-universal-router","tagType":"name"},{"meta":{},"name":"DEX","ordinal":0,"slug":"dex","tagType":"generic"},{"meta":{"appID":"uniswap","bgColor":"#FF007A","tagIcon":"https://blockscout-content.s3.amazonaws.com/uniswap.png","tagUrl":"https://uniswap.org/?utm_source=Blockscout","textColor":"#FFFFFF","tooltipDescription":"Trade crypto and NFTs safely on the top DeFi platform. Swapping made simple. Buy and sell crypto on Ethereum, Base, Arbitrum, Polygon, and more.","tooltipTitle":"Uniswap","tooltipUrl":"https://uniswap.org/?utm_source=Blockscout"},"name":"Uniswap V2","ordinal":0,"slug":"uniswap-v2","tagType":"protocol"}]},"name":"UniswapV2Router02","private_tags":[],"proxy_type":null,"public_tags":[],"reputation":"ok","watchlist_names":[]},"authorization_list":[],"method":"swapExactETHForTokens","fee":{"type":"maximum","value":"40765640000"},"actions":[],"gas_limit":"214556","gas_price":"190000","decoded_input":{"method_call":"swapExactETHForTokens(uint256 amountOutMin, address[] path, address to, uint256 deadline)","method_id":"7ff36ab5","parameters":[{"name":"amountOutMin","type":"uint256","value":"46619202942819892907555271"},{"name":"path","type":"address[]","value":["0xC02aaA39b223FE8D0A0e5C4F27eAD9083C756Cc2","0x0342ac5dfaD866985Dde477caa85027A3C01a334"]},{"name":"to","type":"address","value":"0x73D5FcB763303846a5e9CcDA9Ab601C83B1c7461"},{"name":"deadline","type":"uint256","value":"1621818187"}]},"token_transfers":null,"base_fee_per_gas":null,"timestamp":null,"nonce":0,"historic_exchange_rate":null,"transaction_types":["coin_transfer","contract_call"],"exchange_rate":"3891.99","block_number":null,"has_error_in_internal_transactions":null},{"priority_fee":null,"raw_input":"0x7ff36ab50000000000000000000000000000000000000000000000009ce5bcbf1fb474bb00000000000000000000000000000000000000000000000000000000000000800000000000000000000000007c6a62ef269b53b0b45f5fe375e9e8780229ad8e00000000000000000000000000000000000000000000000000000000611ce4c60000000000000000000000000000000000000000000000000000000000000002000000000000000000000000c02aaa39b223fe8d0a0e5c4f27ead9083c756cc20000000000000000000000003431f91b3a388115f00c5ba9fdb899851d005fb5","is_pending_update":null,"result":"pending","hash":"0x6e1549129ec078a2ecb369edd69036df5af9586140fa1d4abd6ac33538669037","max_fee_per_gas":null,"revert_reason":null,"confirmation_duration":[],"transaction_burnt_fee":null,"type":0,"token_transfers_overflow":null,"confirmations":0,"position":null,"max_priority_fee_per_gas":null,"transaction_tag":null,"created_contract":null,"value":"1040000000000000","from":{"ens_domain_name":null,"hash":"0x7c6a62Ef269b53B0b45f5fE375e9e8780229aD8e","implementations":[],"is_contract":false,"is_scam":false,"is_verified":false,"metadata":null,"name":null,"private_tags":[],"proxy_type":null,"public_tags":[],"reputation":"ok","watchlist_names":[]},"gas_used":null,"status":null,"to":{"ens_domain_name":null,"hash":"0x7a250d5630B4cF539739dF2C5dAcb4c659F2488D","implementations":[],"is_contract":true,"is_scam":false,"is_verified":true,"metadata":{"tags":[{"meta":{"bgColor":"#FFFFFF","projectName":"Uniswap V2","tagUrl":"https://app.klerosscout.eth.limo/#/?registry=Single_Tags&itemdetails=0x21dee62fd8759eac196977676d698320331baf2d86a275f6fd61b587d90cafc8@0x66260c69d03837016d88c9877e61e08ef74c59f2","textColor":"#FF007A","tooltipDescription":"Up-to-date Uniswap V2 Router contract.","tooltipUrl":"https://app.uniswap.org/#/swap","verifiedDomains":["app.thorswap.finance","app.uniswap.org"]},"name":"Uniswap V3: Universal Router","ordinal":10,"slug":"uniswap-v3-universal-router","tagType":"name"},{"meta":{},"name":"DEX","ordinal":0,"slug":"dex","tagType":"generic"},{"meta":{"appID":"uniswap","bgColor":"#FF007A","tagIcon":"https://blockscout-content.s3.amazonaws.com/uniswap.png","tagUrl":"https://uniswap.org/?utm_source=Blockscout","textColor":"#FFFFFF","tooltipDescription":"Trade crypto and NFTs safely on the top DeFi platform. Swapping made simple. Buy and sell crypto on Ethereum, Base, Arbitrum, Polygon, and more.","tooltipTitle":"Uniswap","tooltipUrl":"https://uniswap.org/?utm_source=Blockscout"},"name":"Uniswap V2","ordinal":0,"slug":"uniswap-v2","tagType":"protocol"}]},"name":"UniswapV2Router02","private_tags":[],"proxy_type":null,"public_tags":[],"reputation":"ok","watchlist_names":[]},"authorization_list":[],"method":"swapExactETHForTokens","fee":{"type":"maximum","value":"3008464031124"},"actions":[],"gas_limit":"179028","gas_price":"16804433","decoded_input":{"method_call":"swapExactETHForTokens(uint256 amountOutMin, address[] path, address to, uint256 deadline)","method_id":"7ff36ab5","parameters":[{"name":"amountOutMin","type":"uint256","value":"11305649968640193723"},{"name":"path","type":"address[]","value":["0xC02aaA39b223FE8D0A0e5C4F27eAD9083C756Cc2","0x3431F91b3a388115F00C5Ba9FdB899851D005Fb5"]},{"name":"to","type":"address","value":"0x7c6a62Ef269b53B0b45f5fE375e9e8780229aD8e"},{"name":"deadline","type":"uint256","value":"1629283526"}]},"token_transfers":null,"base_fee_per_gas":null,"timestamp":null,"nonce":1,"historic_exchange_rate":null,"transaction_types":["coin_transfer","contract_call"],"exchange_rate":"3891.99","block_number":null,"has_error_in_internal_transactions":null},{"priority_fee":null,"raw_input":"0xfb3bdb4100000000000000000000000000000000000000000000f021e60a729c119603800000000000000000000000000000000000000000000000000000000000000080000000000000000000000000dddd3ed0dd32c914a3df97d12ac109293501494c0000000000000000000000000000000000000000000000000000000060b3e00f0000000000000000000000000000000000000000000000000000000000000002000000000000000000000000c02aaa39b223fe8d0a0e5c4f27ead9083c756cc200000000000000000000000095ad61b0a150d79219dcf64e1e6cc01f0b64c4ce","is_pending_update":null,"result":"pending","hash":"0x1255e67f357863ab3e6cbdfca16c05a31e9b0fe3ed3d3f41f3e3e43f1b680c86","max_fee_per_gas":null,"revert_reason":null,"confirmation_duration":[],"transaction_burnt_fee":null,"type":0,"token_transfers_overflow":null,"confirmations":0,"position":null,"max_priority_fee_per_gas":null,"transaction_tag":null,"created_contract":null,"value":"3693701492850765","from":{"ens_domain_name":null,"hash":"0xDddd3eD0Dd32c914A3Df97d12aC109293501494C","implementations":[],"is_contract":false,"is_scam":false,"is_verified":false,"metadata":null,"name":null,"private_tags":[],"proxy_type":null,"public_tags":[],"reputation":"ok","watchlist_names":[]},"gas_used":null,"status":null,"to":{"ens_domain_name":null,"hash":"0x7a250d5630B4cF539739dF2C5dAcb4c659F2488D","implementations":[],"is_contract":true,"is_scam":false,"is_verified":true,"metadata":{"tags":[{"meta":{"bgColor":"#FFFFFF","projectName":"Uniswap V2","tagUrl":"https://app.klerosscout.eth.limo/#/?registry=Single_Tags&itemdetails=0x21dee62fd8759eac196977676d698320331baf2d86a275f6fd61b587d90cafc8@0x66260c69d03837016d88c9877e61e08ef74c59f2","textColor":"#FF007A","tooltipDescription":"Up-to-date Uniswap V2 Router contract.","tooltipUrl":"https://app.uniswap.org/#/swap","verifiedDomains":["app.thorswap.finance","app.uniswap.org"]},"name":"Uniswap V3: Universal Router","ordinal":10,"slug":"uniswap-v3-universal-router","tagType":"name"},{"meta":{},"name":"DEX","ordinal":0,"slug":"dex","tagType":"generic"},{"meta":{"appID":"uniswap","bgColor":"#FF007A","tagIcon":"https://blockscout-content.s3.amazonaws.com/uniswap.png","tagUrl":"https://uniswap.org/?utm_source=Blockscout","textColor":"#FFFFFF","tooltipDescription":"Trade crypto and NFTs safely on the top DeFi platform. Swapping made simple. Buy and sell crypto on Ethereum, Base, Arbitrum, Polygon, and more.","tooltipTitle":"Uniswap","tooltipUrl":"https://uniswap.org/?utm_source=Blockscout"},"name":"Uniswap V2","ordinal":0,"slug":"uniswap-v2","tagType":"protocol"}]},"name":"UniswapV2Router02","private_tags":[],"proxy_type":null,"public_tags":[],"reputation":"ok","watchlist_names":[]},"authorization_list":[],"method":"swapETHForExactTokens","fee":{"type":"maximum","value":"14784216600000"},"actions":[],"gas_limit":"600000","gas_price":"24640361","decoded_input":{"method_call":"swapETHForExactTokens(uint256 amountOut, address[] path, address to, uint256 deadline)","method_id":"fb3bdb41","parameters":[{"name":"amountOut","type":"uint256","value":"1133993274630540392530816"},{"name":"path","type":"address[]","value":["0xC02aaA39b223FE8D0A0e5C4F27eAD9083C756Cc2","0x95aD61b0a150d79219dCF64E1E6Cc01f0B64C4cE"]},{"name":"to","type":"address","value":"0xDddd3eD0Dd32c914A3Df97d12aC109293501494C"},{"name":"deadline","type":"uint256","value":"1622401039"}]},"token_transfers":null,"base_fee_per_gas":null,"timestamp":null,"nonce":11,"historic_exchange_rate":null,"transaction_types":["coin_transfer","contract_call"],"exchange_rate":"3891.99","block_number":null,"has_error_in_internal_transactions":null},{"priority_fee":null,"raw_input":"0x7ff36ab5000000000000000000000000000000000000000000541226e9483e1e416992e500000000000000000000000000000000000000000000000000000000000000800000000000000000000000003a8b72c0242b79f248a571e582a0059685c25c330000000000000000000000000000000000000000000000000000000060b6d1750000000000000000000000000000000000000000000000000000000000000002000000000000000000000000c02aaa39b223fe8d0a0e5c4f27ead9083c756cc200000000000000000000000015874d65e649880c2614e7a480cb7c9a55787ff6","is_pending_update":null,"result":"pending","hash":"0x3c07a2bb5dc92a21f12232bcc606376ad111252158ff9df94cc396d80ffd1722","max_fee_per_gas":null,"revert_reason":null,"confirmation_duration":[],"transaction_burnt_fee":null,"type":0,"token_transfers_overflow":null,"confirmations":0,"position":null,"max_priority_fee_per_gas":null,"transaction_tag":null,"created_contract":null,"value":"15285926000000000","from":{"ens_domain_name":null,"hash":"0x3a8b72c0242B79F248A571E582a0059685C25C33","implementations":[],"is_contract":false,"is_scam":false,"is_verified":false,"metadata":null,"name":null,"private_tags":[],"proxy_type":null,"public_tags":[],"reputation":"ok","watchlist_names":[]},"gas_used":null,"status":null,"to":{"ens_domain_name":null,"hash":"0x7a250d5630B4cF539739dF2C5dAcb4c659F2488D","implementations":[],"is_contract":true,"is_scam":false,"is_verified":true,"metadata":{"tags":[{"meta":{"bgColor":"#FFFFFF","projectName":"Uniswap V2","tagUrl":"https://app.klerosscout.eth.limo/#/?registry=Single_Tags&itemdetails=0x21dee62fd8759eac196977676d698320331baf2d86a275f6fd61b587d90cafc8@0x66260c69d03837016d88c9877e61e08ef74c59f2","textColor":"#FF007A","tooltipDescription":"Up-to-date Uniswap V2 Router contract.","tooltipUrl":"https://app.uniswap.org/#/swap","verifiedDomains":["app.thorswap.finance","app.uniswap.org"]},"name":"Uniswap V3: Universal Router","ordinal":10,"slug":"uniswap-v3-universal-router","tagType":"name"},{"meta":{},"name":"DEX","ordinal":0,"slug":"dex","tagType":"generic"},{"meta":{"appID":"uniswap","bgColor":"#FF007A","tagIcon":"https://blockscout-content.s3.amazonaws.com/uniswap.png","tagUrl":"https://uniswap.org/?utm_source=Blockscout","textColor":"#FFFFFF","tooltipDescription":"Trade crypto and NFTs safely on the top DeFi platform. Swapping made simple. Buy and sell crypto on Ethereum, Base, Arbitrum, Polygon, and more.","tooltipTitle":"Uniswap","tooltipUrl":"https://uniswap.org/?utm_source=Blockscout"},"name":"Uniswap V2","ordinal":0,"slug":"uniswap-v2","tagType":"protocol"}]},"name":"UniswapV2Router02","private_tags":[],"proxy_type":null,"public_tags":[],"reputation":"ok","watchlist_names":[]},"authorization_list":[],"method":"swapExactETHForTokens","fee":{"type":"maximum","value":"178689"},"actions":[],"gas_limit":"178689","gas_price":"1","decoded_input":{"method_call":"swapExactETHForTokens(uint256 amountOutMin, address[] path, address to, uint256 deadline)","method_id":"7ff36ab5","parameters":[{"name":"amountOutMin","type":"uint256","value":"101635489230349214079881957"},{"name":"path","type":"address[]","value":["0xC02aaA39b223FE8D0A0e5C4F27eAD9083C756Cc2","0x15874d65e649880c2614e7a480cb7c9A55787FF6"]},{"name":"to","type":"address","value":"0x3a8b72c0242B79F248A571E582a0059685C25C33"},{"name":"deadline","type":"uint256","value":"1622593909"}]},"token_transfers":null,"base_fee_per_gas":null,"timestamp":null,"nonce":16,"historic_exchange_rate":null,"transaction_types":["coin_transfer","contract_call"],"exchange_rate":"3891.99","block_number":null,"has_error_in_internal_transactions":null},{"priority_fee":null,"raw_input":"0x7ff36ab5000000000000000000000000000000000000000004af10abbc3a1d7e30b5793f00000000000000000000000000000000000000000000000000000000000000800000000000000000000000003a8b72c0242b79f248a571e582a0059685c25c330000000000000000000000000000000000000000000000000000000060baa20b0000000000000000000000000000000000000000000000000000000000000002000000000000000000000000c02aaa39b223fe8d0a0e5c4f27ead9083c756cc200000000000000000000000015874d65e649880c2614e7a480cb7c9a55787ff6","is_pending_update":null,"result":"pending","hash":"0x8fd17c31e37e86e4f709965d090d323e3db30e1e26ca82b81d6895c7ac23d73c","max_fee_per_gas":null,"revert_reason":null,"confirmation_duration":[],"transaction_burnt_fee":null,"type":0,"token_transfers_overflow":null,"confirmations":0,"position":null,"max_priority_fee_per_gas":null,"transaction_tag":null,"created_contract":null,"value":"175540116000000000","from":{"ens_domain_name":null,"hash":"0x3a8b72c0242B79F248A571E582a0059685C25C33","implementations":[],"is_contract":false,"is_scam":false,"is_verified":false,"metadata":null,"name":null,"private_tags":[],"proxy_type":null,"public_tags":[],"reputation":"ok","watchlist_names":[]},"gas_used":null,"status":null,"to":{"ens_domain_name":null,"hash":"0x7a250d5630B4cF539739dF2C5dAcb4c659F2488D","implementations":[],"is_contract":true,"is_scam":false,"is_verified":true,"metadata":{"tags":[{"meta":{"bgColor":"#FFFFFF","projectName":"Uniswap V2","tagUrl":"https://app.klerosscout.eth.limo/#/?registry=Single_Tags&itemdetails=0x21dee62fd8759eac196977676d698320331baf2d86a275f6fd61b587d90cafc8@0x66260c69d03837016d88c9877e61e08ef74c59f2","textColor":"#FF007A","tooltipDescription":"Up-to-date Uniswap V2 Router contract.","tooltipUrl":"https://app.uniswap.org/#/swap","verifiedDomains":["app.thorswap.finance","app.uniswap.org"]},"name":"Uniswap V3: Universal Router","ordinal":10,"slug":"uniswap-v3-universal-router","tagType":"name"},{"meta":{},"name":"DEX","ordinal":0,"slug":"dex","tagType":"generic"},{"meta":{"appID":"uniswap","bgColor":"#FF007A","tagIcon":"https://blockscout-content.s3.amazonaws.com/uniswap.png","tagUrl":"https://uniswap.org/?utm_source=Blockscout","textColor":"#FFFFFF","tooltipDescription":"Trade crypto and NFTs safely on the top DeFi platform. Swapping made simple. Buy and sell crypto on Ethereum, Base, Arbitrum, Polygon, and more.","tooltipTitle":"Uniswap","tooltipUrl":"https://uniswap.org/?utm_source=Blockscout"},"name":"Uniswap V2","ordinal":0,"slug":"uniswap-v2","tagType":"protocol"}]},"name":"UniswapV2Router02","private_tags":[],"proxy_type":null,"public_tags":[],"reputation":"ok","watchlist_names":[]},"authorization_list":[],"method":"swapExactETHForTokens","fee":{"type":"maximum","value":"4110192000000000"},"actions":[],"gas_limit":"178704","gas_price":"23000000000","decoded_input":{"method_call":"swapExactETHForTokens(uint256 amountOutMin, address[] path, address to, uint256 deadline)","method_id":"7ff36ab5","parameters":[{"name":"amountOutMin","type":"uint256","value":"1449580783538088554729404735"},{"name":"path","type":"address[]","value":["0xC02aaA39b223FE8D0A0e5C4F27eAD9083C756Cc2","0x15874d65e649880c2614e7a480cb7c9A55787FF6"]},{"name":"to","type":"address","value":"0x3a8b72c0242B79F248A571E582a0059685C25C33"},{"name":"deadline","type":"uint256","value":"1622843915"}]},"token_transfers":null,"base_fee_per_gas":null,"timestamp":null,"nonce":18,"historic_exchange_rate":null,"transaction_types":["coin_transfer","contract_call"],"exchange_rate":"3891.99","block_number":null,"has_error_in_internal_transactions":null},{"priority_fee":null,"raw_input":"0xfb3bdb41000000000000000000000000000000000000000000001906ee5a132cebfdf75400000000000000000000000000000000000000000000000000000000000000800000000000000000000000004f3a54648618b0547d04818ef998f1a7b335f48d0000000000000000000000000000000000000000000000000000000061100ae90000000000000000000000000000000000000000000000000000000000000002000000000000000000000000c02aaa39b223fe8d0a0e5c4f27ead9083c756cc200000000000000000000000095ad61b0a150d79219dcf64e1e6cc01f0b64c4ce","is_pending_update":null,"result":"pending","hash":"0xf4a95ef6c472126d4117c158f7e1ead75d871caff735de26c314a0c657e08e71","max_fee_per_gas":null,"revert_reason":null,"confirmation_duration":[],"transaction_burnt_fee":null,"type":0,"token_transfers_overflow":null,"confirmations":0,"position":null,"max_priority_fee_per_gas":null,"transaction_tag":null,"created_contract":null,"value":"303000000000000","from":{"ens_domain_name":null,"hash":"0x4F3A54648618B0547D04818EF998F1a7b335f48D","implementations":[],"is_contract":false,"is_scam":false,"is_verified":false,"metadata":null,"name":null,"private_tags":[],"proxy_type":null,"public_tags":[],"reputation":"ok","watchlist_names":[]},"gas_used":null,"status":null,"to":{"ens_domain_name":null,"hash":"0x7a250d5630B4cF539739dF2C5dAcb4c659F2488D","implementations":[],"is_contract":true,"is_scam":false,"is_verified":true,"metadata":{"tags":[{"meta":{"bgColor":"#FFFFFF","projectName":"Uniswap V2","tagUrl":"https://app.klerosscout.eth.limo/#/?registry=Single_Tags&itemdetails=0x21dee62fd8759eac196977676d698320331baf2d86a275f6fd61b587d90cafc8@0x66260c69d03837016d88c9877e61e08ef74c59f2","textColor":"#FF007A","tooltipDescription":"Up-to-date Uniswap V2 Router contract.","tooltipUrl":"https://app.uniswap.org/#/swap","verifiedDomains":["app.thorswap.finance","app.uniswap.org"]},"name":"Uniswap V3: Universal Router","ordinal":10,"slug":"uniswap-v3-universal-router","tagType":"name"},{"meta":{},"name":"DEX","ordinal":0,"slug":"dex","tagType":"generic"},{"meta":{"appID":"uniswap","bgColor":"#FF007A","tagIcon":"https://blockscout-content.s3.amazonaws.com/uniswap.png","tagUrl":"https://uniswap.org/?utm_source=Blockscout","textColor":"#FFFFFF","tooltipDescription":"Trade crypto and NFTs safely on the top DeFi platform. Swapping made simple. Buy and sell crypto on Ethereum, Base, Arbitrum, Polygon, and more.","tooltipTitle":"Uniswap","tooltipUrl":"https://uniswap.org/?utm_source=Blockscout"},"name":"Uniswap V2","ordinal":0,"slug":"uniswap-v2","tagType":"protocol"}]},"name":"UniswapV2Router02","private_tags":[],"proxy_type":null,"public_tags":[],"reputation":"ok","watchlist_names":[]},"authorization_list":[],"method":"swapETHForExactTokens","fee":{"type":"maximum","value":"600000000000"},"actions":[],"gas_limit":"600000","gas_price":"1000000","decoded_input":{"method_call":"swapETHForExactTokens(uint256 amountOut, address[] path, address to, uint256 deadline)","method_id":"fb3bdb41","parameters":[{"name":"amountOut","type":"uint256","value":"118187017597395977238356"},{"name":"path","type":"address[]","value":["0xC02aaA39b223FE8D0A0e5C4F27eAD9083C756Cc2","0x95aD61b0a150d79219dCF64E1E6Cc01f0B64C4cE"]},{"name":"to","type":"address","value":"0x4F3A54648618B0547D04818EF998F1a7b335f48D"},{"name":"deadline","type":"uint256","value":"1628441321"}]},"token_transfers":null,"base_fee_per_gas":null,"timestamp":null,"nonce":1,"historic_exchange_rate":null,"transaction_types":["coin_transfer","contract_call"],"exchange_rate":"3891.99","block_number":null,"has_error_in_internal_transactions":null},{"priority_fee":null,"raw_input":"0x7ff36ab5000000000000000000000000000000000000000000000000000000000000000100000000000000000000000000000000000000000000000000000000000000800000000000000000000000008de03f030fef85d6951aa8a1c225d3b8bd21941700000000000000000000000000000000000000000000000000000000682c93e60000000000000000000000000000000000000000000000000000000000000002000000000000000000000000c02aaa39b223fe8d0a0e5c4f27ead9083c756cc2000000000000000000000000c427087c9eb3c0fd8ac188457b6ec1351c7209ca","is_pending_update":null,"result":"pending","hash":"0x4d0c06125f05956a99c6e8700fa7837e1f598a6592356c47c538faa5fc717e13","max_fee_per_gas":"10000000","revert_reason":null,"confirmation_duration":[],"transaction_burnt_fee":null,"type":2,"token_transfers_overflow":null,"confirmations":0,"position":null,"max_priority_fee_per_gas":"10000000","transaction_tag":null,"created_contract":null,"value":"10","from":{"ens_domain_name":null,"hash":"0x8De03f030FEF85D6951AA8a1c225d3b8bd219417","implementations":[],"is_contract":false,"is_scam":false,"is_verified":false,"metadata":null,"name":null,"private_tags":[],"proxy_type":null,"public_tags":[],"reputation":"ok","watchlist_names":[]},"gas_used":null,"status":null,"to":{"ens_domain_name":null,"hash":"0x7a250d5630B4cF539739dF2C5dAcb4c659F2488D","implementations":[],"is_contract":true,"is_scam":false,"is_verified":true,"metadata":{"tags":[{"meta":{"bgColor":"#FFFFFF","projectName":"Uniswap V2","tagUrl":"https://app.klerosscout.eth.limo/#/?registry=Single_Tags&itemdetails=0x21dee62fd8759eac196977676d698320331baf2d86a275f6fd61b587d90cafc8@0x66260c69d03837016d88c9877e61e08ef74c59f2","textColor":"#FF007A","tooltipDescription":"Up-to-date Uniswap V2 Router contract.","tooltipUrl":"https://app.uniswap.org/#/swap","verifiedDomains":["app.thorswap.finance","app.uniswap.org"]},"name":"Uniswap V3: Universal Router","ordinal":10,"slug":"uniswap-v3-universal-router","tagType":"name"},{"meta":{},"name":"DEX","ordinal":0,"slug":"dex","tagType":"generic"},{"meta":{"appID":"uniswap","bgColor":"#FF007A","tagIcon":"https://blockscout-content.s3.amazonaws.com/uniswap.png","tagUrl":"https://uniswap.org/?utm_source=Blockscout","textColor":"#FFFFFF","tooltipDescription":"Trade crypto and NFTs safely on the top DeFi platform. Swapping made simple. Buy and sell crypto on Ethereum, Base, Arbitrum, Polygon, and more.","tooltipTitle":"Uniswap","tooltipUrl":"https://uniswap.org/?utm_source=Blockscout"},"name":"Uniswap V2","ordinal":0,"slug":"uniswap-v2","tagType":"protocol"}]},"name":"UniswapV2Router02","private_tags":[],"proxy_type":null,"public_tags":[],"reputation":"ok","watchlist_names":[]},"authorization_list":[],"method":"swapExactETHForTokens","fee":{"type":"maximum","value":"1800000000000"},"actions":[],"gas_limit":"180000","gas_price":"10000000","decoded_input":{"method_call":"swapExactETHForTokens(uint256 amountOutMin, address[] path, address to, uint256 deadline)","method_id":"7ff36ab5","parameters":[{"name":"amountOutMin","type":"uint256","value":"1"},{"name":"path","type":"address[]","value":["0xC02aaA39b223FE8D0A0e5C4F27eAD9083C756Cc2","0xc427087C9eB3c0Fd8ac188457b6EC1351C7209cA"]},{"name":"to","type":"address","value":"0x8De03f030FEF85D6951AA8a1c225d3b8bd219417"},{"name":"deadline","type":"uint256","value":"1747751910"}]},"token_transfers":null,"base_fee_per_gas":null,"timestamp":null,"nonce":0,"historic_exchange_rate":null,"transaction_types":["coin_transfer","contract_call"],"exchange_rate":"3891.99","block_number":null,"has_error_in_internal_transactions":null}],"next_page_params":{"index":null,"value":"10","hash":"0x4d0c06125f05956a99c6e8700fa7837e1f598a6592356c47c538faa5fc717e13","inserted_at":"2025-10-23T02:30:15.367053Z","block_number":null,"fee":"1800000000000","items_count":50,"items_count":50}}